{
  "compilerInput": "{\"language\":\"Solidity\",\"sources\":{\"github/ava-labs/multicall/src/Multicall3.sol\":{\"content\":\"// SPDX-License-Identifier: MIT\\npragma solidity 0.8.12;\\n\\n/// @title Multicall3\\n/// @notice Aggregate results from multiple function calls\\n/// @dev Multicall & Multicall2 backwards-compatible\\n/// @dev Aggregate methods are marked `payable` to save 24 gas per call\\n/// @author Michael Elliot <mike@makerdao.com>\\n/// @author Joshua Levine <joshua@makerdao.com>\\n/// @author Nick Johnson <arachnid@notdot.net>\\n/// @author Andreas Bigger <andreas@nascent.xyz>\\n/// @author Matt Solomon <matt@mattsolomon.dev>\\ncontract Multicall3 {\\n    struct Call {\\n        address target;\\n        bytes callData;\\n    }\\n\\n    struct Call3 {\\n        address target;\\n        bool allowFailure;\\n        bytes callData;\\n    }\\n\\n    struct Call3Value {\\n        address target;\\n        bool allowFailure;\\n        uint256 value;\\n        bytes callData;\\n    }\\n\\n    struct Result {\\n        bool success;\\n        bytes returnData;\\n    }\\n\\n    /// @notice Backwards-compatible call aggregation with Multicall\\n    /// @param calls An array of Call structs\\n    /// @return blockNumber The block number where the calls were executed\\n    /// @return returnData An array of bytes containing the responses\\n    function aggregate(Call[] calldata calls) public payable returns (uint256 blockNumber, bytes[] memory returnData) {\\n        blockNumber = block.number;\\n        uint256 length = calls.length;\\n        returnData = new bytes[](length);\\n        Call calldata call;\\n        for (uint256 i = 0; i < length;) {\\n            bool success;\\n            call = calls[i];\\n            (success, returnData[i]) = call.target.call(call.callData);\\n            require(success, \\\"Multicall3: call failed\\\");\\n            unchecked { ++i; }\\n        }\\n    }\\n\\n    /// @notice Backwards-compatible with Multicall2\\n    /// @notice Aggregate calls without requiring success\\n    /// @param requireSuccess If true, require all calls to succeed\\n    /// @param calls An array of Call structs\\n    /// @return returnData An array of Result structs\\n    function tryAggregate(bool requireSuccess, Call[] calldata calls) public payable returns (Result[] memory returnData) {\\n        uint256 length = calls.length;\\n        returnData = new Result[](length);\\n        Call calldata call;\\n        for (uint256 i = 0; i < length;) {\\n            Result memory result = returnData[i];\\n            call = calls[i];\\n            (result.success, result.returnData) = call.target.call(call.callData);\\n            if (requireSuccess) require(result.success, \\\"Multicall3: call failed\\\");\\n            unchecked { ++i; }\\n        }\\n    }\\n\\n    /// @notice Backwards-compatible with Multicall2\\n    /// @notice Aggregate calls and allow failures using tryAggregate\\n    /// @param calls An array of Call structs\\n    /// @return blockNumber The block number where the calls were executed\\n    /// @return blockHash The hash of the block where the calls were executed\\n    /// @return returnData An array of Result structs\\n    function tryBlockAndAggregate(bool requireSuccess, Call[] calldata calls) public payable returns (uint256 blockNumber, bytes32 blockHash, Result[] memory returnData) {\\n        blockNumber = block.number;\\n        blockHash = blockhash(block.number);\\n        returnData = tryAggregate(requireSuccess, calls);\\n    }\\n\\n    /// @notice Backwards-compatible with Multicall2\\n    /// @notice Aggregate calls and allow failures using tryAggregate\\n    /// @param calls An array of Call structs\\n    /// @return blockNumber The block number where the calls were executed\\n    /// @return blockHash The hash of the block where the calls were executed\\n    /// @return returnData An array of Result structs\\n    function blockAndAggregate(Call[] calldata calls) public payable returns (uint256 blockNumber, bytes32 blockHash, Result[] memory returnData) {\\n        (blockNumber, blockHash, returnData) = tryBlockAndAggregate(true, calls);\\n    }\\n\\n    /// @notice Aggregate calls, ensuring each returns success if required\\n    /// @param calls An array of Call3 structs\\n    /// @return returnData An array of Result structs\\n    function aggregate3(Call3[] calldata calls) public payable returns (Result[] memory returnData) {\\n        uint256 length = calls.length;\\n        returnData = new Result[](length);\\n        Call3 calldata calli;\\n        for (uint256 i = 0; i < length;) {\\n            Result memory result = returnData[i];\\n            calli = calls[i];\\n            (result.success, result.returnData) = calli.target.call(calli.callData);\\n            assembly {\\n                // Revert if the call fails and failure is not allowed\\n                // `allowFailure := calldataload(add(calli, 0x20))` and `success := mload(result)`\\n                if iszero(or(calldataload(add(calli, 0x20)), mload(result))) {\\n                    // set \\\"Error(string)\\\" signature: bytes32(bytes4(keccak256(\\\"Error(string)\\\")))\\n                    mstore(0x00, 0x08c379a000000000000000000000000000000000000000000000000000000000)\\n                    // set data offset\\n                    mstore(0x04, 0x0000000000000000000000000000000000000000000000000000000000000020)\\n                    // set length of revert string\\n                    mstore(0x24, 0x0000000000000000000000000000000000000000000000000000000000000017)\\n                    // set revert string: bytes32(abi.encodePacked(\\\"Multicall3: call failed\\\"))\\n                    mstore(0x44, 0x4d756c746963616c6c333a2063616c6c206661696c6564000000000000000000)\\n                    revert(0x00, 0x64)\\n                }\\n            }\\n            unchecked { ++i; }\\n        }\\n    }\\n\\n    /// @notice Aggregate calls with a msg value\\n    /// @notice Reverts if msg.value is less than the sum of the call values\\n    /// @param calls An array of Call3Value structs\\n    /// @return returnData An array of Result structs\\n    function aggregate3Value(Call3Value[] calldata calls) public payable returns (Result[] memory returnData) {\\n        uint256 valAccumulator;\\n        uint256 length = calls.length;\\n        returnData = new Result[](length);\\n        Call3Value calldata calli;\\n        for (uint256 i = 0; i < length;) {\\n            Result memory result = returnData[i];\\n            calli = calls[i];\\n            uint256 val = calli.value;\\n            // Humanity will be a Type V Kardashev Civilization before this overflows - andreas\\n            // ~ 10^25 Wei in existence << ~ 10^76 size uint fits in a uint256\\n            unchecked { valAccumulator += val; }\\n            (result.success, result.returnData) = calli.target.call{value: val}(calli.callData);\\n            assembly {\\n                // Revert if the call fails and failure is not allowed\\n                // `allowFailure := calldataload(add(calli, 0x20))` and `success := mload(result)`\\n                if iszero(or(calldataload(add(calli, 0x20)), mload(result))) {\\n                    // set \\\"Error(string)\\\" signature: bytes32(bytes4(keccak256(\\\"Error(string)\\\")))\\n                    mstore(0x00, 0x08c379a000000000000000000000000000000000000000000000000000000000)\\n                    // set data offset\\n                    mstore(0x04, 0x0000000000000000000000000000000000000000000000000000000000000020)\\n                    // set length of revert string\\n                    mstore(0x24, 0x0000000000000000000000000000000000000000000000000000000000000017)\\n                    // set revert string: bytes32(abi.encodePacked(\\\"Multicall3: call failed\\\"))\\n                    mstore(0x44, 0x4d756c746963616c6c333a2063616c6c206661696c6564000000000000000000)\\n                    revert(0x00, 0x84)\\n                }\\n            }\\n            unchecked { ++i; }\\n        }\\n        // Finally, make sure the msg.value = SUM(call[0...i].value)\\n        require(msg.value == valAccumulator, \\\"Multicall3: value mismatch\\\");\\n    }\\n\\n    /// @notice Returns the block hash for the given block number\\n    /// @param blockNumber The block number\\n    function getBlockHash(uint256 blockNumber) public view returns (bytes32 blockHash) {\\n        blockHash = blockhash(blockNumber);\\n    }\\n\\n    /// @notice Returns the block number\\n    function getBlockNumber() public view returns (uint256 blockNumber) {\\n        blockNumber = block.number;\\n    }\\n\\n    /// @notice Returns the block coinbase\\n    function getCurrentBlockCoinbase() public view returns (address coinbase) {\\n        coinbase = block.coinbase;\\n    }\\n\\n    /// @notice Returns the block difficulty\\n    function getCurrentBlockDifficulty() public view returns (uint256 difficulty) {\\n        difficulty = block.difficulty;\\n    }\\n\\n    /// @notice Returns the block gas limit\\n    function getCurrentBlockGasLimit() public view returns (uint256 gaslimit) {\\n        gaslimit = block.gaslimit;\\n    }\\n\\n    /// @notice Returns the block timestamp\\n    function getCurrentBlockTimestamp() public view returns (uint256 timestamp) {\\n        timestamp = block.timestamp;\\n    }\\n\\n    /// @notice Returns the (ETH) balance of a given address\\n    function getEthBalance(address addr) public view returns (uint256 balance) {\\n        balance = addr.balance;\\n    }\\n\\n    /// @notice Returns the block hash of the last block\\n    function getLastBlockHash() public view returns (bytes32 blockHash) {\\n        unchecked {\\n            blockHash = blockhash(block.number - 1);\\n        }\\n    }\\n\\n    /// @notice Gets the base fee of the given block\\n    /// @notice Can revert if the BASEFEE opcode is not implemented by the given chain\\n    function getBasefee() public view returns (uint256 basefee) {\\n        basefee = block.basefee;\\n    }\\n\\n    /// @notice Returns the chain id\\n    function getChainId() public view returns (uint256 chainid) {\\n        chainid = block.chainid;\\n    }\\n}\\n\"}},\"settings\":{\"optimizer\":{\"enabled\":false,\"runs\":200},\"outputSelection\":{\"*\":{\"\":[\"ast\"],\"*\":[\"abi\",\"metadata\",\"devdoc\",\"userdoc\",\"storageLayout\",\"evm.legacyAssembly\",\"evm.bytecode\",\"evm.deployedBytecode\",\"evm.methodIdentifiers\",\"evm.gasEstimates\",\"evm.assembly\"]}}}}",
  "name": "Multicall3",
  "bytecode": {
    "linkReferences": {},
    "object": "608060405234801561001057600080fd5b506115b9806100206000396000f3fe6080604052600436106100f35760003560e01c80634d2301cc1161008a578063a8b0574e11610059578063a8b0574e14610325578063bce38bd714610350578063c3077fa914610380578063ee82ac5e146103b2576100f3565b80634d2301cc1461026257806372425d9d1461029f57806382ad56cb146102ca57806386d516e8146102fa576100f3565b80633408e470116100c65780633408e470146101af578063399542e9146101da5780633e64a6961461020c57806342cbb15c14610237576100f3565b80630f28c97d146100f8578063174dea7114610123578063252dba421461015357806327e86d6e14610184575b600080fd5b34801561010457600080fd5b5061010d6103ef565b60405161011a9190610c0a565b60405180910390f35b61013d60048036038101906101389190610c94565b6103f7565b60405161014a9190610e94565b60405180910390f35b61016d60048036038101906101689190610f0c565b610615565b60405161017b92919061101b565b60405180910390f35b34801561019057600080fd5b506101996107ab565b6040516101a69190611064565b60405180910390f35b3480156101bb57600080fd5b506101c46107b7565b6040516101d19190610c0a565b60405180910390f35b6101f460048036038101906101ef91906110ab565b6107bf565b6040516102039392919061110b565b60405180910390f35b34801561021857600080fd5b506102216107e1565b60405161022e9190610c0a565b60405180910390f35b34801561024357600080fd5b5061024c6107e9565b6040516102599190610c0a565b60405180910390f35b34801561026e57600080fd5b50610289600480360381019061028491906111a7565b6107f1565b6040516102969190610c0a565b60405180910390f35b3480156102ab57600080fd5b506102b4610812565b6040516102c19190610c0a565b60405180910390f35b6102e460048036038101906102df919061122a565b61081a565b6040516102f19190610e94565b60405180910390f35b34801561030657600080fd5b5061030f6109e4565b60405161031c9190610c0a565b60405180910390f35b34801561033157600080fd5b5061033a6109ec565b6040516103479190611286565b60405180910390f35b61036a600480360381019061036591906110ab565b6109f4565b6040516103779190610e94565b60405180910390f35b61039a60048036038101906103959190610f0c565b610ba6565b6040516103a99392919061110b565b60405180910390f35b3480156103be57600080fd5b506103d960048036038101906103d491906112cd565b610bca565b6040516103e69190611064565b60405180910390f35b600042905090565b60606000808484905090508067ffffffffffffffff81111561041c5761041b6112fa565b5b60405190808252806020026020018201604052801561045557816020015b610442610bd5565b81526020019060019003908161043a5790505b5092503660005b828110156105c957600085828151811061047957610478611329565b5b6020026020010151905087878381811061049657610495611329565b5b90506020028101906104a89190611367565b925060008360400135905080860195508360000160208101906104cb91906111a7565b73ffffffffffffffffffffffffffffffffffffffff16818580606001906104f2919061138f565b604051610500929190611431565b60006040518083038185875af1925050503d806000811461053d576040519150601f19603f3d011682016040523d82523d6000602084013e610542565b606091505b5083600001846020018290528215151515815250505081516020850135176105bc577f08c379a000000000000000000000000000000000000000000000000000000000600052602060045260176024527f4d756c746963616c6c333a2063616c6c206661696c656400000000000000000060445260846000fd5b826001019250505061045c565b5082341461060c576040517f08c379a0000000000000000000000000000000000000000000000000000000008152600401610603906114a7565b60405180910390fd5b50505092915050565b6000606043915060008484905090508067ffffffffffffffff81111561063e5761063d6112fa565b5b60405190808252806020026020018201604052801561067157816020015b606081526020019060019003908161065c5790505b5091503660005b828110156107a157600087878381811061069557610694611329565b5b90506020028101906106a791906114c7565b92508260000160208101906106bc91906111a7565b73ffffffffffffffffffffffffffffffffffffffff168380602001906106e2919061138f565b6040516106f0929190611431565b6000604051808303816000865af19150503d806000811461072d576040519150601f19603f3d011682016040523d82523d6000602084013e610732565b606091505b5086848151811061074657610745611329565b5b60200260200101819052819250505080610795576040517f08c379a000000000000000000000000000000000000000000000000000000000815260040161078c9061153b565b60405180910390fd5b81600101915050610678565b5050509250929050565b60006001430340905090565b600046905090565b6000806060439250434091506107d68686866109f4565b905093509350939050565b600048905090565b600043905090565b60008173ffffffffffffffffffffffffffffffffffffffff16319050919050565b600044905090565b606060008383905090508067ffffffffffffffff81111561083e5761083d6112fa565b5b60405190808252806020026020018201604052801561087757816020015b610864610bd5565b81526020019060019003908161085c5790505b5091503660005b828110156109db57600084828151811061089b5761089a611329565b5b602002602001015190508686838181106108b8576108b7611329565b5b90506020028101906108ca919061155b565b92508260000160208101906108df91906111a7565b73ffffffffffffffffffffffffffffffffffffffff16838060400190610905919061138f565b604051610913929190611431565b6000604051808303816000865af19150503d8060008114610950576040519150601f19603f3d011682016040523d82523d6000602084013e610955565b606091505b5082600001836020018290528215151515815250505080516020840135176109cf577f08c379a000000000000000000000000000000000000000000000000000000000600052602060045260176024527f4d756c746963616c6c333a2063616c6c206661696c656400000000000000000060445260646000fd5b8160010191505061087e565b50505092915050565b600045905090565b600041905090565b606060008383905090508067ffffffffffffffff811115610a1857610a176112fa565b5b604051908082528060200260200182016040528015610a5157816020015b610a3e610bd5565b815260200190600190039081610a365790505b5091503660005b82811015610b9c576000848281518110610a7557610a74611329565b5b60200260200101519050868683818110610a9257610a91611329565b5b9050602002810190610aa491906114c7565b9250826000016020810190610ab991906111a7565b73ffffffffffffffffffffffffffffffffffffffff16838060200190610adf919061138f565b604051610aed929190611431565b6000604051808303816000865af19150503d8060008114610b2a576040519150601f19603f3d011682016040523d82523d6000602084013e610b2f565b606091505b508260000183602001829052821515151581525050508715610b90578060000151610b8f576040517f08c379a0000000000000000000000000000000000000000000000000000000008152600401610b869061153b565b60405180910390fd5b5b81600101915050610a58565b5050509392505050565b6000806060610bb7600186866107bf565b8093508194508295505050509250925092565b600081409050919050565b6040518060400160405280600015158152602001606081525090565b6000819050919050565b610c0481610bf1565b82525050565b6000602082019050610c1f6000830184610bfb565b92915050565b600080fd5b600080fd5b600080fd5b600080fd5b600080fd5b60008083601f840112610c5457610c53610c2f565b5b8235905067ffffffffffffffff811115610c7157610c70610c34565b5b602083019150836020820283011115610c8d57610c8c610c39565b5b9250929050565b60008060208385031215610cab57610caa610c25565b5b600083013567ffffffffffffffff811115610cc957610cc8610c2a565b5b610cd585828601610c3e565b92509250509250929050565b600081519050919050565b600082825260208201905092915050565b6000819050602082019050919050565b60008115159050919050565b610d2281610d0d565b82525050565b600081519050919050565b600082825260208201905092915050565b60005b83811015610d62578082015181840152602081019050610d47565b83811115610d71576000848401525b50505050565b6000601f19601f8301169050919050565b6000610d9382610d28565b610d9d8185610d33565b9350610dad818560208601610d44565b610db681610d77565b840191505092915050565b6000604083016000830151610dd96000860182610d19565b5060208301518482036020860152610df18282610d88565b9150508091505092915050565b6000610e0a8383610dc1565b905092915050565b6000602082019050919050565b6000610e2a82610ce1565b610e348185610cec565b935083602082028501610e4685610cfd565b8060005b85811015610e825784840389528151610e638582610dfe565b9450610e6e83610e12565b925060208a01995050600181019050610e4a565b50829750879550505050505092915050565b60006020820190508181036000830152610eae8184610e1f565b905092915050565b60008083601f840112610ecc57610ecb610c2f565b5b8235905067ffffffffffffffff811115610ee957610ee8610c34565b5b602083019150836020820283011115610f0557610f04610c39565b5b9250929050565b60008060208385031215610f2357610f22610c25565b5b600083013567ffffffffffffffff811115610f4157610f40610c2a565b5b610f4d85828601610eb6565b92509250509250929050565b600081519050919050565b600082825260208201905092915050565b6000819050602082019050919050565b6000610f918383610d88565b905092915050565b6000602082019050919050565b6000610fb182610f59565b610fbb8185610f64565b935083602082028501610fcd85610f75565b8060005b858110156110095784840389528151610fea8582610f85565b9450610ff583610f99565b925060208a01995050600181019050610fd1565b50829750879550505050505092915050565b60006040820190506110306000830185610bfb565b81810360208301526110428184610fa6565b90509392505050565b6000819050919050565b61105e8161104b565b82525050565b60006020820190506110796000830184611055565b92915050565b61108881610d0d565b811461109357600080fd5b50565b6000813590506110a58161107f565b92915050565b6000806000604084860312156110c4576110c3610c25565b5b60006110d286828701611096565b935050602084013567ffffffffffffffff8111156110f3576110f2610c2a565b5b6110ff86828701610eb6565b92509250509250925092565b60006060820190506111206000830186610bfb565b61112d6020830185611055565b818103604083015261113f8184610e1f565b9050949350505050565b600073ffffffffffffffffffffffffffffffffffffffff82169050919050565b600061117482611149565b9050919050565b61118481611169565b811461118f57600080fd5b50565b6000813590506111a18161117b565b92915050565b6000602082840312156111bd576111bc610c25565b5b60006111cb84828501611192565b91505092915050565b60008083601f8401126111ea576111e9610c2f565b5b8235905067ffffffffffffffff81111561120757611206610c34565b5b60208301915083602082028301111561122357611222610c39565b5b9250929050565b6000806020838503121561124157611240610c25565b5b600083013567ffffffffffffffff81111561125f5761125e610c2a565b5b61126b858286016111d4565b92509250509250929050565b61128081611169565b82525050565b600060208201905061129b6000830184611277565b92915050565b6112aa81610bf1565b81146112b557600080fd5b50565b6000813590506112c7816112a1565b92915050565b6000602082840312156112e3576112e2610c25565b5b60006112f1848285016112b8565b91505092915050565b7f4e487b7100000000000000000000000000000000000000000000000000000000600052604160045260246000fd5b7f4e487b7100000000000000000000000000000000000000000000000000000000600052603260045260246000fd5b600080fd5b600080fd5b600080fd5b60008235600160800383360303811261138357611382611358565b5b80830191505092915050565b600080833560016020038436030381126113ac576113ab611358565b5b80840192508235915067ffffffffffffffff8211156113ce576113cd61135d565b5b6020830192506001820236038313156113ea576113e9611362565b5b509250929050565b600081905092915050565b82818337600083830152505050565b600061141883856113f2565b93506114258385846113fd565b82840190509392505050565b600061143e82848661140c565b91508190509392505050565b600082825260208201905092915050565b7f4d756c746963616c6c333a2076616c7565206d69736d61746368000000000000600082015250565b6000611491601a8361144a565b915061149c8261145b565b602082019050919050565b600060208201905081810360008301526114c081611484565b9050919050565b6000823560016040038336030381126114e3576114e2611358565b5b80830191505092915050565b7f4d756c746963616c6c333a2063616c6c206661696c6564000000000000000000600082015250565b600061152560178361144a565b9150611530826114ef565b602082019050919050565b6000602082019050818103600083015261155481611518565b9050919050565b60008235600160600383360303811261157757611576611358565b5b8083019150509291505056fea2646970667358221220145395f2ca941b982ce500c6ecd1466cd8a4a6e8d106189b64009ac42b1e88da64736f6c634300080c0033",
    "opcodes": "PUSH1 0x80 PUSH1 0x40 MSTORE CALLVALUE DUP1 ISZERO PUSH2 0x10 JUMPI PUSH1 0x0 DUP1 REVERT JUMPDEST POP PUSH2 0x15B9 DUP1 PUSH2 0x20 PUSH1 0x0 CODECOPY PUSH1 0x0 RETURN INVALID PUSH1 0x80 PUSH1 0x40 MSTORE PUSH1 0x4 CALLDATASIZE LT PUSH2 0xF3 JUMPI PUSH1 0x0 CALLDATALOAD PUSH1 0xE0 SHR DUP1 PUSH4 0x4D2301CC GT PUSH2 0x8A JUMPI DUP1 PUSH4 0xA8B0574E GT PUSH2 0x59 JUMPI DUP1 PUSH4 0xA8B0574E EQ PUSH2 0x325 JUMPI DUP1 PUSH4 0xBCE38BD7 EQ PUSH2 0x350 JUMPI DUP1 PUSH4 0xC3077FA9 EQ PUSH2 0x380 JUMPI DUP1 PUSH4 0xEE82AC5E EQ PUSH2 0x3B2 JUMPI PUSH2 0xF3 JUMP JUMPDEST DUP1 PUSH4 0x4D2301CC EQ PUSH2 0x262 JUMPI DUP1 PUSH4 0x72425D9D EQ PUSH2 0x29F JUMPI DUP1 PUSH4 0x82AD56CB EQ PUSH2 0x2CA JUMPI DUP1 PUSH4 0x86D516E8 EQ PUSH2 0x2FA JUMPI PUSH2 0xF3 JUMP JUMPDEST DUP1 PUSH4 0x3408E470 GT PUSH2 0xC6 JUMPI DUP1 PUSH4 0x3408E470 EQ PUSH2 0x1AF JUMPI DUP1 PUSH4 0x399542E9 EQ PUSH2 0x1DA JUMPI DUP1 PUSH4 0x3E64A696 EQ PUSH2 0x20C JUMPI DUP1 PUSH4 0x42CBB15C EQ PUSH2 0x237 JUMPI PUSH2 0xF3 JUMP JUMPDEST DUP1 PUSH4 0xF28C97D EQ PUSH2 0xF8 JUMPI DUP1 PUSH4 0x174DEA71 EQ PUSH2 0x123 JUMPI DUP1 PUSH4 0x252DBA42 EQ PUSH2 0x153 JUMPI DUP1 PUSH4 0x27E86D6E EQ PUSH2 0x184 JUMPI JUMPDEST PUSH1 0x0 DUP1 REVERT JUMPDEST CALLVALUE DUP1 ISZERO PUSH2 0x104 JUMPI PUSH1 0x0 DUP1 REVERT JUMPDEST POP PUSH2 0x10D PUSH2 0x3EF JUMP JUMPDEST PUSH1 0x40 MLOAD PUSH2 0x11A SWAP2 SWAP1 PUSH2 0xC0A JUMP JUMPDEST PUSH1 0x40 MLOAD DUP1 SWAP2 SUB SWAP1 RETURN JUMPDEST PUSH2 0x13D PUSH1 0x4 DUP1 CALLDATASIZE SUB DUP2 ADD SWAP1 PUSH2 0x138 SWAP2 SWAP1 PUSH2 0xC94 JUMP JUMPDEST PUSH2 0x3F7 JUMP JUMPDEST PUSH1 0x40 MLOAD PUSH2 0x14A SWAP2 SWAP1 PUSH2 0xE94 JUMP JUMPDEST PUSH1 0x40 MLOAD DUP1 SWAP2 SUB SWAP1 RETURN JUMPDEST PUSH2 0x16D PUSH1 0x4 DUP1 CALLDATASIZE SUB DUP2 ADD SWAP1 PUSH2 0x168 SWAP2 SWAP1 PUSH2 0xF0C JUMP JUMPDEST PUSH2 0x615 JUMP JUMPDEST PUSH1 0x40 MLOAD PUSH2 0x17B SWAP3 SWAP2 SWAP1 PUSH2 0x101B JUMP JUMPDEST PUSH1 0x40 MLOAD DUP1 SWAP2 SUB SWAP1 RETURN JUMPDEST CALLVALUE DUP1 ISZERO PUSH2 0x190 JUMPI PUSH1 0x0 DUP1 REVERT JUMPDEST POP PUSH2 0x199 PUSH2 0x7AB JUMP JUMPDEST PUSH1 0x40 MLOAD PUSH2 0x1A6 SWAP2 SWAP1 PUSH2 0x1064 JUMP JUMPDEST PUSH1 0x40 MLOAD DUP1 SWAP2 SUB SWAP1 RETURN JUMPDEST CALLVALUE DUP1 ISZERO PUSH2 0x1BB JUMPI PUSH1 0x0 DUP1 REVERT JUMPDEST POP PUSH2 0x1C4 PUSH2 0x7B7 JUMP JUMPDEST PUSH1 0x40 MLOAD PUSH2 0x1D1 SWAP2 SWAP1 PUSH2 0xC0A JUMP JUMPDEST PUSH1 0x40 MLOAD DUP1 SWAP2 SUB SWAP1 RETURN JUMPDEST PUSH2 0x1F4 PUSH1 0x4 DUP1 CALLDATASIZE SUB DUP2 ADD SWAP1 PUSH2 0x1EF SWAP2 SWAP1 PUSH2 0x10AB JUMP JUMPDEST PUSH2 0x7BF JUMP JUMPDEST PUSH1 0x40 MLOAD PUSH2 0x203 SWAP4 SWAP3 SWAP2 SWAP1 PUSH2 0x110B JUMP JUMPDEST PUSH1 0x40 MLOAD DUP1 SWAP2 SUB SWAP1 RETURN JUMPDEST CALLVALUE DUP1 ISZERO PUSH2 0x218 JUMPI PUSH1 0x0 DUP1 REVERT JUMPDEST POP PUSH2 0x221 PUSH2 0x7E1 JUMP JUMPDEST PUSH1 0x40 MLOAD PUSH2 0x22E SWAP2 SWAP1 PUSH2 0xC0A JUMP JUMPDEST PUSH1 0x40 MLOAD DUP1 SWAP2 SUB SWAP1 RETURN JUMPDEST CALLVALUE DUP1 ISZERO PUSH2 0x243 JUMPI PUSH1 0x0 DUP1 REVERT JUMPDEST POP PUSH2 0x24C PUSH2 0x7E9 JUMP JUMPDEST PUSH1 0x40 MLOAD PUSH2 0x259 SWAP2 SWAP1 PUSH2 0xC0A JUMP JUMPDEST PUSH1 0x40 MLOAD DUP1 SWAP2 SUB SWAP1 RETURN JUMPDEST CALLVALUE DUP1 ISZERO PUSH2 0x26E JUMPI PUSH1 0x0 DUP1 REVERT JUMPDEST POP PUSH2 0x289 PUSH1 0x4 DUP1 CALLDATASIZE SUB DUP2 ADD SWAP1 PUSH2 0x284 SWAP2 SWAP1 PUSH2 0x11A7 JUMP JUMPDEST PUSH2 0x7F1 JUMP JUMPDEST PUSH1 0x40 MLOAD PUSH2 0x296 SWAP2 SWAP1 PUSH2 0xC0A JUMP JUMPDEST PUSH1 0x40 MLOAD DUP1 SWAP2 SUB SWAP1 RETURN JUMPDEST CALLVALUE DUP1 ISZERO PUSH2 0x2AB JUMPI PUSH1 0x0 DUP1 REVERT JUMPDEST POP PUSH2 0x2B4 PUSH2 0x812 JUMP JUMPDEST PUSH1 0x40 MLOAD PUSH2 0x2C1 SWAP2 SWAP1 PUSH2 0xC0A JUMP JUMPDEST PUSH1 0x40 MLOAD DUP1 SWAP2 SUB SWAP1 RETURN JUMPDEST PUSH2 0x2E4 PUSH1 0x4 DUP1 CALLDATASIZE SUB DUP2 ADD SWAP1 PUSH2 0x2DF SWAP2 SWAP1 PUSH2 0x122A JUMP JUMPDEST PUSH2 0x81A JUMP JUMPDEST PUSH1 0x40 MLOAD PUSH2 0x2F1 SWAP2 SWAP1 PUSH2 0xE94 JUMP JUMPDEST PUSH1 0x40 MLOAD DUP1 SWAP2 SUB SWAP1 RETURN JUMPDEST CALLVALUE DUP1 ISZERO PUSH2 0x306 JUMPI PUSH1 0x0 DUP1 REVERT JUMPDEST POP PUSH2 0x30F PUSH2 0x9E4 JUMP JUMPDEST PUSH1 0x40 MLOAD PUSH2 0x31C SWAP2 SWAP1 PUSH2 0xC0A JUMP JUMPDEST PUSH1 0x40 MLOAD DUP1 SWAP2 SUB SWAP1 RETURN JUMPDEST CALLVALUE DUP1 ISZERO PUSH2 0x331 JUMPI PUSH1 0x0 DUP1 REVERT JUMPDEST POP PUSH2 0x33A PUSH2 0x9EC JUMP JUMPDEST PUSH1 0x40 MLOAD PUSH2 0x347 SWAP2 SWAP1 PUSH2 0x1286 JUMP JUMPDEST PUSH1 0x40 MLOAD DUP1 SWAP2 SUB SWAP1 RETURN JUMPDEST PUSH2 0x36A PUSH1 0x4 DUP1 CALLDATASIZE SUB DUP2 ADD SWAP1 PUSH2 0x365 SWAP2 SWAP1 PUSH2 0x10AB JUMP JUMPDEST PUSH2 0x9F4 JUMP JUMPDEST PUSH1 0x40 MLOAD PUSH2 0x377 SWAP2 SWAP1 PUSH2 0xE94 JUMP JUMPDEST PUSH1 0x40 MLOAD DUP1 SWAP2 SUB SWAP1 RETURN JUMPDEST PUSH2 0x39A PUSH1 0x4 DUP1 CALLDATASIZE SUB DUP2 ADD SWAP1 PUSH2 0x395 SWAP2 SWAP1 PUSH2 0xF0C JUMP JUMPDEST PUSH2 0xBA6 JUMP JUMPDEST PUSH1 0x40 MLOAD PUSH2 0x3A9 SWAP4 SWAP3 SWAP2 SWAP1 PUSH2 0x110B JUMP JUMPDEST PUSH1 0x40 MLOAD DUP1 SWAP2 SUB SWAP1 RETURN JUMPDEST CALLVALUE DUP1 ISZERO PUSH2 0x3BE JUMPI PUSH1 0x0 DUP1 REVERT JUMPDEST POP PUSH2 0x3D9 PUSH1 0x4 DUP1 CALLDATASIZE SUB DUP2 ADD SWAP1 PUSH2 0x3D4 SWAP2 SWAP1 PUSH2 0x12CD JUMP JUMPDEST PUSH2 0xBCA JUMP JUMPDEST PUSH1 0x40 MLOAD PUSH2 0x3E6 SWAP2 SWAP1 PUSH2 0x1064 JUMP JUMPDEST PUSH1 0x40 MLOAD DUP1 SWAP2 SUB SWAP1 RETURN JUMPDEST PUSH1 0x0 TIMESTAMP SWAP1 POP SWAP1 JUMP JUMPDEST PUSH1 0x60 PUSH1 0x0 DUP1 DUP5 DUP5 SWAP1 POP SWAP1 POP DUP1 PUSH8 0xFFFFFFFFFFFFFFFF DUP2 GT ISZERO PUSH2 0x41C JUMPI PUSH2 0x41B PUSH2 0x12FA JUMP JUMPDEST JUMPDEST PUSH1 0x40 MLOAD SWAP1 DUP1 DUP3 MSTORE DUP1 PUSH1 0x20 MUL PUSH1 0x20 ADD DUP3 ADD PUSH1 0x40 MSTORE DUP1 ISZERO PUSH2 0x455 JUMPI DUP2 PUSH1 0x20 ADD JUMPDEST PUSH2 0x442 PUSH2 0xBD5 JUMP JUMPDEST DUP2 MSTORE PUSH1 0x20 ADD SWAP1 PUSH1 0x1 SWAP1 SUB SWAP1 DUP2 PUSH2 0x43A JUMPI SWAP1 POP JUMPDEST POP SWAP3 POP CALLDATASIZE PUSH1 0x0 JUMPDEST DUP3 DUP2 LT ISZERO PUSH2 0x5C9 JUMPI PUSH1 0x0 DUP6 DUP3 DUP2 MLOAD DUP2 LT PUSH2 0x479 JUMPI PUSH2 0x478 PUSH2 0x1329 JUMP JUMPDEST JUMPDEST PUSH1 0x20 MUL PUSH1 0x20 ADD ADD MLOAD SWAP1 POP DUP8 DUP8 DUP4 DUP2 DUP2 LT PUSH2 0x496 JUMPI PUSH2 0x495 PUSH2 0x1329 JUMP JUMPDEST JUMPDEST SWAP1 POP PUSH1 0x20 MUL DUP2 ADD SWAP1 PUSH2 0x4A8 SWAP2 SWAP1 PUSH2 0x1367 JUMP JUMPDEST SWAP3 POP PUSH1 0x0 DUP4 PUSH1 0x40 ADD CALLDATALOAD SWAP1 POP DUP1 DUP7 ADD SWAP6 POP DUP4 PUSH1 0x0 ADD PUSH1 0x20 DUP2 ADD SWAP1 PUSH2 0x4CB SWAP2 SWAP1 PUSH2 0x11A7 JUMP JUMPDEST PUSH20 0xFFFFFFFFFFFFFFFFFFFFFFFFFFFFFFFFFFFFFFFF AND DUP2 DUP6 DUP1 PUSH1 0x60 ADD SWAP1 PUSH2 0x4F2 SWAP2 SWAP1 PUSH2 0x138F JUMP JUMPDEST PUSH1 0x40 MLOAD PUSH2 0x500 SWAP3 SWAP2 SWAP1 PUSH2 0x1431 JUMP JUMPDEST PUSH1 0x0 PUSH1 0x40 MLOAD DUP1 DUP4 SUB DUP2 DUP6 DUP8 GAS CALL SWAP3 POP POP POP RETURNDATASIZE DUP1 PUSH1 0x0 DUP2 EQ PUSH2 0x53D JUMPI PUSH1 0x40 MLOAD SWAP2 POP PUSH1 0x1F NOT PUSH1 0x3F RETURNDATASIZE ADD AND DUP3 ADD PUSH1 0x40 MSTORE RETURNDATASIZE DUP3 MSTORE RETURNDATASIZE PUSH1 0x0 PUSH1 0x20 DUP5 ADD RETURNDATACOPY PUSH2 0x542 JUMP JUMPDEST PUSH1 0x60 SWAP2 POP JUMPDEST POP DUP4 PUSH1 0x0 ADD DUP5 PUSH1 0x20 ADD DUP3 SWAP1 MSTORE DUP3 ISZERO ISZERO ISZERO ISZERO DUP2 MSTORE POP POP POP DUP2 MLOAD PUSH1 0x20 DUP6 ADD CALLDATALOAD OR PUSH2 0x5BC JUMPI PUSH32 0x8C379A000000000000000000000000000000000000000000000000000000000 PUSH1 0x0 MSTORE PUSH1 0x20 PUSH1 0x4 MSTORE PUSH1 0x17 PUSH1 0x24 MSTORE PUSH32 0x4D756C746963616C6C333A2063616C6C206661696C6564000000000000000000 PUSH1 0x44 MSTORE PUSH1 0x84 PUSH1 0x0 REVERT JUMPDEST DUP3 PUSH1 0x1 ADD SWAP3 POP POP POP PUSH2 0x45C JUMP JUMPDEST POP DUP3 CALLVALUE EQ PUSH2 0x60C JUMPI PUSH1 0x40 MLOAD PUSH32 0x8C379A000000000000000000000000000000000000000000000000000000000 DUP2 MSTORE PUSH1 0x4 ADD PUSH2 0x603 SWAP1 PUSH2 0x14A7 JUMP JUMPDEST PUSH1 0x40 MLOAD DUP1 SWAP2 SUB SWAP1 REVERT JUMPDEST POP POP POP SWAP3 SWAP2 POP POP JUMP JUMPDEST PUSH1 0x0 PUSH1 0x60 NUMBER SWAP2 POP PUSH1 0x0 DUP5 DUP5 SWAP1 POP SWAP1 POP DUP1 PUSH8 0xFFFFFFFFFFFFFFFF DUP2 GT ISZERO PUSH2 0x63E JUMPI PUSH2 0x63D PUSH2 0x12FA JUMP JUMPDEST JUMPDEST PUSH1 0x40 MLOAD SWAP1 DUP1 DUP3 MSTORE DUP1 PUSH1 0x20 MUL PUSH1 0x20 ADD DUP3 ADD PUSH1 0x40 MSTORE DUP1 ISZERO PUSH2 0x671 JUMPI DUP2 PUSH1 0x20 ADD JUMPDEST PUSH1 0x60 DUP2 MSTORE PUSH1 0x20 ADD SWAP1 PUSH1 0x1 SWAP1 SUB SWAP1 DUP2 PUSH2 0x65C JUMPI SWAP1 POP JUMPDEST POP SWAP2 POP CALLDATASIZE PUSH1 0x0 JUMPDEST DUP3 DUP2 LT ISZERO PUSH2 0x7A1 JUMPI PUSH1 0x0 DUP8 DUP8 DUP4 DUP2 DUP2 LT PUSH2 0x695 JUMPI PUSH2 0x694 PUSH2 0x1329 JUMP JUMPDEST JUMPDEST SWAP1 POP PUSH1 0x20 MUL DUP2 ADD SWAP1 PUSH2 0x6A7 SWAP2 SWAP1 PUSH2 0x14C7 JUMP JUMPDEST SWAP3 POP DUP3 PUSH1 0x0 ADD PUSH1 0x20 DUP2 ADD SWAP1 PUSH2 0x6BC SWAP2 SWAP1 PUSH2 0x11A7 JUMP JUMPDEST PUSH20 0xFFFFFFFFFFFFFFFFFFFFFFFFFFFFFFFFFFFFFFFF AND DUP4 DUP1 PUSH1 0x20 ADD SWAP1 PUSH2 0x6E2 SWAP2 SWAP1 PUSH2 0x138F JUMP JUMPDEST PUSH1 0x40 MLOAD PUSH2 0x6F0 SWAP3 SWAP2 SWAP1 PUSH2 0x1431 JUMP JUMPDEST PUSH1 0x0 PUSH1 0x40 MLOAD DUP1 DUP4 SUB DUP2 PUSH1 0x0 DUP7 GAS CALL SWAP2 POP POP RETURNDATASIZE DUP1 PUSH1 0x0 DUP2 EQ PUSH2 0x72D JUMPI PUSH1 0x40 MLOAD SWAP2 POP PUSH1 0x1F NOT PUSH1 0x3F RETURNDATASIZE ADD AND DUP3 ADD PUSH1 0x40 MSTORE RETURNDATASIZE DUP3 MSTORE RETURNDATASIZE PUSH1 0x0 PUSH1 0x20 DUP5 ADD RETURNDATACOPY PUSH2 0x732 JUMP JUMPDEST PUSH1 0x60 SWAP2 POP JUMPDEST POP DUP7 DUP5 DUP2 MLOAD DUP2 LT PUSH2 0x746 JUMPI PUSH2 0x745 PUSH2 0x1329 JUMP JUMPDEST JUMPDEST PUSH1 0x20 MUL PUSH1 0x20 ADD ADD DUP2 SWAP1 MSTORE DUP2 SWAP3 POP POP POP DUP1 PUSH2 0x795 JUMPI PUSH1 0x40 MLOAD PUSH32 0x8C379A000000000000000000000000000000000000000000000000000000000 DUP2 MSTORE PUSH1 0x4 ADD PUSH2 0x78C SWAP1 PUSH2 0x153B JUMP JUMPDEST PUSH1 0x40 MLOAD DUP1 SWAP2 SUB SWAP1 REVERT JUMPDEST DUP2 PUSH1 0x1 ADD SWAP2 POP POP PUSH2 0x678 JUMP JUMPDEST POP POP POP SWAP3 POP SWAP3 SWAP1 POP JUMP JUMPDEST PUSH1 0x0 PUSH1 0x1 NUMBER SUB BLOCKHASH SWAP1 POP SWAP1 JUMP JUMPDEST PUSH1 0x0 CHAINID SWAP1 POP SWAP1 JUMP JUMPDEST PUSH1 0x0 DUP1 PUSH1 0x60 NUMBER SWAP3 POP NUMBER BLOCKHASH SWAP2 POP PUSH2 0x7D6 DUP7 DUP7 DUP7 PUSH2 0x9F4 JUMP JUMPDEST SWAP1 POP SWAP4 POP SWAP4 POP SWAP4 SWAP1 POP JUMP JUMPDEST PUSH1 0x0 BASEFEE SWAP1 POP SWAP1 JUMP JUMPDEST PUSH1 0x0 NUMBER SWAP1 POP SWAP1 JUMP JUMPDEST PUSH1 0x0 DUP2 PUSH20 0xFFFFFFFFFFFFFFFFFFFFFFFFFFFFFFFFFFFFFFFF AND BALANCE SWAP1 POP SWAP2 SWAP1 POP JUMP JUMPDEST PUSH1 0x0 DIFFICULTY SWAP1 POP SWAP1 JUMP JUMPDEST PUSH1 0x60 PUSH1 0x0 DUP4 DUP4 SWAP1 POP SWAP1 POP DUP1 PUSH8 0xFFFFFFFFFFFFFFFF DUP2 GT ISZERO PUSH2 0x83E JUMPI PUSH2 0x83D PUSH2 0x12FA JUMP JUMPDEST JUMPDEST PUSH1 0x40 MLOAD SWAP1 DUP1 DUP3 MSTORE DUP1 PUSH1 0x20 MUL PUSH1 0x20 ADD DUP3 ADD PUSH1 0x40 MSTORE DUP1 ISZERO PUSH2 0x877 JUMPI DUP2 PUSH1 0x20 ADD JUMPDEST PUSH2 0x864 PUSH2 0xBD5 JUMP JUMPDEST DUP2 MSTORE PUSH1 0x20 ADD SWAP1 PUSH1 0x1 SWAP1 SUB SWAP1 DUP2 PUSH2 0x85C JUMPI SWAP1 POP JUMPDEST POP SWAP2 POP CALLDATASIZE PUSH1 0x0 JUMPDEST DUP3 DUP2 LT ISZERO PUSH2 0x9DB JUMPI PUSH1 0x0 DUP5 DUP3 DUP2 MLOAD DUP2 LT PUSH2 0x89B JUMPI PUSH2 0x89A PUSH2 0x1329 JUMP JUMPDEST JUMPDEST PUSH1 0x20 MUL PUSH1 0x20 ADD ADD MLOAD SWAP1 POP DUP7 DUP7 DUP4 DUP2 DUP2 LT PUSH2 0x8B8 JUMPI PUSH2 0x8B7 PUSH2 0x1329 JUMP JUMPDEST JUMPDEST SWAP1 POP PUSH1 0x20 MUL DUP2 ADD SWAP1 PUSH2 0x8CA SWAP2 SWAP1 PUSH2 0x155B JUMP JUMPDEST SWAP3 POP DUP3 PUSH1 0x0 ADD PUSH1 0x20 DUP2 ADD SWAP1 PUSH2 0x8DF SWAP2 SWAP1 PUSH2 0x11A7 JUMP JUMPDEST PUSH20 0xFFFFFFFFFFFFFFFFFFFFFFFFFFFFFFFFFFFFFFFF AND DUP4 DUP1 PUSH1 0x40 ADD SWAP1 PUSH2 0x905 SWAP2 SWAP1 PUSH2 0x138F JUMP JUMPDEST PUSH1 0x40 MLOAD PUSH2 0x913 SWAP3 SWAP2 SWAP1 PUSH2 0x1431 JUMP JUMPDEST PUSH1 0x0 PUSH1 0x40 MLOAD DUP1 DUP4 SUB DUP2 PUSH1 0x0 DUP7 GAS CALL SWAP2 POP POP RETURNDATASIZE DUP1 PUSH1 0x0 DUP2 EQ PUSH2 0x950 JUMPI PUSH1 0x40 MLOAD SWAP2 POP PUSH1 0x1F NOT PUSH1 0x3F RETURNDATASIZE ADD AND DUP3 ADD PUSH1 0x40 MSTORE RETURNDATASIZE DUP3 MSTORE RETURNDATASIZE PUSH1 0x0 PUSH1 0x20 DUP5 ADD RETURNDATACOPY PUSH2 0x955 JUMP JUMPDEST PUSH1 0x60 SWAP2 POP JUMPDEST POP DUP3 PUSH1 0x0 ADD DUP4 PUSH1 0x20 ADD DUP3 SWAP1 MSTORE DUP3 ISZERO ISZERO ISZERO ISZERO DUP2 MSTORE POP POP POP DUP1 MLOAD PUSH1 0x20 DUP5 ADD CALLDATALOAD OR PUSH2 0x9CF JUMPI PUSH32 0x8C379A000000000000000000000000000000000000000000000000000000000 PUSH1 0x0 MSTORE PUSH1 0x20 PUSH1 0x4 MSTORE PUSH1 0x17 PUSH1 0x24 MSTORE PUSH32 0x4D756C746963616C6C333A2063616C6C206661696C6564000000000000000000 PUSH1 0x44 MSTORE PUSH1 0x64 PUSH1 0x0 REVERT JUMPDEST DUP2 PUSH1 0x1 ADD SWAP2 POP POP PUSH2 0x87E JUMP JUMPDEST POP POP POP SWAP3 SWAP2 POP POP JUMP JUMPDEST PUSH1 0x0 GASLIMIT SWAP1 POP SWAP1 JUMP JUMPDEST PUSH1 0x0 COINBASE SWAP1 POP SWAP1 JUMP JUMPDEST PUSH1 0x60 PUSH1 0x0 DUP4 DUP4 SWAP1 POP SWAP1 POP DUP1 PUSH8 0xFFFFFFFFFFFFFFFF DUP2 GT ISZERO PUSH2 0xA18 JUMPI PUSH2 0xA17 PUSH2 0x12FA JUMP JUMPDEST JUMPDEST PUSH1 0x40 MLOAD SWAP1 DUP1 DUP3 MSTORE DUP1 PUSH1 0x20 MUL PUSH1 0x20 ADD DUP3 ADD PUSH1 0x40 MSTORE DUP1 ISZERO PUSH2 0xA51 JUMPI DUP2 PUSH1 0x20 ADD JUMPDEST PUSH2 0xA3E PUSH2 0xBD5 JUMP JUMPDEST DUP2 MSTORE PUSH1 0x20 ADD SWAP1 PUSH1 0x1 SWAP1 SUB SWAP1 DUP2 PUSH2 0xA36 JUMPI SWAP1 POP JUMPDEST POP SWAP2 POP CALLDATASIZE PUSH1 0x0 JUMPDEST DUP3 DUP2 LT ISZERO PUSH2 0xB9C JUMPI PUSH1 0x0 DUP5 DUP3 DUP2 MLOAD DUP2 LT PUSH2 0xA75 JUMPI PUSH2 0xA74 PUSH2 0x1329 JUMP JUMPDEST JUMPDEST PUSH1 0x20 MUL PUSH1 0x20 ADD ADD MLOAD SWAP1 POP DUP7 DUP7 DUP4 DUP2 DUP2 LT PUSH2 0xA92 JUMPI PUSH2 0xA91 PUSH2 0x1329 JUMP JUMPDEST JUMPDEST SWAP1 POP PUSH1 0x20 MUL DUP2 ADD SWAP1 PUSH2 0xAA4 SWAP2 SWAP1 PUSH2 0x14C7 JUMP JUMPDEST SWAP3 POP DUP3 PUSH1 0x0 ADD PUSH1 0x20 DUP2 ADD SWAP1 PUSH2 0xAB9 SWAP2 SWAP1 PUSH2 0x11A7 JUMP JUMPDEST PUSH20 0xFFFFFFFFFFFFFFFFFFFFFFFFFFFFFFFFFFFFFFFF AND DUP4 DUP1 PUSH1 0x20 ADD SWAP1 PUSH2 0xADF SWAP2 SWAP1 PUSH2 0x138F JUMP JUMPDEST PUSH1 0x40 MLOAD PUSH2 0xAED SWAP3 SWAP2 SWAP1 PUSH2 0x1431 JUMP JUMPDEST PUSH1 0x0 PUSH1 0x40 MLOAD DUP1 DUP4 SUB DUP2 PUSH1 0x0 DUP7 GAS CALL SWAP2 POP POP RETURNDATASIZE DUP1 PUSH1 0x0 DUP2 EQ PUSH2 0xB2A JUMPI PUSH1 0x40 MLOAD SWAP2 POP PUSH1 0x1F NOT PUSH1 0x3F RETURNDATASIZE ADD AND DUP3 ADD PUSH1 0x40 MSTORE RETURNDATASIZE DUP3 MSTORE RETURNDATASIZE PUSH1 0x0 PUSH1 0x20 DUP5 ADD RETURNDATACOPY PUSH2 0xB2F JUMP JUMPDEST PUSH1 0x60 SWAP2 POP JUMPDEST POP DUP3 PUSH1 0x0 ADD DUP4 PUSH1 0x20 ADD DUP3 SWAP1 MSTORE DUP3 ISZERO ISZERO ISZERO ISZERO DUP2 MSTORE POP POP POP DUP8 ISZERO PUSH2 0xB90 JUMPI DUP1 PUSH1 0x0 ADD MLOAD PUSH2 0xB8F JUMPI PUSH1 0x40 MLOAD PUSH32 0x8C379A000000000000000000000000000000000000000000000000000000000 DUP2 MSTORE PUSH1 0x4 ADD PUSH2 0xB86 SWAP1 PUSH2 0x153B JUMP JUMPDEST PUSH1 0x40 MLOAD DUP1 SWAP2 SUB SWAP1 REVERT JUMPDEST JUMPDEST DUP2 PUSH1 0x1 ADD SWAP2 POP POP PUSH2 0xA58 JUMP JUMPDEST POP POP POP SWAP4 SWAP3 POP POP POP JUMP JUMPDEST PUSH1 0x0 DUP1 PUSH1 0x60 PUSH2 0xBB7 PUSH1 0x1 DUP7 DUP7 PUSH2 0x7BF JUMP JUMPDEST DUP1 SWAP4 POP DUP2 SWAP5 POP DUP3 SWAP6 POP POP POP POP SWAP3 POP SWAP3 POP SWAP3 JUMP JUMPDEST PUSH1 0x0 DUP2 BLOCKHASH SWAP1 POP SWAP2 SWAP1 POP JUMP JUMPDEST PUSH1 0x40 MLOAD DUP1 PUSH1 0x40 ADD PUSH1 0x40 MSTORE DUP1 PUSH1 0x0 ISZERO ISZERO DUP2 MSTORE PUSH1 0x20 ADD PUSH1 0x60 DUP2 MSTORE POP SWAP1 JUMP JUMPDEST PUSH1 0x0 DUP2 SWAP1 POP SWAP2 SWAP1 POP JUMP JUMPDEST PUSH2 0xC04 DUP2 PUSH2 0xBF1 JUMP JUMPDEST DUP3 MSTORE POP POP JUMP JUMPDEST PUSH1 0x0 PUSH1 0x20 DUP3 ADD SWAP1 POP PUSH2 0xC1F PUSH1 0x0 DUP4 ADD DUP5 PUSH2 0xBFB JUMP JUMPDEST SWAP3 SWAP2 POP POP JUMP JUMPDEST PUSH1 0x0 DUP1 REVERT JUMPDEST PUSH1 0x0 DUP1 REVERT JUMPDEST PUSH1 0x0 DUP1 REVERT JUMPDEST PUSH1 0x0 DUP1 REVERT JUMPDEST PUSH1 0x0 DUP1 REVERT JUMPDEST PUSH1 0x0 DUP1 DUP4 PUSH1 0x1F DUP5 ADD SLT PUSH2 0xC54 JUMPI PUSH2 0xC53 PUSH2 0xC2F JUMP JUMPDEST JUMPDEST DUP3 CALLDATALOAD SWAP1 POP PUSH8 0xFFFFFFFFFFFFFFFF DUP2 GT ISZERO PUSH2 0xC71 JUMPI PUSH2 0xC70 PUSH2 0xC34 JUMP JUMPDEST JUMPDEST PUSH1 0x20 DUP4 ADD SWAP2 POP DUP4 PUSH1 0x20 DUP3 MUL DUP4 ADD GT ISZERO PUSH2 0xC8D JUMPI PUSH2 0xC8C PUSH2 0xC39 JUMP JUMPDEST JUMPDEST SWAP3 POP SWAP3 SWAP1 POP JUMP JUMPDEST PUSH1 0x0 DUP1 PUSH1 0x20 DUP4 DUP6 SUB SLT ISZERO PUSH2 0xCAB JUMPI PUSH2 0xCAA PUSH2 0xC25 JUMP JUMPDEST JUMPDEST PUSH1 0x0 DUP4 ADD CALLDATALOAD PUSH8 0xFFFFFFFFFFFFFFFF DUP2 GT ISZERO PUSH2 0xCC9 JUMPI PUSH2 0xCC8 PUSH2 0xC2A JUMP JUMPDEST JUMPDEST PUSH2 0xCD5 DUP6 DUP3 DUP7 ADD PUSH2 0xC3E JUMP JUMPDEST SWAP3 POP SWAP3 POP POP SWAP3 POP SWAP3 SWAP1 POP JUMP JUMPDEST PUSH1 0x0 DUP2 MLOAD SWAP1 POP SWAP2 SWAP1 POP JUMP JUMPDEST PUSH1 0x0 DUP3 DUP3 MSTORE PUSH1 0x20 DUP3 ADD SWAP1 POP SWAP3 SWAP2 POP POP JUMP JUMPDEST PUSH1 0x0 DUP2 SWAP1 POP PUSH1 0x20 DUP3 ADD SWAP1 POP SWAP2 SWAP1 POP JUMP JUMPDEST PUSH1 0x0 DUP2 ISZERO ISZERO SWAP1 POP SWAP2 SWAP1 POP JUMP JUMPDEST PUSH2 0xD22 DUP2 PUSH2 0xD0D JUMP JUMPDEST DUP3 MSTORE POP POP JUMP JUMPDEST PUSH1 0x0 DUP2 MLOAD SWAP1 POP SWAP2 SWAP1 POP JUMP JUMPDEST PUSH1 0x0 DUP3 DUP3 MSTORE PUSH1 0x20 DUP3 ADD SWAP1 POP SWAP3 SWAP2 POP POP JUMP JUMPDEST PUSH1 0x0 JUMPDEST DUP4 DUP2 LT ISZERO PUSH2 0xD62 JUMPI DUP1 DUP3 ADD MLOAD DUP2 DUP5 ADD MSTORE PUSH1 0x20 DUP2 ADD SWAP1 POP PUSH2 0xD47 JUMP JUMPDEST DUP4 DUP2 GT ISZERO PUSH2 0xD71 JUMPI PUSH1 0x0 DUP5 DUP5 ADD MSTORE JUMPDEST POP POP POP POP JUMP JUMPDEST PUSH1 0x0 PUSH1 0x1F NOT PUSH1 0x1F DUP4 ADD AND SWAP1 POP SWAP2 SWAP1 POP JUMP JUMPDEST PUSH1 0x0 PUSH2 0xD93 DUP3 PUSH2 0xD28 JUMP JUMPDEST PUSH2 0xD9D DUP2 DUP6 PUSH2 0xD33 JUMP JUMPDEST SWAP4 POP PUSH2 0xDAD DUP2 DUP6 PUSH1 0x20 DUP7 ADD PUSH2 0xD44 JUMP JUMPDEST PUSH2 0xDB6 DUP2 PUSH2 0xD77 JUMP JUMPDEST DUP5 ADD SWAP2 POP POP SWAP3 SWAP2 POP POP JUMP JUMPDEST PUSH1 0x0 PUSH1 0x40 DUP4 ADD PUSH1 0x0 DUP4 ADD MLOAD PUSH2 0xDD9 PUSH1 0x0 DUP7 ADD DUP3 PUSH2 0xD19 JUMP JUMPDEST POP PUSH1 0x20 DUP4 ADD MLOAD DUP5 DUP3 SUB PUSH1 0x20 DUP7 ADD MSTORE PUSH2 0xDF1 DUP3 DUP3 PUSH2 0xD88 JUMP JUMPDEST SWAP2 POP POP DUP1 SWAP2 POP POP SWAP3 SWAP2 POP POP JUMP JUMPDEST PUSH1 0x0 PUSH2 0xE0A DUP4 DUP4 PUSH2 0xDC1 JUMP JUMPDEST SWAP1 POP SWAP3 SWAP2 POP POP JUMP JUMPDEST PUSH1 0x0 PUSH1 0x20 DUP3 ADD SWAP1 POP SWAP2 SWAP1 POP JUMP JUMPDEST PUSH1 0x0 PUSH2 0xE2A DUP3 PUSH2 0xCE1 JUMP JUMPDEST PUSH2 0xE34 DUP2 DUP6 PUSH2 0xCEC JUMP JUMPDEST SWAP4 POP DUP4 PUSH1 0x20 DUP3 MUL DUP6 ADD PUSH2 0xE46 DUP6 PUSH2 0xCFD JUMP JUMPDEST DUP1 PUSH1 0x0 JUMPDEST DUP6 DUP2 LT ISZERO PUSH2 0xE82 JUMPI DUP5 DUP5 SUB DUP10 MSTORE DUP2 MLOAD PUSH2 0xE63 DUP6 DUP3 PUSH2 0xDFE JUMP JUMPDEST SWAP5 POP PUSH2 0xE6E DUP4 PUSH2 0xE12 JUMP JUMPDEST SWAP3 POP PUSH1 0x20 DUP11 ADD SWAP10 POP POP PUSH1 0x1 DUP2 ADD SWAP1 POP PUSH2 0xE4A JUMP JUMPDEST POP DUP3 SWAP8 POP DUP8 SWAP6 POP POP POP POP POP POP SWAP3 SWAP2 POP POP JUMP JUMPDEST PUSH1 0x0 PUSH1 0x20 DUP3 ADD SWAP1 POP DUP2 DUP2 SUB PUSH1 0x0 DUP4 ADD MSTORE PUSH2 0xEAE DUP2 DUP5 PUSH2 0xE1F JUMP JUMPDEST SWAP1 POP SWAP3 SWAP2 POP POP JUMP JUMPDEST PUSH1 0x0 DUP1 DUP4 PUSH1 0x1F DUP5 ADD SLT PUSH2 0xECC JUMPI PUSH2 0xECB PUSH2 0xC2F JUMP JUMPDEST JUMPDEST DUP3 CALLDATALOAD SWAP1 POP PUSH8 0xFFFFFFFFFFFFFFFF DUP2 GT ISZERO PUSH2 0xEE9 JUMPI PUSH2 0xEE8 PUSH2 0xC34 JUMP JUMPDEST JUMPDEST PUSH1 0x20 DUP4 ADD SWAP2 POP DUP4 PUSH1 0x20 DUP3 MUL DUP4 ADD GT ISZERO PUSH2 0xF05 JUMPI PUSH2 0xF04 PUSH2 0xC39 JUMP JUMPDEST JUMPDEST SWAP3 POP SWAP3 SWAP1 POP JUMP JUMPDEST PUSH1 0x0 DUP1 PUSH1 0x20 DUP4 DUP6 SUB SLT ISZERO PUSH2 0xF23 JUMPI PUSH2 0xF22 PUSH2 0xC25 JUMP JUMPDEST JUMPDEST PUSH1 0x0 DUP4 ADD CALLDATALOAD PUSH8 0xFFFFFFFFFFFFFFFF DUP2 GT ISZERO PUSH2 0xF41 JUMPI PUSH2 0xF40 PUSH2 0xC2A JUMP JUMPDEST JUMPDEST PUSH2 0xF4D DUP6 DUP3 DUP7 ADD PUSH2 0xEB6 JUMP JUMPDEST SWAP3 POP SWAP3 POP POP SWAP3 POP SWAP3 SWAP1 POP JUMP JUMPDEST PUSH1 0x0 DUP2 MLOAD SWAP1 POP SWAP2 SWAP1 POP JUMP JUMPDEST PUSH1 0x0 DUP3 DUP3 MSTORE PUSH1 0x20 DUP3 ADD SWAP1 POP SWAP3 SWAP2 POP POP JUMP JUMPDEST PUSH1 0x0 DUP2 SWAP1 POP PUSH1 0x20 DUP3 ADD SWAP1 POP SWAP2 SWAP1 POP JUMP JUMPDEST PUSH1 0x0 PUSH2 0xF91 DUP4 DUP4 PUSH2 0xD88 JUMP JUMPDEST SWAP1 POP SWAP3 SWAP2 POP POP JUMP JUMPDEST PUSH1 0x0 PUSH1 0x20 DUP3 ADD SWAP1 POP SWAP2 SWAP1 POP JUMP JUMPDEST PUSH1 0x0 PUSH2 0xFB1 DUP3 PUSH2 0xF59 JUMP JUMPDEST PUSH2 0xFBB DUP2 DUP6 PUSH2 0xF64 JUMP JUMPDEST SWAP4 POP DUP4 PUSH1 0x20 DUP3 MUL DUP6 ADD PUSH2 0xFCD DUP6 PUSH2 0xF75 JUMP JUMPDEST DUP1 PUSH1 0x0 JUMPDEST DUP6 DUP2 LT ISZERO PUSH2 0x1009 JUMPI DUP5 DUP5 SUB DUP10 MSTORE DUP2 MLOAD PUSH2 0xFEA DUP6 DUP3 PUSH2 0xF85 JUMP JUMPDEST SWAP5 POP PUSH2 0xFF5 DUP4 PUSH2 0xF99 JUMP JUMPDEST SWAP3 POP PUSH1 0x20 DUP11 ADD SWAP10 POP POP PUSH1 0x1 DUP2 ADD SWAP1 POP PUSH2 0xFD1 JUMP JUMPDEST POP DUP3 SWAP8 POP DUP8 SWAP6 POP POP POP POP POP POP SWAP3 SWAP2 POP POP JUMP JUMPDEST PUSH1 0x0 PUSH1 0x40 DUP3 ADD SWAP1 POP PUSH2 0x1030 PUSH1 0x0 DUP4 ADD DUP6 PUSH2 0xBFB JUMP JUMPDEST DUP2 DUP2 SUB PUSH1 0x20 DUP4 ADD MSTORE PUSH2 0x1042 DUP2 DUP5 PUSH2 0xFA6 JUMP JUMPDEST SWAP1 POP SWAP4 SWAP3 POP POP POP JUMP JUMPDEST PUSH1 0x0 DUP2 SWAP1 POP SWAP2 SWAP1 POP JUMP JUMPDEST PUSH2 0x105E DUP2 PUSH2 0x104B JUMP JUMPDEST DUP3 MSTORE POP POP JUMP JUMPDEST PUSH1 0x0 PUSH1 0x20 DUP3 ADD SWAP1 POP PUSH2 0x1079 PUSH1 0x0 DUP4 ADD DUP5 PUSH2 0x1055 JUMP JUMPDEST SWAP3 SWAP2 POP POP JUMP JUMPDEST PUSH2 0x1088 DUP2 PUSH2 0xD0D JUMP JUMPDEST DUP2 EQ PUSH2 0x1093 JUMPI PUSH1 0x0 DUP1 REVERT JUMPDEST POP JUMP JUMPDEST PUSH1 0x0 DUP2 CALLDATALOAD SWAP1 POP PUSH2 0x10A5 DUP2 PUSH2 0x107F JUMP JUMPDEST SWAP3 SWAP2 POP POP JUMP JUMPDEST PUSH1 0x0 DUP1 PUSH1 0x0 PUSH1 0x40 DUP5 DUP7 SUB SLT ISZERO PUSH2 0x10C4 JUMPI PUSH2 0x10C3 PUSH2 0xC25 JUMP JUMPDEST JUMPDEST PUSH1 0x0 PUSH2 0x10D2 DUP7 DUP3 DUP8 ADD PUSH2 0x1096 JUMP JUMPDEST SWAP4 POP POP PUSH1 0x20 DUP5 ADD CALLDATALOAD PUSH8 0xFFFFFFFFFFFFFFFF DUP2 GT ISZERO PUSH2 0x10F3 JUMPI PUSH2 0x10F2 PUSH2 0xC2A JUMP JUMPDEST JUMPDEST PUSH2 0x10FF DUP7 DUP3 DUP8 ADD PUSH2 0xEB6 JUMP JUMPDEST SWAP3 POP SWAP3 POP POP SWAP3 POP SWAP3 POP SWAP3 JUMP JUMPDEST PUSH1 0x0 PUSH1 0x60 DUP3 ADD SWAP1 POP PUSH2 0x1120 PUSH1 0x0 DUP4 ADD DUP7 PUSH2 0xBFB JUMP JUMPDEST PUSH2 0x112D PUSH1 0x20 DUP4 ADD DUP6 PUSH2 0x1055 JUMP JUMPDEST DUP2 DUP2 SUB PUSH1 0x40 DUP4 ADD MSTORE PUSH2 0x113F DUP2 DUP5 PUSH2 0xE1F JUMP JUMPDEST SWAP1 POP SWAP5 SWAP4 POP POP POP POP JUMP JUMPDEST PUSH1 0x0 PUSH20 0xFFFFFFFFFFFFFFFFFFFFFFFFFFFFFFFFFFFFFFFF DUP3 AND SWAP1 POP SWAP2 SWAP1 POP JUMP JUMPDEST PUSH1 0x0 PUSH2 0x1174 DUP3 PUSH2 0x1149 JUMP JUMPDEST SWAP1 POP SWAP2 SWAP1 POP JUMP JUMPDEST PUSH2 0x1184 DUP2 PUSH2 0x1169 JUMP JUMPDEST DUP2 EQ PUSH2 0x118F JUMPI PUSH1 0x0 DUP1 REVERT JUMPDEST POP JUMP JUMPDEST PUSH1 0x0 DUP2 CALLDATALOAD SWAP1 POP PUSH2 0x11A1 DUP2 PUSH2 0x117B JUMP JUMPDEST SWAP3 SWAP2 POP POP JUMP JUMPDEST PUSH1 0x0 PUSH1 0x20 DUP3 DUP5 SUB SLT ISZERO PUSH2 0x11BD JUMPI PUSH2 0x11BC PUSH2 0xC25 JUMP JUMPDEST JUMPDEST PUSH1 0x0 PUSH2 0x11CB DUP5 DUP3 DUP6 ADD PUSH2 0x1192 JUMP JUMPDEST SWAP2 POP POP SWAP3 SWAP2 POP POP JUMP JUMPDEST PUSH1 0x0 DUP1 DUP4 PUSH1 0x1F DUP5 ADD SLT PUSH2 0x11EA JUMPI PUSH2 0x11E9 PUSH2 0xC2F JUMP JUMPDEST JUMPDEST DUP3 CALLDATALOAD SWAP1 POP PUSH8 0xFFFFFFFFFFFFFFFF DUP2 GT ISZERO PUSH2 0x1207 JUMPI PUSH2 0x1206 PUSH2 0xC34 JUMP JUMPDEST JUMPDEST PUSH1 0x20 DUP4 ADD SWAP2 POP DUP4 PUSH1 0x20 DUP3 MUL DUP4 ADD GT ISZERO PUSH2 0x1223 JUMPI PUSH2 0x1222 PUSH2 0xC39 JUMP JUMPDEST JUMPDEST SWAP3 POP SWAP3 SWAP1 POP JUMP JUMPDEST PUSH1 0x0 DUP1 PUSH1 0x20 DUP4 DUP6 SUB SLT ISZERO PUSH2 0x1241 JUMPI PUSH2 0x1240 PUSH2 0xC25 JUMP JUMPDEST JUMPDEST PUSH1 0x0 DUP4 ADD CALLDATALOAD PUSH8 0xFFFFFFFFFFFFFFFF DUP2 GT ISZERO PUSH2 0x125F JUMPI PUSH2 0x125E PUSH2 0xC2A JUMP JUMPDEST JUMPDEST PUSH2 0x126B DUP6 DUP3 DUP7 ADD PUSH2 0x11D4 JUMP JUMPDEST SWAP3 POP SWAP3 POP POP SWAP3 POP SWAP3 SWAP1 POP JUMP JUMPDEST PUSH2 0x1280 DUP2 PUSH2 0x1169 JUMP JUMPDEST DUP3 MSTORE POP POP JUMP JUMPDEST PUSH1 0x0 PUSH1 0x20 DUP3 ADD SWAP1 POP PUSH2 0x129B PUSH1 0x0 DUP4 ADD DUP5 PUSH2 0x1277 JUMP JUMPDEST SWAP3 SWAP2 POP POP JUMP JUMPDEST PUSH2 0x12AA DUP2 PUSH2 0xBF1 JUMP JUMPDEST DUP2 EQ PUSH2 0x12B5 JUMPI PUSH1 0x0 DUP1 REVERT JUMPDEST POP JUMP JUMPDEST PUSH1 0x0 DUP2 CALLDATALOAD SWAP1 POP PUSH2 0x12C7 DUP2 PUSH2 0x12A1 JUMP JUMPDEST SWAP3 SWAP2 POP POP JUMP JUMPDEST PUSH1 0x0 PUSH1 0x20 DUP3 DUP5 SUB SLT ISZERO PUSH2 0x12E3 JUMPI PUSH2 0x12E2 PUSH2 0xC25 JUMP JUMPDEST JUMPDEST PUSH1 0x0 PUSH2 0x12F1 DUP5 DUP3 DUP6 ADD PUSH2 0x12B8 JUMP JUMPDEST SWAP2 POP POP SWAP3 SWAP2 POP POP JUMP JUMPDEST PUSH32 0x4E487B7100000000000000000000000000000000000000000000000000000000 PUSH1 0x0 MSTORE PUSH1 0x41 PUSH1 0x4 MSTORE PUSH1 0x24 PUSH1 0x0 REVERT JUMPDEST PUSH32 0x4E487B7100000000000000000000000000000000000000000000000000000000 PUSH1 0x0 MSTORE PUSH1 0x32 PUSH1 0x4 MSTORE PUSH1 0x24 PUSH1 0x0 REVERT JUMPDEST PUSH1 0x0 DUP1 REVERT JUMPDEST PUSH1 0x0 DUP1 REVERT JUMPDEST PUSH1 0x0 DUP1 REVERT JUMPDEST PUSH1 0x0 DUP3 CALLDATALOAD PUSH1 0x1 PUSH1 0x80 SUB DUP4 CALLDATASIZE SUB SUB DUP2 SLT PUSH2 0x1383 JUMPI PUSH2 0x1382 PUSH2 0x1358 JUMP JUMPDEST JUMPDEST DUP1 DUP4 ADD SWAP2 POP POP SWAP3 SWAP2 POP POP JUMP JUMPDEST PUSH1 0x0 DUP1 DUP4 CALLDATALOAD PUSH1 0x1 PUSH1 0x20 SUB DUP5 CALLDATASIZE SUB SUB DUP2 SLT PUSH2 0x13AC JUMPI PUSH2 0x13AB PUSH2 0x1358 JUMP JUMPDEST JUMPDEST DUP1 DUP5 ADD SWAP3 POP DUP3 CALLDATALOAD SWAP2 POP PUSH8 0xFFFFFFFFFFFFFFFF DUP3 GT ISZERO PUSH2 0x13CE JUMPI PUSH2 0x13CD PUSH2 0x135D JUMP JUMPDEST JUMPDEST PUSH1 0x20 DUP4 ADD SWAP3 POP PUSH1 0x1 DUP3 MUL CALLDATASIZE SUB DUP4 SGT ISZERO PUSH2 0x13EA JUMPI PUSH2 0x13E9 PUSH2 0x1362 JUMP JUMPDEST JUMPDEST POP SWAP3 POP SWAP3 SWAP1 POP JUMP JUMPDEST PUSH1 0x0 DUP2 SWAP1 POP SWAP3 SWAP2 POP POP JUMP JUMPDEST DUP3 DUP2 DUP4 CALLDATACOPY PUSH1 0x0 DUP4 DUP4 ADD MSTORE POP POP POP JUMP JUMPDEST PUSH1 0x0 PUSH2 0x1418 DUP4 DUP6 PUSH2 0x13F2 JUMP JUMPDEST SWAP4 POP PUSH2 0x1425 DUP4 DUP6 DUP5 PUSH2 0x13FD JUMP JUMPDEST DUP3 DUP5 ADD SWAP1 POP SWAP4 SWAP3 POP POP POP JUMP JUMPDEST PUSH1 0x0 PUSH2 0x143E DUP3 DUP5 DUP7 PUSH2 0x140C JUMP JUMPDEST SWAP2 POP DUP2 SWAP1 POP SWAP4 SWAP3 POP POP POP JUMP JUMPDEST PUSH1 0x0 DUP3 DUP3 MSTORE PUSH1 0x20 DUP3 ADD SWAP1 POP SWAP3 SWAP2 POP POP JUMP JUMPDEST PUSH32 0x4D756C746963616C6C333A2076616C7565206D69736D61746368000000000000 PUSH1 0x0 DUP3 ADD MSTORE POP JUMP JUMPDEST PUSH1 0x0 PUSH2 0x1491 PUSH1 0x1A DUP4 PUSH2 0x144A JUMP JUMPDEST SWAP2 POP PUSH2 0x149C DUP3 PUSH2 0x145B JUMP JUMPDEST PUSH1 0x20 DUP3 ADD SWAP1 POP SWAP2 SWAP1 POP JUMP JUMPDEST PUSH1 0x0 PUSH1 0x20 DUP3 ADD SWAP1 POP DUP2 DUP2 SUB PUSH1 0x0 DUP4 ADD MSTORE PUSH2 0x14C0 DUP2 PUSH2 0x1484 JUMP JUMPDEST SWAP1 POP SWAP2 SWAP1 POP JUMP JUMPDEST PUSH1 0x0 DUP3 CALLDATALOAD PUSH1 0x1 PUSH1 0x40 SUB DUP4 CALLDATASIZE SUB SUB DUP2 SLT PUSH2 0x14E3 JUMPI PUSH2 0x14E2 PUSH2 0x1358 JUMP JUMPDEST JUMPDEST DUP1 DUP4 ADD SWAP2 POP POP SWAP3 SWAP2 POP POP JUMP JUMPDEST PUSH32 0x4D756C746963616C6C333A2063616C6C206661696C6564000000000000000000 PUSH1 0x0 DUP3 ADD MSTORE POP JUMP JUMPDEST PUSH1 0x0 PUSH2 0x1525 PUSH1 0x17 DUP4 PUSH2 0x144A JUMP JUMPDEST SWAP2 POP PUSH2 0x1530 DUP3 PUSH2 0x14EF JUMP JUMPDEST PUSH1 0x20 DUP3 ADD SWAP1 POP SWAP2 SWAP1 POP JUMP JUMPDEST PUSH1 0x0 PUSH1 0x20 DUP3 ADD SWAP1 POP DUP2 DUP2 SUB PUSH1 0x0 DUP4 ADD MSTORE PUSH2 0x1554 DUP2 PUSH2 0x1518 JUMP JUMPDEST SWAP1 POP SWAP2 SWAP1 POP JUMP JUMPDEST PUSH1 0x0 DUP3 CALLDATALOAD PUSH1 0x1 PUSH1 0x60 SUB DUP4 CALLDATASIZE SUB SUB DUP2 SLT PUSH2 0x1577 JUMPI PUSH2 0x1576 PUSH2 0x1358 JUMP JUMPDEST JUMPDEST DUP1 DUP4 ADD SWAP2 POP POP SWAP3 SWAP2 POP POP JUMP INVALID LOG2 PUSH5 0x6970667358 0x22 SLT KECCAK256 EQ MSTORE8 SWAP6 CALLCODE 0xCA SWAP5 SHL SWAP9 0x2C 0xE5 STOP 0xC6 0xEC 0xD1 CHAINID PUSH13 0xD8A4A6E8D106189B64009AC42B 0x1E DUP9 0xDA PUSH5 0x736F6C6343 STOP ADDMOD 0xC STOP CALLER "
  },
  "abi": [
    {
      "inputs": [
        {
          "components": [
            {
              "internalType": "address",
              "name": "target",
              "type": "address"
            },
            {
              "internalType": "bytes",
              "name": "callData",
              "type": "bytes"
            }
          ],
          "internalType": "struct Multicall3.Call[]",
          "name": "calls",
          "type": "tuple[]"
        }
      ],
      "name": "aggregate",
      "outputs": [
        {
          "internalType": "uint256",
          "name": "blockNumber",
          "type": "uint256"
        },
        {
          "internalType": "bytes[]",
          "name": "returnData",
          "type": "bytes[]"
        }
      ],
      "stateMutability": "payable",
      "type": "function"
    },
    {
      "inputs": [
        {
          "components": [
            {
              "internalType": "address",
              "name": "target",
              "type": "address"
            },
            {
              "internalType": "bool",
              "name": "allowFailure",
              "type": "bool"
            },
            {
              "internalType": "bytes",
              "name": "callData",
              "type": "bytes"
            }
          ],
          "internalType": "struct Multicall3.Call3[]",
          "name": "calls",
          "type": "tuple[]"
        }
      ],
      "name": "aggregate3",
      "outputs": [
        {
          "components": [
            {
              "internalType": "bool",
              "name": "success",
              "type": "bool"
            },
            {
              "internalType": "bytes",
              "name": "returnData",
              "type": "bytes"
            }
          ],
          "internalType": "struct Multicall3.Result[]",
          "name": "returnData",
          "type": "tuple[]"
        }
      ],
      "stateMutability": "payable",
      "type": "function"
    },
    {
      "inputs": [
        {
          "components": [
            {
              "internalType": "address",
              "name": "target",
              "type": "address"
            },
            {
              "internalType": "bool",
              "name": "allowFailure",
              "type": "bool"
            },
            {
              "internalType": "uint256",
              "name": "value",
              "type": "uint256"
            },
            {
              "internalType": "bytes",
              "name": "callData",
              "type": "bytes"
            }
          ],
          "internalType": "struct Multicall3.Call3Value[]",
          "name": "calls",
          "type": "tuple[]"
        }
      ],
      "name": "aggregate3Value",
      "outputs": [
        {
          "components": [
            {
              "internalType": "bool",
              "name": "success",
              "type": "bool"
            },
            {
              "internalType": "bytes",
              "name": "returnData",
              "type": "bytes"
            }
          ],
          "internalType": "struct Multicall3.Result[]",
          "name": "returnData",
          "type": "tuple[]"
        }
      ],
      "stateMutability": "payable",
      "type": "function"
    },
    {
      "inputs": [
        {
          "components": [
            {
              "internalType": "address",
              "name": "target",
              "type": "address"
            },
            {
              "internalType": "bytes",
              "name": "callData",
              "type": "bytes"
            }
          ],
          "internalType": "struct Multicall3.Call[]",
          "name": "calls",
          "type": "tuple[]"
        }
      ],
      "name": "blockAndAggregate",
      "outputs": [
        {
          "internalType": "uint256",
          "name": "blockNumber",
          "type": "uint256"
        },
        {
          "internalType": "bytes32",
          "name": "blockHash",
          "type": "bytes32"
        },
        {
          "components": [
            {
              "internalType": "bool",
              "name": "success",
              "type": "bool"
            },
            {
              "internalType": "bytes",
              "name": "returnData",
              "type": "bytes"
            }
          ],
          "internalType": "struct Multicall3.Result[]",
          "name": "returnData",
          "type": "tuple[]"
        }
      ],
      "stateMutability": "payable",
      "type": "function"
    },
    {
      "inputs": [],
      "name": "getBasefee",
      "outputs": [
        {
          "internalType": "uint256",
          "name": "basefee",
          "type": "uint256"
        }
      ],
      "stateMutability": "view",
      "type": "function"
    },
    {
      "inputs": [
        {
          "internalType": "uint256",
          "name": "blockNumber",
          "type": "uint256"
        }
      ],
      "name": "getBlockHash",
      "outputs": [
        {
          "internalType": "bytes32",
          "name": "blockHash",
          "type": "bytes32"
        }
      ],
      "stateMutability": "view",
      "type": "function"
    },
    {
      "inputs": [],
      "name": "getBlockNumber",
      "outputs": [
        {
          "internalType": "uint256",
          "name": "blockNumber",
          "type": "uint256"
        }
      ],
      "stateMutability": "view",
      "type": "function"
    },
    {
      "inputs": [],
      "name": "getChainId",
      "outputs": [
        {
          "internalType": "uint256",
          "name": "chainid",
          "type": "uint256"
        }
      ],
      "stateMutability": "view",
      "type": "function"
    },
    {
      "inputs": [],
      "name": "getCurrentBlockCoinbase",
      "outputs": [
        {
          "internalType": "address",
          "name": "coinbase",
          "type": "address"
        }
      ],
      "stateMutability": "view",
      "type": "function"
    },
    {
      "inputs": [],
      "name": "getCurrentBlockDifficulty",
      "outputs": [
        {
          "internalType": "uint256",
          "name": "difficulty",
          "type": "uint256"
        }
      ],
      "stateMutability": "view",
      "type": "function"
    },
    {
      "inputs": [],
      "name": "getCurrentBlockGasLimit",
      "outputs": [
        {
          "internalType": "uint256",
          "name": "gaslimit",
          "type": "uint256"
        }
      ],
      "stateMutability": "view",
      "type": "function"
    },
    {
      "inputs": [],
      "name": "getCurrentBlockTimestamp",
      "outputs": [
        {
          "internalType": "uint256",
          "name": "timestamp",
          "type": "uint256"
        }
      ],
      "stateMutability": "view",
      "type": "function"
    },
    {
      "inputs": [
        {
          "internalType": "address",
          "name": "addr",
          "type": "address"
        }
      ],
      "name": "getEthBalance",
      "outputs": [
        {
          "internalType": "uint256",
          "name": "balance",
          "type": "uint256"
        }
      ],
      "stateMutability": "view",
      "type": "function"
    },
    {
      "inputs": [],
      "name": "getLastBlockHash",
      "outputs": [
        {
          "internalType": "bytes32",
          "name": "blockHash",
          "type": "bytes32"
        }
      ],
      "stateMutability": "view",
      "type": "function"
    },
    {
      "inputs": [
        {
          "internalType": "bool",
          "name": "requireSuccess",
          "type": "bool"
        },
        {
          "components": [
            {
              "internalType": "address",
              "name": "target",
              "type": "address"
            },
            {
              "internalType": "bytes",
              "name": "callData",
              "type": "bytes"
            }
          ],
          "internalType": "struct Multicall3.Call[]",
          "name": "calls",
          "type": "tuple[]"
        }
      ],
      "name": "tryAggregate",
      "outputs": [
        {
          "components": [
            {
              "internalType": "bool",
              "name": "success",
              "type": "bool"
            },
            {
              "internalType": "bytes",
              "name": "returnData",
              "type": "bytes"
            }
          ],
          "internalType": "struct Multicall3.Result[]",
          "name": "returnData",
          "type": "tuple[]"
        }
      ],
      "stateMutability": "payable",
      "type": "function"
    },
    {
      "inputs": [
        {
          "internalType": "bool",
          "name": "requireSuccess",
          "type": "bool"
        },
        {
          "components": [
            {
              "internalType": "address",
              "name": "target",
              "type": "address"
            },
            {
              "internalType": "bytes",
              "name": "callData",
              "type": "bytes"
            }
          ],
          "internalType": "struct Multicall3.Call[]",
          "name": "calls",
          "type": "tuple[]"
        }
      ],
      "name": "tryBlockAndAggregate",
      "outputs": [
        {
          "internalType": "uint256",
          "name": "blockNumber",
          "type": "uint256"
        },
        {
          "internalType": "bytes32",
          "name": "blockHash",
          "type": "bytes32"
        },
        {
          "components": [
            {
              "internalType": "bool",
              "name": "success",
              "type": "bool"
            },
            {
              "internalType": "bytes",
              "name": "returnData",
              "type": "bytes"
            }
          ],
          "internalType": "struct Multicall3.Result[]",
          "name": "returnData",
          "type": "tuple[]"
        }
      ],
      "stateMutability": "payable",
      "type": "function"
    }
  ],
  "storageLayout": {
    "storage": [],
    "types": null
  },
  "web3Deploy": "var multicall3Contract = new web3.eth.Contract([{\"inputs\":[{\"components\":[{\"internalType\":\"address\",\"name\":\"target\",\"type\":\"address\"},{\"internalType\":\"bytes\",\"name\":\"callData\",\"type\":\"bytes\"}],\"internalType\":\"struct Multicall3.Call[]\",\"name\":\"calls\",\"type\":\"tuple[]\"}],\"name\":\"aggregate\",\"outputs\":[{\"internalType\":\"uint256\",\"name\":\"blockNumber\",\"type\":\"uint256\"},{\"internalType\":\"bytes[]\",\"name\":\"returnData\",\"type\":\"bytes[]\"}],\"stateMutability\":\"payable\",\"type\":\"function\"},{\"inputs\":[{\"components\":[{\"internalType\":\"address\",\"name\":\"target\",\"type\":\"address\"},{\"internalType\":\"bool\",\"name\":\"allowFailure\",\"type\":\"bool\"},{\"internalType\":\"bytes\",\"name\":\"callData\",\"type\":\"bytes\"}],\"internalType\":\"struct Multicall3.Call3[]\",\"name\":\"calls\",\"type\":\"tuple[]\"}],\"name\":\"aggregate3\",\"outputs\":[{\"components\":[{\"internalType\":\"bool\",\"name\":\"success\",\"type\":\"bool\"},{\"internalType\":\"bytes\",\"name\":\"returnData\",\"type\":\"bytes\"}],\"internalType\":\"struct Multicall3.Result[]\",\"name\":\"returnData\",\"type\":\"tuple[]\"}],\"stateMutability\":\"payable\",\"type\":\"function\"},{\"inputs\":[{\"components\":[{\"internalType\":\"address\",\"name\":\"target\",\"type\":\"address\"},{\"internalType\":\"bool\",\"name\":\"allowFailure\",\"type\":\"bool\"},{\"internalType\":\"uint256\",\"name\":\"value\",\"type\":\"uint256\"},{\"internalType\":\"bytes\",\"name\":\"callData\",\"type\":\"bytes\"}],\"internalType\":\"struct Multicall3.Call3Value[]\",\"name\":\"calls\",\"type\":\"tuple[]\"}],\"name\":\"aggregate3Value\",\"outputs\":[{\"components\":[{\"internalType\":\"bool\",\"name\":\"success\",\"type\":\"bool\"},{\"internalType\":\"bytes\",\"name\":\"returnData\",\"type\":\"bytes\"}],\"internalType\":\"struct Multicall3.Result[]\",\"name\":\"returnData\",\"type\":\"tuple[]\"}],\"stateMutability\":\"payable\",\"type\":\"function\"},{\"inputs\":[{\"components\":[{\"internalType\":\"address\",\"name\":\"target\",\"type\":\"address\"},{\"internalType\":\"bytes\",\"name\":\"callData\",\"type\":\"bytes\"}],\"internalType\":\"struct Multicall3.Call[]\",\"name\":\"calls\",\"type\":\"tuple[]\"}],\"name\":\"blockAndAggregate\",\"outputs\":[{\"internalType\":\"uint256\",\"name\":\"blockNumber\",\"type\":\"uint256\"},{\"internalType\":\"bytes32\",\"name\":\"blockHash\",\"type\":\"bytes32\"},{\"components\":[{\"internalType\":\"bool\",\"name\":\"success\",\"type\":\"bool\"},{\"internalType\":\"bytes\",\"name\":\"returnData\",\"type\":\"bytes\"}],\"internalType\":\"struct Multicall3.Result[]\",\"name\":\"returnData\",\"type\":\"tuple[]\"}],\"stateMutability\":\"payable\",\"type\":\"function\"},{\"inputs\":[],\"name\":\"getBasefee\",\"outputs\":[{\"internalType\":\"uint256\",\"name\":\"basefee\",\"type\":\"uint256\"}],\"stateMutability\":\"view\",\"type\":\"function\"},{\"inputs\":[{\"internalType\":\"uint256\",\"name\":\"blockNumber\",\"type\":\"uint256\"}],\"name\":\"getBlockHash\",\"outputs\":[{\"internalType\":\"bytes32\",\"name\":\"blockHash\",\"type\":\"bytes32\"}],\"stateMutability\":\"view\",\"type\":\"function\"},{\"inputs\":[],\"name\":\"getBlockNumber\",\"outputs\":[{\"internalType\":\"uint256\",\"name\":\"blockNumber\",\"type\":\"uint256\"}],\"stateMutability\":\"view\",\"type\":\"function\"},{\"inputs\":[],\"name\":\"getChainId\",\"outputs\":[{\"internalType\":\"uint256\",\"name\":\"chainid\",\"type\":\"uint256\"}],\"stateMutability\":\"view\",\"type\":\"function\"},{\"inputs\":[],\"name\":\"getCurrentBlockCoinbase\",\"outputs\":[{\"internalType\":\"address\",\"name\":\"coinbase\",\"type\":\"address\"}],\"stateMutability\":\"view\",\"type\":\"function\"},{\"inputs\":[],\"name\":\"getCurrentBlockDifficulty\",\"outputs\":[{\"internalType\":\"uint256\",\"name\":\"difficulty\",\"type\":\"uint256\"}],\"stateMutability\":\"view\",\"type\":\"function\"},{\"inputs\":[],\"name\":\"getCurrentBlockGasLimit\",\"outputs\":[{\"internalType\":\"uint256\",\"name\":\"gaslimit\",\"type\":\"uint256\"}],\"stateMutability\":\"view\",\"type\":\"function\"},{\"inputs\":[],\"name\":\"getCurrentBlockTimestamp\",\"outputs\":[{\"internalType\":\"uint256\",\"name\":\"timestamp\",\"type\":\"uint256\"}],\"stateMutability\":\"view\",\"type\":\"function\"},{\"inputs\":[{\"internalType\":\"address\",\"name\":\"addr\",\"type\":\"address\"}],\"name\":\"getEthBalance\",\"outputs\":[{\"internalType\":\"uint256\",\"name\":\"balance\",\"type\":\"uint256\"}],\"stateMutability\":\"view\",\"type\":\"function\"},{\"inputs\":[],\"name\":\"getLastBlockHash\",\"outputs\":[{\"internalType\":\"bytes32\",\"name\":\"blockHash\",\"type\":\"bytes32\"}],\"stateMutability\":\"view\",\"type\":\"function\"},{\"inputs\":[{\"internalType\":\"bool\",\"name\":\"requireSuccess\",\"type\":\"bool\"},{\"components\":[{\"internalType\":\"address\",\"name\":\"target\",\"type\":\"address\"},{\"internalType\":\"bytes\",\"name\":\"callData\",\"type\":\"bytes\"}],\"internalType\":\"struct Multicall3.Call[]\",\"name\":\"calls\",\"type\":\"tuple[]\"}],\"name\":\"tryAggregate\",\"outputs\":[{\"components\":[{\"internalType\":\"bool\",\"name\":\"success\",\"type\":\"bool\"},{\"internalType\":\"bytes\",\"name\":\"returnData\",\"type\":\"bytes\"}],\"internalType\":\"struct Multicall3.Result[]\",\"name\":\"returnData\",\"type\":\"tuple[]\"}],\"stateMutability\":\"payable\",\"type\":\"function\"},{\"inputs\":[{\"internalType\":\"bool\",\"name\":\"requireSuccess\",\"type\":\"bool\"},{\"components\":[{\"internalType\":\"address\",\"name\":\"target\",\"type\":\"address\"},{\"internalType\":\"bytes\",\"name\":\"callData\",\"type\":\"bytes\"}],\"internalType\":\"struct Multicall3.Call[]\",\"name\":\"calls\",\"type\":\"tuple[]\"}],\"name\":\"tryBlockAndAggregate\",\"outputs\":[{\"internalType\":\"uint256\",\"name\":\"blockNumber\",\"type\":\"uint256\"},{\"internalType\":\"bytes32\",\"name\":\"blockHash\",\"type\":\"bytes32\"},{\"components\":[{\"internalType\":\"bool\",\"name\":\"success\",\"type\":\"bool\"},{\"internalType\":\"bytes\",\"name\":\"returnData\",\"type\":\"bytes\"}],\"internalType\":\"struct Multicall3.Result[]\",\"name\":\"returnData\",\"type\":\"tuple[]\"}],\"stateMutability\":\"payable\",\"type\":\"function\"}]);\nvar multicall3 = multicall3Contract.deploy({\n     data: '0x608060405234801561001057600080fd5b506115b9806100206000396000f3fe6080604052600436106100f35760003560e01c80634d2301cc1161008a578063a8b0574e11610059578063a8b0574e14610325578063bce38bd714610350578063c3077fa914610380578063ee82ac5e146103b2576100f3565b80634d2301cc1461026257806372425d9d1461029f57806382ad56cb146102ca57806386d516e8146102fa576100f3565b80633408e470116100c65780633408e470146101af578063399542e9146101da5780633e64a6961461020c57806342cbb15c14610237576100f3565b80630f28c97d146100f8578063174dea7114610123578063252dba421461015357806327e86d6e14610184575b600080fd5b34801561010457600080fd5b5061010d6103ef565b60405161011a9190610c0a565b60405180910390f35b61013d60048036038101906101389190610c94565b6103f7565b60405161014a9190610e94565b60405180910390f35b61016d60048036038101906101689190610f0c565b610615565b60405161017b92919061101b565b60405180910390f35b34801561019057600080fd5b506101996107ab565b6040516101a69190611064565b60405180910390f35b3480156101bb57600080fd5b506101c46107b7565b6040516101d19190610c0a565b60405180910390f35b6101f460048036038101906101ef91906110ab565b6107bf565b6040516102039392919061110b565b60405180910390f35b34801561021857600080fd5b506102216107e1565b60405161022e9190610c0a565b60405180910390f35b34801561024357600080fd5b5061024c6107e9565b6040516102599190610c0a565b60405180910390f35b34801561026e57600080fd5b50610289600480360381019061028491906111a7565b6107f1565b6040516102969190610c0a565b60405180910390f35b3480156102ab57600080fd5b506102b4610812565b6040516102c19190610c0a565b60405180910390f35b6102e460048036038101906102df919061122a565b61081a565b6040516102f19190610e94565b60405180910390f35b34801561030657600080fd5b5061030f6109e4565b60405161031c9190610c0a565b60405180910390f35b34801561033157600080fd5b5061033a6109ec565b6040516103479190611286565b60405180910390f35b61036a600480360381019061036591906110ab565b6109f4565b6040516103779190610e94565b60405180910390f35b61039a60048036038101906103959190610f0c565b610ba6565b6040516103a99392919061110b565b60405180910390f35b3480156103be57600080fd5b506103d960048036038101906103d491906112cd565b610bca565b6040516103e69190611064565b60405180910390f35b600042905090565b60606000808484905090508067ffffffffffffffff81111561041c5761041b6112fa565b5b60405190808252806020026020018201604052801561045557816020015b610442610bd5565b81526020019060019003908161043a5790505b5092503660005b828110156105c957600085828151811061047957610478611329565b5b6020026020010151905087878381811061049657610495611329565b5b90506020028101906104a89190611367565b925060008360400135905080860195508360000160208101906104cb91906111a7565b73ffffffffffffffffffffffffffffffffffffffff16818580606001906104f2919061138f565b604051610500929190611431565b60006040518083038185875af1925050503d806000811461053d576040519150601f19603f3d011682016040523d82523d6000602084013e610542565b606091505b5083600001846020018290528215151515815250505081516020850135176105bc577f08c379a000000000000000000000000000000000000000000000000000000000600052602060045260176024527f4d756c746963616c6c333a2063616c6c206661696c656400000000000000000060445260846000fd5b826001019250505061045c565b5082341461060c576040517f08c379a0000000000000000000000000000000000000000000000000000000008152600401610603906114a7565b60405180910390fd5b50505092915050565b6000606043915060008484905090508067ffffffffffffffff81111561063e5761063d6112fa565b5b60405190808252806020026020018201604052801561067157816020015b606081526020019060019003908161065c5790505b5091503660005b828110156107a157600087878381811061069557610694611329565b5b90506020028101906106a791906114c7565b92508260000160208101906106bc91906111a7565b73ffffffffffffffffffffffffffffffffffffffff168380602001906106e2919061138f565b6040516106f0929190611431565b6000604051808303816000865af19150503d806000811461072d576040519150601f19603f3d011682016040523d82523d6000602084013e610732565b606091505b5086848151811061074657610745611329565b5b60200260200101819052819250505080610795576040517f08c379a000000000000000000000000000000000000000000000000000000000815260040161078c9061153b565b60405180910390fd5b81600101915050610678565b5050509250929050565b60006001430340905090565b600046905090565b6000806060439250434091506107d68686866109f4565b905093509350939050565b600048905090565b600043905090565b60008173ffffffffffffffffffffffffffffffffffffffff16319050919050565b600044905090565b606060008383905090508067ffffffffffffffff81111561083e5761083d6112fa565b5b60405190808252806020026020018201604052801561087757816020015b610864610bd5565b81526020019060019003908161085c5790505b5091503660005b828110156109db57600084828151811061089b5761089a611329565b5b602002602001015190508686838181106108b8576108b7611329565b5b90506020028101906108ca919061155b565b92508260000160208101906108df91906111a7565b73ffffffffffffffffffffffffffffffffffffffff16838060400190610905919061138f565b604051610913929190611431565b6000604051808303816000865af19150503d8060008114610950576040519150601f19603f3d011682016040523d82523d6000602084013e610955565b606091505b5082600001836020018290528215151515815250505080516020840135176109cf577f08c379a000000000000000000000000000000000000000000000000000000000600052602060045260176024527f4d756c746963616c6c333a2063616c6c206661696c656400000000000000000060445260646000fd5b8160010191505061087e565b50505092915050565b600045905090565b600041905090565b606060008383905090508067ffffffffffffffff811115610a1857610a176112fa565b5b604051908082528060200260200182016040528015610a5157816020015b610a3e610bd5565b815260200190600190039081610a365790505b5091503660005b82811015610b9c576000848281518110610a7557610a74611329565b5b60200260200101519050868683818110610a9257610a91611329565b5b9050602002810190610aa491906114c7565b9250826000016020810190610ab991906111a7565b73ffffffffffffffffffffffffffffffffffffffff16838060200190610adf919061138f565b604051610aed929190611431565b6000604051808303816000865af19150503d8060008114610b2a576040519150601f19603f3d011682016040523d82523d6000602084013e610b2f565b606091505b508260000183602001829052821515151581525050508715610b90578060000151610b8f576040517f08c379a0000000000000000000000000000000000000000000000000000000008152600401610b869061153b565b60405180910390fd5b5b81600101915050610a58565b5050509392505050565b6000806060610bb7600186866107bf565b8093508194508295505050509250925092565b600081409050919050565b6040518060400160405280600015158152602001606081525090565b6000819050919050565b610c0481610bf1565b82525050565b6000602082019050610c1f6000830184610bfb565b92915050565b600080fd5b600080fd5b600080fd5b600080fd5b600080fd5b60008083601f840112610c5457610c53610c2f565b5b8235905067ffffffffffffffff811115610c7157610c70610c34565b5b602083019150836020820283011115610c8d57610c8c610c39565b5b9250929050565b60008060208385031215610cab57610caa610c25565b5b600083013567ffffffffffffffff811115610cc957610cc8610c2a565b5b610cd585828601610c3e565b92509250509250929050565b600081519050919050565b600082825260208201905092915050565b6000819050602082019050919050565b60008115159050919050565b610d2281610d0d565b82525050565b600081519050919050565b600082825260208201905092915050565b60005b83811015610d62578082015181840152602081019050610d47565b83811115610d71576000848401525b50505050565b6000601f19601f8301169050919050565b6000610d9382610d28565b610d9d8185610d33565b9350610dad818560208601610d44565b610db681610d77565b840191505092915050565b6000604083016000830151610dd96000860182610d19565b5060208301518482036020860152610df18282610d88565b9150508091505092915050565b6000610e0a8383610dc1565b905092915050565b6000602082019050919050565b6000610e2a82610ce1565b610e348185610cec565b935083602082028501610e4685610cfd565b8060005b85811015610e825784840389528151610e638582610dfe565b9450610e6e83610e12565b925060208a01995050600181019050610e4a565b50829750879550505050505092915050565b60006020820190508181036000830152610eae8184610e1f565b905092915050565b60008083601f840112610ecc57610ecb610c2f565b5b8235905067ffffffffffffffff811115610ee957610ee8610c34565b5b602083019150836020820283011115610f0557610f04610c39565b5b9250929050565b60008060208385031215610f2357610f22610c25565b5b600083013567ffffffffffffffff811115610f4157610f40610c2a565b5b610f4d85828601610eb6565b92509250509250929050565b600081519050919050565b600082825260208201905092915050565b6000819050602082019050919050565b6000610f918383610d88565b905092915050565b6000602082019050919050565b6000610fb182610f59565b610fbb8185610f64565b935083602082028501610fcd85610f75565b8060005b858110156110095784840389528151610fea8582610f85565b9450610ff583610f99565b925060208a01995050600181019050610fd1565b50829750879550505050505092915050565b60006040820190506110306000830185610bfb565b81810360208301526110428184610fa6565b90509392505050565b6000819050919050565b61105e8161104b565b82525050565b60006020820190506110796000830184611055565b92915050565b61108881610d0d565b811461109357600080fd5b50565b6000813590506110a58161107f565b92915050565b6000806000604084860312156110c4576110c3610c25565b5b60006110d286828701611096565b935050602084013567ffffffffffffffff8111156110f3576110f2610c2a565b5b6110ff86828701610eb6565b92509250509250925092565b60006060820190506111206000830186610bfb565b61112d6020830185611055565b818103604083015261113f8184610e1f565b9050949350505050565b600073ffffffffffffffffffffffffffffffffffffffff82169050919050565b600061117482611149565b9050919050565b61118481611169565b811461118f57600080fd5b50565b6000813590506111a18161117b565b92915050565b6000602082840312156111bd576111bc610c25565b5b60006111cb84828501611192565b91505092915050565b60008083601f8401126111ea576111e9610c2f565b5b8235905067ffffffffffffffff81111561120757611206610c34565b5b60208301915083602082028301111561122357611222610c39565b5b9250929050565b6000806020838503121561124157611240610c25565b5b600083013567ffffffffffffffff81111561125f5761125e610c2a565b5b61126b858286016111d4565b92509250509250929050565b61128081611169565b82525050565b600060208201905061129b6000830184611277565b92915050565b6112aa81610bf1565b81146112b557600080fd5b50565b6000813590506112c7816112a1565b92915050565b6000602082840312156112e3576112e2610c25565b5b60006112f1848285016112b8565b91505092915050565b7f4e487b7100000000000000000000000000000000000000000000000000000000600052604160045260246000fd5b7f4e487b7100000000000000000000000000000000000000000000000000000000600052603260045260246000fd5b600080fd5b600080fd5b600080fd5b60008235600160800383360303811261138357611382611358565b5b80830191505092915050565b600080833560016020038436030381126113ac576113ab611358565b5b80840192508235915067ffffffffffffffff8211156113ce576113cd61135d565b5b6020830192506001820236038313156113ea576113e9611362565b5b509250929050565b600081905092915050565b82818337600083830152505050565b600061141883856113f2565b93506114258385846113fd565b82840190509392505050565b600061143e82848661140c565b91508190509392505050565b600082825260208201905092915050565b7f4d756c746963616c6c333a2076616c7565206d69736d61746368000000000000600082015250565b6000611491601a8361144a565b915061149c8261145b565b602082019050919050565b600060208201905081810360008301526114c081611484565b9050919050565b6000823560016040038336030381126114e3576114e2611358565b5b80830191505092915050565b7f4d756c746963616c6c333a2063616c6c206661696c6564000000000000000000600082015250565b600061152560178361144a565b9150611530826114ef565b602082019050919050565b6000602082019050818103600083015261155481611518565b9050919050565b60008235600160600383360303811261157757611576611358565b5b8083019150509291505056fea2646970667358221220145395f2ca941b982ce500c6ecd1466cd8a4a6e8d106189b64009ac42b1e88da64736f6c634300080c0033', \n     arguments: [\n     ]\n}).send({\n     from: web3.eth.accounts[0], \n     gas: '4700000'\n   }, function (e, contract){\n    console.log(e, contract);\n    if (typeof contract.address !== 'undefined') {\n         console.log('Contract mined! address: ' + contract.address + ' transactionHash: ' + contract.transactionHash);\n    }\n })",
  "functionHashes": {
    "252dba42": "aggregate((address,bytes)[])",
    "82ad56cb": "aggregate3((address,bool,bytes)[])",
    "174dea71": "aggregate3Value((address,bool,uint256,bytes)[])",
    "c3077fa9": "blockAndAggregate((address,bytes)[])",
    "3e64a696": "getBasefee()",
    "ee82ac5e": "getBlockHash(uint256)",
    "42cbb15c": "getBlockNumber()",
    "3408e470": "getChainId()",
    "a8b0574e": "getCurrentBlockCoinbase()",
    "72425d9d": "getCurrentBlockDifficulty()",
    "86d516e8": "getCurrentBlockGasLimit()",
    "0f28c97d": "getCurrentBlockTimestamp()",
    "4d2301cc": "getEthBalance(address)",
    "27e86d6e": "getLastBlockHash()",
    "bce38bd7": "tryAggregate(bool,(address,bytes)[])",
    "399542e9": "tryBlockAndAggregate(bool,(address,bytes)[])"
  },
  "gasEstimates": {
    "Creation": {
      "codeDepositCost": "1112200",
      "executionCost": "1154",
      "totalCost": "1113354"
    },
    "External": {
      "aggregate((address,bytes)[])": "infinite",
      "aggregate3((address,bool,bytes)[])": "infinite",
      "aggregate3Value((address,bool,uint256,bytes)[])": "infinite",
      "blockAndAggregate((address,bytes)[])": "infinite",
      "getBasefee()": "403",
      "getBlockHash(uint256)": "710",
      "getBlockNumber()": "425",
      "getChainId()": "359",
      "getCurrentBlockCoinbase()": "407",
      "getCurrentBlockDifficulty()": "381",
      "getCurrentBlockGasLimit()": "425",
      "getCurrentBlockTimestamp()": "360",
      "getEthBalance(address)": "3280",
      "getLastBlockHash()": "452",
      "tryAggregate(bool,(address,bytes)[])": "infinite",
      "tryBlockAndAggregate(bool,(address,bytes)[])": "infinite"
    }
  },
  "devdoc": {
    "author": "Michael Elliot <mike@makerdao.com>Joshua Levine <joshua@makerdao.com>Nick Johnson <arachnid@notdot.net>Andreas Bigger <andreas@nascent.xyz>Matt Solomon <matt@mattsolomon.dev>",
    "details": "Multicall & Multicall2 backwards-compatibleAggregate methods are marked `payable` to save 24 gas per call",
    "kind": "dev",
    "methods": {
      "aggregate((address,bytes)[])": {
        "params": {
          "calls": "An array of Call structs"
        },
        "returns": {
          "blockNumber": "The block number where the calls were executed",
          "returnData": "An array of bytes containing the responses"
        }
      },
      "aggregate3((address,bool,bytes)[])": {
        "params": {
          "calls": "An array of Call3 structs"
        },
        "returns": {
          "returnData": "An array of Result structs"
        }
      },
      "aggregate3Value((address,bool,uint256,bytes)[])": {
        "params": {
          "calls": "An array of Call3Value structs"
        },
        "returns": {
          "returnData": "An array of Result structs"
        }
      },
      "blockAndAggregate((address,bytes)[])": {
        "params": {
          "calls": "An array of Call structs"
        },
        "returns": {
          "blockHash": "The hash of the block where the calls were executed",
          "blockNumber": "The block number where the calls were executed",
          "returnData": "An array of Result structs"
        }
      },
      "getBlockHash(uint256)": {
        "params": {
          "blockNumber": "The block number"
        }
      },
      "tryAggregate(bool,(address,bytes)[])": {
        "params": {
          "calls": "An array of Call structs",
          "requireSuccess": "If true, require all calls to succeed"
        },
        "returns": {
          "returnData": "An array of Result structs"
        }
      },
      "tryBlockAndAggregate(bool,(address,bytes)[])": {
        "params": {
          "calls": "An array of Call structs"
        },
        "returns": {
          "blockHash": "The hash of the block where the calls were executed",
          "blockNumber": "The block number where the calls were executed",
          "returnData": "An array of Result structs"
        }
      }
    },
    "title": "Multicall3",
    "version": 1
  },
  "userdoc": {
    "kind": "user",
    "methods": {
      "aggregate((address,bytes)[])": {
        "notice": "Backwards-compatible call aggregation with Multicall"
      },
      "aggregate3((address,bool,bytes)[])": {
        "notice": "Aggregate calls, ensuring each returns success if required"
      },
      "aggregate3Value((address,bool,uint256,bytes)[])": {
        "notice": "Aggregate calls with a msg valueReverts if msg.value is less than the sum of the call values"
      },
      "blockAndAggregate((address,bytes)[])": {
        "notice": "Backwards-compatible with Multicall2Aggregate calls and allow failures using tryAggregate"
      },
      "getBasefee()": {
        "notice": "Gets the base fee of the given blockCan revert if the BASEFEE opcode is not implemented by the given chain"
      },
      "getBlockHash(uint256)": {
        "notice": "Returns the block hash for the given block number"
      },
      "getBlockNumber()": {
        "notice": "Returns the block number"
      },
      "getChainId()": {
        "notice": "Returns the chain id"
      },
      "getCurrentBlockCoinbase()": {
        "notice": "Returns the block coinbase"
      },
      "getCurrentBlockDifficulty()": {
        "notice": "Returns the block difficulty"
      },
      "getCurrentBlockGasLimit()": {
        "notice": "Returns the block gas limit"
      },
      "getCurrentBlockTimestamp()": {
        "notice": "Returns the block timestamp"
      },
      "getEthBalance(address)": {
        "notice": "Returns the (ETH) balance of a given address"
      },
      "getLastBlockHash()": {
        "notice": "Returns the block hash of the last block"
      },
      "tryAggregate(bool,(address,bytes)[])": {
        "notice": "Backwards-compatible with Multicall2Aggregate calls without requiring success"
      },
      "tryBlockAndAggregate(bool,(address,bytes)[])": {
        "notice": "Backwards-compatible with Multicall2Aggregate calls and allow failures using tryAggregate"
      }
    },
    "notice": "Aggregate results from multiple function calls",
    "version": 1
  },
  "Runtime Bytecode": {
    "immutableReferences": {},
    "linkReferences": {},
    "object": "6080604052600436106100f35760003560e01c80634d2301cc1161008a578063a8b0574e11610059578063a8b0574e14610325578063bce38bd714610350578063c3077fa914610380578063ee82ac5e146103b2576100f3565b80634d2301cc1461026257806372425d9d1461029f57806382ad56cb146102ca57806386d516e8146102fa576100f3565b80633408e470116100c65780633408e470146101af578063399542e9146101da5780633e64a6961461020c57806342cbb15c14610237576100f3565b80630f28c97d146100f8578063174dea7114610123578063252dba421461015357806327e86d6e14610184575b600080fd5b34801561010457600080fd5b5061010d6103ef565b60405161011a9190610c0a565b60405180910390f35b61013d60048036038101906101389190610c94565b6103f7565b60405161014a9190610e94565b60405180910390f35b61016d60048036038101906101689190610f0c565b610615565b60405161017b92919061101b565b60405180910390f35b34801561019057600080fd5b506101996107ab565b6040516101a69190611064565b60405180910390f35b3480156101bb57600080fd5b506101c46107b7565b6040516101d19190610c0a565b60405180910390f35b6101f460048036038101906101ef91906110ab565b6107bf565b6040516102039392919061110b565b60405180910390f35b34801561021857600080fd5b506102216107e1565b60405161022e9190610c0a565b60405180910390f35b34801561024357600080fd5b5061024c6107e9565b6040516102599190610c0a565b60405180910390f35b34801561026e57600080fd5b50610289600480360381019061028491906111a7565b6107f1565b6040516102969190610c0a565b60405180910390f35b3480156102ab57600080fd5b506102b4610812565b6040516102c19190610c0a565b60405180910390f35b6102e460048036038101906102df919061122a565b61081a565b6040516102f19190610e94565b60405180910390f35b34801561030657600080fd5b5061030f6109e4565b60405161031c9190610c0a565b60405180910390f35b34801561033157600080fd5b5061033a6109ec565b6040516103479190611286565b60405180910390f35b61036a600480360381019061036591906110ab565b6109f4565b6040516103779190610e94565b60405180910390f35b61039a60048036038101906103959190610f0c565b610ba6565b6040516103a99392919061110b565b60405180910390f35b3480156103be57600080fd5b506103d960048036038101906103d491906112cd565b610bca565b6040516103e69190611064565b60405180910390f35b600042905090565b60606000808484905090508067ffffffffffffffff81111561041c5761041b6112fa565b5b60405190808252806020026020018201604052801561045557816020015b610442610bd5565b81526020019060019003908161043a5790505b5092503660005b828110156105c957600085828151811061047957610478611329565b5b6020026020010151905087878381811061049657610495611329565b5b90506020028101906104a89190611367565b925060008360400135905080860195508360000160208101906104cb91906111a7565b73ffffffffffffffffffffffffffffffffffffffff16818580606001906104f2919061138f565b604051610500929190611431565b60006040518083038185875af1925050503d806000811461053d576040519150601f19603f3d011682016040523d82523d6000602084013e610542565b606091505b5083600001846020018290528215151515815250505081516020850135176105bc577f08c379a000000000000000000000000000000000000000000000000000000000600052602060045260176024527f4d756c746963616c6c333a2063616c6c206661696c656400000000000000000060445260846000fd5b826001019250505061045c565b5082341461060c576040517f08c379a0000000000000000000000000000000000000000000000000000000008152600401610603906114a7565b60405180910390fd5b50505092915050565b6000606043915060008484905090508067ffffffffffffffff81111561063e5761063d6112fa565b5b60405190808252806020026020018201604052801561067157816020015b606081526020019060019003908161065c5790505b5091503660005b828110156107a157600087878381811061069557610694611329565b5b90506020028101906106a791906114c7565b92508260000160208101906106bc91906111a7565b73ffffffffffffffffffffffffffffffffffffffff168380602001906106e2919061138f565b6040516106f0929190611431565b6000604051808303816000865af19150503d806000811461072d576040519150601f19603f3d011682016040523d82523d6000602084013e610732565b606091505b5086848151811061074657610745611329565b5b60200260200101819052819250505080610795576040517f08c379a000000000000000000000000000000000000000000000000000000000815260040161078c9061153b565b60405180910390fd5b81600101915050610678565b5050509250929050565b60006001430340905090565b600046905090565b6000806060439250434091506107d68686866109f4565b905093509350939050565b600048905090565b600043905090565b60008173ffffffffffffffffffffffffffffffffffffffff16319050919050565b600044905090565b606060008383905090508067ffffffffffffffff81111561083e5761083d6112fa565b5b60405190808252806020026020018201604052801561087757816020015b610864610bd5565b81526020019060019003908161085c5790505b5091503660005b828110156109db57600084828151811061089b5761089a611329565b5b602002602001015190508686838181106108b8576108b7611329565b5b90506020028101906108ca919061155b565b92508260000160208101906108df91906111a7565b73ffffffffffffffffffffffffffffffffffffffff16838060400190610905919061138f565b604051610913929190611431565b6000604051808303816000865af19150503d8060008114610950576040519150601f19603f3d011682016040523d82523d6000602084013e610955565b606091505b5082600001836020018290528215151515815250505080516020840135176109cf577f08c379a000000000000000000000000000000000000000000000000000000000600052602060045260176024527f4d756c746963616c6c333a2063616c6c206661696c656400000000000000000060445260646000fd5b8160010191505061087e565b50505092915050565b600045905090565b600041905090565b606060008383905090508067ffffffffffffffff811115610a1857610a176112fa565b5b604051908082528060200260200182016040528015610a5157816020015b610a3e610bd5565b815260200190600190039081610a365790505b5091503660005b82811015610b9c576000848281518110610a7557610a74611329565b5b60200260200101519050868683818110610a9257610a91611329565b5b9050602002810190610aa491906114c7565b9250826000016020810190610ab991906111a7565b73ffffffffffffffffffffffffffffffffffffffff16838060200190610adf919061138f565b604051610aed929190611431565b6000604051808303816000865af19150503d8060008114610b2a576040519150601f19603f3d011682016040523d82523d6000602084013e610b2f565b606091505b508260000183602001829052821515151581525050508715610b90578060000151610b8f576040517f08c379a0000000000000000000000000000000000000000000000000000000008152600401610b869061153b565b60405180910390fd5b5b81600101915050610a58565b5050509392505050565b6000806060610bb7600186866107bf565b8093508194508295505050509250925092565b600081409050919050565b6040518060400160405280600015158152602001606081525090565b6000819050919050565b610c0481610bf1565b82525050565b6000602082019050610c1f6000830184610bfb565b92915050565b600080fd5b600080fd5b600080fd5b600080fd5b600080fd5b60008083601f840112610c5457610c53610c2f565b5b8235905067ffffffffffffffff811115610c7157610c70610c34565b5b602083019150836020820283011115610c8d57610c8c610c39565b5b9250929050565b60008060208385031215610cab57610caa610c25565b5b600083013567ffffffffffffffff811115610cc957610cc8610c2a565b5b610cd585828601610c3e565b92509250509250929050565b600081519050919050565b600082825260208201905092915050565b6000819050602082019050919050565b60008115159050919050565b610d2281610d0d565b82525050565b600081519050919050565b600082825260208201905092915050565b60005b83811015610d62578082015181840152602081019050610d47565b83811115610d71576000848401525b50505050565b6000601f19601f8301169050919050565b6000610d9382610d28565b610d9d8185610d33565b9350610dad818560208601610d44565b610db681610d77565b840191505092915050565b6000604083016000830151610dd96000860182610d19565b5060208301518482036020860152610df18282610d88565b9150508091505092915050565b6000610e0a8383610dc1565b905092915050565b6000602082019050919050565b6000610e2a82610ce1565b610e348185610cec565b935083602082028501610e4685610cfd565b8060005b85811015610e825784840389528151610e638582610dfe565b9450610e6e83610e12565b925060208a01995050600181019050610e4a565b50829750879550505050505092915050565b60006020820190508181036000830152610eae8184610e1f565b905092915050565b60008083601f840112610ecc57610ecb610c2f565b5b8235905067ffffffffffffffff811115610ee957610ee8610c34565b5b602083019150836020820283011115610f0557610f04610c39565b5b9250929050565b60008060208385031215610f2357610f22610c25565b5b600083013567ffffffffffffffff811115610f4157610f40610c2a565b5b610f4d85828601610eb6565b92509250509250929050565b600081519050919050565b600082825260208201905092915050565b6000819050602082019050919050565b6000610f918383610d88565b905092915050565b6000602082019050919050565b6000610fb182610f59565b610fbb8185610f64565b935083602082028501610fcd85610f75565b8060005b858110156110095784840389528151610fea8582610f85565b9450610ff583610f99565b925060208a01995050600181019050610fd1565b50829750879550505050505092915050565b60006040820190506110306000830185610bfb565b81810360208301526110428184610fa6565b90509392505050565b6000819050919050565b61105e8161104b565b82525050565b60006020820190506110796000830184611055565b92915050565b61108881610d0d565b811461109357600080fd5b50565b6000813590506110a58161107f565b92915050565b6000806000604084860312156110c4576110c3610c25565b5b60006110d286828701611096565b935050602084013567ffffffffffffffff8111156110f3576110f2610c2a565b5b6110ff86828701610eb6565b92509250509250925092565b60006060820190506111206000830186610bfb565b61112d6020830185611055565b818103604083015261113f8184610e1f565b9050949350505050565b600073ffffffffffffffffffffffffffffffffffffffff82169050919050565b600061117482611149565b9050919050565b61118481611169565b811461118f57600080fd5b50565b6000813590506111a18161117b565b92915050565b6000602082840312156111bd576111bc610c25565b5b60006111cb84828501611192565b91505092915050565b60008083601f8401126111ea576111e9610c2f565b5b8235905067ffffffffffffffff81111561120757611206610c34565b5b60208301915083602082028301111561122357611222610c39565b5b9250929050565b6000806020838503121561124157611240610c25565b5b600083013567ffffffffffffffff81111561125f5761125e610c2a565b5b61126b858286016111d4565b92509250509250929050565b61128081611169565b82525050565b600060208201905061129b6000830184611277565b92915050565b6112aa81610bf1565b81146112b557600080fd5b50565b6000813590506112c7816112a1565b92915050565b6000602082840312156112e3576112e2610c25565b5b60006112f1848285016112b8565b91505092915050565b7f4e487b7100000000000000000000000000000000000000000000000000000000600052604160045260246000fd5b7f4e487b7100000000000000000000000000000000000000000000000000000000600052603260045260246000fd5b600080fd5b600080fd5b600080fd5b60008235600160800383360303811261138357611382611358565b5b80830191505092915050565b600080833560016020038436030381126113ac576113ab611358565b5b80840192508235915067ffffffffffffffff8211156113ce576113cd61135d565b5b6020830192506001820236038313156113ea576113e9611362565b5b509250929050565b600081905092915050565b82818337600083830152505050565b600061141883856113f2565b93506114258385846113fd565b82840190509392505050565b600061143e82848661140c565b91508190509392505050565b600082825260208201905092915050565b7f4d756c746963616c6c333a2076616c7565206d69736d61746368000000000000600082015250565b6000611491601a8361144a565b915061149c8261145b565b602082019050919050565b600060208201905081810360008301526114c081611484565b9050919050565b6000823560016040038336030381126114e3576114e2611358565b5b80830191505092915050565b7f4d756c746963616c6c333a2063616c6c206661696c6564000000000000000000600082015250565b600061152560178361144a565b9150611530826114ef565b602082019050919050565b6000602082019050818103600083015261155481611518565b9050919050565b60008235600160600383360303811261157757611576611358565b5b8083019150509291505056fea2646970667358221220145395f2ca941b982ce500c6ecd1466cd8a4a6e8d106189b64009ac42b1e88da64736f6c634300080c0033",
    "opcodes": "PUSH1 0x80 PUSH1 0x40 MSTORE PUSH1 0x4 CALLDATASIZE LT PUSH2 0xF3 JUMPI PUSH1 0x0 CALLDATALOAD PUSH1 0xE0 SHR DUP1 PUSH4 0x4D2301CC GT PUSH2 0x8A JUMPI DUP1 PUSH4 0xA8B0574E GT PUSH2 0x59 JUMPI DUP1 PUSH4 0xA8B0574E EQ PUSH2 0x325 JUMPI DUP1 PUSH4 0xBCE38BD7 EQ PUSH2 0x350 JUMPI DUP1 PUSH4 0xC3077FA9 EQ PUSH2 0x380 JUMPI DUP1 PUSH4 0xEE82AC5E EQ PUSH2 0x3B2 JUMPI PUSH2 0xF3 JUMP JUMPDEST DUP1 PUSH4 0x4D2301CC EQ PUSH2 0x262 JUMPI DUP1 PUSH4 0x72425D9D EQ PUSH2 0x29F JUMPI DUP1 PUSH4 0x82AD56CB EQ PUSH2 0x2CA JUMPI DUP1 PUSH4 0x86D516E8 EQ PUSH2 0x2FA JUMPI PUSH2 0xF3 JUMP JUMPDEST DUP1 PUSH4 0x3408E470 GT PUSH2 0xC6 JUMPI DUP1 PUSH4 0x3408E470 EQ PUSH2 0x1AF JUMPI DUP1 PUSH4 0x399542E9 EQ PUSH2 0x1DA JUMPI DUP1 PUSH4 0x3E64A696 EQ PUSH2 0x20C JUMPI DUP1 PUSH4 0x42CBB15C EQ PUSH2 0x237 JUMPI PUSH2 0xF3 JUMP JUMPDEST DUP1 PUSH4 0xF28C97D EQ PUSH2 0xF8 JUMPI DUP1 PUSH4 0x174DEA71 EQ PUSH2 0x123 JUMPI DUP1 PUSH4 0x252DBA42 EQ PUSH2 0x153 JUMPI DUP1 PUSH4 0x27E86D6E EQ PUSH2 0x184 JUMPI JUMPDEST PUSH1 0x0 DUP1 REVERT JUMPDEST CALLVALUE DUP1 ISZERO PUSH2 0x104 JUMPI PUSH1 0x0 DUP1 REVERT JUMPDEST POP PUSH2 0x10D PUSH2 0x3EF JUMP JUMPDEST PUSH1 0x40 MLOAD PUSH2 0x11A SWAP2 SWAP1 PUSH2 0xC0A JUMP JUMPDEST PUSH1 0x40 MLOAD DUP1 SWAP2 SUB SWAP1 RETURN JUMPDEST PUSH2 0x13D PUSH1 0x4 DUP1 CALLDATASIZE SUB DUP2 ADD SWAP1 PUSH2 0x138 SWAP2 SWAP1 PUSH2 0xC94 JUMP JUMPDEST PUSH2 0x3F7 JUMP JUMPDEST PUSH1 0x40 MLOAD PUSH2 0x14A SWAP2 SWAP1 PUSH2 0xE94 JUMP JUMPDEST PUSH1 0x40 MLOAD DUP1 SWAP2 SUB SWAP1 RETURN JUMPDEST PUSH2 0x16D PUSH1 0x4 DUP1 CALLDATASIZE SUB DUP2 ADD SWAP1 PUSH2 0x168 SWAP2 SWAP1 PUSH2 0xF0C JUMP JUMPDEST PUSH2 0x615 JUMP JUMPDEST PUSH1 0x40 MLOAD PUSH2 0x17B SWAP3 SWAP2 SWAP1 PUSH2 0x101B JUMP JUMPDEST PUSH1 0x40 MLOAD DUP1 SWAP2 SUB SWAP1 RETURN JUMPDEST CALLVALUE DUP1 ISZERO PUSH2 0x190 JUMPI PUSH1 0x0 DUP1 REVERT JUMPDEST POP PUSH2 0x199 PUSH2 0x7AB JUMP JUMPDEST PUSH1 0x40 MLOAD PUSH2 0x1A6 SWAP2 SWAP1 PUSH2 0x1064 JUMP JUMPDEST PUSH1 0x40 MLOAD DUP1 SWAP2 SUB SWAP1 RETURN JUMPDEST CALLVALUE DUP1 ISZERO PUSH2 0x1BB JUMPI PUSH1 0x0 DUP1 REVERT JUMPDEST POP PUSH2 0x1C4 PUSH2 0x7B7 JUMP JUMPDEST PUSH1 0x40 MLOAD PUSH2 0x1D1 SWAP2 SWAP1 PUSH2 0xC0A JUMP JUMPDEST PUSH1 0x40 MLOAD DUP1 SWAP2 SUB SWAP1 RETURN JUMPDEST PUSH2 0x1F4 PUSH1 0x4 DUP1 CALLDATASIZE SUB DUP2 ADD SWAP1 PUSH2 0x1EF SWAP2 SWAP1 PUSH2 0x10AB JUMP JUMPDEST PUSH2 0x7BF JUMP JUMPDEST PUSH1 0x40 MLOAD PUSH2 0x203 SWAP4 SWAP3 SWAP2 SWAP1 PUSH2 0x110B JUMP JUMPDEST PUSH1 0x40 MLOAD DUP1 SWAP2 SUB SWAP1 RETURN JUMPDEST CALLVALUE DUP1 ISZERO PUSH2 0x218 JUMPI PUSH1 0x0 DUP1 REVERT JUMPDEST POP PUSH2 0x221 PUSH2 0x7E1 JUMP JUMPDEST PUSH1 0x40 MLOAD PUSH2 0x22E SWAP2 SWAP1 PUSH2 0xC0A JUMP JUMPDEST PUSH1 0x40 MLOAD DUP1 SWAP2 SUB SWAP1 RETURN JUMPDEST CALLVALUE DUP1 ISZERO PUSH2 0x243 JUMPI PUSH1 0x0 DUP1 REVERT JUMPDEST POP PUSH2 0x24C PUSH2 0x7E9 JUMP JUMPDEST PUSH1 0x40 MLOAD PUSH2 0x259 SWAP2 SWAP1 PUSH2 0xC0A JUMP JUMPDEST PUSH1 0x40 MLOAD DUP1 SWAP2 SUB SWAP1 RETURN JUMPDEST CALLVALUE DUP1 ISZERO PUSH2 0x26E JUMPI PUSH1 0x0 DUP1 REVERT JUMPDEST POP PUSH2 0x289 PUSH1 0x4 DUP1 CALLDATASIZE SUB DUP2 ADD SWAP1 PUSH2 0x284 SWAP2 SWAP1 PUSH2 0x11A7 JUMP JUMPDEST PUSH2 0x7F1 JUMP JUMPDEST PUSH1 0x40 MLOAD PUSH2 0x296 SWAP2 SWAP1 PUSH2 0xC0A JUMP JUMPDEST PUSH1 0x40 MLOAD DUP1 SWAP2 SUB SWAP1 RETURN JUMPDEST CALLVALUE DUP1 ISZERO PUSH2 0x2AB JUMPI PUSH1 0x0 DUP1 REVERT JUMPDEST POP PUSH2 0x2B4 PUSH2 0x812 JUMP JUMPDEST PUSH1 0x40 MLOAD PUSH2 0x2C1 SWAP2 SWAP1 PUSH2 0xC0A JUMP JUMPDEST PUSH1 0x40 MLOAD DUP1 SWAP2 SUB SWAP1 RETURN JUMPDEST PUSH2 0x2E4 PUSH1 0x4 DUP1 CALLDATASIZE SUB DUP2 ADD SWAP1 PUSH2 0x2DF SWAP2 SWAP1 PUSH2 0x122A JUMP JUMPDEST PUSH2 0x81A JUMP JUMPDEST PUSH1 0x40 MLOAD PUSH2 0x2F1 SWAP2 SWAP1 PUSH2 0xE94 JUMP JUMPDEST PUSH1 0x40 MLOAD DUP1 SWAP2 SUB SWAP1 RETURN JUMPDEST CALLVALUE DUP1 ISZERO PUSH2 0x306 JUMPI PUSH1 0x0 DUP1 REVERT JUMPDEST POP PUSH2 0x30F PUSH2 0x9E4 JUMP JUMPDEST PUSH1 0x40 MLOAD PUSH2 0x31C SWAP2 SWAP1 PUSH2 0xC0A JUMP JUMPDEST PUSH1 0x40 MLOAD DUP1 SWAP2 SUB SWAP1 RETURN JUMPDEST CALLVALUE DUP1 ISZERO PUSH2 0x331 JUMPI PUSH1 0x0 DUP1 REVERT JUMPDEST POP PUSH2 0x33A PUSH2 0x9EC JUMP JUMPDEST PUSH1 0x40 MLOAD PUSH2 0x347 SWAP2 SWAP1 PUSH2 0x1286 JUMP JUMPDEST PUSH1 0x40 MLOAD DUP1 SWAP2 SUB SWAP1 RETURN JUMPDEST PUSH2 0x36A PUSH1 0x4 DUP1 CALLDATASIZE SUB DUP2 ADD SWAP1 PUSH2 0x365 SWAP2 SWAP1 PUSH2 0x10AB JUMP JUMPDEST PUSH2 0x9F4 JUMP JUMPDEST PUSH1 0x40 MLOAD PUSH2 0x377 SWAP2 SWAP1 PUSH2 0xE94 JUMP JUMPDEST PUSH1 0x40 MLOAD DUP1 SWAP2 SUB SWAP1 RETURN JUMPDEST PUSH2 0x39A PUSH1 0x4 DUP1 CALLDATASIZE SUB DUP2 ADD SWAP1 PUSH2 0x395 SWAP2 SWAP1 PUSH2 0xF0C JUMP JUMPDEST PUSH2 0xBA6 JUMP JUMPDEST PUSH1 0x40 MLOAD PUSH2 0x3A9 SWAP4 SWAP3 SWAP2 SWAP1 PUSH2 0x110B JUMP JUMPDEST PUSH1 0x40 MLOAD DUP1 SWAP2 SUB SWAP1 RETURN JUMPDEST CALLVALUE DUP1 ISZERO PUSH2 0x3BE JUMPI PUSH1 0x0 DUP1 REVERT JUMPDEST POP PUSH2 0x3D9 PUSH1 0x4 DUP1 CALLDATASIZE SUB DUP2 ADD SWAP1 PUSH2 0x3D4 SWAP2 SWAP1 PUSH2 0x12CD JUMP JUMPDEST PUSH2 0xBCA JUMP JUMPDEST PUSH1 0x40 MLOAD PUSH2 0x3E6 SWAP2 SWAP1 PUSH2 0x1064 JUMP JUMPDEST PUSH1 0x40 MLOAD DUP1 SWAP2 SUB SWAP1 RETURN JUMPDEST PUSH1 0x0 TIMESTAMP SWAP1 POP SWAP1 JUMP JUMPDEST PUSH1 0x60 PUSH1 0x0 DUP1 DUP5 DUP5 SWAP1 POP SWAP1 POP DUP1 PUSH8 0xFFFFFFFFFFFFFFFF DUP2 GT ISZERO PUSH2 0x41C JUMPI PUSH2 0x41B PUSH2 0x12FA JUMP JUMPDEST JUMPDEST PUSH1 0x40 MLOAD SWAP1 DUP1 DUP3 MSTORE DUP1 PUSH1 0x20 MUL PUSH1 0x20 ADD DUP3 ADD PUSH1 0x40 MSTORE DUP1 ISZERO PUSH2 0x455 JUMPI DUP2 PUSH1 0x20 ADD JUMPDEST PUSH2 0x442 PUSH2 0xBD5 JUMP JUMPDEST DUP2 MSTORE PUSH1 0x20 ADD SWAP1 PUSH1 0x1 SWAP1 SUB SWAP1 DUP2 PUSH2 0x43A JUMPI SWAP1 POP JUMPDEST POP SWAP3 POP CALLDATASIZE PUSH1 0x0 JUMPDEST DUP3 DUP2 LT ISZERO PUSH2 0x5C9 JUMPI PUSH1 0x0 DUP6 DUP3 DUP2 MLOAD DUP2 LT PUSH2 0x479 JUMPI PUSH2 0x478 PUSH2 0x1329 JUMP JUMPDEST JUMPDEST PUSH1 0x20 MUL PUSH1 0x20 ADD ADD MLOAD SWAP1 POP DUP8 DUP8 DUP4 DUP2 DUP2 LT PUSH2 0x496 JUMPI PUSH2 0x495 PUSH2 0x1329 JUMP JUMPDEST JUMPDEST SWAP1 POP PUSH1 0x20 MUL DUP2 ADD SWAP1 PUSH2 0x4A8 SWAP2 SWAP1 PUSH2 0x1367 JUMP JUMPDEST SWAP3 POP PUSH1 0x0 DUP4 PUSH1 0x40 ADD CALLDATALOAD SWAP1 POP DUP1 DUP7 ADD SWAP6 POP DUP4 PUSH1 0x0 ADD PUSH1 0x20 DUP2 ADD SWAP1 PUSH2 0x4CB SWAP2 SWAP1 PUSH2 0x11A7 JUMP JUMPDEST PUSH20 0xFFFFFFFFFFFFFFFFFFFFFFFFFFFFFFFFFFFFFFFF AND DUP2 DUP6 DUP1 PUSH1 0x60 ADD SWAP1 PUSH2 0x4F2 SWAP2 SWAP1 PUSH2 0x138F JUMP JUMPDEST PUSH1 0x40 MLOAD PUSH2 0x500 SWAP3 SWAP2 SWAP1 PUSH2 0x1431 JUMP JUMPDEST PUSH1 0x0 PUSH1 0x40 MLOAD DUP1 DUP4 SUB DUP2 DUP6 DUP8 GAS CALL SWAP3 POP POP POP RETURNDATASIZE DUP1 PUSH1 0x0 DUP2 EQ PUSH2 0x53D JUMPI PUSH1 0x40 MLOAD SWAP2 POP PUSH1 0x1F NOT PUSH1 0x3F RETURNDATASIZE ADD AND DUP3 ADD PUSH1 0x40 MSTORE RETURNDATASIZE DUP3 MSTORE RETURNDATASIZE PUSH1 0x0 PUSH1 0x20 DUP5 ADD RETURNDATACOPY PUSH2 0x542 JUMP JUMPDEST PUSH1 0x60 SWAP2 POP JUMPDEST POP DUP4 PUSH1 0x0 ADD DUP5 PUSH1 0x20 ADD DUP3 SWAP1 MSTORE DUP3 ISZERO ISZERO ISZERO ISZERO DUP2 MSTORE POP POP POP DUP2 MLOAD PUSH1 0x20 DUP6 ADD CALLDATALOAD OR PUSH2 0x5BC JUMPI PUSH32 0x8C379A000000000000000000000000000000000000000000000000000000000 PUSH1 0x0 MSTORE PUSH1 0x20 PUSH1 0x4 MSTORE PUSH1 0x17 PUSH1 0x24 MSTORE PUSH32 0x4D756C746963616C6C333A2063616C6C206661696C6564000000000000000000 PUSH1 0x44 MSTORE PUSH1 0x84 PUSH1 0x0 REVERT JUMPDEST DUP3 PUSH1 0x1 ADD SWAP3 POP POP POP PUSH2 0x45C JUMP JUMPDEST POP DUP3 CALLVALUE EQ PUSH2 0x60C JUMPI PUSH1 0x40 MLOAD PUSH32 0x8C379A000000000000000000000000000000000000000000000000000000000 DUP2 MSTORE PUSH1 0x4 ADD PUSH2 0x603 SWAP1 PUSH2 0x14A7 JUMP JUMPDEST PUSH1 0x40 MLOAD DUP1 SWAP2 SUB SWAP1 REVERT JUMPDEST POP POP POP SWAP3 SWAP2 POP POP JUMP JUMPDEST PUSH1 0x0 PUSH1 0x60 NUMBER SWAP2 POP PUSH1 0x0 DUP5 DUP5 SWAP1 POP SWAP1 POP DUP1 PUSH8 0xFFFFFFFFFFFFFFFF DUP2 GT ISZERO PUSH2 0x63E JUMPI PUSH2 0x63D PUSH2 0x12FA JUMP JUMPDEST JUMPDEST PUSH1 0x40 MLOAD SWAP1 DUP1 DUP3 MSTORE DUP1 PUSH1 0x20 MUL PUSH1 0x20 ADD DUP3 ADD PUSH1 0x40 MSTORE DUP1 ISZERO PUSH2 0x671 JUMPI DUP2 PUSH1 0x20 ADD JUMPDEST PUSH1 0x60 DUP2 MSTORE PUSH1 0x20 ADD SWAP1 PUSH1 0x1 SWAP1 SUB SWAP1 DUP2 PUSH2 0x65C JUMPI SWAP1 POP JUMPDEST POP SWAP2 POP CALLDATASIZE PUSH1 0x0 JUMPDEST DUP3 DUP2 LT ISZERO PUSH2 0x7A1 JUMPI PUSH1 0x0 DUP8 DUP8 DUP4 DUP2 DUP2 LT PUSH2 0x695 JUMPI PUSH2 0x694 PUSH2 0x1329 JUMP JUMPDEST JUMPDEST SWAP1 POP PUSH1 0x20 MUL DUP2 ADD SWAP1 PUSH2 0x6A7 SWAP2 SWAP1 PUSH2 0x14C7 JUMP JUMPDEST SWAP3 POP DUP3 PUSH1 0x0 ADD PUSH1 0x20 DUP2 ADD SWAP1 PUSH2 0x6BC SWAP2 SWAP1 PUSH2 0x11A7 JUMP JUMPDEST PUSH20 0xFFFFFFFFFFFFFFFFFFFFFFFFFFFFFFFFFFFFFFFF AND DUP4 DUP1 PUSH1 0x20 ADD SWAP1 PUSH2 0x6E2 SWAP2 SWAP1 PUSH2 0x138F JUMP JUMPDEST PUSH1 0x40 MLOAD PUSH2 0x6F0 SWAP3 SWAP2 SWAP1 PUSH2 0x1431 JUMP JUMPDEST PUSH1 0x0 PUSH1 0x40 MLOAD DUP1 DUP4 SUB DUP2 PUSH1 0x0 DUP7 GAS CALL SWAP2 POP POP RETURNDATASIZE DUP1 PUSH1 0x0 DUP2 EQ PUSH2 0x72D JUMPI PUSH1 0x40 MLOAD SWAP2 POP PUSH1 0x1F NOT PUSH1 0x3F RETURNDATASIZE ADD AND DUP3 ADD PUSH1 0x40 MSTORE RETURNDATASIZE DUP3 MSTORE RETURNDATASIZE PUSH1 0x0 PUSH1 0x20 DUP5 ADD RETURNDATACOPY PUSH2 0x732 JUMP JUMPDEST PUSH1 0x60 SWAP2 POP JUMPDEST POP DUP7 DUP5 DUP2 MLOAD DUP2 LT PUSH2 0x746 JUMPI PUSH2 0x745 PUSH2 0x1329 JUMP JUMPDEST JUMPDEST PUSH1 0x20 MUL PUSH1 0x20 ADD ADD DUP2 SWAP1 MSTORE DUP2 SWAP3 POP POP POP DUP1 PUSH2 0x795 JUMPI PUSH1 0x40 MLOAD PUSH32 0x8C379A000000000000000000000000000000000000000000000000000000000 DUP2 MSTORE PUSH1 0x4 ADD PUSH2 0x78C SWAP1 PUSH2 0x153B JUMP JUMPDEST PUSH1 0x40 MLOAD DUP1 SWAP2 SUB SWAP1 REVERT JUMPDEST DUP2 PUSH1 0x1 ADD SWAP2 POP POP PUSH2 0x678 JUMP JUMPDEST POP POP POP SWAP3 POP SWAP3 SWAP1 POP JUMP JUMPDEST PUSH1 0x0 PUSH1 0x1 NUMBER SUB BLOCKHASH SWAP1 POP SWAP1 JUMP JUMPDEST PUSH1 0x0 CHAINID SWAP1 POP SWAP1 JUMP JUMPDEST PUSH1 0x0 DUP1 PUSH1 0x60 NUMBER SWAP3 POP NUMBER BLOCKHASH SWAP2 POP PUSH2 0x7D6 DUP7 DUP7 DUP7 PUSH2 0x9F4 JUMP JUMPDEST SWAP1 POP SWAP4 POP SWAP4 POP SWAP4 SWAP1 POP JUMP JUMPDEST PUSH1 0x0 BASEFEE SWAP1 POP SWAP1 JUMP JUMPDEST PUSH1 0x0 NUMBER SWAP1 POP SWAP1 JUMP JUMPDEST PUSH1 0x0 DUP2 PUSH20 0xFFFFFFFFFFFFFFFFFFFFFFFFFFFFFFFFFFFFFFFF AND BALANCE SWAP1 POP SWAP2 SWAP1 POP JUMP JUMPDEST PUSH1 0x0 DIFFICULTY SWAP1 POP SWAP1 JUMP JUMPDEST PUSH1 0x60 PUSH1 0x0 DUP4 DUP4 SWAP1 POP SWAP1 POP DUP1 PUSH8 0xFFFFFFFFFFFFFFFF DUP2 GT ISZERO PUSH2 0x83E JUMPI PUSH2 0x83D PUSH2 0x12FA JUMP JUMPDEST JUMPDEST PUSH1 0x40 MLOAD SWAP1 DUP1 DUP3 MSTORE DUP1 PUSH1 0x20 MUL PUSH1 0x20 ADD DUP3 ADD PUSH1 0x40 MSTORE DUP1 ISZERO PUSH2 0x877 JUMPI DUP2 PUSH1 0x20 ADD JUMPDEST PUSH2 0x864 PUSH2 0xBD5 JUMP JUMPDEST DUP2 MSTORE PUSH1 0x20 ADD SWAP1 PUSH1 0x1 SWAP1 SUB SWAP1 DUP2 PUSH2 0x85C JUMPI SWAP1 POP JUMPDEST POP SWAP2 POP CALLDATASIZE PUSH1 0x0 JUMPDEST DUP3 DUP2 LT ISZERO PUSH2 0x9DB JUMPI PUSH1 0x0 DUP5 DUP3 DUP2 MLOAD DUP2 LT PUSH2 0x89B JUMPI PUSH2 0x89A PUSH2 0x1329 JUMP JUMPDEST JUMPDEST PUSH1 0x20 MUL PUSH1 0x20 ADD ADD MLOAD SWAP1 POP DUP7 DUP7 DUP4 DUP2 DUP2 LT PUSH2 0x8B8 JUMPI PUSH2 0x8B7 PUSH2 0x1329 JUMP JUMPDEST JUMPDEST SWAP1 POP PUSH1 0x20 MUL DUP2 ADD SWAP1 PUSH2 0x8CA SWAP2 SWAP1 PUSH2 0x155B JUMP JUMPDEST SWAP3 POP DUP3 PUSH1 0x0 ADD PUSH1 0x20 DUP2 ADD SWAP1 PUSH2 0x8DF SWAP2 SWAP1 PUSH2 0x11A7 JUMP JUMPDEST PUSH20 0xFFFFFFFFFFFFFFFFFFFFFFFFFFFFFFFFFFFFFFFF AND DUP4 DUP1 PUSH1 0x40 ADD SWAP1 PUSH2 0x905 SWAP2 SWAP1 PUSH2 0x138F JUMP JUMPDEST PUSH1 0x40 MLOAD PUSH2 0x913 SWAP3 SWAP2 SWAP1 PUSH2 0x1431 JUMP JUMPDEST PUSH1 0x0 PUSH1 0x40 MLOAD DUP1 DUP4 SUB DUP2 PUSH1 0x0 DUP7 GAS CALL SWAP2 POP POP RETURNDATASIZE DUP1 PUSH1 0x0 DUP2 EQ PUSH2 0x950 JUMPI PUSH1 0x40 MLOAD SWAP2 POP PUSH1 0x1F NOT PUSH1 0x3F RETURNDATASIZE ADD AND DUP3 ADD PUSH1 0x40 MSTORE RETURNDATASIZE DUP3 MSTORE RETURNDATASIZE PUSH1 0x0 PUSH1 0x20 DUP5 ADD RETURNDATACOPY PUSH2 0x955 JUMP JUMPDEST PUSH1 0x60 SWAP2 POP JUMPDEST POP DUP3 PUSH1 0x0 ADD DUP4 PUSH1 0x20 ADD DUP3 SWAP1 MSTORE DUP3 ISZERO ISZERO ISZERO ISZERO DUP2 MSTORE POP POP POP DUP1 MLOAD PUSH1 0x20 DUP5 ADD CALLDATALOAD OR PUSH2 0x9CF JUMPI PUSH32 0x8C379A000000000000000000000000000000000000000000000000000000000 PUSH1 0x0 MSTORE PUSH1 0x20 PUSH1 0x4 MSTORE PUSH1 0x17 PUSH1 0x24 MSTORE PUSH32 0x4D756C746963616C6C333A2063616C6C206661696C6564000000000000000000 PUSH1 0x44 MSTORE PUSH1 0x64 PUSH1 0x0 REVERT JUMPDEST DUP2 PUSH1 0x1 ADD SWAP2 POP POP PUSH2 0x87E JUMP JUMPDEST POP POP POP SWAP3 SWAP2 POP POP JUMP JUMPDEST PUSH1 0x0 GASLIMIT SWAP1 POP SWAP1 JUMP JUMPDEST PUSH1 0x0 COINBASE SWAP1 POP SWAP1 JUMP JUMPDEST PUSH1 0x60 PUSH1 0x0 DUP4 DUP4 SWAP1 POP SWAP1 POP DUP1 PUSH8 0xFFFFFFFFFFFFFFFF DUP2 GT ISZERO PUSH2 0xA18 JUMPI PUSH2 0xA17 PUSH2 0x12FA JUMP JUMPDEST JUMPDEST PUSH1 0x40 MLOAD SWAP1 DUP1 DUP3 MSTORE DUP1 PUSH1 0x20 MUL PUSH1 0x20 ADD DUP3 ADD PUSH1 0x40 MSTORE DUP1 ISZERO PUSH2 0xA51 JUMPI DUP2 PUSH1 0x20 ADD JUMPDEST PUSH2 0xA3E PUSH2 0xBD5 JUMP JUMPDEST DUP2 MSTORE PUSH1 0x20 ADD SWAP1 PUSH1 0x1 SWAP1 SUB SWAP1 DUP2 PUSH2 0xA36 JUMPI SWAP1 POP JUMPDEST POP SWAP2 POP CALLDATASIZE PUSH1 0x0 JUMPDEST DUP3 DUP2 LT ISZERO PUSH2 0xB9C JUMPI PUSH1 0x0 DUP5 DUP3 DUP2 MLOAD DUP2 LT PUSH2 0xA75 JUMPI PUSH2 0xA74 PUSH2 0x1329 JUMP JUMPDEST JUMPDEST PUSH1 0x20 MUL PUSH1 0x20 ADD ADD MLOAD SWAP1 POP DUP7 DUP7 DUP4 DUP2 DUP2 LT PUSH2 0xA92 JUMPI PUSH2 0xA91 PUSH2 0x1329 JUMP JUMPDEST JUMPDEST SWAP1 POP PUSH1 0x20 MUL DUP2 ADD SWAP1 PUSH2 0xAA4 SWAP2 SWAP1 PUSH2 0x14C7 JUMP JUMPDEST SWAP3 POP DUP3 PUSH1 0x0 ADD PUSH1 0x20 DUP2 ADD SWAP1 PUSH2 0xAB9 SWAP2 SWAP1 PUSH2 0x11A7 JUMP JUMPDEST PUSH20 0xFFFFFFFFFFFFFFFFFFFFFFFFFFFFFFFFFFFFFFFF AND DUP4 DUP1 PUSH1 0x20 ADD SWAP1 PUSH2 0xADF SWAP2 SWAP1 PUSH2 0x138F JUMP JUMPDEST PUSH1 0x40 MLOAD PUSH2 0xAED SWAP3 SWAP2 SWAP1 PUSH2 0x1431 JUMP JUMPDEST PUSH1 0x0 PUSH1 0x40 MLOAD DUP1 DUP4 SUB DUP2 PUSH1 0x0 DUP7 GAS CALL SWAP2 POP POP RETURNDATASIZE DUP1 PUSH1 0x0 DUP2 EQ PUSH2 0xB2A JUMPI PUSH1 0x40 MLOAD SWAP2 POP PUSH1 0x1F NOT PUSH1 0x3F RETURNDATASIZE ADD AND DUP3 ADD PUSH1 0x40 MSTORE RETURNDATASIZE DUP3 MSTORE RETURNDATASIZE PUSH1 0x0 PUSH1 0x20 DUP5 ADD RETURNDATACOPY PUSH2 0xB2F JUMP JUMPDEST PUSH1 0x60 SWAP2 POP JUMPDEST POP DUP3 PUSH1 0x0 ADD DUP4 PUSH1 0x20 ADD DUP3 SWAP1 MSTORE DUP3 ISZERO ISZERO ISZERO ISZERO DUP2 MSTORE POP POP POP DUP8 ISZERO PUSH2 0xB90 JUMPI DUP1 PUSH1 0x0 ADD MLOAD PUSH2 0xB8F JUMPI PUSH1 0x40 MLOAD PUSH32 0x8C379A000000000000000000000000000000000000000000000000000000000 DUP2 MSTORE PUSH1 0x4 ADD PUSH2 0xB86 SWAP1 PUSH2 0x153B JUMP JUMPDEST PUSH1 0x40 MLOAD DUP1 SWAP2 SUB SWAP1 REVERT JUMPDEST JUMPDEST DUP2 PUSH1 0x1 ADD SWAP2 POP POP PUSH2 0xA58 JUMP JUMPDEST POP POP POP SWAP4 SWAP3 POP POP POP JUMP JUMPDEST PUSH1 0x0 DUP1 PUSH1 0x60 PUSH2 0xBB7 PUSH1 0x1 DUP7 DUP7 PUSH2 0x7BF JUMP JUMPDEST DUP1 SWAP4 POP DUP2 SWAP5 POP DUP3 SWAP6 POP POP POP POP SWAP3 POP SWAP3 POP SWAP3 JUMP JUMPDEST PUSH1 0x0 DUP2 BLOCKHASH SWAP1 POP SWAP2 SWAP1 POP JUMP JUMPDEST PUSH1 0x40 MLOAD DUP1 PUSH1 0x40 ADD PUSH1 0x40 MSTORE DUP1 PUSH1 0x0 ISZERO ISZERO DUP2 MSTORE PUSH1 0x20 ADD PUSH1 0x60 DUP2 MSTORE POP SWAP1 JUMP JUMPDEST PUSH1 0x0 DUP2 SWAP1 POP SWAP2 SWAP1 POP JUMP JUMPDEST PUSH2 0xC04 DUP2 PUSH2 0xBF1 JUMP JUMPDEST DUP3 MSTORE POP POP JUMP JUMPDEST PUSH1 0x0 PUSH1 0x20 DUP3 ADD SWAP1 POP PUSH2 0xC1F PUSH1 0x0 DUP4 ADD DUP5 PUSH2 0xBFB JUMP JUMPDEST SWAP3 SWAP2 POP POP JUMP JUMPDEST PUSH1 0x0 DUP1 REVERT JUMPDEST PUSH1 0x0 DUP1 REVERT JUMPDEST PUSH1 0x0 DUP1 REVERT JUMPDEST PUSH1 0x0 DUP1 REVERT JUMPDEST PUSH1 0x0 DUP1 REVERT JUMPDEST PUSH1 0x0 DUP1 DUP4 PUSH1 0x1F DUP5 ADD SLT PUSH2 0xC54 JUMPI PUSH2 0xC53 PUSH2 0xC2F JUMP JUMPDEST JUMPDEST DUP3 CALLDATALOAD SWAP1 POP PUSH8 0xFFFFFFFFFFFFFFFF DUP2 GT ISZERO PUSH2 0xC71 JUMPI PUSH2 0xC70 PUSH2 0xC34 JUMP JUMPDEST JUMPDEST PUSH1 0x20 DUP4 ADD SWAP2 POP DUP4 PUSH1 0x20 DUP3 MUL DUP4 ADD GT ISZERO PUSH2 0xC8D JUMPI PUSH2 0xC8C PUSH2 0xC39 JUMP JUMPDEST JUMPDEST SWAP3 POP SWAP3 SWAP1 POP JUMP JUMPDEST PUSH1 0x0 DUP1 PUSH1 0x20 DUP4 DUP6 SUB SLT ISZERO PUSH2 0xCAB JUMPI PUSH2 0xCAA PUSH2 0xC25 JUMP JUMPDEST JUMPDEST PUSH1 0x0 DUP4 ADD CALLDATALOAD PUSH8 0xFFFFFFFFFFFFFFFF DUP2 GT ISZERO PUSH2 0xCC9 JUMPI PUSH2 0xCC8 PUSH2 0xC2A JUMP JUMPDEST JUMPDEST PUSH2 0xCD5 DUP6 DUP3 DUP7 ADD PUSH2 0xC3E JUMP JUMPDEST SWAP3 POP SWAP3 POP POP SWAP3 POP SWAP3 SWAP1 POP JUMP JUMPDEST PUSH1 0x0 DUP2 MLOAD SWAP1 POP SWAP2 SWAP1 POP JUMP JUMPDEST PUSH1 0x0 DUP3 DUP3 MSTORE PUSH1 0x20 DUP3 ADD SWAP1 POP SWAP3 SWAP2 POP POP JUMP JUMPDEST PUSH1 0x0 DUP2 SWAP1 POP PUSH1 0x20 DUP3 ADD SWAP1 POP SWAP2 SWAP1 POP JUMP JUMPDEST PUSH1 0x0 DUP2 ISZERO ISZERO SWAP1 POP SWAP2 SWAP1 POP JUMP JUMPDEST PUSH2 0xD22 DUP2 PUSH2 0xD0D JUMP JUMPDEST DUP3 MSTORE POP POP JUMP JUMPDEST PUSH1 0x0 DUP2 MLOAD SWAP1 POP SWAP2 SWAP1 POP JUMP JUMPDEST PUSH1 0x0 DUP3 DUP3 MSTORE PUSH1 0x20 DUP3 ADD SWAP1 POP SWAP3 SWAP2 POP POP JUMP JUMPDEST PUSH1 0x0 JUMPDEST DUP4 DUP2 LT ISZERO PUSH2 0xD62 JUMPI DUP1 DUP3 ADD MLOAD DUP2 DUP5 ADD MSTORE PUSH1 0x20 DUP2 ADD SWAP1 POP PUSH2 0xD47 JUMP JUMPDEST DUP4 DUP2 GT ISZERO PUSH2 0xD71 JUMPI PUSH1 0x0 DUP5 DUP5 ADD MSTORE JUMPDEST POP POP POP POP JUMP JUMPDEST PUSH1 0x0 PUSH1 0x1F NOT PUSH1 0x1F DUP4 ADD AND SWAP1 POP SWAP2 SWAP1 POP JUMP JUMPDEST PUSH1 0x0 PUSH2 0xD93 DUP3 PUSH2 0xD28 JUMP JUMPDEST PUSH2 0xD9D DUP2 DUP6 PUSH2 0xD33 JUMP JUMPDEST SWAP4 POP PUSH2 0xDAD DUP2 DUP6 PUSH1 0x20 DUP7 ADD PUSH2 0xD44 JUMP JUMPDEST PUSH2 0xDB6 DUP2 PUSH2 0xD77 JUMP JUMPDEST DUP5 ADD SWAP2 POP POP SWAP3 SWAP2 POP POP JUMP JUMPDEST PUSH1 0x0 PUSH1 0x40 DUP4 ADD PUSH1 0x0 DUP4 ADD MLOAD PUSH2 0xDD9 PUSH1 0x0 DUP7 ADD DUP3 PUSH2 0xD19 JUMP JUMPDEST POP PUSH1 0x20 DUP4 ADD MLOAD DUP5 DUP3 SUB PUSH1 0x20 DUP7 ADD MSTORE PUSH2 0xDF1 DUP3 DUP3 PUSH2 0xD88 JUMP JUMPDEST SWAP2 POP POP DUP1 SWAP2 POP POP SWAP3 SWAP2 POP POP JUMP JUMPDEST PUSH1 0x0 PUSH2 0xE0A DUP4 DUP4 PUSH2 0xDC1 JUMP JUMPDEST SWAP1 POP SWAP3 SWAP2 POP POP JUMP JUMPDEST PUSH1 0x0 PUSH1 0x20 DUP3 ADD SWAP1 POP SWAP2 SWAP1 POP JUMP JUMPDEST PUSH1 0x0 PUSH2 0xE2A DUP3 PUSH2 0xCE1 JUMP JUMPDEST PUSH2 0xE34 DUP2 DUP6 PUSH2 0xCEC JUMP JUMPDEST SWAP4 POP DUP4 PUSH1 0x20 DUP3 MUL DUP6 ADD PUSH2 0xE46 DUP6 PUSH2 0xCFD JUMP JUMPDEST DUP1 PUSH1 0x0 JUMPDEST DUP6 DUP2 LT ISZERO PUSH2 0xE82 JUMPI DUP5 DUP5 SUB DUP10 MSTORE DUP2 MLOAD PUSH2 0xE63 DUP6 DUP3 PUSH2 0xDFE JUMP JUMPDEST SWAP5 POP PUSH2 0xE6E DUP4 PUSH2 0xE12 JUMP JUMPDEST SWAP3 POP PUSH1 0x20 DUP11 ADD SWAP10 POP POP PUSH1 0x1 DUP2 ADD SWAP1 POP PUSH2 0xE4A JUMP JUMPDEST POP DUP3 SWAP8 POP DUP8 SWAP6 POP POP POP POP POP POP SWAP3 SWAP2 POP POP JUMP JUMPDEST PUSH1 0x0 PUSH1 0x20 DUP3 ADD SWAP1 POP DUP2 DUP2 SUB PUSH1 0x0 DUP4 ADD MSTORE PUSH2 0xEAE DUP2 DUP5 PUSH2 0xE1F JUMP JUMPDEST SWAP1 POP SWAP3 SWAP2 POP POP JUMP JUMPDEST PUSH1 0x0 DUP1 DUP4 PUSH1 0x1F DUP5 ADD SLT PUSH2 0xECC JUMPI PUSH2 0xECB PUSH2 0xC2F JUMP JUMPDEST JUMPDEST DUP3 CALLDATALOAD SWAP1 POP PUSH8 0xFFFFFFFFFFFFFFFF DUP2 GT ISZERO PUSH2 0xEE9 JUMPI PUSH2 0xEE8 PUSH2 0xC34 JUMP JUMPDEST JUMPDEST PUSH1 0x20 DUP4 ADD SWAP2 POP DUP4 PUSH1 0x20 DUP3 MUL DUP4 ADD GT ISZERO PUSH2 0xF05 JUMPI PUSH2 0xF04 PUSH2 0xC39 JUMP JUMPDEST JUMPDEST SWAP3 POP SWAP3 SWAP1 POP JUMP JUMPDEST PUSH1 0x0 DUP1 PUSH1 0x20 DUP4 DUP6 SUB SLT ISZERO PUSH2 0xF23 JUMPI PUSH2 0xF22 PUSH2 0xC25 JUMP JUMPDEST JUMPDEST PUSH1 0x0 DUP4 ADD CALLDATALOAD PUSH8 0xFFFFFFFFFFFFFFFF DUP2 GT ISZERO PUSH2 0xF41 JUMPI PUSH2 0xF40 PUSH2 0xC2A JUMP JUMPDEST JUMPDEST PUSH2 0xF4D DUP6 DUP3 DUP7 ADD PUSH2 0xEB6 JUMP JUMPDEST SWAP3 POP SWAP3 POP POP SWAP3 POP SWAP3 SWAP1 POP JUMP JUMPDEST PUSH1 0x0 DUP2 MLOAD SWAP1 POP SWAP2 SWAP1 POP JUMP JUMPDEST PUSH1 0x0 DUP3 DUP3 MSTORE PUSH1 0x20 DUP3 ADD SWAP1 POP SWAP3 SWAP2 POP POP JUMP JUMPDEST PUSH1 0x0 DUP2 SWAP1 POP PUSH1 0x20 DUP3 ADD SWAP1 POP SWAP2 SWAP1 POP JUMP JUMPDEST PUSH1 0x0 PUSH2 0xF91 DUP4 DUP4 PUSH2 0xD88 JUMP JUMPDEST SWAP1 POP SWAP3 SWAP2 POP POP JUMP JUMPDEST PUSH1 0x0 PUSH1 0x20 DUP3 ADD SWAP1 POP SWAP2 SWAP1 POP JUMP JUMPDEST PUSH1 0x0 PUSH2 0xFB1 DUP3 PUSH2 0xF59 JUMP JUMPDEST PUSH2 0xFBB DUP2 DUP6 PUSH2 0xF64 JUMP JUMPDEST SWAP4 POP DUP4 PUSH1 0x20 DUP3 MUL DUP6 ADD PUSH2 0xFCD DUP6 PUSH2 0xF75 JUMP JUMPDEST DUP1 PUSH1 0x0 JUMPDEST DUP6 DUP2 LT ISZERO PUSH2 0x1009 JUMPI DUP5 DUP5 SUB DUP10 MSTORE DUP2 MLOAD PUSH2 0xFEA DUP6 DUP3 PUSH2 0xF85 JUMP JUMPDEST SWAP5 POP PUSH2 0xFF5 DUP4 PUSH2 0xF99 JUMP JUMPDEST SWAP3 POP PUSH1 0x20 DUP11 ADD SWAP10 POP POP PUSH1 0x1 DUP2 ADD SWAP1 POP PUSH2 0xFD1 JUMP JUMPDEST POP DUP3 SWAP8 POP DUP8 SWAP6 POP POP POP POP POP POP SWAP3 SWAP2 POP POP JUMP JUMPDEST PUSH1 0x0 PUSH1 0x40 DUP3 ADD SWAP1 POP PUSH2 0x1030 PUSH1 0x0 DUP4 ADD DUP6 PUSH2 0xBFB JUMP JUMPDEST DUP2 DUP2 SUB PUSH1 0x20 DUP4 ADD MSTORE PUSH2 0x1042 DUP2 DUP5 PUSH2 0xFA6 JUMP JUMPDEST SWAP1 POP SWAP4 SWAP3 POP POP POP JUMP JUMPDEST PUSH1 0x0 DUP2 SWAP1 POP SWAP2 SWAP1 POP JUMP JUMPDEST PUSH2 0x105E DUP2 PUSH2 0x104B JUMP JUMPDEST DUP3 MSTORE POP POP JUMP JUMPDEST PUSH1 0x0 PUSH1 0x20 DUP3 ADD SWAP1 POP PUSH2 0x1079 PUSH1 0x0 DUP4 ADD DUP5 PUSH2 0x1055 JUMP JUMPDEST SWAP3 SWAP2 POP POP JUMP JUMPDEST PUSH2 0x1088 DUP2 PUSH2 0xD0D JUMP JUMPDEST DUP2 EQ PUSH2 0x1093 JUMPI PUSH1 0x0 DUP1 REVERT JUMPDEST POP JUMP JUMPDEST PUSH1 0x0 DUP2 CALLDATALOAD SWAP1 POP PUSH2 0x10A5 DUP2 PUSH2 0x107F JUMP JUMPDEST SWAP3 SWAP2 POP POP JUMP JUMPDEST PUSH1 0x0 DUP1 PUSH1 0x0 PUSH1 0x40 DUP5 DUP7 SUB SLT ISZERO PUSH2 0x10C4 JUMPI PUSH2 0x10C3 PUSH2 0xC25 JUMP JUMPDEST JUMPDEST PUSH1 0x0 PUSH2 0x10D2 DUP7 DUP3 DUP8 ADD PUSH2 0x1096 JUMP JUMPDEST SWAP4 POP POP PUSH1 0x20 DUP5 ADD CALLDATALOAD PUSH8 0xFFFFFFFFFFFFFFFF DUP2 GT ISZERO PUSH2 0x10F3 JUMPI PUSH2 0x10F2 PUSH2 0xC2A JUMP JUMPDEST JUMPDEST PUSH2 0x10FF DUP7 DUP3 DUP8 ADD PUSH2 0xEB6 JUMP JUMPDEST SWAP3 POP SWAP3 POP POP SWAP3 POP SWAP3 POP SWAP3 JUMP JUMPDEST PUSH1 0x0 PUSH1 0x60 DUP3 ADD SWAP1 POP PUSH2 0x1120 PUSH1 0x0 DUP4 ADD DUP7 PUSH2 0xBFB JUMP JUMPDEST PUSH2 0x112D PUSH1 0x20 DUP4 ADD DUP6 PUSH2 0x1055 JUMP JUMPDEST DUP2 DUP2 SUB PUSH1 0x40 DUP4 ADD MSTORE PUSH2 0x113F DUP2 DUP5 PUSH2 0xE1F JUMP JUMPDEST SWAP1 POP SWAP5 SWAP4 POP POP POP POP JUMP JUMPDEST PUSH1 0x0 PUSH20 0xFFFFFFFFFFFFFFFFFFFFFFFFFFFFFFFFFFFFFFFF DUP3 AND SWAP1 POP SWAP2 SWAP1 POP JUMP JUMPDEST PUSH1 0x0 PUSH2 0x1174 DUP3 PUSH2 0x1149 JUMP JUMPDEST SWAP1 POP SWAP2 SWAP1 POP JUMP JUMPDEST PUSH2 0x1184 DUP2 PUSH2 0x1169 JUMP JUMPDEST DUP2 EQ PUSH2 0x118F JUMPI PUSH1 0x0 DUP1 REVERT JUMPDEST POP JUMP JUMPDEST PUSH1 0x0 DUP2 CALLDATALOAD SWAP1 POP PUSH2 0x11A1 DUP2 PUSH2 0x117B JUMP JUMPDEST SWAP3 SWAP2 POP POP JUMP JUMPDEST PUSH1 0x0 PUSH1 0x20 DUP3 DUP5 SUB SLT ISZERO PUSH2 0x11BD JUMPI PUSH2 0x11BC PUSH2 0xC25 JUMP JUMPDEST JUMPDEST PUSH1 0x0 PUSH2 0x11CB DUP5 DUP3 DUP6 ADD PUSH2 0x1192 JUMP JUMPDEST SWAP2 POP POP SWAP3 SWAP2 POP POP JUMP JUMPDEST PUSH1 0x0 DUP1 DUP4 PUSH1 0x1F DUP5 ADD SLT PUSH2 0x11EA JUMPI PUSH2 0x11E9 PUSH2 0xC2F JUMP JUMPDEST JUMPDEST DUP3 CALLDATALOAD SWAP1 POP PUSH8 0xFFFFFFFFFFFFFFFF DUP2 GT ISZERO PUSH2 0x1207 JUMPI PUSH2 0x1206 PUSH2 0xC34 JUMP JUMPDEST JUMPDEST PUSH1 0x20 DUP4 ADD SWAP2 POP DUP4 PUSH1 0x20 DUP3 MUL DUP4 ADD GT ISZERO PUSH2 0x1223 JUMPI PUSH2 0x1222 PUSH2 0xC39 JUMP JUMPDEST JUMPDEST SWAP3 POP SWAP3 SWAP1 POP JUMP JUMPDEST PUSH1 0x0 DUP1 PUSH1 0x20 DUP4 DUP6 SUB SLT ISZERO PUSH2 0x1241 JUMPI PUSH2 0x1240 PUSH2 0xC25 JUMP JUMPDEST JUMPDEST PUSH1 0x0 DUP4 ADD CALLDATALOAD PUSH8 0xFFFFFFFFFFFFFFFF DUP2 GT ISZERO PUSH2 0x125F JUMPI PUSH2 0x125E PUSH2 0xC2A JUMP JUMPDEST JUMPDEST PUSH2 0x126B DUP6 DUP3 DUP7 ADD PUSH2 0x11D4 JUMP JUMPDEST SWAP3 POP SWAP3 POP POP SWAP3 POP SWAP3 SWAP1 POP JUMP JUMPDEST PUSH2 0x1280 DUP2 PUSH2 0x1169 JUMP JUMPDEST DUP3 MSTORE POP POP JUMP JUMPDEST PUSH1 0x0 PUSH1 0x20 DUP3 ADD SWAP1 POP PUSH2 0x129B PUSH1 0x0 DUP4 ADD DUP5 PUSH2 0x1277 JUMP JUMPDEST SWAP3 SWAP2 POP POP JUMP JUMPDEST PUSH2 0x12AA DUP2 PUSH2 0xBF1 JUMP JUMPDEST DUP2 EQ PUSH2 0x12B5 JUMPI PUSH1 0x0 DUP1 REVERT JUMPDEST POP JUMP JUMPDEST PUSH1 0x0 DUP2 CALLDATALOAD SWAP1 POP PUSH2 0x12C7 DUP2 PUSH2 0x12A1 JUMP JUMPDEST SWAP3 SWAP2 POP POP JUMP JUMPDEST PUSH1 0x0 PUSH1 0x20 DUP3 DUP5 SUB SLT ISZERO PUSH2 0x12E3 JUMPI PUSH2 0x12E2 PUSH2 0xC25 JUMP JUMPDEST JUMPDEST PUSH1 0x0 PUSH2 0x12F1 DUP5 DUP3 DUP6 ADD PUSH2 0x12B8 JUMP JUMPDEST SWAP2 POP POP SWAP3 SWAP2 POP POP JUMP JUMPDEST PUSH32 0x4E487B7100000000000000000000000000000000000000000000000000000000 PUSH1 0x0 MSTORE PUSH1 0x41 PUSH1 0x4 MSTORE PUSH1 0x24 PUSH1 0x0 REVERT JUMPDEST PUSH32 0x4E487B7100000000000000000000000000000000000000000000000000000000 PUSH1 0x0 MSTORE PUSH1 0x32 PUSH1 0x4 MSTORE PUSH1 0x24 PUSH1 0x0 REVERT JUMPDEST PUSH1 0x0 DUP1 REVERT JUMPDEST PUSH1 0x0 DUP1 REVERT JUMPDEST PUSH1 0x0 DUP1 REVERT JUMPDEST PUSH1 0x0 DUP3 CALLDATALOAD PUSH1 0x1 PUSH1 0x80 SUB DUP4 CALLDATASIZE SUB SUB DUP2 SLT PUSH2 0x1383 JUMPI PUSH2 0x1382 PUSH2 0x1358 JUMP JUMPDEST JUMPDEST DUP1 DUP4 ADD SWAP2 POP POP SWAP3 SWAP2 POP POP JUMP JUMPDEST PUSH1 0x0 DUP1 DUP4 CALLDATALOAD PUSH1 0x1 PUSH1 0x20 SUB DUP5 CALLDATASIZE SUB SUB DUP2 SLT PUSH2 0x13AC JUMPI PUSH2 0x13AB PUSH2 0x1358 JUMP JUMPDEST JUMPDEST DUP1 DUP5 ADD SWAP3 POP DUP3 CALLDATALOAD SWAP2 POP PUSH8 0xFFFFFFFFFFFFFFFF DUP3 GT ISZERO PUSH2 0x13CE JUMPI PUSH2 0x13CD PUSH2 0x135D JUMP JUMPDEST JUMPDEST PUSH1 0x20 DUP4 ADD SWAP3 POP PUSH1 0x1 DUP3 MUL CALLDATASIZE SUB DUP4 SGT ISZERO PUSH2 0x13EA JUMPI PUSH2 0x13E9 PUSH2 0x1362 JUMP JUMPDEST JUMPDEST POP SWAP3 POP SWAP3 SWAP1 POP JUMP JUMPDEST PUSH1 0x0 DUP2 SWAP1 POP SWAP3 SWAP2 POP POP JUMP JUMPDEST DUP3 DUP2 DUP4 CALLDATACOPY PUSH1 0x0 DUP4 DUP4 ADD MSTORE POP POP POP JUMP JUMPDEST PUSH1 0x0 PUSH2 0x1418 DUP4 DUP6 PUSH2 0x13F2 JUMP JUMPDEST SWAP4 POP PUSH2 0x1425 DUP4 DUP6 DUP5 PUSH2 0x13FD JUMP JUMPDEST DUP3 DUP5 ADD SWAP1 POP SWAP4 SWAP3 POP POP POP JUMP JUMPDEST PUSH1 0x0 PUSH2 0x143E DUP3 DUP5 DUP7 PUSH2 0x140C JUMP JUMPDEST SWAP2 POP DUP2 SWAP1 POP SWAP4 SWAP3 POP POP POP JUMP JUMPDEST PUSH1 0x0 DUP3 DUP3 MSTORE PUSH1 0x20 DUP3 ADD SWAP1 POP SWAP3 SWAP2 POP POP JUMP JUMPDEST PUSH32 0x4D756C746963616C6C333A2076616C7565206D69736D61746368000000000000 PUSH1 0x0 DUP3 ADD MSTORE POP JUMP JUMPDEST PUSH1 0x0 PUSH2 0x1491 PUSH1 0x1A DUP4 PUSH2 0x144A JUMP JUMPDEST SWAP2 POP PUSH2 0x149C DUP3 PUSH2 0x145B JUMP JUMPDEST PUSH1 0x20 DUP3 ADD SWAP1 POP SWAP2 SWAP1 POP JUMP JUMPDEST PUSH1 0x0 PUSH1 0x20 DUP3 ADD SWAP1 POP DUP2 DUP2 SUB PUSH1 0x0 DUP4 ADD MSTORE PUSH2 0x14C0 DUP2 PUSH2 0x1484 JUMP JUMPDEST SWAP1 POP SWAP2 SWAP1 POP JUMP JUMPDEST PUSH1 0x0 DUP3 CALLDATALOAD PUSH1 0x1 PUSH1 0x40 SUB DUP4 CALLDATASIZE SUB SUB DUP2 SLT PUSH2 0x14E3 JUMPI PUSH2 0x14E2 PUSH2 0x1358 JUMP JUMPDEST JUMPDEST DUP1 DUP4 ADD SWAP2 POP POP SWAP3 SWAP2 POP POP JUMP JUMPDEST PUSH32 0x4D756C746963616C6C333A2063616C6C206661696C6564000000000000000000 PUSH1 0x0 DUP3 ADD MSTORE POP JUMP JUMPDEST PUSH1 0x0 PUSH2 0x1525 PUSH1 0x17 DUP4 PUSH2 0x144A JUMP JUMPDEST SWAP2 POP PUSH2 0x1530 DUP3 PUSH2 0x14EF JUMP JUMPDEST PUSH1 0x20 DUP3 ADD SWAP1 POP SWAP2 SWAP1 POP JUMP JUMPDEST PUSH1 0x0 PUSH1 0x20 DUP3 ADD SWAP1 POP DUP2 DUP2 SUB PUSH1 0x0 DUP4 ADD MSTORE PUSH2 0x1554 DUP2 PUSH2 0x1518 JUMP JUMPDEST SWAP1 POP SWAP2 SWAP1 POP JUMP JUMPDEST PUSH1 0x0 DUP3 CALLDATALOAD PUSH1 0x1 PUSH1 0x60 SUB DUP4 CALLDATASIZE SUB SUB DUP2 SLT PUSH2 0x1577 JUMPI PUSH2 0x1576 PUSH2 0x1358 JUMP JUMPDEST JUMPDEST DUP1 DUP4 ADD SWAP2 POP POP SWAP3 SWAP2 POP POP JUMP INVALID LOG2 PUSH5 0x6970667358 0x22 SLT KECCAK256 EQ MSTORE8 SWAP6 CALLCODE 0xCA SWAP5 SHL SWAP9 0x2C 0xE5 STOP 0xC6 0xEC 0xD1 CHAINID PUSH13 0xD8A4A6E8D106189B64009AC42B 0x1E DUP9 0xDA PUSH5 0x736F6C6343 STOP ADDMOD 0xC STOP CALLER "
  },
  "Assembly": ".code\n  PUSH 80\t\t\tcontract Multicall3 {\\n    str...\n  PUSH 40\t\t\tcontract Multicall3 {\\n    str...\n  MSTORE \t\t\tcontract Multicall3 {\\n    str...\n  CALLVALUE \t\t\tcontract Multicall3 {\\n    str...\n  DUP1 \t\t\tcontract Multicall3 {\\n    str...\n  ISZERO \t\t\tcontract Multicall3 {\\n    str...\n  PUSH [tag] 1\t\t\tcontract Multicall3 {\\n    str...\n  JUMPI \t\t\tcontract Multicall3 {\\n    str...\n  PUSH 0\t\t\tcontract Multicall3 {\\n    str...\n  DUP1 \t\t\tcontract Multicall3 {\\n    str...\n  REVERT \t\t\tcontract Multicall3 {\\n    str...\ntag 1\t\t\tcontract Multicall3 {\\n    str...\n  JUMPDEST \t\t\tcontract Multicall3 {\\n    str...\n  POP \t\t\tcontract Multicall3 {\\n    str...\n  PUSH #[$] 0000000000000000000000000000000000000000000000000000000000000000\t\t\tcontract Multicall3 {\\n    str...\n  DUP1 \t\t\tcontract Multicall3 {\\n    str...\n  PUSH [$] 0000000000000000000000000000000000000000000000000000000000000000\t\t\tcontract Multicall3 {\\n    str...\n  PUSH 0\t\t\tcontract Multicall3 {\\n    str...\n  CODECOPY \t\t\tcontract Multicall3 {\\n    str...\n  PUSH 0\t\t\tcontract Multicall3 {\\n    str...\n  RETURN \t\t\tcontract Multicall3 {\\n    str...\n.data\n  0:\n    .code\n      PUSH 80\t\t\tcontract Multicall3 {\\n    str...\n      PUSH 40\t\t\tcontract Multicall3 {\\n    str...\n      MSTORE \t\t\tcontract Multicall3 {\\n    str...\n      PUSH 4\t\t\tcontract Multicall3 {\\n    str...\n      CALLDATASIZE \t\t\tcontract Multicall3 {\\n    str...\n      LT \t\t\tcontract Multicall3 {\\n    str...\n      PUSH [tag] 1\t\t\tcontract Multicall3 {\\n    str...\n      JUMPI \t\t\tcontract Multicall3 {\\n    str...\n      PUSH 0\t\t\tcontract Multicall3 {\\n    str...\n      CALLDATALOAD \t\t\tcontract Multicall3 {\\n    str...\n      PUSH E0\t\t\tcontract Multicall3 {\\n    str...\n      SHR \t\t\tcontract Multicall3 {\\n    str...\n      DUP1 \t\t\tcontract Multicall3 {\\n    str...\n      PUSH 4D2301CC\t\t\tcontract Multicall3 {\\n    str...\n      GT \t\t\tcontract Multicall3 {\\n    str...\n      PUSH [tag] 18\t\t\tcontract Multicall3 {\\n    str...\n      JUMPI \t\t\tcontract Multicall3 {\\n    str...\n      DUP1 \t\t\tcontract Multicall3 {\\n    str...\n      PUSH A8B0574E\t\t\tcontract Multicall3 {\\n    str...\n      GT \t\t\tcontract Multicall3 {\\n    str...\n      PUSH [tag] 19\t\t\tcontract Multicall3 {\\n    str...\n      JUMPI \t\t\tcontract Multicall3 {\\n    str...\n      DUP1 \t\t\tcontract Multicall3 {\\n    str...\n      PUSH A8B0574E\t\t\tcontract Multicall3 {\\n    str...\n      EQ \t\t\tcontract Multicall3 {\\n    str...\n      PUSH [tag] 14\t\t\tcontract Multicall3 {\\n    str...\n      JUMPI \t\t\tcontract Multicall3 {\\n    str...\n      DUP1 \t\t\tcontract Multicall3 {\\n    str...\n      PUSH BCE38BD7\t\t\tcontract Multicall3 {\\n    str...\n      EQ \t\t\tcontract Multicall3 {\\n    str...\n      PUSH [tag] 15\t\t\tcontract Multicall3 {\\n    str...\n      JUMPI \t\t\tcontract Multicall3 {\\n    str...\n      DUP1 \t\t\tcontract Multicall3 {\\n    str...\n      PUSH C3077FA9\t\t\tcontract Multicall3 {\\n    str...\n      EQ \t\t\tcontract Multicall3 {\\n    str...\n      PUSH [tag] 16\t\t\tcontract Multicall3 {\\n    str...\n      JUMPI \t\t\tcontract Multicall3 {\\n    str...\n      DUP1 \t\t\tcontract Multicall3 {\\n    str...\n      PUSH EE82AC5E\t\t\tcontract Multicall3 {\\n    str...\n      EQ \t\t\tcontract Multicall3 {\\n    str...\n      PUSH [tag] 17\t\t\tcontract Multicall3 {\\n    str...\n      JUMPI \t\t\tcontract Multicall3 {\\n    str...\n      PUSH [tag] 1\t\t\tcontract Multicall3 {\\n    str...\n      JUMP \t\t\tcontract Multicall3 {\\n    str...\n    tag 19\t\t\tcontract Multicall3 {\\n    str...\n      JUMPDEST \t\t\tcontract Multicall3 {\\n    str...\n      DUP1 \t\t\tcontract Multicall3 {\\n    str...\n      PUSH 4D2301CC\t\t\tcontract Multicall3 {\\n    str...\n      EQ \t\t\tcontract Multicall3 {\\n    str...\n      PUSH [tag] 10\t\t\tcontract Multicall3 {\\n    str...\n      JUMPI \t\t\tcontract Multicall3 {\\n    str...\n      DUP1 \t\t\tcontract Multicall3 {\\n    str...\n      PUSH 72425D9D\t\t\tcontract Multicall3 {\\n    str...\n      EQ \t\t\tcontract Multicall3 {\\n    str...\n      PUSH [tag] 11\t\t\tcontract Multicall3 {\\n    str...\n      JUMPI \t\t\tcontract Multicall3 {\\n    str...\n      DUP1 \t\t\tcontract Multicall3 {\\n    str...\n      PUSH 82AD56CB\t\t\tcontract Multicall3 {\\n    str...\n      EQ \t\t\tcontract Multicall3 {\\n    str...\n      PUSH [tag] 12\t\t\tcontract Multicall3 {\\n    str...\n      JUMPI \t\t\tcontract Multicall3 {\\n    str...\n      DUP1 \t\t\tcontract Multicall3 {\\n    str...\n      PUSH 86D516E8\t\t\tcontract Multicall3 {\\n    str...\n      EQ \t\t\tcontract Multicall3 {\\n    str...\n      PUSH [tag] 13\t\t\tcontract Multicall3 {\\n    str...\n      JUMPI \t\t\tcontract Multicall3 {\\n    str...\n      PUSH [tag] 1\t\t\tcontract Multicall3 {\\n    str...\n      JUMP \t\t\tcontract Multicall3 {\\n    str...\n    tag 18\t\t\tcontract Multicall3 {\\n    str...\n      JUMPDEST \t\t\tcontract Multicall3 {\\n    str...\n      DUP1 \t\t\tcontract Multicall3 {\\n    str...\n      PUSH 3408E470\t\t\tcontract Multicall3 {\\n    str...\n      GT \t\t\tcontract Multicall3 {\\n    str...\n      PUSH [tag] 20\t\t\tcontract Multicall3 {\\n    str...\n      JUMPI \t\t\tcontract Multicall3 {\\n    str...\n      DUP1 \t\t\tcontract Multicall3 {\\n    str...\n      PUSH 3408E470\t\t\tcontract Multicall3 {\\n    str...\n      EQ \t\t\tcontract Multicall3 {\\n    str...\n      PUSH [tag] 6\t\t\tcontract Multicall3 {\\n    str...\n      JUMPI \t\t\tcontract Multicall3 {\\n    str...\n      DUP1 \t\t\tcontract Multicall3 {\\n    str...\n      PUSH 399542E9\t\t\tcontract Multicall3 {\\n    str...\n      EQ \t\t\tcontract Multicall3 {\\n    str...\n      PUSH [tag] 7\t\t\tcontract Multicall3 {\\n    str...\n      JUMPI \t\t\tcontract Multicall3 {\\n    str...\n      DUP1 \t\t\tcontract Multicall3 {\\n    str...\n      PUSH 3E64A696\t\t\tcontract Multicall3 {\\n    str...\n      EQ \t\t\tcontract Multicall3 {\\n    str...\n      PUSH [tag] 8\t\t\tcontract Multicall3 {\\n    str...\n      JUMPI \t\t\tcontract Multicall3 {\\n    str...\n      DUP1 \t\t\tcontract Multicall3 {\\n    str...\n      PUSH 42CBB15C\t\t\tcontract Multicall3 {\\n    str...\n      EQ \t\t\tcontract Multicall3 {\\n    str...\n      PUSH [tag] 9\t\t\tcontract Multicall3 {\\n    str...\n      JUMPI \t\t\tcontract Multicall3 {\\n    str...\n      PUSH [tag] 1\t\t\tcontract Multicall3 {\\n    str...\n      JUMP \t\t\tcontract Multicall3 {\\n    str...\n    tag 20\t\t\tcontract Multicall3 {\\n    str...\n      JUMPDEST \t\t\tcontract Multicall3 {\\n    str...\n      DUP1 \t\t\tcontract Multicall3 {\\n    str...\n      PUSH F28C97D\t\t\tcontract Multicall3 {\\n    str...\n      EQ \t\t\tcontract Multicall3 {\\n    str...\n      PUSH [tag] 2\t\t\tcontract Multicall3 {\\n    str...\n      JUMPI \t\t\tcontract Multicall3 {\\n    str...\n      DUP1 \t\t\tcontract Multicall3 {\\n    str...\n      PUSH 174DEA71\t\t\tcontract Multicall3 {\\n    str...\n      EQ \t\t\tcontract Multicall3 {\\n    str...\n      PUSH [tag] 3\t\t\tcontract Multicall3 {\\n    str...\n      JUMPI \t\t\tcontract Multicall3 {\\n    str...\n      DUP1 \t\t\tcontract Multicall3 {\\n    str...\n      PUSH 252DBA42\t\t\tcontract Multicall3 {\\n    str...\n      EQ \t\t\tcontract Multicall3 {\\n    str...\n      PUSH [tag] 4\t\t\tcontract Multicall3 {\\n    str...\n      JUMPI \t\t\tcontract Multicall3 {\\n    str...\n      DUP1 \t\t\tcontract Multicall3 {\\n    str...\n      PUSH 27E86D6E\t\t\tcontract Multicall3 {\\n    str...\n      EQ \t\t\tcontract Multicall3 {\\n    str...\n      PUSH [tag] 5\t\t\tcontract Multicall3 {\\n    str...\n      JUMPI \t\t\tcontract Multicall3 {\\n    str...\n    tag 1\t\t\tcontract Multicall3 {\\n    str...\n      JUMPDEST \t\t\tcontract Multicall3 {\\n    str...\n      PUSH 0\t\t\tcontract Multicall3 {\\n    str...\n      DUP1 \t\t\tcontract Multicall3 {\\n    str...\n      REVERT \t\t\tcontract Multicall3 {\\n    str...\n    tag 2\t\t\tfunction getCurrentBlockTimest...\n      JUMPDEST \t\t\tfunction getCurrentBlockTimest...\n      CALLVALUE \t\t\tfunction getCurrentBlockTimest...\n      DUP1 \t\t\tfunction getCurrentBlockTimest...\n      ISZERO \t\t\tfunction getCurrentBlockTimest...\n      PUSH [tag] 21\t\t\tfunction getCurrentBlockTimest...\n      JUMPI \t\t\tfunction getCurrentBlockTimest...\n      PUSH 0\t\t\tfunction getCurrentBlockTimest...\n      DUP1 \t\t\tfunction getCurrentBlockTimest...\n      REVERT \t\t\tfunction getCurrentBlockTimest...\n    tag 21\t\t\tfunction getCurrentBlockTimest...\n      JUMPDEST \t\t\tfunction getCurrentBlockTimest...\n      POP \t\t\tfunction getCurrentBlockTimest...\n      PUSH [tag] 22\t\t\tfunction getCurrentBlockTimest...\n      PUSH [tag] 23\t\t\tfunction getCurrentBlockTimest...\n      JUMP [in]\t\t\tfunction getCurrentBlockTimest...\n    tag 22\t\t\tfunction getCurrentBlockTimest...\n      JUMPDEST \t\t\tfunction getCurrentBlockTimest...\n      PUSH 40\t\t\tfunction getCurrentBlockTimest...\n      MLOAD \t\t\tfunction getCurrentBlockTimest...\n      PUSH [tag] 24\t\t\tfunction getCurrentBlockTimest...\n      SWAP2 \t\t\tfunction getCurrentBlockTimest...\n      SWAP1 \t\t\tfunction getCurrentBlockTimest...\n      PUSH [tag] 25\t\t\tfunction getCurrentBlockTimest...\n      JUMP [in]\t\t\tfunction getCurrentBlockTimest...\n    tag 24\t\t\tfunction getCurrentBlockTimest...\n      JUMPDEST \t\t\tfunction getCurrentBlockTimest...\n      PUSH 40\t\t\tfunction getCurrentBlockTimest...\n      MLOAD \t\t\tfunction getCurrentBlockTimest...\n      DUP1 \t\t\tfunction getCurrentBlockTimest...\n      SWAP2 \t\t\tfunction getCurrentBlockTimest...\n      SUB \t\t\tfunction getCurrentBlockTimest...\n      SWAP1 \t\t\tfunction getCurrentBlockTimest...\n      RETURN \t\t\tfunction getCurrentBlockTimest...\n    tag 3\t\t\tfunction aggregate3Value(Call3...\n      JUMPDEST \t\t\tfunction aggregate3Value(Call3...\n      PUSH [tag] 26\t\t\tfunction aggregate3Value(Call3...\n      PUSH 4\t\t\tfunction aggregate3Value(Call3...\n      DUP1 \t\t\tfunction aggregate3Value(Call3...\n      CALLDATASIZE \t\t\tfunction aggregate3Value(Call3...\n      SUB \t\t\tfunction aggregate3Value(Call3...\n      DUP2 \t\t\tfunction aggregate3Value(Call3...\n      ADD \t\t\tfunction aggregate3Value(Call3...\n      SWAP1 \t\t\tfunction aggregate3Value(Call3...\n      PUSH [tag] 27\t\t\tfunction aggregate3Value(Call3...\n      SWAP2 \t\t\tfunction aggregate3Value(Call3...\n      SWAP1 \t\t\tfunction aggregate3Value(Call3...\n      PUSH [tag] 28\t\t\tfunction aggregate3Value(Call3...\n      JUMP [in]\t\t\tfunction aggregate3Value(Call3...\n    tag 27\t\t\tfunction aggregate3Value(Call3...\n      JUMPDEST \t\t\tfunction aggregate3Value(Call3...\n      PUSH [tag] 29\t\t\tfunction aggregate3Value(Call3...\n      JUMP [in]\t\t\tfunction aggregate3Value(Call3...\n    tag 26\t\t\tfunction aggregate3Value(Call3...\n      JUMPDEST \t\t\tfunction aggregate3Value(Call3...\n      PUSH 40\t\t\tfunction aggregate3Value(Call3...\n      MLOAD \t\t\tfunction aggregate3Value(Call3...\n      PUSH [tag] 30\t\t\tfunction aggregate3Value(Call3...\n      SWAP2 \t\t\tfunction aggregate3Value(Call3...\n      SWAP1 \t\t\tfunction aggregate3Value(Call3...\n      PUSH [tag] 31\t\t\tfunction aggregate3Value(Call3...\n      JUMP [in]\t\t\tfunction aggregate3Value(Call3...\n    tag 30\t\t\tfunction aggregate3Value(Call3...\n      JUMPDEST \t\t\tfunction aggregate3Value(Call3...\n      PUSH 40\t\t\tfunction aggregate3Value(Call3...\n      MLOAD \t\t\tfunction aggregate3Value(Call3...\n      DUP1 \t\t\tfunction aggregate3Value(Call3...\n      SWAP2 \t\t\tfunction aggregate3Value(Call3...\n      SUB \t\t\tfunction aggregate3Value(Call3...\n      SWAP1 \t\t\tfunction aggregate3Value(Call3...\n      RETURN \t\t\tfunction aggregate3Value(Call3...\n    tag 4\t\t\tfunction aggregate(Call[] call...\n      JUMPDEST \t\t\tfunction aggregate(Call[] call...\n      PUSH [tag] 32\t\t\tfunction aggregate(Call[] call...\n      PUSH 4\t\t\tfunction aggregate(Call[] call...\n      DUP1 \t\t\tfunction aggregate(Call[] call...\n      CALLDATASIZE \t\t\tfunction aggregate(Call[] call...\n      SUB \t\t\tfunction aggregate(Call[] call...\n      DUP2 \t\t\tfunction aggregate(Call[] call...\n      ADD \t\t\tfunction aggregate(Call[] call...\n      SWAP1 \t\t\tfunction aggregate(Call[] call...\n      PUSH [tag] 33\t\t\tfunction aggregate(Call[] call...\n      SWAP2 \t\t\tfunction aggregate(Call[] call...\n      SWAP1 \t\t\tfunction aggregate(Call[] call...\n      PUSH [tag] 34\t\t\tfunction aggregate(Call[] call...\n      JUMP [in]\t\t\tfunction aggregate(Call[] call...\n    tag 33\t\t\tfunction aggregate(Call[] call...\n      JUMPDEST \t\t\tfunction aggregate(Call[] call...\n      PUSH [tag] 35\t\t\tfunction aggregate(Call[] call...\n      JUMP [in]\t\t\tfunction aggregate(Call[] call...\n    tag 32\t\t\tfunction aggregate(Call[] call...\n      JUMPDEST \t\t\tfunction aggregate(Call[] call...\n      PUSH 40\t\t\tfunction aggregate(Call[] call...\n      MLOAD \t\t\tfunction aggregate(Call[] call...\n      PUSH [tag] 36\t\t\tfunction aggregate(Call[] call...\n      SWAP3 \t\t\tfunction aggregate(Call[] call...\n      SWAP2 \t\t\tfunction aggregate(Call[] call...\n      SWAP1 \t\t\tfunction aggregate(Call[] call...\n      PUSH [tag] 37\t\t\tfunction aggregate(Call[] call...\n      JUMP [in]\t\t\tfunction aggregate(Call[] call...\n    tag 36\t\t\tfunction aggregate(Call[] call...\n      JUMPDEST \t\t\tfunction aggregate(Call[] call...\n      PUSH 40\t\t\tfunction aggregate(Call[] call...\n      MLOAD \t\t\tfunction aggregate(Call[] call...\n      DUP1 \t\t\tfunction aggregate(Call[] call...\n      SWAP2 \t\t\tfunction aggregate(Call[] call...\n      SUB \t\t\tfunction aggregate(Call[] call...\n      SWAP1 \t\t\tfunction aggregate(Call[] call...\n      RETURN \t\t\tfunction aggregate(Call[] call...\n    tag 5\t\t\tfunction getLastBlockHash() pu...\n      JUMPDEST \t\t\tfunction getLastBlockHash() pu...\n      CALLVALUE \t\t\tfunction getLastBlockHash() pu...\n      DUP1 \t\t\tfunction getLastBlockHash() pu...\n      ISZERO \t\t\tfunction getLastBlockHash() pu...\n      PUSH [tag] 38\t\t\tfunction getLastBlockHash() pu...\n      JUMPI \t\t\tfunction getLastBlockHash() pu...\n      PUSH 0\t\t\tfunction getLastBlockHash() pu...\n      DUP1 \t\t\tfunction getLastBlockHash() pu...\n      REVERT \t\t\tfunction getLastBlockHash() pu...\n    tag 38\t\t\tfunction getLastBlockHash() pu...\n      JUMPDEST \t\t\tfunction getLastBlockHash() pu...\n      POP \t\t\tfunction getLastBlockHash() pu...\n      PUSH [tag] 39\t\t\tfunction getLastBlockHash() pu...\n      PUSH [tag] 40\t\t\tfunction getLastBlockHash() pu...\n      JUMP [in]\t\t\tfunction getLastBlockHash() pu...\n    tag 39\t\t\tfunction getLastBlockHash() pu...\n      JUMPDEST \t\t\tfunction getLastBlockHash() pu...\n      PUSH 40\t\t\tfunction getLastBlockHash() pu...\n      MLOAD \t\t\tfunction getLastBlockHash() pu...\n      PUSH [tag] 41\t\t\tfunction getLastBlockHash() pu...\n      SWAP2 \t\t\tfunction getLastBlockHash() pu...\n      SWAP1 \t\t\tfunction getLastBlockHash() pu...\n      PUSH [tag] 42\t\t\tfunction getLastBlockHash() pu...\n      JUMP [in]\t\t\tfunction getLastBlockHash() pu...\n    tag 41\t\t\tfunction getLastBlockHash() pu...\n      JUMPDEST \t\t\tfunction getLastBlockHash() pu...\n      PUSH 40\t\t\tfunction getLastBlockHash() pu...\n      MLOAD \t\t\tfunction getLastBlockHash() pu...\n      DUP1 \t\t\tfunction getLastBlockHash() pu...\n      SWAP2 \t\t\tfunction getLastBlockHash() pu...\n      SUB \t\t\tfunction getLastBlockHash() pu...\n      SWAP1 \t\t\tfunction getLastBlockHash() pu...\n      RETURN \t\t\tfunction getLastBlockHash() pu...\n    tag 6\t\t\tfunction getChainId() public v...\n      JUMPDEST \t\t\tfunction getChainId() public v...\n      CALLVALUE \t\t\tfunction getChainId() public v...\n      DUP1 \t\t\tfunction getChainId() public v...\n      ISZERO \t\t\tfunction getChainId() public v...\n      PUSH [tag] 43\t\t\tfunction getChainId() public v...\n      JUMPI \t\t\tfunction getChainId() public v...\n      PUSH 0\t\t\tfunction getChainId() public v...\n      DUP1 \t\t\tfunction getChainId() public v...\n      REVERT \t\t\tfunction getChainId() public v...\n    tag 43\t\t\tfunction getChainId() public v...\n      JUMPDEST \t\t\tfunction getChainId() public v...\n      POP \t\t\tfunction getChainId() public v...\n      PUSH [tag] 44\t\t\tfunction getChainId() public v...\n      PUSH [tag] 45\t\t\tfunction getChainId() public v...\n      JUMP [in]\t\t\tfunction getChainId() public v...\n    tag 44\t\t\tfunction getChainId() public v...\n      JUMPDEST \t\t\tfunction getChainId() public v...\n      PUSH 40\t\t\tfunction getChainId() public v...\n      MLOAD \t\t\tfunction getChainId() public v...\n      PUSH [tag] 46\t\t\tfunction getChainId() public v...\n      SWAP2 \t\t\tfunction getChainId() public v...\n      SWAP1 \t\t\tfunction getChainId() public v...\n      PUSH [tag] 25\t\t\tfunction getChainId() public v...\n      JUMP [in]\t\t\tfunction getChainId() public v...\n    tag 46\t\t\tfunction getChainId() public v...\n      JUMPDEST \t\t\tfunction getChainId() public v...\n      PUSH 40\t\t\tfunction getChainId() public v...\n      MLOAD \t\t\tfunction getChainId() public v...\n      DUP1 \t\t\tfunction getChainId() public v...\n      SWAP2 \t\t\tfunction getChainId() public v...\n      SUB \t\t\tfunction getChainId() public v...\n      SWAP1 \t\t\tfunction getChainId() public v...\n      RETURN \t\t\tfunction getChainId() public v...\n    tag 7\t\t\tfunction tryBlockAndAggregate(...\n      JUMPDEST \t\t\tfunction tryBlockAndAggregate(...\n      PUSH [tag] 47\t\t\tfunction tryBlockAndAggregate(...\n      PUSH 4\t\t\tfunction tryBlockAndAggregate(...\n      DUP1 \t\t\tfunction tryBlockAndAggregate(...\n      CALLDATASIZE \t\t\tfunction tryBlockAndAggregate(...\n      SUB \t\t\tfunction tryBlockAndAggregate(...\n      DUP2 \t\t\tfunction tryBlockAndAggregate(...\n      ADD \t\t\tfunction tryBlockAndAggregate(...\n      SWAP1 \t\t\tfunction tryBlockAndAggregate(...\n      PUSH [tag] 48\t\t\tfunction tryBlockAndAggregate(...\n      SWAP2 \t\t\tfunction tryBlockAndAggregate(...\n      SWAP1 \t\t\tfunction tryBlockAndAggregate(...\n      PUSH [tag] 49\t\t\tfunction tryBlockAndAggregate(...\n      JUMP [in]\t\t\tfunction tryBlockAndAggregate(...\n    tag 48\t\t\tfunction tryBlockAndAggregate(...\n      JUMPDEST \t\t\tfunction tryBlockAndAggregate(...\n      PUSH [tag] 50\t\t\tfunction tryBlockAndAggregate(...\n      JUMP [in]\t\t\tfunction tryBlockAndAggregate(...\n    tag 47\t\t\tfunction tryBlockAndAggregate(...\n      JUMPDEST \t\t\tfunction tryBlockAndAggregate(...\n      PUSH 40\t\t\tfunction tryBlockAndAggregate(...\n      MLOAD \t\t\tfunction tryBlockAndAggregate(...\n      PUSH [tag] 51\t\t\tfunction tryBlockAndAggregate(...\n      SWAP4 \t\t\tfunction tryBlockAndAggregate(...\n      SWAP3 \t\t\tfunction tryBlockAndAggregate(...\n      SWAP2 \t\t\tfunction tryBlockAndAggregate(...\n      SWAP1 \t\t\tfunction tryBlockAndAggregate(...\n      PUSH [tag] 52\t\t\tfunction tryBlockAndAggregate(...\n      JUMP [in]\t\t\tfunction tryBlockAndAggregate(...\n    tag 51\t\t\tfunction tryBlockAndAggregate(...\n      JUMPDEST \t\t\tfunction tryBlockAndAggregate(...\n      PUSH 40\t\t\tfunction tryBlockAndAggregate(...\n      MLOAD \t\t\tfunction tryBlockAndAggregate(...\n      DUP1 \t\t\tfunction tryBlockAndAggregate(...\n      SWAP2 \t\t\tfunction tryBlockAndAggregate(...\n      SUB \t\t\tfunction tryBlockAndAggregate(...\n      SWAP1 \t\t\tfunction tryBlockAndAggregate(...\n      RETURN \t\t\tfunction tryBlockAndAggregate(...\n    tag 8\t\t\tfunction getBasefee() public v...\n      JUMPDEST \t\t\tfunction getBasefee() public v...\n      CALLVALUE \t\t\tfunction getBasefee() public v...\n      DUP1 \t\t\tfunction getBasefee() public v...\n      ISZERO \t\t\tfunction getBasefee() public v...\n      PUSH [tag] 53\t\t\tfunction getBasefee() public v...\n      JUMPI \t\t\tfunction getBasefee() public v...\n      PUSH 0\t\t\tfunction getBasefee() public v...\n      DUP1 \t\t\tfunction getBasefee() public v...\n      REVERT \t\t\tfunction getBasefee() public v...\n    tag 53\t\t\tfunction getBasefee() public v...\n      JUMPDEST \t\t\tfunction getBasefee() public v...\n      POP \t\t\tfunction getBasefee() public v...\n      PUSH [tag] 54\t\t\tfunction getBasefee() public v...\n      PUSH [tag] 55\t\t\tfunction getBasefee() public v...\n      JUMP [in]\t\t\tfunction getBasefee() public v...\n    tag 54\t\t\tfunction getBasefee() public v...\n      JUMPDEST \t\t\tfunction getBasefee() public v...\n      PUSH 40\t\t\tfunction getBasefee() public v...\n      MLOAD \t\t\tfunction getBasefee() public v...\n      PUSH [tag] 56\t\t\tfunction getBasefee() public v...\n      SWAP2 \t\t\tfunction getBasefee() public v...\n      SWAP1 \t\t\tfunction getBasefee() public v...\n      PUSH [tag] 25\t\t\tfunction getBasefee() public v...\n      JUMP [in]\t\t\tfunction getBasefee() public v...\n    tag 56\t\t\tfunction getBasefee() public v...\n      JUMPDEST \t\t\tfunction getBasefee() public v...\n      PUSH 40\t\t\tfunction getBasefee() public v...\n      MLOAD \t\t\tfunction getBasefee() public v...\n      DUP1 \t\t\tfunction getBasefee() public v...\n      SWAP2 \t\t\tfunction getBasefee() public v...\n      SUB \t\t\tfunction getBasefee() public v...\n      SWAP1 \t\t\tfunction getBasefee() public v...\n      RETURN \t\t\tfunction getBasefee() public v...\n    tag 9\t\t\tfunction getBlockNumber() publ...\n      JUMPDEST \t\t\tfunction getBlockNumber() publ...\n      CALLVALUE \t\t\tfunction getBlockNumber() publ...\n      DUP1 \t\t\tfunction getBlockNumber() publ...\n      ISZERO \t\t\tfunction getBlockNumber() publ...\n      PUSH [tag] 57\t\t\tfunction getBlockNumber() publ...\n      JUMPI \t\t\tfunction getBlockNumber() publ...\n      PUSH 0\t\t\tfunction getBlockNumber() publ...\n      DUP1 \t\t\tfunction getBlockNumber() publ...\n      REVERT \t\t\tfunction getBlockNumber() publ...\n    tag 57\t\t\tfunction getBlockNumber() publ...\n      JUMPDEST \t\t\tfunction getBlockNumber() publ...\n      POP \t\t\tfunction getBlockNumber() publ...\n      PUSH [tag] 58\t\t\tfunction getBlockNumber() publ...\n      PUSH [tag] 59\t\t\tfunction getBlockNumber() publ...\n      JUMP [in]\t\t\tfunction getBlockNumber() publ...\n    tag 58\t\t\tfunction getBlockNumber() publ...\n      JUMPDEST \t\t\tfunction getBlockNumber() publ...\n      PUSH 40\t\t\tfunction getBlockNumber() publ...\n      MLOAD \t\t\tfunction getBlockNumber() publ...\n      PUSH [tag] 60\t\t\tfunction getBlockNumber() publ...\n      SWAP2 \t\t\tfunction getBlockNumber() publ...\n      SWAP1 \t\t\tfunction getBlockNumber() publ...\n      PUSH [tag] 25\t\t\tfunction getBlockNumber() publ...\n      JUMP [in]\t\t\tfunction getBlockNumber() publ...\n    tag 60\t\t\tfunction getBlockNumber() publ...\n      JUMPDEST \t\t\tfunction getBlockNumber() publ...\n      PUSH 40\t\t\tfunction getBlockNumber() publ...\n      MLOAD \t\t\tfunction getBlockNumber() publ...\n      DUP1 \t\t\tfunction getBlockNumber() publ...\n      SWAP2 \t\t\tfunction getBlockNumber() publ...\n      SUB \t\t\tfunction getBlockNumber() publ...\n      SWAP1 \t\t\tfunction getBlockNumber() publ...\n      RETURN \t\t\tfunction getBlockNumber() publ...\n    tag 10\t\t\tfunction getEthBalance(address...\n      JUMPDEST \t\t\tfunction getEthBalance(address...\n      CALLVALUE \t\t\tfunction getEthBalance(address...\n      DUP1 \t\t\tfunction getEthBalance(address...\n      ISZERO \t\t\tfunction getEthBalance(address...\n      PUSH [tag] 61\t\t\tfunction getEthBalance(address...\n      JUMPI \t\t\tfunction getEthBalance(address...\n      PUSH 0\t\t\tfunction getEthBalance(address...\n      DUP1 \t\t\tfunction getEthBalance(address...\n      REVERT \t\t\tfunction getEthBalance(address...\n    tag 61\t\t\tfunction getEthBalance(address...\n      JUMPDEST \t\t\tfunction getEthBalance(address...\n      POP \t\t\tfunction getEthBalance(address...\n      PUSH [tag] 62\t\t\tfunction getEthBalance(address...\n      PUSH 4\t\t\tfunction getEthBalance(address...\n      DUP1 \t\t\tfunction getEthBalance(address...\n      CALLDATASIZE \t\t\tfunction getEthBalance(address...\n      SUB \t\t\tfunction getEthBalance(address...\n      DUP2 \t\t\tfunction getEthBalance(address...\n      ADD \t\t\tfunction getEthBalance(address...\n      SWAP1 \t\t\tfunction getEthBalance(address...\n      PUSH [tag] 63\t\t\tfunction getEthBalance(address...\n      SWAP2 \t\t\tfunction getEthBalance(address...\n      SWAP1 \t\t\tfunction getEthBalance(address...\n      PUSH [tag] 64\t\t\tfunction getEthBalance(address...\n      JUMP [in]\t\t\tfunction getEthBalance(address...\n    tag 63\t\t\tfunction getEthBalance(address...\n      JUMPDEST \t\t\tfunction getEthBalance(address...\n      PUSH [tag] 65\t\t\tfunction getEthBalance(address...\n      JUMP [in]\t\t\tfunction getEthBalance(address...\n    tag 62\t\t\tfunction getEthBalance(address...\n      JUMPDEST \t\t\tfunction getEthBalance(address...\n      PUSH 40\t\t\tfunction getEthBalance(address...\n      MLOAD \t\t\tfunction getEthBalance(address...\n      PUSH [tag] 66\t\t\tfunction getEthBalance(address...\n      SWAP2 \t\t\tfunction getEthBalance(address...\n      SWAP1 \t\t\tfunction getEthBalance(address...\n      PUSH [tag] 25\t\t\tfunction getEthBalance(address...\n      JUMP [in]\t\t\tfunction getEthBalance(address...\n    tag 66\t\t\tfunction getEthBalance(address...\n      JUMPDEST \t\t\tfunction getEthBalance(address...\n      PUSH 40\t\t\tfunction getEthBalance(address...\n      MLOAD \t\t\tfunction getEthBalance(address...\n      DUP1 \t\t\tfunction getEthBalance(address...\n      SWAP2 \t\t\tfunction getEthBalance(address...\n      SUB \t\t\tfunction getEthBalance(address...\n      SWAP1 \t\t\tfunction getEthBalance(address...\n      RETURN \t\t\tfunction getEthBalance(address...\n    tag 11\t\t\tfunction getCurrentBlockDiffic...\n      JUMPDEST \t\t\tfunction getCurrentBlockDiffic...\n      CALLVALUE \t\t\tfunction getCurrentBlockDiffic...\n      DUP1 \t\t\tfunction getCurrentBlockDiffic...\n      ISZERO \t\t\tfunction getCurrentBlockDiffic...\n      PUSH [tag] 67\t\t\tfunction getCurrentBlockDiffic...\n      JUMPI \t\t\tfunction getCurrentBlockDiffic...\n      PUSH 0\t\t\tfunction getCurrentBlockDiffic...\n      DUP1 \t\t\tfunction getCurrentBlockDiffic...\n      REVERT \t\t\tfunction getCurrentBlockDiffic...\n    tag 67\t\t\tfunction getCurrentBlockDiffic...\n      JUMPDEST \t\t\tfunction getCurrentBlockDiffic...\n      POP \t\t\tfunction getCurrentBlockDiffic...\n      PUSH [tag] 68\t\t\tfunction getCurrentBlockDiffic...\n      PUSH [tag] 69\t\t\tfunction getCurrentBlockDiffic...\n      JUMP [in]\t\t\tfunction getCurrentBlockDiffic...\n    tag 68\t\t\tfunction getCurrentBlockDiffic...\n      JUMPDEST \t\t\tfunction getCurrentBlockDiffic...\n      PUSH 40\t\t\tfunction getCurrentBlockDiffic...\n      MLOAD \t\t\tfunction getCurrentBlockDiffic...\n      PUSH [tag] 70\t\t\tfunction getCurrentBlockDiffic...\n      SWAP2 \t\t\tfunction getCurrentBlockDiffic...\n      SWAP1 \t\t\tfunction getCurrentBlockDiffic...\n      PUSH [tag] 25\t\t\tfunction getCurrentBlockDiffic...\n      JUMP [in]\t\t\tfunction getCurrentBlockDiffic...\n    tag 70\t\t\tfunction getCurrentBlockDiffic...\n      JUMPDEST \t\t\tfunction getCurrentBlockDiffic...\n      PUSH 40\t\t\tfunction getCurrentBlockDiffic...\n      MLOAD \t\t\tfunction getCurrentBlockDiffic...\n      DUP1 \t\t\tfunction getCurrentBlockDiffic...\n      SWAP2 \t\t\tfunction getCurrentBlockDiffic...\n      SUB \t\t\tfunction getCurrentBlockDiffic...\n      SWAP1 \t\t\tfunction getCurrentBlockDiffic...\n      RETURN \t\t\tfunction getCurrentBlockDiffic...\n    tag 12\t\t\tfunction aggregate3(Call3[] ca...\n      JUMPDEST \t\t\tfunction aggregate3(Call3[] ca...\n      PUSH [tag] 71\t\t\tfunction aggregate3(Call3[] ca...\n      PUSH 4\t\t\tfunction aggregate3(Call3[] ca...\n      DUP1 \t\t\tfunction aggregate3(Call3[] ca...\n      CALLDATASIZE \t\t\tfunction aggregate3(Call3[] ca...\n      SUB \t\t\tfunction aggregate3(Call3[] ca...\n      DUP2 \t\t\tfunction aggregate3(Call3[] ca...\n      ADD \t\t\tfunction aggregate3(Call3[] ca...\n      SWAP1 \t\t\tfunction aggregate3(Call3[] ca...\n      PUSH [tag] 72\t\t\tfunction aggregate3(Call3[] ca...\n      SWAP2 \t\t\tfunction aggregate3(Call3[] ca...\n      SWAP1 \t\t\tfunction aggregate3(Call3[] ca...\n      PUSH [tag] 73\t\t\tfunction aggregate3(Call3[] ca...\n      JUMP [in]\t\t\tfunction aggregate3(Call3[] ca...\n    tag 72\t\t\tfunction aggregate3(Call3[] ca...\n      JUMPDEST \t\t\tfunction aggregate3(Call3[] ca...\n      PUSH [tag] 74\t\t\tfunction aggregate3(Call3[] ca...\n      JUMP [in]\t\t\tfunction aggregate3(Call3[] ca...\n    tag 71\t\t\tfunction aggregate3(Call3[] ca...\n      JUMPDEST \t\t\tfunction aggregate3(Call3[] ca...\n      PUSH 40\t\t\tfunction aggregate3(Call3[] ca...\n      MLOAD \t\t\tfunction aggregate3(Call3[] ca...\n      PUSH [tag] 75\t\t\tfunction aggregate3(Call3[] ca...\n      SWAP2 \t\t\tfunction aggregate3(Call3[] ca...\n      SWAP1 \t\t\tfunction aggregate3(Call3[] ca...\n      PUSH [tag] 31\t\t\tfunction aggregate3(Call3[] ca...\n      JUMP [in]\t\t\tfunction aggregate3(Call3[] ca...\n    tag 75\t\t\tfunction aggregate3(Call3[] ca...\n      JUMPDEST \t\t\tfunction aggregate3(Call3[] ca...\n      PUSH 40\t\t\tfunction aggregate3(Call3[] ca...\n      MLOAD \t\t\tfunction aggregate3(Call3[] ca...\n      DUP1 \t\t\tfunction aggregate3(Call3[] ca...\n      SWAP2 \t\t\tfunction aggregate3(Call3[] ca...\n      SUB \t\t\tfunction aggregate3(Call3[] ca...\n      SWAP1 \t\t\tfunction aggregate3(Call3[] ca...\n      RETURN \t\t\tfunction aggregate3(Call3[] ca...\n    tag 13\t\t\tfunction getCurrentBlockGasLim...\n      JUMPDEST \t\t\tfunction getCurrentBlockGasLim...\n      CALLVALUE \t\t\tfunction getCurrentBlockGasLim...\n      DUP1 \t\t\tfunction getCurrentBlockGasLim...\n      ISZERO \t\t\tfunction getCurrentBlockGasLim...\n      PUSH [tag] 76\t\t\tfunction getCurrentBlockGasLim...\n      JUMPI \t\t\tfunction getCurrentBlockGasLim...\n      PUSH 0\t\t\tfunction getCurrentBlockGasLim...\n      DUP1 \t\t\tfunction getCurrentBlockGasLim...\n      REVERT \t\t\tfunction getCurrentBlockGasLim...\n    tag 76\t\t\tfunction getCurrentBlockGasLim...\n      JUMPDEST \t\t\tfunction getCurrentBlockGasLim...\n      POP \t\t\tfunction getCurrentBlockGasLim...\n      PUSH [tag] 77\t\t\tfunction getCurrentBlockGasLim...\n      PUSH [tag] 78\t\t\tfunction getCurrentBlockGasLim...\n      JUMP [in]\t\t\tfunction getCurrentBlockGasLim...\n    tag 77\t\t\tfunction getCurrentBlockGasLim...\n      JUMPDEST \t\t\tfunction getCurrentBlockGasLim...\n      PUSH 40\t\t\tfunction getCurrentBlockGasLim...\n      MLOAD \t\t\tfunction getCurrentBlockGasLim...\n      PUSH [tag] 79\t\t\tfunction getCurrentBlockGasLim...\n      SWAP2 \t\t\tfunction getCurrentBlockGasLim...\n      SWAP1 \t\t\tfunction getCurrentBlockGasLim...\n      PUSH [tag] 25\t\t\tfunction getCurrentBlockGasLim...\n      JUMP [in]\t\t\tfunction getCurrentBlockGasLim...\n    tag 79\t\t\tfunction getCurrentBlockGasLim...\n      JUMPDEST \t\t\tfunction getCurrentBlockGasLim...\n      PUSH 40\t\t\tfunction getCurrentBlockGasLim...\n      MLOAD \t\t\tfunction getCurrentBlockGasLim...\n      DUP1 \t\t\tfunction getCurrentBlockGasLim...\n      SWAP2 \t\t\tfunction getCurrentBlockGasLim...\n      SUB \t\t\tfunction getCurrentBlockGasLim...\n      SWAP1 \t\t\tfunction getCurrentBlockGasLim...\n      RETURN \t\t\tfunction getCurrentBlockGasLim...\n    tag 14\t\t\tfunction getCurrentBlockCoinba...\n      JUMPDEST \t\t\tfunction getCurrentBlockCoinba...\n      CALLVALUE \t\t\tfunction getCurrentBlockCoinba...\n      DUP1 \t\t\tfunction getCurrentBlockCoinba...\n      ISZERO \t\t\tfunction getCurrentBlockCoinba...\n      PUSH [tag] 80\t\t\tfunction getCurrentBlockCoinba...\n      JUMPI \t\t\tfunction getCurrentBlockCoinba...\n      PUSH 0\t\t\tfunction getCurrentBlockCoinba...\n      DUP1 \t\t\tfunction getCurrentBlockCoinba...\n      REVERT \t\t\tfunction getCurrentBlockCoinba...\n    tag 80\t\t\tfunction getCurrentBlockCoinba...\n      JUMPDEST \t\t\tfunction getCurrentBlockCoinba...\n      POP \t\t\tfunction getCurrentBlockCoinba...\n      PUSH [tag] 81\t\t\tfunction getCurrentBlockCoinba...\n      PUSH [tag] 82\t\t\tfunction getCurrentBlockCoinba...\n      JUMP [in]\t\t\tfunction getCurrentBlockCoinba...\n    tag 81\t\t\tfunction getCurrentBlockCoinba...\n      JUMPDEST \t\t\tfunction getCurrentBlockCoinba...\n      PUSH 40\t\t\tfunction getCurrentBlockCoinba...\n      MLOAD \t\t\tfunction getCurrentBlockCoinba...\n      PUSH [tag] 83\t\t\tfunction getCurrentBlockCoinba...\n      SWAP2 \t\t\tfunction getCurrentBlockCoinba...\n      SWAP1 \t\t\tfunction getCurrentBlockCoinba...\n      PUSH [tag] 84\t\t\tfunction getCurrentBlockCoinba...\n      JUMP [in]\t\t\tfunction getCurrentBlockCoinba...\n    tag 83\t\t\tfunction getCurrentBlockCoinba...\n      JUMPDEST \t\t\tfunction getCurrentBlockCoinba...\n      PUSH 40\t\t\tfunction getCurrentBlockCoinba...\n      MLOAD \t\t\tfunction getCurrentBlockCoinba...\n      DUP1 \t\t\tfunction getCurrentBlockCoinba...\n      SWAP2 \t\t\tfunction getCurrentBlockCoinba...\n      SUB \t\t\tfunction getCurrentBlockCoinba...\n      SWAP1 \t\t\tfunction getCurrentBlockCoinba...\n      RETURN \t\t\tfunction getCurrentBlockCoinba...\n    tag 15\t\t\tfunction tryAggregate(bool req...\n      JUMPDEST \t\t\tfunction tryAggregate(bool req...\n      PUSH [tag] 85\t\t\tfunction tryAggregate(bool req...\n      PUSH 4\t\t\tfunction tryAggregate(bool req...\n      DUP1 \t\t\tfunction tryAggregate(bool req...\n      CALLDATASIZE \t\t\tfunction tryAggregate(bool req...\n      SUB \t\t\tfunction tryAggregate(bool req...\n      DUP2 \t\t\tfunction tryAggregate(bool req...\n      ADD \t\t\tfunction tryAggregate(bool req...\n      SWAP1 \t\t\tfunction tryAggregate(bool req...\n      PUSH [tag] 86\t\t\tfunction tryAggregate(bool req...\n      SWAP2 \t\t\tfunction tryAggregate(bool req...\n      SWAP1 \t\t\tfunction tryAggregate(bool req...\n      PUSH [tag] 49\t\t\tfunction tryAggregate(bool req...\n      JUMP [in]\t\t\tfunction tryAggregate(bool req...\n    tag 86\t\t\tfunction tryAggregate(bool req...\n      JUMPDEST \t\t\tfunction tryAggregate(bool req...\n      PUSH [tag] 87\t\t\tfunction tryAggregate(bool req...\n      JUMP [in]\t\t\tfunction tryAggregate(bool req...\n    tag 85\t\t\tfunction tryAggregate(bool req...\n      JUMPDEST \t\t\tfunction tryAggregate(bool req...\n      PUSH 40\t\t\tfunction tryAggregate(bool req...\n      MLOAD \t\t\tfunction tryAggregate(bool req...\n      PUSH [tag] 88\t\t\tfunction tryAggregate(bool req...\n      SWAP2 \t\t\tfunction tryAggregate(bool req...\n      SWAP1 \t\t\tfunction tryAggregate(bool req...\n      PUSH [tag] 31\t\t\tfunction tryAggregate(bool req...\n      JUMP [in]\t\t\tfunction tryAggregate(bool req...\n    tag 88\t\t\tfunction tryAggregate(bool req...\n      JUMPDEST \t\t\tfunction tryAggregate(bool req...\n      PUSH 40\t\t\tfunction tryAggregate(bool req...\n      MLOAD \t\t\tfunction tryAggregate(bool req...\n      DUP1 \t\t\tfunction tryAggregate(bool req...\n      SWAP2 \t\t\tfunction tryAggregate(bool req...\n      SUB \t\t\tfunction tryAggregate(bool req...\n      SWAP1 \t\t\tfunction tryAggregate(bool req...\n      RETURN \t\t\tfunction tryAggregate(bool req...\n    tag 16\t\t\tfunction blockAndAggregate(Cal...\n      JUMPDEST \t\t\tfunction blockAndAggregate(Cal...\n      PUSH [tag] 89\t\t\tfunction blockAndAggregate(Cal...\n      PUSH 4\t\t\tfunction blockAndAggregate(Cal...\n      DUP1 \t\t\tfunction blockAndAggregate(Cal...\n      CALLDATASIZE \t\t\tfunction blockAndAggregate(Cal...\n      SUB \t\t\tfunction blockAndAggregate(Cal...\n      DUP2 \t\t\tfunction blockAndAggregate(Cal...\n      ADD \t\t\tfunction blockAndAggregate(Cal...\n      SWAP1 \t\t\tfunction blockAndAggregate(Cal...\n      PUSH [tag] 90\t\t\tfunction blockAndAggregate(Cal...\n      SWAP2 \t\t\tfunction blockAndAggregate(Cal...\n      SWAP1 \t\t\tfunction blockAndAggregate(Cal...\n      PUSH [tag] 34\t\t\tfunction blockAndAggregate(Cal...\n      JUMP [in]\t\t\tfunction blockAndAggregate(Cal...\n    tag 90\t\t\tfunction blockAndAggregate(Cal...\n      JUMPDEST \t\t\tfunction blockAndAggregate(Cal...\n      PUSH [tag] 91\t\t\tfunction blockAndAggregate(Cal...\n      JUMP [in]\t\t\tfunction blockAndAggregate(Cal...\n    tag 89\t\t\tfunction blockAndAggregate(Cal...\n      JUMPDEST \t\t\tfunction blockAndAggregate(Cal...\n      PUSH 40\t\t\tfunction blockAndAggregate(Cal...\n      MLOAD \t\t\tfunction blockAndAggregate(Cal...\n      PUSH [tag] 92\t\t\tfunction blockAndAggregate(Cal...\n      SWAP4 \t\t\tfunction blockAndAggregate(Cal...\n      SWAP3 \t\t\tfunction blockAndAggregate(Cal...\n      SWAP2 \t\t\tfunction blockAndAggregate(Cal...\n      SWAP1 \t\t\tfunction blockAndAggregate(Cal...\n      PUSH [tag] 52\t\t\tfunction blockAndAggregate(Cal...\n      JUMP [in]\t\t\tfunction blockAndAggregate(Cal...\n    tag 92\t\t\tfunction blockAndAggregate(Cal...\n      JUMPDEST \t\t\tfunction blockAndAggregate(Cal...\n      PUSH 40\t\t\tfunction blockAndAggregate(Cal...\n      MLOAD \t\t\tfunction blockAndAggregate(Cal...\n      DUP1 \t\t\tfunction blockAndAggregate(Cal...\n      SWAP2 \t\t\tfunction blockAndAggregate(Cal...\n      SUB \t\t\tfunction blockAndAggregate(Cal...\n      SWAP1 \t\t\tfunction blockAndAggregate(Cal...\n      RETURN \t\t\tfunction blockAndAggregate(Cal...\n    tag 17\t\t\tfunction getBlockHash(uint256 ...\n      JUMPDEST \t\t\tfunction getBlockHash(uint256 ...\n      CALLVALUE \t\t\tfunction getBlockHash(uint256 ...\n      DUP1 \t\t\tfunction getBlockHash(uint256 ...\n      ISZERO \t\t\tfunction getBlockHash(uint256 ...\n      PUSH [tag] 93\t\t\tfunction getBlockHash(uint256 ...\n      JUMPI \t\t\tfunction getBlockHash(uint256 ...\n      PUSH 0\t\t\tfunction getBlockHash(uint256 ...\n      DUP1 \t\t\tfunction getBlockHash(uint256 ...\n      REVERT \t\t\tfunction getBlockHash(uint256 ...\n    tag 93\t\t\tfunction getBlockHash(uint256 ...\n      JUMPDEST \t\t\tfunction getBlockHash(uint256 ...\n      POP \t\t\tfunction getBlockHash(uint256 ...\n      PUSH [tag] 94\t\t\tfunction getBlockHash(uint256 ...\n      PUSH 4\t\t\tfunction getBlockHash(uint256 ...\n      DUP1 \t\t\tfunction getBlockHash(uint256 ...\n      CALLDATASIZE \t\t\tfunction getBlockHash(uint256 ...\n      SUB \t\t\tfunction getBlockHash(uint256 ...\n      DUP2 \t\t\tfunction getBlockHash(uint256 ...\n      ADD \t\t\tfunction getBlockHash(uint256 ...\n      SWAP1 \t\t\tfunction getBlockHash(uint256 ...\n      PUSH [tag] 95\t\t\tfunction getBlockHash(uint256 ...\n      SWAP2 \t\t\tfunction getBlockHash(uint256 ...\n      SWAP1 \t\t\tfunction getBlockHash(uint256 ...\n      PUSH [tag] 96\t\t\tfunction getBlockHash(uint256 ...\n      JUMP [in]\t\t\tfunction getBlockHash(uint256 ...\n    tag 95\t\t\tfunction getBlockHash(uint256 ...\n      JUMPDEST \t\t\tfunction getBlockHash(uint256 ...\n      PUSH [tag] 97\t\t\tfunction getBlockHash(uint256 ...\n      JUMP [in]\t\t\tfunction getBlockHash(uint256 ...\n    tag 94\t\t\tfunction getBlockHash(uint256 ...\n      JUMPDEST \t\t\tfunction getBlockHash(uint256 ...\n      PUSH 40\t\t\tfunction getBlockHash(uint256 ...\n      MLOAD \t\t\tfunction getBlockHash(uint256 ...\n      PUSH [tag] 98\t\t\tfunction getBlockHash(uint256 ...\n      SWAP2 \t\t\tfunction getBlockHash(uint256 ...\n      SWAP1 \t\t\tfunction getBlockHash(uint256 ...\n      PUSH [tag] 42\t\t\tfunction getBlockHash(uint256 ...\n      JUMP [in]\t\t\tfunction getBlockHash(uint256 ...\n    tag 98\t\t\tfunction getBlockHash(uint256 ...\n      JUMPDEST \t\t\tfunction getBlockHash(uint256 ...\n      PUSH 40\t\t\tfunction getBlockHash(uint256 ...\n      MLOAD \t\t\tfunction getBlockHash(uint256 ...\n      DUP1 \t\t\tfunction getBlockHash(uint256 ...\n      SWAP2 \t\t\tfunction getBlockHash(uint256 ...\n      SUB \t\t\tfunction getBlockHash(uint256 ...\n      SWAP1 \t\t\tfunction getBlockHash(uint256 ...\n      RETURN \t\t\tfunction getBlockHash(uint256 ...\n    tag 23\t\t\tfunction getCurrentBlockTimest...\n      JUMPDEST \t\t\tfunction getCurrentBlockTimest...\n      PUSH 0\t\t\tuint256 timestamp\n      TIMESTAMP \t\t\tblock.timestamp\n      SWAP1 \t\t\ttimestamp = block.timestamp\n      POP \t\t\ttimestamp = block.timestamp\n      SWAP1 \t\t\tfunction getCurrentBlockTimest...\n      JUMP [out]\t\t\tfunction getCurrentBlockTimest...\n    tag 29\t\t\tfunction aggregate3Value(Call3...\n      JUMPDEST \t\t\tfunction aggregate3Value(Call3...\n      PUSH 60\t\t\tResult[] memory returnData\n      PUSH 0\t\t\tuint256 valAccumulator\n      DUP1 \t\t\tuint256 length\n      DUP5 \t\t\tcalls\n      DUP5 \t\t\tcalls\n      SWAP1 \t\t\tcalls.length\n      POP \t\t\tcalls.length\n      SWAP1 \t\t\tuint256 length = calls.length\n      POP \t\t\tuint256 length = calls.length\n      DUP1 \t\t\tlength\n      PUSH FFFFFFFFFFFFFFFF\t\t\tnew Result[](length)\n      DUP2 \t\t\tnew Result[](length)\n      GT \t\t\tnew Result[](length)\n      ISZERO \t\t\tnew Result[](length)\n      PUSH [tag] 101\t\t\tnew Result[](length)\n      JUMPI \t\t\tnew Result[](length)\n      PUSH [tag] 102\t\t\tnew Result[](length)\n      PUSH [tag] 103\t\t\tnew Result[](length)\n      JUMP [in]\t\t\tnew Result[](length)\n    tag 102\t\t\tnew Result[](length)\n      JUMPDEST \t\t\tnew Result[](length)\n    tag 101\t\t\tnew Result[](length)\n      JUMPDEST \t\t\tnew Result[](length)\n      PUSH 40\t\t\tnew Result[](length)\n      MLOAD \t\t\tnew Result[](length)\n      SWAP1 \t\t\tnew Result[](length)\n      DUP1 \t\t\tnew Result[](length)\n      DUP3 \t\t\tnew Result[](length)\n      MSTORE \t\t\tnew Result[](length)\n      DUP1 \t\t\tnew Result[](length)\n      PUSH 20\t\t\tnew Result[](length)\n      MUL \t\t\tnew Result[](length)\n      PUSH 20\t\t\tnew Result[](length)\n      ADD \t\t\tnew Result[](length)\n      DUP3 \t\t\tnew Result[](length)\n      ADD \t\t\tnew Result[](length)\n      PUSH 40\t\t\tnew Result[](length)\n      MSTORE \t\t\tnew Result[](length)\n      DUP1 \t\t\tnew Result[](length)\n      ISZERO \t\t\tnew Result[](length)\n      PUSH [tag] 104\t\t\tnew Result[](length)\n      JUMPI \t\t\tnew Result[](length)\n      DUP2 \t\t\tnew Result[](length)\n      PUSH 20\t\t\tnew Result[](length)\n      ADD \t\t\tnew Result[](length)\n    tag 105\t\t\tnew Result[](length)\n      JUMPDEST \t\t\tnew Result[](length)\n      PUSH [tag] 106\t\t\tnew Result[](length)\n      PUSH [tag] 107\t\t\tnew Result[](length)\n      JUMP [in]\t\t\tnew Result[](length)\n    tag 106\t\t\tnew Result[](length)\n      JUMPDEST \t\t\tnew Result[](length)\n      DUP2 \t\t\tnew Result[](length)\n      MSTORE \t\t\tnew Result[](length)\n      PUSH 20\t\t\tnew Result[](length)\n      ADD \t\t\tnew Result[](length)\n      SWAP1 \t\t\tnew Result[](length)\n      PUSH 1\t\t\tnew Result[](length)\n      SWAP1 \t\t\tnew Result[](length)\n      SUB \t\t\tnew Result[](length)\n      SWAP1 \t\t\tnew Result[](length)\n      DUP2 \t\t\tnew Result[](length)\n      PUSH [tag] 105\t\t\tnew Result[](length)\n      JUMPI \t\t\tnew Result[](length)\n      SWAP1 \t\t\tnew Result[](length)\n      POP \t\t\tnew Result[](length)\n    tag 104\t\t\tnew Result[](length)\n      JUMPDEST \t\t\tnew Result[](length)\n      POP \t\t\tnew Result[](length)\n      SWAP3 \t\t\treturnData = new Result[](leng...\n      POP \t\t\treturnData = new Result[](leng...\n      CALLDATASIZE \t\t\tCall3Value calldata calli\n      PUSH 0\t\t\tuint256 i\n    tag 108\t\t\tfor (uint256 i = 0; i < length...\n      JUMPDEST \t\t\tfor (uint256 i = 0; i < length...\n      DUP3 \t\t\tlength\n      DUP2 \t\t\ti\n      LT \t\t\ti < length\n      ISZERO \t\t\tfor (uint256 i = 0; i < length...\n      PUSH [tag] 109\t\t\tfor (uint256 i = 0; i < length...\n      JUMPI \t\t\tfor (uint256 i = 0; i < length...\n      PUSH 0\t\t\tResult memory result\n      DUP6 \t\t\treturnData\n      DUP3 \t\t\ti\n      DUP2 \t\t\treturnData[i]\n      MLOAD \t\t\treturnData[i]\n      DUP2 \t\t\treturnData[i]\n      LT \t\t\treturnData[i]\n      PUSH [tag] 111\t\t\treturnData[i]\n      JUMPI \t\t\treturnData[i]\n      PUSH [tag] 112\t\t\treturnData[i]\n      PUSH [tag] 113\t\t\treturnData[i]\n      JUMP [in]\t\t\treturnData[i]\n    tag 112\t\t\treturnData[i]\n      JUMPDEST \t\t\treturnData[i]\n    tag 111\t\t\treturnData[i]\n      JUMPDEST \t\t\treturnData[i]\n      PUSH 20\t\t\treturnData[i]\n      MUL \t\t\treturnData[i]\n      PUSH 20\t\t\treturnData[i]\n      ADD \t\t\treturnData[i]\n      ADD \t\t\treturnData[i]\n      MLOAD \t\t\treturnData[i]\n      SWAP1 \t\t\tResult memory result = returnD...\n      POP \t\t\tResult memory result = returnD...\n      DUP8 \t\t\tcalls\n      DUP8 \t\t\tcalls\n      DUP4 \t\t\ti\n      DUP2 \t\t\tcalls[i]\n      DUP2 \t\t\tcalls[i]\n      LT \t\t\tcalls[i]\n      PUSH [tag] 114\t\t\tcalls[i]\n      JUMPI \t\t\tcalls[i]\n      PUSH [tag] 115\t\t\tcalls[i]\n      PUSH [tag] 113\t\t\tcalls[i]\n      JUMP [in]\t\t\tcalls[i]\n    tag 115\t\t\tcalls[i]\n      JUMPDEST \t\t\tcalls[i]\n    tag 114\t\t\tcalls[i]\n      JUMPDEST \t\t\tcalls[i]\n      SWAP1 \t\t\tcalls[i]\n      POP \t\t\tcalls[i]\n      PUSH 20\t\t\tcalls[i]\n      MUL \t\t\tcalls[i]\n      DUP2 \t\t\tcalls[i]\n      ADD \t\t\tcalls[i]\n      SWAP1 \t\t\tcalls[i]\n      PUSH [tag] 116\t\t\tcalls[i]\n      SWAP2 \t\t\tcalls[i]\n      SWAP1 \t\t\tcalls[i]\n      PUSH [tag] 117\t\t\tcalls[i]\n      JUMP [in]\t\t\tcalls[i]\n    tag 116\t\t\tcalls[i]\n      JUMPDEST \t\t\tcalls[i]\n      SWAP3 \t\t\tcalli = calls[i]\n      POP \t\t\tcalli = calls[i]\n      PUSH 0\t\t\tuint256 val\n      DUP4 \t\t\tcalli\n      PUSH 40\t\t\tcalli.value\n      ADD \t\t\tcalli.value\n      CALLDATALOAD \t\t\tcalli.value\n      SWAP1 \t\t\tuint256 val = calli.value\n      POP \t\t\tuint256 val = calli.value\n      DUP1 \t\t\tval\n      DUP7 \t\t\tvalAccumulator += val\n      ADD \t\t\tvalAccumulator += val\n      SWAP6 \t\t\tvalAccumulator += val\n      POP \t\t\tvalAccumulator += val\n      DUP4 \t\t\tcalli\n      PUSH 0\t\t\tcalli.target\n      ADD \t\t\tcalli.target\n      PUSH 20\t\t\tcalli.target\n      DUP2 \t\t\tcalli.target\n      ADD \t\t\tcalli.target\n      SWAP1 \t\t\tcalli.target\n      PUSH [tag] 118\t\t\tcalli.target\n      SWAP2 \t\t\tcalli.target\n      SWAP1 \t\t\tcalli.target\n      PUSH [tag] 64\t\t\tcalli.target\n      JUMP [in]\t\t\tcalli.target\n    tag 118\t\t\tcalli.target\n      JUMPDEST \t\t\tcalli.target\n      PUSH FFFFFFFFFFFFFFFFFFFFFFFFFFFFFFFFFFFFFFFF\t\t\tcalli.target.call\n      AND \t\t\tcalli.target.call\n      DUP2 \t\t\tval\n      DUP6 \t\t\tcalli\n      DUP1 \t\t\tcalli.callData\n      PUSH 60\t\t\tcalli.callData\n      ADD \t\t\tcalli.callData\n      SWAP1 \t\t\tcalli.callData\n      PUSH [tag] 119\t\t\tcalli.callData\n      SWAP2 \t\t\tcalli.callData\n      SWAP1 \t\t\tcalli.callData\n      PUSH [tag] 120\t\t\tcalli.callData\n      JUMP [in]\t\t\tcalli.callData\n    tag 119\t\t\tcalli.callData\n      JUMPDEST \t\t\tcalli.callData\n      PUSH 40\t\t\tcalli.target.call{value: val}(...\n      MLOAD \t\t\tcalli.target.call{value: val}(...\n      PUSH [tag] 121\t\t\tcalli.target.call{value: val}(...\n      SWAP3 \t\t\tcalli.target.call{value: val}(...\n      SWAP2 \t\t\tcalli.target.call{value: val}(...\n      SWAP1 \t\t\tcalli.target.call{value: val}(...\n      PUSH [tag] 122\t\t\tcalli.target.call{value: val}(...\n      JUMP [in]\t\t\tcalli.target.call{value: val}(...\n    tag 121\t\t\tcalli.target.call{value: val}(...\n      JUMPDEST \t\t\tcalli.target.call{value: val}(...\n      PUSH 0\t\t\tcalli.target.call{value: val}(...\n      PUSH 40\t\t\tcalli.target.call{value: val}(...\n      MLOAD \t\t\tcalli.target.call{value: val}(...\n      DUP1 \t\t\tcalli.target.call{value: val}(...\n      DUP4 \t\t\tcalli.target.call{value: val}(...\n      SUB \t\t\tcalli.target.call{value: val}(...\n      DUP2 \t\t\tcalli.target.call{value: val}(...\n      DUP6 \t\t\tcalli.target.call{value: val}(...\n      DUP8 \t\t\tcalli.target.call{value: val}(...\n      GAS \t\t\tcalli.target.call{value: val}(...\n      CALL \t\t\tcalli.target.call{value: val}(...\n      SWAP3 \t\t\tcalli.target.call{value: val}(...\n      POP \t\t\tcalli.target.call{value: val}(...\n      POP \t\t\tcalli.target.call{value: val}(...\n      POP \t\t\tcalli.target.call{value: val}(...\n      RETURNDATASIZE \t\t\tcalli.target.call{value: val}(...\n      DUP1 \t\t\tcalli.target.call{value: val}(...\n      PUSH 0\t\t\tcalli.target.call{value: val}(...\n      DUP2 \t\t\tcalli.target.call{value: val}(...\n      EQ \t\t\tcalli.target.call{value: val}(...\n      PUSH [tag] 125\t\t\tcalli.target.call{value: val}(...\n      JUMPI \t\t\tcalli.target.call{value: val}(...\n      PUSH 40\t\t\tcalli.target.call{value: val}(...\n      MLOAD \t\t\tcalli.target.call{value: val}(...\n      SWAP2 \t\t\tcalli.target.call{value: val}(...\n      POP \t\t\tcalli.target.call{value: val}(...\n      PUSH 1F\t\t\tcalli.target.call{value: val}(...\n      NOT \t\t\tcalli.target.call{value: val}(...\n      PUSH 3F\t\t\tcalli.target.call{value: val}(...\n      RETURNDATASIZE \t\t\tcalli.target.call{value: val}(...\n      ADD \t\t\tcalli.target.call{value: val}(...\n      AND \t\t\tcalli.target.call{value: val}(...\n      DUP3 \t\t\tcalli.target.call{value: val}(...\n      ADD \t\t\tcalli.target.call{value: val}(...\n      PUSH 40\t\t\tcalli.target.call{value: val}(...\n      MSTORE \t\t\tcalli.target.call{value: val}(...\n      RETURNDATASIZE \t\t\tcalli.target.call{value: val}(...\n      DUP3 \t\t\tcalli.target.call{value: val}(...\n      MSTORE \t\t\tcalli.target.call{value: val}(...\n      RETURNDATASIZE \t\t\tcalli.target.call{value: val}(...\n      PUSH 0\t\t\tcalli.target.call{value: val}(...\n      PUSH 20\t\t\tcalli.target.call{value: val}(...\n      DUP5 \t\t\tcalli.target.call{value: val}(...\n      ADD \t\t\tcalli.target.call{value: val}(...\n      RETURNDATACOPY \t\t\tcalli.target.call{value: val}(...\n      PUSH [tag] 124\t\t\tcalli.target.call{value: val}(...\n      JUMP \t\t\tcalli.target.call{value: val}(...\n    tag 125\t\t\tcalli.target.call{value: val}(...\n      JUMPDEST \t\t\tcalli.target.call{value: val}(...\n      PUSH 60\t\t\tcalli.target.call{value: val}(...\n      SWAP2 \t\t\tcalli.target.call{value: val}(...\n      POP \t\t\tcalli.target.call{value: val}(...\n    tag 124\t\t\tcalli.target.call{value: val}(...\n      JUMPDEST \t\t\tcalli.target.call{value: val}(...\n      POP \t\t\tcalli.target.call{value: val}(...\n      DUP4 \t\t\tresult\n      PUSH 0\t\t\tresult.success\n      ADD \t\t\tresult.success\n      DUP5 \t\t\tresult\n      PUSH 20\t\t\tresult.returnData\n      ADD \t\t\tresult.returnData\n      DUP3 \t\t\t(result.success, result.return...\n      SWAP1 \t\t\t(result.success, result.return...\n      MSTORE \t\t\t(result.success, result.return...\n      DUP3 \t\t\t(result.success, result.return...\n      ISZERO \t\t\t(result.success, result.return...\n      ISZERO \t\t\t(result.success, result.return...\n      ISZERO \t\t\t(result.success, result.return...\n      ISZERO \t\t\t(result.success, result.return...\n      DUP2 \t\t\t(result.success, result.return...\n      MSTORE \t\t\t(result.success, result.return...\n      POP \t\t\t(result.success, result.return...\n      POP \t\t\t(result.success, result.return...\n      POP \t\t\t(result.success, result.return...\n      DUP2 \t\t\tresult\n      MLOAD \t\t\tmload(result)\n      PUSH 20\t\t\t0x20\n      DUP6 \t\t\tcalli\n      ADD \t\t\tadd(calli, 0x20)\n      CALLDATALOAD \t\t\tcalldataload(add(calli, 0x20))\n      OR \t\t\tor(calldataload(add(calli, 0x2...\n      PUSH [tag] 126\t\t\tif iszero(or(calldataload(add(...\n      JUMPI \t\t\tif iszero(or(calldataload(add(...\n      PUSH 8C379A000000000000000000000000000000000000000000000000000000000\t\t\t0x08c379a000000000000000000000...\n      PUSH 0\t\t\t0x00\n      MSTORE \t\t\tmstore(0x00, 0x08c379a00000000...\n      PUSH 20\t\t\t0x0000000000000000000000000000...\n      PUSH 4\t\t\t0x04\n      MSTORE \t\t\tmstore(0x04, 0x000000000000000...\n      PUSH 17\t\t\t0x0000000000000000000000000000...\n      PUSH 24\t\t\t0x24\n      MSTORE \t\t\tmstore(0x24, 0x000000000000000...\n      PUSH 4D756C746963616C6C333A2063616C6C206661696C6564000000000000000000\t\t\t0x4d756c746963616c6c333a206361...\n      PUSH 44\t\t\t0x44\n      MSTORE \t\t\tmstore(0x44, 0x4d756c746963616...\n      PUSH 84\t\t\t0x84\n      PUSH 0\t\t\t0x00\n      REVERT \t\t\trevert(0x00, 0x84)\n    tag 126\t\t\tif iszero(or(calldataload(add(...\n      JUMPDEST \t\t\tif iszero(or(calldataload(add(...\n      DUP3 \t\t\t++i\n      PUSH 1\t\t\t++i\n      ADD \t\t\t++i\n      SWAP3 \t\t\t++i\n      POP \t\t\t++i\n      POP \t\t\t{\\n            Result memory r...\n      POP \t\t\t{\\n            Result memory r...\n      PUSH [tag] 108\t\t\tfor (uint256 i = 0; i < length...\n      JUMP \t\t\tfor (uint256 i = 0; i < length...\n    tag 109\t\t\tfor (uint256 i = 0; i < length...\n      JUMPDEST \t\t\tfor (uint256 i = 0; i < length...\n      POP \t\t\tfor (uint256 i = 0; i < length...\n      DUP3 \t\t\tvalAccumulator\n      CALLVALUE \t\t\tmsg.value\n      EQ \t\t\tmsg.value == valAccumulator\n      PUSH [tag] 127\t\t\trequire(msg.value == valAccumu...\n      JUMPI \t\t\trequire(msg.value == valAccumu...\n      PUSH 40\t\t\trequire(msg.value == valAccumu...\n      MLOAD \t\t\trequire(msg.value == valAccumu...\n      PUSH 8C379A000000000000000000000000000000000000000000000000000000000\t\t\trequire(msg.value == valAccumu...\n      DUP2 \t\t\trequire(msg.value == valAccumu...\n      MSTORE \t\t\trequire(msg.value == valAccumu...\n      PUSH 4\t\t\trequire(msg.value == valAccumu...\n      ADD \t\t\trequire(msg.value == valAccumu...\n      PUSH [tag] 128\t\t\trequire(msg.value == valAccumu...\n      SWAP1 \t\t\trequire(msg.value == valAccumu...\n      PUSH [tag] 129\t\t\trequire(msg.value == valAccumu...\n      JUMP [in]\t\t\trequire(msg.value == valAccumu...\n    tag 128\t\t\trequire(msg.value == valAccumu...\n      JUMPDEST \t\t\trequire(msg.value == valAccumu...\n      PUSH 40\t\t\trequire(msg.value == valAccumu...\n      MLOAD \t\t\trequire(msg.value == valAccumu...\n      DUP1 \t\t\trequire(msg.value == valAccumu...\n      SWAP2 \t\t\trequire(msg.value == valAccumu...\n      SUB \t\t\trequire(msg.value == valAccumu...\n      SWAP1 \t\t\trequire(msg.value == valAccumu...\n      REVERT \t\t\trequire(msg.value == valAccumu...\n    tag 127\t\t\trequire(msg.value == valAccumu...\n      JUMPDEST \t\t\trequire(msg.value == valAccumu...\n      POP \t\t\t{\\n        uint256 valAccumula...\n      POP \t\t\t{\\n        uint256 valAccumula...\n      POP \t\t\t{\\n        uint256 valAccumula...\n      SWAP3 \t\t\tfunction aggregate3Value(Call3...\n      SWAP2 \t\t\tfunction aggregate3Value(Call3...\n      POP \t\t\tfunction aggregate3Value(Call3...\n      POP \t\t\tfunction aggregate3Value(Call3...\n      JUMP [out]\t\t\tfunction aggregate3Value(Call3...\n    tag 35\t\t\tfunction aggregate(Call[] call...\n      JUMPDEST \t\t\tfunction aggregate(Call[] call...\n      PUSH 0\t\t\tuint256 blockNumber\n      PUSH 60\t\t\tbytes[] memory returnData\n      NUMBER \t\t\tblock.number\n      SWAP2 \t\t\tblockNumber = block.number\n      POP \t\t\tblockNumber = block.number\n      PUSH 0\t\t\tuint256 length\n      DUP5 \t\t\tcalls\n      DUP5 \t\t\tcalls\n      SWAP1 \t\t\tcalls.length\n      POP \t\t\tcalls.length\n      SWAP1 \t\t\tuint256 length = calls.length\n      POP \t\t\tuint256 length = calls.length\n      DUP1 \t\t\tlength\n      PUSH FFFFFFFFFFFFFFFF\t\t\tnew bytes[](length)\n      DUP2 \t\t\tnew bytes[](length)\n      GT \t\t\tnew bytes[](length)\n      ISZERO \t\t\tnew bytes[](length)\n      PUSH [tag] 131\t\t\tnew bytes[](length)\n      JUMPI \t\t\tnew bytes[](length)\n      PUSH [tag] 132\t\t\tnew bytes[](length)\n      PUSH [tag] 103\t\t\tnew bytes[](length)\n      JUMP [in]\t\t\tnew bytes[](length)\n    tag 132\t\t\tnew bytes[](length)\n      JUMPDEST \t\t\tnew bytes[](length)\n    tag 131\t\t\tnew bytes[](length)\n      JUMPDEST \t\t\tnew bytes[](length)\n      PUSH 40\t\t\tnew bytes[](length)\n      MLOAD \t\t\tnew bytes[](length)\n      SWAP1 \t\t\tnew bytes[](length)\n      DUP1 \t\t\tnew bytes[](length)\n      DUP3 \t\t\tnew bytes[](length)\n      MSTORE \t\t\tnew bytes[](length)\n      DUP1 \t\t\tnew bytes[](length)\n      PUSH 20\t\t\tnew bytes[](length)\n      MUL \t\t\tnew bytes[](length)\n      PUSH 20\t\t\tnew bytes[](length)\n      ADD \t\t\tnew bytes[](length)\n      DUP3 \t\t\tnew bytes[](length)\n      ADD \t\t\tnew bytes[](length)\n      PUSH 40\t\t\tnew bytes[](length)\n      MSTORE \t\t\tnew bytes[](length)\n      DUP1 \t\t\tnew bytes[](length)\n      ISZERO \t\t\tnew bytes[](length)\n      PUSH [tag] 133\t\t\tnew bytes[](length)\n      JUMPI \t\t\tnew bytes[](length)\n      DUP2 \t\t\tnew bytes[](length)\n      PUSH 20\t\t\tnew bytes[](length)\n      ADD \t\t\tnew bytes[](length)\n    tag 134\t\t\tnew bytes[](length)\n      JUMPDEST \t\t\tnew bytes[](length)\n      PUSH 60\t\t\tnew bytes[](length)\n      DUP2 \t\t\tnew bytes[](length)\n      MSTORE \t\t\tnew bytes[](length)\n      PUSH 20\t\t\tnew bytes[](length)\n      ADD \t\t\tnew bytes[](length)\n      SWAP1 \t\t\tnew bytes[](length)\n      PUSH 1\t\t\tnew bytes[](length)\n      SWAP1 \t\t\tnew bytes[](length)\n      SUB \t\t\tnew bytes[](length)\n      SWAP1 \t\t\tnew bytes[](length)\n      DUP2 \t\t\tnew bytes[](length)\n      PUSH [tag] 134\t\t\tnew bytes[](length)\n      JUMPI \t\t\tnew bytes[](length)\n      SWAP1 \t\t\tnew bytes[](length)\n      POP \t\t\tnew bytes[](length)\n    tag 133\t\t\tnew bytes[](length)\n      JUMPDEST \t\t\tnew bytes[](length)\n      POP \t\t\tnew bytes[](length)\n      SWAP2 \t\t\treturnData = new bytes[](lengt...\n      POP \t\t\treturnData = new bytes[](lengt...\n      CALLDATASIZE \t\t\tCall calldata call\n      PUSH 0\t\t\tuint256 i\n    tag 135\t\t\tfor (uint256 i = 0; i < length...\n      JUMPDEST \t\t\tfor (uint256 i = 0; i < length...\n      DUP3 \t\t\tlength\n      DUP2 \t\t\ti\n      LT \t\t\ti < length\n      ISZERO \t\t\tfor (uint256 i = 0; i < length...\n      PUSH [tag] 136\t\t\tfor (uint256 i = 0; i < length...\n      JUMPI \t\t\tfor (uint256 i = 0; i < length...\n      PUSH 0\t\t\tbool success\n      DUP8 \t\t\tcalls\n      DUP8 \t\t\tcalls\n      DUP4 \t\t\ti\n      DUP2 \t\t\tcalls[i]\n      DUP2 \t\t\tcalls[i]\n      LT \t\t\tcalls[i]\n      PUSH [tag] 138\t\t\tcalls[i]\n      JUMPI \t\t\tcalls[i]\n      PUSH [tag] 139\t\t\tcalls[i]\n      PUSH [tag] 113\t\t\tcalls[i]\n      JUMP [in]\t\t\tcalls[i]\n    tag 139\t\t\tcalls[i]\n      JUMPDEST \t\t\tcalls[i]\n    tag 138\t\t\tcalls[i]\n      JUMPDEST \t\t\tcalls[i]\n      SWAP1 \t\t\tcalls[i]\n      POP \t\t\tcalls[i]\n      PUSH 20\t\t\tcalls[i]\n      MUL \t\t\tcalls[i]\n      DUP2 \t\t\tcalls[i]\n      ADD \t\t\tcalls[i]\n      SWAP1 \t\t\tcalls[i]\n      PUSH [tag] 140\t\t\tcalls[i]\n      SWAP2 \t\t\tcalls[i]\n      SWAP1 \t\t\tcalls[i]\n      PUSH [tag] 141\t\t\tcalls[i]\n      JUMP [in]\t\t\tcalls[i]\n    tag 140\t\t\tcalls[i]\n      JUMPDEST \t\t\tcalls[i]\n      SWAP3 \t\t\tcall = calls[i]\n      POP \t\t\tcall = calls[i]\n      DUP3 \t\t\tcall\n      PUSH 0\t\t\tcall.target\n      ADD \t\t\tcall.target\n      PUSH 20\t\t\tcall.target\n      DUP2 \t\t\tcall.target\n      ADD \t\t\tcall.target\n      SWAP1 \t\t\tcall.target\n      PUSH [tag] 142\t\t\tcall.target\n      SWAP2 \t\t\tcall.target\n      SWAP1 \t\t\tcall.target\n      PUSH [tag] 64\t\t\tcall.target\n      JUMP [in]\t\t\tcall.target\n    tag 142\t\t\tcall.target\n      JUMPDEST \t\t\tcall.target\n      PUSH FFFFFFFFFFFFFFFFFFFFFFFFFFFFFFFFFFFFFFFF\t\t\tcall.target.call\n      AND \t\t\tcall.target.call\n      DUP4 \t\t\tcall\n      DUP1 \t\t\tcall.callData\n      PUSH 20\t\t\tcall.callData\n      ADD \t\t\tcall.callData\n      SWAP1 \t\t\tcall.callData\n      PUSH [tag] 143\t\t\tcall.callData\n      SWAP2 \t\t\tcall.callData\n      SWAP1 \t\t\tcall.callData\n      PUSH [tag] 120\t\t\tcall.callData\n      JUMP [in]\t\t\tcall.callData\n    tag 143\t\t\tcall.callData\n      JUMPDEST \t\t\tcall.callData\n      PUSH 40\t\t\tcall.target.call(call.callData...\n      MLOAD \t\t\tcall.target.call(call.callData...\n      PUSH [tag] 144\t\t\tcall.target.call(call.callData...\n      SWAP3 \t\t\tcall.target.call(call.callData...\n      SWAP2 \t\t\tcall.target.call(call.callData...\n      SWAP1 \t\t\tcall.target.call(call.callData...\n      PUSH [tag] 122\t\t\tcall.target.call(call.callData...\n      JUMP [in]\t\t\tcall.target.call(call.callData...\n    tag 144\t\t\tcall.target.call(call.callData...\n      JUMPDEST \t\t\tcall.target.call(call.callData...\n      PUSH 0\t\t\tcall.target.call(call.callData...\n      PUSH 40\t\t\tcall.target.call(call.callData...\n      MLOAD \t\t\tcall.target.call(call.callData...\n      DUP1 \t\t\tcall.target.call(call.callData...\n      DUP4 \t\t\tcall.target.call(call.callData...\n      SUB \t\t\tcall.target.call(call.callData...\n      DUP2 \t\t\tcall.target.call(call.callData...\n      PUSH 0\t\t\tcall.target.call(call.callData...\n      DUP7 \t\t\tcall.target.call(call.callData...\n      GAS \t\t\tcall.target.call(call.callData...\n      CALL \t\t\tcall.target.call(call.callData...\n      SWAP2 \t\t\tcall.target.call(call.callData...\n      POP \t\t\tcall.target.call(call.callData...\n      POP \t\t\tcall.target.call(call.callData...\n      RETURNDATASIZE \t\t\tcall.target.call(call.callData...\n      DUP1 \t\t\tcall.target.call(call.callData...\n      PUSH 0\t\t\tcall.target.call(call.callData...\n      DUP2 \t\t\tcall.target.call(call.callData...\n      EQ \t\t\tcall.target.call(call.callData...\n      PUSH [tag] 147\t\t\tcall.target.call(call.callData...\n      JUMPI \t\t\tcall.target.call(call.callData...\n      PUSH 40\t\t\tcall.target.call(call.callData...\n      MLOAD \t\t\tcall.target.call(call.callData...\n      SWAP2 \t\t\tcall.target.call(call.callData...\n      POP \t\t\tcall.target.call(call.callData...\n      PUSH 1F\t\t\tcall.target.call(call.callData...\n      NOT \t\t\tcall.target.call(call.callData...\n      PUSH 3F\t\t\tcall.target.call(call.callData...\n      RETURNDATASIZE \t\t\tcall.target.call(call.callData...\n      ADD \t\t\tcall.target.call(call.callData...\n      AND \t\t\tcall.target.call(call.callData...\n      DUP3 \t\t\tcall.target.call(call.callData...\n      ADD \t\t\tcall.target.call(call.callData...\n      PUSH 40\t\t\tcall.target.call(call.callData...\n      MSTORE \t\t\tcall.target.call(call.callData...\n      RETURNDATASIZE \t\t\tcall.target.call(call.callData...\n      DUP3 \t\t\tcall.target.call(call.callData...\n      MSTORE \t\t\tcall.target.call(call.callData...\n      RETURNDATASIZE \t\t\tcall.target.call(call.callData...\n      PUSH 0\t\t\tcall.target.call(call.callData...\n      PUSH 20\t\t\tcall.target.call(call.callData...\n      DUP5 \t\t\tcall.target.call(call.callData...\n      ADD \t\t\tcall.target.call(call.callData...\n      RETURNDATACOPY \t\t\tcall.target.call(call.callData...\n      PUSH [tag] 146\t\t\tcall.target.call(call.callData...\n      JUMP \t\t\tcall.target.call(call.callData...\n    tag 147\t\t\tcall.target.call(call.callData...\n      JUMPDEST \t\t\tcall.target.call(call.callData...\n      PUSH 60\t\t\tcall.target.call(call.callData...\n      SWAP2 \t\t\tcall.target.call(call.callData...\n      POP \t\t\tcall.target.call(call.callData...\n    tag 146\t\t\tcall.target.call(call.callData...\n      JUMPDEST \t\t\tcall.target.call(call.callData...\n      POP \t\t\tcall.target.call(call.callData...\n      DUP7 \t\t\treturnData\n      DUP5 \t\t\ti\n      DUP2 \t\t\treturnData[i]\n      MLOAD \t\t\treturnData[i]\n      DUP2 \t\t\treturnData[i]\n      LT \t\t\treturnData[i]\n      PUSH [tag] 148\t\t\treturnData[i]\n      JUMPI \t\t\treturnData[i]\n      PUSH [tag] 149\t\t\treturnData[i]\n      PUSH [tag] 113\t\t\treturnData[i]\n      JUMP [in]\t\t\treturnData[i]\n    tag 149\t\t\treturnData[i]\n      JUMPDEST \t\t\treturnData[i]\n    tag 148\t\t\treturnData[i]\n      JUMPDEST \t\t\treturnData[i]\n      PUSH 20\t\t\treturnData[i]\n      MUL \t\t\treturnData[i]\n      PUSH 20\t\t\treturnData[i]\n      ADD \t\t\treturnData[i]\n      ADD \t\t\treturnData[i]\n      DUP2 \t\t\t(success, returnData[i]) = cal...\n      SWAP1 \t\t\t(success, returnData[i]) = cal...\n      MSTORE \t\t\t(success, returnData[i]) = cal...\n      DUP2 \t\t\t(success, returnData[i]) = cal...\n      SWAP3 \t\t\t(success, returnData[i]) = cal...\n      POP \t\t\t(success, returnData[i]) = cal...\n      POP \t\t\t(success, returnData[i]) = cal...\n      POP \t\t\t(success, returnData[i]) = cal...\n      DUP1 \t\t\tsuccess\n      PUSH [tag] 150\t\t\trequire(success, \"Multicall3: ...\n      JUMPI \t\t\trequire(success, \"Multicall3: ...\n      PUSH 40\t\t\trequire(success, \"Multicall3: ...\n      MLOAD \t\t\trequire(success, \"Multicall3: ...\n      PUSH 8C379A000000000000000000000000000000000000000000000000000000000\t\t\trequire(success, \"Multicall3: ...\n      DUP2 \t\t\trequire(success, \"Multicall3: ...\n      MSTORE \t\t\trequire(success, \"Multicall3: ...\n      PUSH 4\t\t\trequire(success, \"Multicall3: ...\n      ADD \t\t\trequire(success, \"Multicall3: ...\n      PUSH [tag] 151\t\t\trequire(success, \"Multicall3: ...\n      SWAP1 \t\t\trequire(success, \"Multicall3: ...\n      PUSH [tag] 152\t\t\trequire(success, \"Multicall3: ...\n      JUMP [in]\t\t\trequire(success, \"Multicall3: ...\n    tag 151\t\t\trequire(success, \"Multicall3: ...\n      JUMPDEST \t\t\trequire(success, \"Multicall3: ...\n      PUSH 40\t\t\trequire(success, \"Multicall3: ...\n      MLOAD \t\t\trequire(success, \"Multicall3: ...\n      DUP1 \t\t\trequire(success, \"Multicall3: ...\n      SWAP2 \t\t\trequire(success, \"Multicall3: ...\n      SUB \t\t\trequire(success, \"Multicall3: ...\n      SWAP1 \t\t\trequire(success, \"Multicall3: ...\n      REVERT \t\t\trequire(success, \"Multicall3: ...\n    tag 150\t\t\trequire(success, \"Multicall3: ...\n      JUMPDEST \t\t\trequire(success, \"Multicall3: ...\n      DUP2 \t\t\t++i\n      PUSH 1\t\t\t++i\n      ADD \t\t\t++i\n      SWAP2 \t\t\t++i\n      POP \t\t\t++i\n      POP \t\t\t{\\n            bool success;\\n...\n      PUSH [tag] 135\t\t\tfor (uint256 i = 0; i < length...\n      JUMP \t\t\tfor (uint256 i = 0; i < length...\n    tag 136\t\t\tfor (uint256 i = 0; i < length...\n      JUMPDEST \t\t\tfor (uint256 i = 0; i < length...\n      POP \t\t\tfor (uint256 i = 0; i < length...\n      POP \t\t\t{\\n        blockNumber = block...\n      POP \t\t\t{\\n        blockNumber = block...\n      SWAP3 \t\t\tfunction aggregate(Call[] call...\n      POP \t\t\tfunction aggregate(Call[] call...\n      SWAP3 \t\t\tfunction aggregate(Call[] call...\n      SWAP1 \t\t\tfunction aggregate(Call[] call...\n      POP \t\t\tfunction aggregate(Call[] call...\n      JUMP [out]\t\t\tfunction aggregate(Call[] call...\n    tag 40\t\t\tfunction getLastBlockHash() pu...\n      JUMPDEST \t\t\tfunction getLastBlockHash() pu...\n      PUSH 0\t\t\tbytes32 blockHash\n      PUSH 1\t\t\t1\n      NUMBER \t\t\tblock.number\n      SUB \t\t\tblock.number - 1\n      BLOCKHASH \t\t\tblockhash(block.number - 1)\n      SWAP1 \t\t\tblockHash = blockhash(block.nu...\n      POP \t\t\tblockHash = blockhash(block.nu...\n      SWAP1 \t\t\tfunction getLastBlockHash() pu...\n      JUMP [out]\t\t\tfunction getLastBlockHash() pu...\n    tag 45\t\t\tfunction getChainId() public v...\n      JUMPDEST \t\t\tfunction getChainId() public v...\n      PUSH 0\t\t\tuint256 chainid\n      CHAINID \t\t\tblock.chainid\n      SWAP1 \t\t\tchainid = block.chainid\n      POP \t\t\tchainid = block.chainid\n      SWAP1 \t\t\tfunction getChainId() public v...\n      JUMP [out]\t\t\tfunction getChainId() public v...\n    tag 50\t\t\tfunction tryBlockAndAggregate(...\n      JUMPDEST \t\t\tfunction tryBlockAndAggregate(...\n      PUSH 0\t\t\tuint256 blockNumber\n      DUP1 \t\t\tbytes32 blockHash\n      PUSH 60\t\t\tResult[] memory returnData\n      NUMBER \t\t\tblock.number\n      SWAP3 \t\t\tblockNumber = block.number\n      POP \t\t\tblockNumber = block.number\n      NUMBER \t\t\tblock.number\n      BLOCKHASH \t\t\tblockhash(block.number)\n      SWAP2 \t\t\tblockHash = blockhash(block.nu...\n      POP \t\t\tblockHash = blockhash(block.nu...\n      PUSH [tag] 156\t\t\ttryAggregate(requireSuccess, c...\n      DUP7 \t\t\trequireSuccess\n      DUP7 \t\t\tcalls\n      DUP7 \t\t\tcalls\n      PUSH [tag] 87\t\t\ttryAggregate\n      JUMP [in]\t\t\ttryAggregate(requireSuccess, c...\n    tag 156\t\t\ttryAggregate(requireSuccess, c...\n      JUMPDEST \t\t\ttryAggregate(requireSuccess, c...\n      SWAP1 \t\t\treturnData = tryAggregate(requ...\n      POP \t\t\treturnData = tryAggregate(requ...\n      SWAP4 \t\t\tfunction tryBlockAndAggregate(...\n      POP \t\t\tfunction tryBlockAndAggregate(...\n      SWAP4 \t\t\tfunction tryBlockAndAggregate(...\n      POP \t\t\tfunction tryBlockAndAggregate(...\n      SWAP4 \t\t\tfunction tryBlockAndAggregate(...\n      SWAP1 \t\t\tfunction tryBlockAndAggregate(...\n      POP \t\t\tfunction tryBlockAndAggregate(...\n      JUMP [out]\t\t\tfunction tryBlockAndAggregate(...\n    tag 55\t\t\tfunction getBasefee() public v...\n      JUMPDEST \t\t\tfunction getBasefee() public v...\n      PUSH 0\t\t\tuint256 basefee\n      BASEFEE \t\t\tblock.basefee\n      SWAP1 \t\t\tbasefee = block.basefee\n      POP \t\t\tbasefee = block.basefee\n      SWAP1 \t\t\tfunction getBasefee() public v...\n      JUMP [out]\t\t\tfunction getBasefee() public v...\n    tag 59\t\t\tfunction getBlockNumber() publ...\n      JUMPDEST \t\t\tfunction getBlockNumber() publ...\n      PUSH 0\t\t\tuint256 blockNumber\n      NUMBER \t\t\tblock.number\n      SWAP1 \t\t\tblockNumber = block.number\n      POP \t\t\tblockNumber = block.number\n      SWAP1 \t\t\tfunction getBlockNumber() publ...\n      JUMP [out]\t\t\tfunction getBlockNumber() publ...\n    tag 65\t\t\tfunction getEthBalance(address...\n      JUMPDEST \t\t\tfunction getEthBalance(address...\n      PUSH 0\t\t\tuint256 balance\n      DUP2 \t\t\taddr\n      PUSH FFFFFFFFFFFFFFFFFFFFFFFFFFFFFFFFFFFFFFFF\t\t\taddr.balance\n      AND \t\t\taddr.balance\n      BALANCE \t\t\taddr.balance\n      SWAP1 \t\t\tbalance = addr.balance\n      POP \t\t\tbalance = addr.balance\n      SWAP2 \t\t\tfunction getEthBalance(address...\n      SWAP1 \t\t\tfunction getEthBalance(address...\n      POP \t\t\tfunction getEthBalance(address...\n      JUMP [out]\t\t\tfunction getEthBalance(address...\n    tag 69\t\t\tfunction getCurrentBlockDiffic...\n      JUMPDEST \t\t\tfunction getCurrentBlockDiffic...\n      PUSH 0\t\t\tuint256 difficulty\n      DIFFICULTY \t\t\tblock.difficulty\n      SWAP1 \t\t\tdifficulty = block.difficulty\n      POP \t\t\tdifficulty = block.difficulty\n      SWAP1 \t\t\tfunction getCurrentBlockDiffic...\n      JUMP [out]\t\t\tfunction getCurrentBlockDiffic...\n    tag 74\t\t\tfunction aggregate3(Call3[] ca...\n      JUMPDEST \t\t\tfunction aggregate3(Call3[] ca...\n      PUSH 60\t\t\tResult[] memory returnData\n      PUSH 0\t\t\tuint256 length\n      DUP4 \t\t\tcalls\n      DUP4 \t\t\tcalls\n      SWAP1 \t\t\tcalls.length\n      POP \t\t\tcalls.length\n      SWAP1 \t\t\tuint256 length = calls.length\n      POP \t\t\tuint256 length = calls.length\n      DUP1 \t\t\tlength\n      PUSH FFFFFFFFFFFFFFFF\t\t\tnew Result[](length)\n      DUP2 \t\t\tnew Result[](length)\n      GT \t\t\tnew Result[](length)\n      ISZERO \t\t\tnew Result[](length)\n      PUSH [tag] 162\t\t\tnew Result[](length)\n      JUMPI \t\t\tnew Result[](length)\n      PUSH [tag] 163\t\t\tnew Result[](length)\n      PUSH [tag] 103\t\t\tnew Result[](length)\n      JUMP [in]\t\t\tnew Result[](length)\n    tag 163\t\t\tnew Result[](length)\n      JUMPDEST \t\t\tnew Result[](length)\n    tag 162\t\t\tnew Result[](length)\n      JUMPDEST \t\t\tnew Result[](length)\n      PUSH 40\t\t\tnew Result[](length)\n      MLOAD \t\t\tnew Result[](length)\n      SWAP1 \t\t\tnew Result[](length)\n      DUP1 \t\t\tnew Result[](length)\n      DUP3 \t\t\tnew Result[](length)\n      MSTORE \t\t\tnew Result[](length)\n      DUP1 \t\t\tnew Result[](length)\n      PUSH 20\t\t\tnew Result[](length)\n      MUL \t\t\tnew Result[](length)\n      PUSH 20\t\t\tnew Result[](length)\n      ADD \t\t\tnew Result[](length)\n      DUP3 \t\t\tnew Result[](length)\n      ADD \t\t\tnew Result[](length)\n      PUSH 40\t\t\tnew Result[](length)\n      MSTORE \t\t\tnew Result[](length)\n      DUP1 \t\t\tnew Result[](length)\n      ISZERO \t\t\tnew Result[](length)\n      PUSH [tag] 164\t\t\tnew Result[](length)\n      JUMPI \t\t\tnew Result[](length)\n      DUP2 \t\t\tnew Result[](length)\n      PUSH 20\t\t\tnew Result[](length)\n      ADD \t\t\tnew Result[](length)\n    tag 165\t\t\tnew Result[](length)\n      JUMPDEST \t\t\tnew Result[](length)\n      PUSH [tag] 166\t\t\tnew Result[](length)\n      PUSH [tag] 107\t\t\tnew Result[](length)\n      JUMP [in]\t\t\tnew Result[](length)\n    tag 166\t\t\tnew Result[](length)\n      JUMPDEST \t\t\tnew Result[](length)\n      DUP2 \t\t\tnew Result[](length)\n      MSTORE \t\t\tnew Result[](length)\n      PUSH 20\t\t\tnew Result[](length)\n      ADD \t\t\tnew Result[](length)\n      SWAP1 \t\t\tnew Result[](length)\n      PUSH 1\t\t\tnew Result[](length)\n      SWAP1 \t\t\tnew Result[](length)\n      SUB \t\t\tnew Result[](length)\n      SWAP1 \t\t\tnew Result[](length)\n      DUP2 \t\t\tnew Result[](length)\n      PUSH [tag] 165\t\t\tnew Result[](length)\n      JUMPI \t\t\tnew Result[](length)\n      SWAP1 \t\t\tnew Result[](length)\n      POP \t\t\tnew Result[](length)\n    tag 164\t\t\tnew Result[](length)\n      JUMPDEST \t\t\tnew Result[](length)\n      POP \t\t\tnew Result[](length)\n      SWAP2 \t\t\treturnData = new Result[](leng...\n      POP \t\t\treturnData = new Result[](leng...\n      CALLDATASIZE \t\t\tCall3 calldata calli\n      PUSH 0\t\t\tuint256 i\n    tag 167\t\t\tfor (uint256 i = 0; i < length...\n      JUMPDEST \t\t\tfor (uint256 i = 0; i < length...\n      DUP3 \t\t\tlength\n      DUP2 \t\t\ti\n      LT \t\t\ti < length\n      ISZERO \t\t\tfor (uint256 i = 0; i < length...\n      PUSH [tag] 168\t\t\tfor (uint256 i = 0; i < length...\n      JUMPI \t\t\tfor (uint256 i = 0; i < length...\n      PUSH 0\t\t\tResult memory result\n      DUP5 \t\t\treturnData\n      DUP3 \t\t\ti\n      DUP2 \t\t\treturnData[i]\n      MLOAD \t\t\treturnData[i]\n      DUP2 \t\t\treturnData[i]\n      LT \t\t\treturnData[i]\n      PUSH [tag] 170\t\t\treturnData[i]\n      JUMPI \t\t\treturnData[i]\n      PUSH [tag] 171\t\t\treturnData[i]\n      PUSH [tag] 113\t\t\treturnData[i]\n      JUMP [in]\t\t\treturnData[i]\n    tag 171\t\t\treturnData[i]\n      JUMPDEST \t\t\treturnData[i]\n    tag 170\t\t\treturnData[i]\n      JUMPDEST \t\t\treturnData[i]\n      PUSH 20\t\t\treturnData[i]\n      MUL \t\t\treturnData[i]\n      PUSH 20\t\t\treturnData[i]\n      ADD \t\t\treturnData[i]\n      ADD \t\t\treturnData[i]\n      MLOAD \t\t\treturnData[i]\n      SWAP1 \t\t\tResult memory result = returnD...\n      POP \t\t\tResult memory result = returnD...\n      DUP7 \t\t\tcalls\n      DUP7 \t\t\tcalls\n      DUP4 \t\t\ti\n      DUP2 \t\t\tcalls[i]\n      DUP2 \t\t\tcalls[i]\n      LT \t\t\tcalls[i]\n      PUSH [tag] 172\t\t\tcalls[i]\n      JUMPI \t\t\tcalls[i]\n      PUSH [tag] 173\t\t\tcalls[i]\n      PUSH [tag] 113\t\t\tcalls[i]\n      JUMP [in]\t\t\tcalls[i]\n    tag 173\t\t\tcalls[i]\n      JUMPDEST \t\t\tcalls[i]\n    tag 172\t\t\tcalls[i]\n      JUMPDEST \t\t\tcalls[i]\n      SWAP1 \t\t\tcalls[i]\n      POP \t\t\tcalls[i]\n      PUSH 20\t\t\tcalls[i]\n      MUL \t\t\tcalls[i]\n      DUP2 \t\t\tcalls[i]\n      ADD \t\t\tcalls[i]\n      SWAP1 \t\t\tcalls[i]\n      PUSH [tag] 174\t\t\tcalls[i]\n      SWAP2 \t\t\tcalls[i]\n      SWAP1 \t\t\tcalls[i]\n      PUSH [tag] 175\t\t\tcalls[i]\n      JUMP [in]\t\t\tcalls[i]\n    tag 174\t\t\tcalls[i]\n      JUMPDEST \t\t\tcalls[i]\n      SWAP3 \t\t\tcalli = calls[i]\n      POP \t\t\tcalli = calls[i]\n      DUP3 \t\t\tcalli\n      PUSH 0\t\t\tcalli.target\n      ADD \t\t\tcalli.target\n      PUSH 20\t\t\tcalli.target\n      DUP2 \t\t\tcalli.target\n      ADD \t\t\tcalli.target\n      SWAP1 \t\t\tcalli.target\n      PUSH [tag] 176\t\t\tcalli.target\n      SWAP2 \t\t\tcalli.target\n      SWAP1 \t\t\tcalli.target\n      PUSH [tag] 64\t\t\tcalli.target\n      JUMP [in]\t\t\tcalli.target\n    tag 176\t\t\tcalli.target\n      JUMPDEST \t\t\tcalli.target\n      PUSH FFFFFFFFFFFFFFFFFFFFFFFFFFFFFFFFFFFFFFFF\t\t\tcalli.target.call\n      AND \t\t\tcalli.target.call\n      DUP4 \t\t\tcalli\n      DUP1 \t\t\tcalli.callData\n      PUSH 40\t\t\tcalli.callData\n      ADD \t\t\tcalli.callData\n      SWAP1 \t\t\tcalli.callData\n      PUSH [tag] 177\t\t\tcalli.callData\n      SWAP2 \t\t\tcalli.callData\n      SWAP1 \t\t\tcalli.callData\n      PUSH [tag] 120\t\t\tcalli.callData\n      JUMP [in]\t\t\tcalli.callData\n    tag 177\t\t\tcalli.callData\n      JUMPDEST \t\t\tcalli.callData\n      PUSH 40\t\t\tcalli.target.call(calli.callDa...\n      MLOAD \t\t\tcalli.target.call(calli.callDa...\n      PUSH [tag] 178\t\t\tcalli.target.call(calli.callDa...\n      SWAP3 \t\t\tcalli.target.call(calli.callDa...\n      SWAP2 \t\t\tcalli.target.call(calli.callDa...\n      SWAP1 \t\t\tcalli.target.call(calli.callDa...\n      PUSH [tag] 122\t\t\tcalli.target.call(calli.callDa...\n      JUMP [in]\t\t\tcalli.target.call(calli.callDa...\n    tag 178\t\t\tcalli.target.call(calli.callDa...\n      JUMPDEST \t\t\tcalli.target.call(calli.callDa...\n      PUSH 0\t\t\tcalli.target.call(calli.callDa...\n      PUSH 40\t\t\tcalli.target.call(calli.callDa...\n      MLOAD \t\t\tcalli.target.call(calli.callDa...\n      DUP1 \t\t\tcalli.target.call(calli.callDa...\n      DUP4 \t\t\tcalli.target.call(calli.callDa...\n      SUB \t\t\tcalli.target.call(calli.callDa...\n      DUP2 \t\t\tcalli.target.call(calli.callDa...\n      PUSH 0\t\t\tcalli.target.call(calli.callDa...\n      DUP7 \t\t\tcalli.target.call(calli.callDa...\n      GAS \t\t\tcalli.target.call(calli.callDa...\n      CALL \t\t\tcalli.target.call(calli.callDa...\n      SWAP2 \t\t\tcalli.target.call(calli.callDa...\n      POP \t\t\tcalli.target.call(calli.callDa...\n      POP \t\t\tcalli.target.call(calli.callDa...\n      RETURNDATASIZE \t\t\tcalli.target.call(calli.callDa...\n      DUP1 \t\t\tcalli.target.call(calli.callDa...\n      PUSH 0\t\t\tcalli.target.call(calli.callDa...\n      DUP2 \t\t\tcalli.target.call(calli.callDa...\n      EQ \t\t\tcalli.target.call(calli.callDa...\n      PUSH [tag] 181\t\t\tcalli.target.call(calli.callDa...\n      JUMPI \t\t\tcalli.target.call(calli.callDa...\n      PUSH 40\t\t\tcalli.target.call(calli.callDa...\n      MLOAD \t\t\tcalli.target.call(calli.callDa...\n      SWAP2 \t\t\tcalli.target.call(calli.callDa...\n      POP \t\t\tcalli.target.call(calli.callDa...\n      PUSH 1F\t\t\tcalli.target.call(calli.callDa...\n      NOT \t\t\tcalli.target.call(calli.callDa...\n      PUSH 3F\t\t\tcalli.target.call(calli.callDa...\n      RETURNDATASIZE \t\t\tcalli.target.call(calli.callDa...\n      ADD \t\t\tcalli.target.call(calli.callDa...\n      AND \t\t\tcalli.target.call(calli.callDa...\n      DUP3 \t\t\tcalli.target.call(calli.callDa...\n      ADD \t\t\tcalli.target.call(calli.callDa...\n      PUSH 40\t\t\tcalli.target.call(calli.callDa...\n      MSTORE \t\t\tcalli.target.call(calli.callDa...\n      RETURNDATASIZE \t\t\tcalli.target.call(calli.callDa...\n      DUP3 \t\t\tcalli.target.call(calli.callDa...\n      MSTORE \t\t\tcalli.target.call(calli.callDa...\n      RETURNDATASIZE \t\t\tcalli.target.call(calli.callDa...\n      PUSH 0\t\t\tcalli.target.call(calli.callDa...\n      PUSH 20\t\t\tcalli.target.call(calli.callDa...\n      DUP5 \t\t\tcalli.target.call(calli.callDa...\n      ADD \t\t\tcalli.target.call(calli.callDa...\n      RETURNDATACOPY \t\t\tcalli.target.call(calli.callDa...\n      PUSH [tag] 180\t\t\tcalli.target.call(calli.callDa...\n      JUMP \t\t\tcalli.target.call(calli.callDa...\n    tag 181\t\t\tcalli.target.call(calli.callDa...\n      JUMPDEST \t\t\tcalli.target.call(calli.callDa...\n      PUSH 60\t\t\tcalli.target.call(calli.callDa...\n      SWAP2 \t\t\tcalli.target.call(calli.callDa...\n      POP \t\t\tcalli.target.call(calli.callDa...\n    tag 180\t\t\tcalli.target.call(calli.callDa...\n      JUMPDEST \t\t\tcalli.target.call(calli.callDa...\n      POP \t\t\tcalli.target.call(calli.callDa...\n      DUP3 \t\t\tresult\n      PUSH 0\t\t\tresult.success\n      ADD \t\t\tresult.success\n      DUP4 \t\t\tresult\n      PUSH 20\t\t\tresult.returnData\n      ADD \t\t\tresult.returnData\n      DUP3 \t\t\t(result.success, result.return...\n      SWAP1 \t\t\t(result.success, result.return...\n      MSTORE \t\t\t(result.success, result.return...\n      DUP3 \t\t\t(result.success, result.return...\n      ISZERO \t\t\t(result.success, result.return...\n      ISZERO \t\t\t(result.success, result.return...\n      ISZERO \t\t\t(result.success, result.return...\n      ISZERO \t\t\t(result.success, result.return...\n      DUP2 \t\t\t(result.success, result.return...\n      MSTORE \t\t\t(result.success, result.return...\n      POP \t\t\t(result.success, result.return...\n      POP \t\t\t(result.success, result.return...\n      POP \t\t\t(result.success, result.return...\n      DUP1 \t\t\tresult\n      MLOAD \t\t\tmload(result)\n      PUSH 20\t\t\t0x20\n      DUP5 \t\t\tcalli\n      ADD \t\t\tadd(calli, 0x20)\n      CALLDATALOAD \t\t\tcalldataload(add(calli, 0x20))\n      OR \t\t\tor(calldataload(add(calli, 0x2...\n      PUSH [tag] 182\t\t\tif iszero(or(calldataload(add(...\n      JUMPI \t\t\tif iszero(or(calldataload(add(...\n      PUSH 8C379A000000000000000000000000000000000000000000000000000000000\t\t\t0x08c379a000000000000000000000...\n      PUSH 0\t\t\t0x00\n      MSTORE \t\t\tmstore(0x00, 0x08c379a00000000...\n      PUSH 20\t\t\t0x0000000000000000000000000000...\n      PUSH 4\t\t\t0x04\n      MSTORE \t\t\tmstore(0x04, 0x000000000000000...\n      PUSH 17\t\t\t0x0000000000000000000000000000...\n      PUSH 24\t\t\t0x24\n      MSTORE \t\t\tmstore(0x24, 0x000000000000000...\n      PUSH 4D756C746963616C6C333A2063616C6C206661696C6564000000000000000000\t\t\t0x4d756c746963616c6c333a206361...\n      PUSH 44\t\t\t0x44\n      MSTORE \t\t\tmstore(0x44, 0x4d756c746963616...\n      PUSH 64\t\t\t0x64\n      PUSH 0\t\t\t0x00\n      REVERT \t\t\trevert(0x00, 0x64)\n    tag 182\t\t\tif iszero(or(calldataload(add(...\n      JUMPDEST \t\t\tif iszero(or(calldataload(add(...\n      DUP2 \t\t\t++i\n      PUSH 1\t\t\t++i\n      ADD \t\t\t++i\n      SWAP2 \t\t\t++i\n      POP \t\t\t++i\n      POP \t\t\t{\\n            Result memory r...\n      PUSH [tag] 167\t\t\tfor (uint256 i = 0; i < length...\n      JUMP \t\t\tfor (uint256 i = 0; i < length...\n    tag 168\t\t\tfor (uint256 i = 0; i < length...\n      JUMPDEST \t\t\tfor (uint256 i = 0; i < length...\n      POP \t\t\tfor (uint256 i = 0; i < length...\n      POP \t\t\t{\\n        uint256 length = ca...\n      POP \t\t\t{\\n        uint256 length = ca...\n      SWAP3 \t\t\tfunction aggregate3(Call3[] ca...\n      SWAP2 \t\t\tfunction aggregate3(Call3[] ca...\n      POP \t\t\tfunction aggregate3(Call3[] ca...\n      POP \t\t\tfunction aggregate3(Call3[] ca...\n      JUMP [out]\t\t\tfunction aggregate3(Call3[] ca...\n    tag 78\t\t\tfunction getCurrentBlockGasLim...\n      JUMPDEST \t\t\tfunction getCurrentBlockGasLim...\n      PUSH 0\t\t\tuint256 gaslimit\n      GASLIMIT \t\t\tblock.gaslimit\n      SWAP1 \t\t\tgaslimit = block.gaslimit\n      POP \t\t\tgaslimit = block.gaslimit\n      SWAP1 \t\t\tfunction getCurrentBlockGasLim...\n      JUMP [out]\t\t\tfunction getCurrentBlockGasLim...\n    tag 82\t\t\tfunction getCurrentBlockCoinba...\n      JUMPDEST \t\t\tfunction getCurrentBlockCoinba...\n      PUSH 0\t\t\taddress coinbase\n      COINBASE \t\t\tblock.coinbase\n      SWAP1 \t\t\tcoinbase = block.coinbase\n      POP \t\t\tcoinbase = block.coinbase\n      SWAP1 \t\t\tfunction getCurrentBlockCoinba...\n      JUMP [out]\t\t\tfunction getCurrentBlockCoinba...\n    tag 87\t\t\tfunction tryAggregate(bool req...\n      JUMPDEST \t\t\tfunction tryAggregate(bool req...\n      PUSH 60\t\t\tResult[] memory returnData\n      PUSH 0\t\t\tuint256 length\n      DUP4 \t\t\tcalls\n      DUP4 \t\t\tcalls\n      SWAP1 \t\t\tcalls.length\n      POP \t\t\tcalls.length\n      SWAP1 \t\t\tuint256 length = calls.length\n      POP \t\t\tuint256 length = calls.length\n      DUP1 \t\t\tlength\n      PUSH FFFFFFFFFFFFFFFF\t\t\tnew Result[](length)\n      DUP2 \t\t\tnew Result[](length)\n      GT \t\t\tnew Result[](length)\n      ISZERO \t\t\tnew Result[](length)\n      PUSH [tag] 186\t\t\tnew Result[](length)\n      JUMPI \t\t\tnew Result[](length)\n      PUSH [tag] 187\t\t\tnew Result[](length)\n      PUSH [tag] 103\t\t\tnew Result[](length)\n      JUMP [in]\t\t\tnew Result[](length)\n    tag 187\t\t\tnew Result[](length)\n      JUMPDEST \t\t\tnew Result[](length)\n    tag 186\t\t\tnew Result[](length)\n      JUMPDEST \t\t\tnew Result[](length)\n      PUSH 40\t\t\tnew Result[](length)\n      MLOAD \t\t\tnew Result[](length)\n      SWAP1 \t\t\tnew Result[](length)\n      DUP1 \t\t\tnew Result[](length)\n      DUP3 \t\t\tnew Result[](length)\n      MSTORE \t\t\tnew Result[](length)\n      DUP1 \t\t\tnew Result[](length)\n      PUSH 20\t\t\tnew Result[](length)\n      MUL \t\t\tnew Result[](length)\n      PUSH 20\t\t\tnew Result[](length)\n      ADD \t\t\tnew Result[](length)\n      DUP3 \t\t\tnew Result[](length)\n      ADD \t\t\tnew Result[](length)\n      PUSH 40\t\t\tnew Result[](length)\n      MSTORE \t\t\tnew Result[](length)\n      DUP1 \t\t\tnew Result[](length)\n      ISZERO \t\t\tnew Result[](length)\n      PUSH [tag] 188\t\t\tnew Result[](length)\n      JUMPI \t\t\tnew Result[](length)\n      DUP2 \t\t\tnew Result[](length)\n      PUSH 20\t\t\tnew Result[](length)\n      ADD \t\t\tnew Result[](length)\n    tag 189\t\t\tnew Result[](length)\n      JUMPDEST \t\t\tnew Result[](length)\n      PUSH [tag] 190\t\t\tnew Result[](length)\n      PUSH [tag] 107\t\t\tnew Result[](length)\n      JUMP [in]\t\t\tnew Result[](length)\n    tag 190\t\t\tnew Result[](length)\n      JUMPDEST \t\t\tnew Result[](length)\n      DUP2 \t\t\tnew Result[](length)\n      MSTORE \t\t\tnew Result[](length)\n      PUSH 20\t\t\tnew Result[](length)\n      ADD \t\t\tnew Result[](length)\n      SWAP1 \t\t\tnew Result[](length)\n      PUSH 1\t\t\tnew Result[](length)\n      SWAP1 \t\t\tnew Result[](length)\n      SUB \t\t\tnew Result[](length)\n      SWAP1 \t\t\tnew Result[](length)\n      DUP2 \t\t\tnew Result[](length)\n      PUSH [tag] 189\t\t\tnew Result[](length)\n      JUMPI \t\t\tnew Result[](length)\n      SWAP1 \t\t\tnew Result[](length)\n      POP \t\t\tnew Result[](length)\n    tag 188\t\t\tnew Result[](length)\n      JUMPDEST \t\t\tnew Result[](length)\n      POP \t\t\tnew Result[](length)\n      SWAP2 \t\t\treturnData = new Result[](leng...\n      POP \t\t\treturnData = new Result[](leng...\n      CALLDATASIZE \t\t\tCall calldata call\n      PUSH 0\t\t\tuint256 i\n    tag 191\t\t\tfor (uint256 i = 0; i < length...\n      JUMPDEST \t\t\tfor (uint256 i = 0; i < length...\n      DUP3 \t\t\tlength\n      DUP2 \t\t\ti\n      LT \t\t\ti < length\n      ISZERO \t\t\tfor (uint256 i = 0; i < length...\n      PUSH [tag] 192\t\t\tfor (uint256 i = 0; i < length...\n      JUMPI \t\t\tfor (uint256 i = 0; i < length...\n      PUSH 0\t\t\tResult memory result\n      DUP5 \t\t\treturnData\n      DUP3 \t\t\ti\n      DUP2 \t\t\treturnData[i]\n      MLOAD \t\t\treturnData[i]\n      DUP2 \t\t\treturnData[i]\n      LT \t\t\treturnData[i]\n      PUSH [tag] 194\t\t\treturnData[i]\n      JUMPI \t\t\treturnData[i]\n      PUSH [tag] 195\t\t\treturnData[i]\n      PUSH [tag] 113\t\t\treturnData[i]\n      JUMP [in]\t\t\treturnData[i]\n    tag 195\t\t\treturnData[i]\n      JUMPDEST \t\t\treturnData[i]\n    tag 194\t\t\treturnData[i]\n      JUMPDEST \t\t\treturnData[i]\n      PUSH 20\t\t\treturnData[i]\n      MUL \t\t\treturnData[i]\n      PUSH 20\t\t\treturnData[i]\n      ADD \t\t\treturnData[i]\n      ADD \t\t\treturnData[i]\n      MLOAD \t\t\treturnData[i]\n      SWAP1 \t\t\tResult memory result = returnD...\n      POP \t\t\tResult memory result = returnD...\n      DUP7 \t\t\tcalls\n      DUP7 \t\t\tcalls\n      DUP4 \t\t\ti\n      DUP2 \t\t\tcalls[i]\n      DUP2 \t\t\tcalls[i]\n      LT \t\t\tcalls[i]\n      PUSH [tag] 196\t\t\tcalls[i]\n      JUMPI \t\t\tcalls[i]\n      PUSH [tag] 197\t\t\tcalls[i]\n      PUSH [tag] 113\t\t\tcalls[i]\n      JUMP [in]\t\t\tcalls[i]\n    tag 197\t\t\tcalls[i]\n      JUMPDEST \t\t\tcalls[i]\n    tag 196\t\t\tcalls[i]\n      JUMPDEST \t\t\tcalls[i]\n      SWAP1 \t\t\tcalls[i]\n      POP \t\t\tcalls[i]\n      PUSH 20\t\t\tcalls[i]\n      MUL \t\t\tcalls[i]\n      DUP2 \t\t\tcalls[i]\n      ADD \t\t\tcalls[i]\n      SWAP1 \t\t\tcalls[i]\n      PUSH [tag] 198\t\t\tcalls[i]\n      SWAP2 \t\t\tcalls[i]\n      SWAP1 \t\t\tcalls[i]\n      PUSH [tag] 141\t\t\tcalls[i]\n      JUMP [in]\t\t\tcalls[i]\n    tag 198\t\t\tcalls[i]\n      JUMPDEST \t\t\tcalls[i]\n      SWAP3 \t\t\tcall = calls[i]\n      POP \t\t\tcall = calls[i]\n      DUP3 \t\t\tcall\n      PUSH 0\t\t\tcall.target\n      ADD \t\t\tcall.target\n      PUSH 20\t\t\tcall.target\n      DUP2 \t\t\tcall.target\n      ADD \t\t\tcall.target\n      SWAP1 \t\t\tcall.target\n      PUSH [tag] 199\t\t\tcall.target\n      SWAP2 \t\t\tcall.target\n      SWAP1 \t\t\tcall.target\n      PUSH [tag] 64\t\t\tcall.target\n      JUMP [in]\t\t\tcall.target\n    tag 199\t\t\tcall.target\n      JUMPDEST \t\t\tcall.target\n      PUSH FFFFFFFFFFFFFFFFFFFFFFFFFFFFFFFFFFFFFFFF\t\t\tcall.target.call\n      AND \t\t\tcall.target.call\n      DUP4 \t\t\tcall\n      DUP1 \t\t\tcall.callData\n      PUSH 20\t\t\tcall.callData\n      ADD \t\t\tcall.callData\n      SWAP1 \t\t\tcall.callData\n      PUSH [tag] 200\t\t\tcall.callData\n      SWAP2 \t\t\tcall.callData\n      SWAP1 \t\t\tcall.callData\n      PUSH [tag] 120\t\t\tcall.callData\n      JUMP [in]\t\t\tcall.callData\n    tag 200\t\t\tcall.callData\n      JUMPDEST \t\t\tcall.callData\n      PUSH 40\t\t\tcall.target.call(call.callData...\n      MLOAD \t\t\tcall.target.call(call.callData...\n      PUSH [tag] 201\t\t\tcall.target.call(call.callData...\n      SWAP3 \t\t\tcall.target.call(call.callData...\n      SWAP2 \t\t\tcall.target.call(call.callData...\n      SWAP1 \t\t\tcall.target.call(call.callData...\n      PUSH [tag] 122\t\t\tcall.target.call(call.callData...\n      JUMP [in]\t\t\tcall.target.call(call.callData...\n    tag 201\t\t\tcall.target.call(call.callData...\n      JUMPDEST \t\t\tcall.target.call(call.callData...\n      PUSH 0\t\t\tcall.target.call(call.callData...\n      PUSH 40\t\t\tcall.target.call(call.callData...\n      MLOAD \t\t\tcall.target.call(call.callData...\n      DUP1 \t\t\tcall.target.call(call.callData...\n      DUP4 \t\t\tcall.target.call(call.callData...\n      SUB \t\t\tcall.target.call(call.callData...\n      DUP2 \t\t\tcall.target.call(call.callData...\n      PUSH 0\t\t\tcall.target.call(call.callData...\n      DUP7 \t\t\tcall.target.call(call.callData...\n      GAS \t\t\tcall.target.call(call.callData...\n      CALL \t\t\tcall.target.call(call.callData...\n      SWAP2 \t\t\tcall.target.call(call.callData...\n      POP \t\t\tcall.target.call(call.callData...\n      POP \t\t\tcall.target.call(call.callData...\n      RETURNDATASIZE \t\t\tcall.target.call(call.callData...\n      DUP1 \t\t\tcall.target.call(call.callData...\n      PUSH 0\t\t\tcall.target.call(call.callData...\n      DUP2 \t\t\tcall.target.call(call.callData...\n      EQ \t\t\tcall.target.call(call.callData...\n      PUSH [tag] 204\t\t\tcall.target.call(call.callData...\n      JUMPI \t\t\tcall.target.call(call.callData...\n      PUSH 40\t\t\tcall.target.call(call.callData...\n      MLOAD \t\t\tcall.target.call(call.callData...\n      SWAP2 \t\t\tcall.target.call(call.callData...\n      POP \t\t\tcall.target.call(call.callData...\n      PUSH 1F\t\t\tcall.target.call(call.callData...\n      NOT \t\t\tcall.target.call(call.callData...\n      PUSH 3F\t\t\tcall.target.call(call.callData...\n      RETURNDATASIZE \t\t\tcall.target.call(call.callData...\n      ADD \t\t\tcall.target.call(call.callData...\n      AND \t\t\tcall.target.call(call.callData...\n      DUP3 \t\t\tcall.target.call(call.callData...\n      ADD \t\t\tcall.target.call(call.callData...\n      PUSH 40\t\t\tcall.target.call(call.callData...\n      MSTORE \t\t\tcall.target.call(call.callData...\n      RETURNDATASIZE \t\t\tcall.target.call(call.callData...\n      DUP3 \t\t\tcall.target.call(call.callData...\n      MSTORE \t\t\tcall.target.call(call.callData...\n      RETURNDATASIZE \t\t\tcall.target.call(call.callData...\n      PUSH 0\t\t\tcall.target.call(call.callData...\n      PUSH 20\t\t\tcall.target.call(call.callData...\n      DUP5 \t\t\tcall.target.call(call.callData...\n      ADD \t\t\tcall.target.call(call.callData...\n      RETURNDATACOPY \t\t\tcall.target.call(call.callData...\n      PUSH [tag] 203\t\t\tcall.target.call(call.callData...\n      JUMP \t\t\tcall.target.call(call.callData...\n    tag 204\t\t\tcall.target.call(call.callData...\n      JUMPDEST \t\t\tcall.target.call(call.callData...\n      PUSH 60\t\t\tcall.target.call(call.callData...\n      SWAP2 \t\t\tcall.target.call(call.callData...\n      POP \t\t\tcall.target.call(call.callData...\n    tag 203\t\t\tcall.target.call(call.callData...\n      JUMPDEST \t\t\tcall.target.call(call.callData...\n      POP \t\t\tcall.target.call(call.callData...\n      DUP3 \t\t\tresult\n      PUSH 0\t\t\tresult.success\n      ADD \t\t\tresult.success\n      DUP4 \t\t\tresult\n      PUSH 20\t\t\tresult.returnData\n      ADD \t\t\tresult.returnData\n      DUP3 \t\t\t(result.success, result.return...\n      SWAP1 \t\t\t(result.success, result.return...\n      MSTORE \t\t\t(result.success, result.return...\n      DUP3 \t\t\t(result.success, result.return...\n      ISZERO \t\t\t(result.success, result.return...\n      ISZERO \t\t\t(result.success, result.return...\n      ISZERO \t\t\t(result.success, result.return...\n      ISZERO \t\t\t(result.success, result.return...\n      DUP2 \t\t\t(result.success, result.return...\n      MSTORE \t\t\t(result.success, result.return...\n      POP \t\t\t(result.success, result.return...\n      POP \t\t\t(result.success, result.return...\n      POP \t\t\t(result.success, result.return...\n      DUP8 \t\t\trequireSuccess\n      ISZERO \t\t\tif (requireSuccess) require(re...\n      PUSH [tag] 205\t\t\tif (requireSuccess) require(re...\n      JUMPI \t\t\tif (requireSuccess) require(re...\n      DUP1 \t\t\tresult\n      PUSH 0\t\t\tresult.success\n      ADD \t\t\tresult.success\n      MLOAD \t\t\tresult.success\n      PUSH [tag] 206\t\t\trequire(result.success, \"Multi...\n      JUMPI \t\t\trequire(result.success, \"Multi...\n      PUSH 40\t\t\trequire(result.success, \"Multi...\n      MLOAD \t\t\trequire(result.success, \"Multi...\n      PUSH 8C379A000000000000000000000000000000000000000000000000000000000\t\t\trequire(result.success, \"Multi...\n      DUP2 \t\t\trequire(result.success, \"Multi...\n      MSTORE \t\t\trequire(result.success, \"Multi...\n      PUSH 4\t\t\trequire(result.success, \"Multi...\n      ADD \t\t\trequire(result.success, \"Multi...\n      PUSH [tag] 207\t\t\trequire(result.success, \"Multi...\n      SWAP1 \t\t\trequire(result.success, \"Multi...\n      PUSH [tag] 152\t\t\trequire(result.success, \"Multi...\n      JUMP [in]\t\t\trequire(result.success, \"Multi...\n    tag 207\t\t\trequire(result.success, \"Multi...\n      JUMPDEST \t\t\trequire(result.success, \"Multi...\n      PUSH 40\t\t\trequire(result.success, \"Multi...\n      MLOAD \t\t\trequire(result.success, \"Multi...\n      DUP1 \t\t\trequire(result.success, \"Multi...\n      SWAP2 \t\t\trequire(result.success, \"Multi...\n      SUB \t\t\trequire(result.success, \"Multi...\n      SWAP1 \t\t\trequire(result.success, \"Multi...\n      REVERT \t\t\trequire(result.success, \"Multi...\n    tag 206\t\t\trequire(result.success, \"Multi...\n      JUMPDEST \t\t\trequire(result.success, \"Multi...\n    tag 205\t\t\tif (requireSuccess) require(re...\n      JUMPDEST \t\t\tif (requireSuccess) require(re...\n      DUP2 \t\t\t++i\n      PUSH 1\t\t\t++i\n      ADD \t\t\t++i\n      SWAP2 \t\t\t++i\n      POP \t\t\t++i\n      POP \t\t\t{\\n            Result memory r...\n      PUSH [tag] 191\t\t\tfor (uint256 i = 0; i < length...\n      JUMP \t\t\tfor (uint256 i = 0; i < length...\n    tag 192\t\t\tfor (uint256 i = 0; i < length...\n      JUMPDEST \t\t\tfor (uint256 i = 0; i < length...\n      POP \t\t\tfor (uint256 i = 0; i < length...\n      POP \t\t\t{\\n        uint256 length = ca...\n      POP \t\t\t{\\n        uint256 length = ca...\n      SWAP4 \t\t\tfunction tryAggregate(bool req...\n      SWAP3 \t\t\tfunction tryAggregate(bool req...\n      POP \t\t\tfunction tryAggregate(bool req...\n      POP \t\t\tfunction tryAggregate(bool req...\n      POP \t\t\tfunction tryAggregate(bool req...\n      JUMP [out]\t\t\tfunction tryAggregate(bool req...\n    tag 91\t\t\tfunction blockAndAggregate(Cal...\n      JUMPDEST \t\t\tfunction blockAndAggregate(Cal...\n      PUSH 0\t\t\tuint256 blockNumber\n      DUP1 \t\t\tbytes32 blockHash\n      PUSH 60\t\t\tResult[] memory returnData\n      PUSH [tag] 209\t\t\ttryBlockAndAggregate(true, cal...\n      PUSH 1\t\t\ttrue\n      DUP7 \t\t\tcalls\n      DUP7 \t\t\tcalls\n      PUSH [tag] 50\t\t\ttryBlockAndAggregate\n      JUMP [in]\t\t\ttryBlockAndAggregate(true, cal...\n    tag 209\t\t\ttryBlockAndAggregate(true, cal...\n      JUMPDEST \t\t\ttryBlockAndAggregate(true, cal...\n      DUP1 \t\t\t(blockNumber, blockHash, retur...\n      SWAP4 \t\t\t(blockNumber, blockHash, retur...\n      POP \t\t\t(blockNumber, blockHash, retur...\n      DUP2 \t\t\t(blockNumber, blockHash, retur...\n      SWAP5 \t\t\t(blockNumber, blockHash, retur...\n      POP \t\t\t(blockNumber, blockHash, retur...\n      DUP3 \t\t\t(blockNumber, blockHash, retur...\n      SWAP6 \t\t\t(blockNumber, blockHash, retur...\n      POP \t\t\t(blockNumber, blockHash, retur...\n      POP \t\t\t(blockNumber, blockHash, retur...\n      POP \t\t\t(blockNumber, blockHash, retur...\n      POP \t\t\t(blockNumber, blockHash, retur...\n      SWAP3 \t\t\tfunction blockAndAggregate(Cal...\n      POP \t\t\tfunction blockAndAggregate(Cal...\n      SWAP3 \t\t\tfunction blockAndAggregate(Cal...\n      POP \t\t\tfunction blockAndAggregate(Cal...\n      SWAP3 \t\t\tfunction blockAndAggregate(Cal...\n      JUMP [out]\t\t\tfunction blockAndAggregate(Cal...\n    tag 97\t\t\tfunction getBlockHash(uint256 ...\n      JUMPDEST \t\t\tfunction getBlockHash(uint256 ...\n      PUSH 0\t\t\tbytes32 blockHash\n      DUP2 \t\t\tblockNumber\n      BLOCKHASH \t\t\tblockhash(blockNumber)\n      SWAP1 \t\t\tblockHash = blockhash(blockNum...\n      POP \t\t\tblockHash = blockhash(blockNum...\n      SWAP2 \t\t\tfunction getBlockHash(uint256 ...\n      SWAP1 \t\t\tfunction getBlockHash(uint256 ...\n      POP \t\t\tfunction getBlockHash(uint256 ...\n      JUMP [out]\t\t\tfunction getBlockHash(uint256 ...\n    tag 107\t\t\t\n      JUMPDEST \t\t\t\n      PUSH 40\t\t\t\n      MLOAD \t\t\t\n      DUP1 \t\t\t\n      PUSH 40\t\t\t\n      ADD \t\t\t\n      PUSH 40\t\t\t\n      MSTORE \t\t\t\n      DUP1 \t\t\t\n      PUSH 0\t\t\t\n      ISZERO \t\t\t\n      ISZERO \t\t\t\n      DUP2 \t\t\t\n      MSTORE \t\t\t\n      PUSH 20\t\t\t\n      ADD \t\t\t\n      PUSH 60\t\t\t\n      DUP2 \t\t\t\n      MSTORE \t\t\t\n      POP \t\t\t\n      SWAP1 \t\t\t\n      JUMP [out]\t\t\t\n    tag 211\t\t\t-License-Identifier: MIT\\nprag...\n      JUMPDEST \t\t\t-License-Identifier: MIT\\nprag...\n      PUSH 0\t\t\tity 0.8\n      DUP2 \t\t\tcall3\n      SWAP1 \t\t\ttitle Multicall3\n      POP \t\t\ttitle Multicall3\n      SWAP2 \t\t\t-License-Identifier: MIT\\nprag...\n      SWAP1 \t\t\t-License-Identifier: MIT\\nprag...\n      POP \t\t\t-License-Identifier: MIT\\nprag...\n      JUMP [out]\t\t\t-License-Identifier: MIT\\nprag...\n    tag 212\t\t\t Aggregate results from multip...\n      JUMPDEST \t\t\t Aggregate results from multip...\n      PUSH [tag] 267\t\t\tds-compatible\\n/// @dev A\n      DUP2 \t\t\t@dev \n      PUSH [tag] 211\t\t\tds-compatible\\n/// @dev A\n      JUMP [in]\t\t\tds-compatible\\n/// @dev A\n    tag 267\t\t\tds-compatible\\n/// @dev A\n      JUMPDEST \t\t\tds-compatible\\n/// @dev A\n      DUP3 \t\t\tckw\n      MSTORE \t\t\tall2 backwards-compatible\\n///...\n      POP \t\t\t Aggregate results from multip...\n      POP \t\t\t Aggregate results from multip...\n      JUMP [out]\t\t\t Aggregate results from multip...\n    tag 25\t\t\tods are marked `payable` to sa...\n      JUMPDEST \t\t\tods are marked `payable` to sa...\n      PUSH 0\t\t\tm>\\n/\n      PUSH 20\t\t\tak\n      DUP3 \t\t\te <joshua\n      ADD \t\t\tevine <joshua@make\n      SWAP1 \t\t\tJoshua Levine <joshua@make\n      POP \t\t\tJoshua Levine <joshua@make\n      PUSH [tag] 269\t\t\t/// @author Nick Johnson <arac...\n      PUSH 0\t\t\ti\n      DUP4 \t\t\tr Andreas\n      ADD \t\t\tuthor Andreas Big\n      DUP5 \t\t\tt>\\n///\n      PUSH [tag] 212\t\t\t/// @author Nick Johnson <arac...\n      JUMP [in]\t\t\t/// @author Nick Johnson <arac...\n    tag 269\t\t\t/// @author Nick Johnson <arac...\n      JUMPDEST \t\t\t/// @author Nick Johnson <arac...\n      SWAP3 \t\t\tods are marked `payable` to sa...\n      SWAP2 \t\t\tods are marked `payable` to sa...\n      POP \t\t\tods are marked `payable` to sa...\n      POP \t\t\tods are marked `payable` to sa...\n      JUMP [out]\t\t\tods are marked `payable` to sa...\n    tag 214\t\t\t\\n    struct Call {\\n        a...\n      JUMPDEST \t\t\t\\n    struct Call {\\n        a...\n      PUSH 0\t\t\tt\n      DUP1 \t\t\ts\n      REVERT \t\t\t  address ta\n    tag 215\t\t\t  bool allowFailure;\\n        ...\n      JUMPDEST \t\t\t  bool allowFailure;\\n        ...\n      PUSH 0\t\t\to\n      DUP1 \t\t\t \n      REVERT \t\t\t\\n        boo\n    tag 216\t\t\tre;\\n        uint256 value;\\n ...\n      JUMPDEST \t\t\tre;\\n        uint256 value;\\n ...\n      PUSH 0\t\t\ty\n      DUP1 \t\t\t \n      REVERT \t\t\t\\n        byt\n    tag 217\t\t\ta;\\n    }\\n\\n    /// @notice B...\n      JUMPDEST \t\t\ta;\\n    }\\n\\n    /// @notice B...\n      PUSH 0\t\t\to\n      DUP1 \t\t\ta\n      REVERT \t\t\t An array of\n    tag 218\t\t\ts\\n    /// @return blockNumber...\n      JUMPDEST \t\t\ts\\n    /// @return blockNumber...\n      PUSH 0\t\t\tr\n      DUP1 \t\t\t \n      REVERT \t\t\tData An arra\n    tag 219\t\t\tggregate(Call[] calldata calls...\n      JUMPDEST \t\t\tggregate(Call[] calldata calls...\n      PUSH 0\t\t\ta) {\\n   \n      DUP1 \t\t\t   blo\n      DUP4 \t\t\tgth\n      PUSH 1F\t\t\t256 \n      DUP5 \t\t\t    ui\n      ADD \t\t\t        uint256 l\n      SLT \t\t\ter;\\n        uint256 length \n      PUSH [tag] 277\t\t\tblock.number;\\n        uint256...\n      JUMPI \t\t\tblock.number;\\n        uint256...\n      PUSH [tag] 278\t\t\tlls.length;\\n        returnDat...\n      PUSH [tag] 216\t\t\tlls.length;\\n        returnDat...\n      JUMP [in]\t\t\tlls.length;\\n        returnDat...\n    tag 278\t\t\tlls.length;\\n        returnDat...\n      JUMPDEST \t\t\tlls.length;\\n        returnDat...\n    tag 277\t\t\tblock.number;\\n        uint256...\n      JUMPDEST \t\t\tblock.number;\\n        uint256...\n      DUP3 \t\t\t lengt\n      CALLDATALOAD \t\t\t56 i = 0; i < length\n      SWAP1 \t\t\tfor (uint256 i = 0; i < length\n      POP \t\t\tfor (uint256 i = 0; i < length\n      PUSH FFFFFFFFFFFFFFFF\t\t\tuccess;\\n          \n      DUP2 \t\t\t  bool\n      GT \t\t\t     bool success;\\n          ...\n      ISZERO \t\t\t        bool success;\\n       ...\n      PUSH [tag] 279\t\t\t        bool success;\\n       ...\n      JUMPI \t\t\t        bool success;\\n       ...\n      PUSH [tag] 280\t\t\tll = calls[i];\\n            (s...\n      PUSH [tag] 217\t\t\tll = calls[i];\\n            (s...\n      JUMP [in]\t\t\tll = calls[i];\\n            (s...\n    tag 280\t\t\tll = calls[i];\\n            (s...\n      JUMPDEST \t\t\tll = calls[i];\\n            (s...\n    tag 279\t\t\t        bool success;\\n       ...\n      JUMPDEST \t\t\t        bool success;\\n       ...\n      PUSH 20\t\t\t, \"M\n      DUP4 \t\t\t(succe\n      ADD \t\t\tuire(success, \"Mu\n      SWAP2 \t\t\t         require(success, \"Mu\n      POP \t\t\t         require(success, \"Mu\n      DUP4 \t\t\t++i\n      PUSH 20\t\t\tecke\n      DUP3 \t\t\t    un\n      MUL \t\t\t        unchecked\n      DUP4 \t\t\ted\");\\n  \n      ADD \t\t\tfailed\");\\n            uncheck...\n      GT \t\t\tll failed\");\\n            unch...\n      ISZERO \t\t\t call failed\");\\n            u...\n      PUSH [tag] 281\t\t\t call failed\");\\n            u...\n      JUMPI \t\t\t call failed\");\\n            u...\n      PUSH [tag] 282\t\t\t        }\\n    }\\n\\n    /// @n...\n      PUSH [tag] 218\t\t\t        }\\n    }\\n\\n    /// @n...\n      JUMP [in]\t\t\t        }\\n    }\\n\\n    /// @n...\n    tag 282\t\t\t        }\\n    }\\n\\n    /// @n...\n      JUMPDEST \t\t\t        }\\n    }\\n\\n    /// @n...\n    tag 281\t\t\t call failed\");\\n            u...\n      JUMPDEST \t\t\t call failed\");\\n            u...\n      SWAP3 \t\t\tggregate(Call[] calldata calls...\n      POP \t\t\tggregate(Call[] calldata calls...\n      SWAP3 \t\t\tggregate(Call[] calldata calls...\n      SWAP1 \t\t\tggregate(Call[] calldata calls...\n      POP \t\t\tggregate(Call[] calldata calls...\n      JUMP [out]\t\t\tggregate(Call[] calldata calls...\n    tag 28\t\t\tte calls without requiring suc...\n      JUMPDEST \t\t\tte calls without requiring suc...\n      PUSH 0\t\t\tram ca\n      DUP1 \t\t\ts An a\n      PUSH 20\t\t\tDa\n      DUP4 \t\t\teturn ret\n      DUP6 \t\t\t   /// \n      SUB \t\t\tts\\n    /// @return retu\n      SLT \t\t\ttructs\\n    /// @return return...\n      ISZERO \t\t\tl structs\\n    /// @return ret...\n      PUSH [tag] 284\t\t\tl structs\\n    /// @return ret...\n      JUMPI \t\t\tl structs\\n    /// @return ret...\n      PUSH [tag] 285\t\t\tn array of Result structs\\n   ...\n      PUSH [tag] 214\t\t\tn array of Result structs\\n   ...\n      JUMP [in]\t\t\tn array of Result structs\\n   ...\n    tag 285\t\t\tn array of Result structs\\n   ...\n      JUMPDEST \t\t\tn array of Result structs\\n   ...\n    tag 284\t\t\tl structs\\n    /// @return ret...\n      JUMPDEST \t\t\tl structs\\n    /// @return ret...\n      PUSH 0\t\t\t{\n      DUP4 \t\t\teturnData\n      ADD \t\t\try returnData) {\\n\n      CALLDATALOAD \t\t\tResult[] memory returnData) {\\...\n      PUSH FFFFFFFFFFFFFFFF\t\t\tls.length;\\n       \n      DUP2 \t\t\tth = c\n      GT \t\t\tength = calls.length;\\n       ...\n      ISZERO \t\t\t6 length = calls.length;\\n    ...\n      PUSH [tag] 286\t\t\t6 length = calls.length;\\n    ...\n      JUMPI \t\t\t6 length = calls.length;\\n    ...\n      PUSH [tag] 287\t\t\turnData = new Result[](length)...\n      PUSH [tag] 215\t\t\turnData = new Result[](length)...\n      JUMP [in]\t\t\turnData = new Result[](length)...\n    tag 287\t\t\turnData = new Result[](length)...\n      JUMPDEST \t\t\turnData = new Result[](length)...\n    tag 286\t\t\t6 length = calls.length;\\n    ...\n      JUMPDEST \t\t\t6 length = calls.length;\\n    ...\n      PUSH [tag] 288\t\t\t  Result memory result = retur...\n      DUP6 \t\t\tsult.re\n      DUP3 \t\t\tccess,\n      DUP7 \t\t\t (result.\n      ADD \t\t\t     (result.success, \n      PUSH [tag] 219\t\t\t  Result memory result = retur...\n      JUMP [in]\t\t\t  Result memory result = retur...\n    tag 288\t\t\t  Result memory result = retur...\n      JUMPDEST \t\t\t  Result memory result = retur...\n      SWAP3 \t\t\tgth;) {\\n            Result me...\n      POP \t\t\tgth;) {\\n            Result me...\n      SWAP3 \t\t\tgth;) {\\n            Result me...\n      POP \t\t\tgth;) {\\n            Result me...\n      POP \t\t\tlls) public payable returns (R...\n      SWAP3 \t\t\tte calls without requiring suc...\n      POP \t\t\tte calls without requiring suc...\n      SWAP3 \t\t\tte calls without requiring suc...\n      SWAP1 \t\t\tte calls without requiring suc...\n      POP \t\t\tte calls without requiring suc...\n      JUMP [out]\t\t\tte calls without requiring suc...\n    tag 220\t\t\tcall(call.callData);\\n        ...\n      JUMPDEST \t\t\tcall(call.callData);\\n        ...\n      PUSH 0\t\t\t call \n      DUP2 \t\t\tked {\n      MLOAD \t\t\tunchecked { \n      SWAP1 \t\t\t          unchecked { \n      POP \t\t\t          unchecked { \n      SWAP2 \t\t\tcall(call.callData);\\n        ...\n      SWAP1 \t\t\tcall(call.callData);\\n        ...\n      POP \t\t\tcall(call.callData);\\n        ...\n      JUMP [out]\t\t\tcall(call.callData);\\n        ...\n    tag 221\t\t\t  }\\n    }\\n\\n    /// @notice ...\n      JUMPDEST \t\t\t  }\\n    }\\n\\n    /// @notice ...\n      PUSH 0\t\t\ttryAggregat\n      DUP3 \t\t\tAn arr\n      DUP3 \t\t\tall\n      MSTORE \t\t\tparam calls An arra\n      PUSH 20\t\t\t blo\n      DUP3 \t\t\tetu\n      ADD \t\t\t/ @return bloc\n      SWAP1 \t\t\t structs\\n    /// @return bloc\n      POP \t\t\t structs\\n    /// @return bloc\n      SWAP3 \t\t\t  }\\n    }\\n\\n    /// @notice ...\n      SWAP2 \t\t\t  }\\n    }\\n\\n    /// @notice ...\n      POP \t\t\t  }\\n    }\\n\\n    /// @notice ...\n      POP \t\t\t  }\\n    }\\n\\n    /// @notice ...\n      JUMP [out]\t\t\t  }\\n    }\\n\\n    /// @notice ...\n    tag 222\t\t\tblock number where the calls w...\n      JUMPDEST \t\t\tblock number where the calls w...\n      PUSH 0\t\t\tk wh\n      DUP2 \t\t\texe\n      SWAP1 \t\t\tls were exe\n      POP \t\t\tls were exe\n      PUSH 20\t\t\tnDat\n      DUP3 \t\t\tret\n      ADD \t\t\turn returnData\n      SWAP1 \t\t\t/// @return returnData\n      POP \t\t\t/// @return returnData\n      SWAP2 \t\t\tblock number where the calls w...\n      SWAP1 \t\t\tblock number where the calls w...\n      POP \t\t\tblock number where the calls w...\n      JUMP [out]\t\t\tblock number where the calls w...\n    tag 223\t\t\tResult structs\\n    function t...\n      JUMPDEST \t\t\tResult structs\\n    function t...\n      PUSH 0\t\t\tckAndAg\n      DUP2 \t\t\tcalld\n      ISZERO \t\t\tCall[] callda\n      ISZERO \t\t\tccess, Call[] calldat\n      SWAP1 \t\t\tl requireSuccess, Call[] calld...\n      POP \t\t\tl requireSuccess, Call[] calld...\n      SWAP2 \t\t\tResult structs\\n    function t...\n      SWAP1 \t\t\tResult structs\\n    function t...\n      POP \t\t\tResult structs\\n    function t...\n      JUMP [out]\t\t\tResult structs\\n    function t...\n    tag 224\t\t\tlic payable returns (uint256 b...\n      JUMPDEST \t\t\tlic payable returns (uint256 b...\n      PUSH [tag] 294\t\t\temory returnData) {\\n \n      DUP2 \t\t\ta) {\\n\n      PUSH [tag] 223\t\t\temory returnData) {\\n \n      JUMP [in]\t\t\temory returnData) {\\n \n    tag 294\t\t\temory returnData) {\\n \n      JUMPDEST \t\t\temory returnData) {\\n \n      DUP3 \t\t\tt[]\n      MSTORE \t\t\t, Result[] memory returnData) ...\n      POP \t\t\tlic payable returns (uint256 b...\n      POP \t\t\tlic payable returns (uint256 b...\n      JUMP [out]\t\t\tlic payable returns (uint256 b...\n    tag 225\t\t\tumber = block.number;\\n       ...\n      JUMPDEST \t\t\tumber = block.number;\\n       ...\n      PUSH 0\t\t\t(block\n      DUP2 \t\t\t = tr\n      MLOAD \t\t\trnData = try\n      SWAP1 \t\t\t      returnData = try\n      POP \t\t\t      returnData = try\n      SWAP2 \t\t\tumber = block.number;\\n       ...\n      SWAP1 \t\t\tumber = block.number;\\n       ...\n      POP \t\t\tumber = block.number;\\n       ...\n      JUMP [out]\t\t\tumber = block.number;\\n       ...\n    tag 226\t\t\tuireSuccess, calls);\\n    }\\n\\...\n      JUMPDEST \t\t\tuireSuccess, calls);\\n    }\\n\\...\n      PUSH 0\t\t\tticall2\\n   \n      DUP3 \t\t\tcalls \n      DUP3 \t\t\tgat\n      MSTORE \t\t\te Aggregate calls a\n      PUSH 20\t\t\tate\\n\n      DUP3 \t\t\tggr\n      ADD \t\t\ttryAggregate\\n \n      SWAP1 \t\t\tfailures using tryAggregate\\n \n      POP \t\t\tfailures using tryAggregate\\n \n      SWAP3 \t\t\tuireSuccess, calls);\\n    }\\n\\...\n      SWAP2 \t\t\tuireSuccess, calls);\\n    }\\n\\...\n      POP \t\t\tuireSuccess, calls);\\n    }\\n\\...\n      POP \t\t\tuireSuccess, calls);\\n    }\\n\\...\n      JUMP [out]\t\t\tuireSuccess, calls);\\n    }\\n\\...\n    tag 227\t\t\tm calls An array of Call struc...\n      JUMPDEST \t\t\tm calls An array of Call struc...\n      PUSH 0\t\t\tc\n    tag 298\t\t\twhere the calls were executed\\...\n      JUMPDEST \t\t\twhere the calls were executed\\...\n      DUP4 \t\t\ts were\n      DUP2 \t\t\ta\n      LT \t\t\te calls were \n      ISZERO \t\t\twhere the calls were executed\\...\n      PUSH [tag] 300\t\t\twhere the calls were executed\\...\n      JUMPI \t\t\twhere the calls were executed\\...\n      DUP1 \t\t\te\n      DUP3 \t\t\twer\n      ADD \t\t\tlls were ex\n      MLOAD \t\t\tthe calls were exe\n      DUP2 \t\t\te\n      DUP5 \t\t\tck \n      ADD \t\t\t block wher\n      MSTORE \t\t\t of the block where the calls ...\n      PUSH 20\t\t\t/ \n      DUP2 \t\t\t \n      ADD \t\t\t\\n    /// @\n      SWAP1 \t\t\tcuted\\n    /// @\n      POP \t\t\tcuted\\n    /// @\n      PUSH [tag] 298\t\t\twhere the calls were executed\\...\n      JUMP \t\t\twhere the calls were executed\\...\n    tag 300\t\t\twhere the calls were executed\\...\n      JUMPDEST \t\t\twhere the calls were executed\\...\n      DUP4 \t\t\tata An\n      DUP2 \t\t\tr\n      GT \t\t\teturnData An \n      ISZERO \t\t\tn returnData An array of Resul...\n      PUSH [tag] 301\t\t\tn returnData An array of Resul...\n      JUMPI \t\t\tn returnData An array of Resul...\n      PUSH 0\t\t\tl\n      DUP5 \t\t\tlldata\n      DUP5 \t\t\t[] \n      ADD \t\t\tCall[] calldata \n      MSTORE \t\t\tregate(Call[] calldata call\n    tag 301\t\t\tn returnData An array of Resul...\n      JUMPDEST \t\t\tn returnData An array of Resul...\n      POP \t\t\tblockNumber The block number w...\n      POP \t\t\tm calls An array of Call struc...\n      POP \t\t\tm calls An array of Call struc...\n      POP \t\t\tm calls An array of Call struc...\n      JUMP [out]\t\t\tm calls An array of Call struc...\n    tag 228\t\t\trns (uint256 blockNumber, byte...\n      JUMPDEST \t\t\trns (uint256 blockNumber, byte...\n      PUSH 0\t\t\tsh, Re\n      PUSH 1F\t\t\tbe\n      NOT \t\t\tkNumber\n      PUSH 1F\t\t\t(b\n      DUP4 \t\t\t     \n      ADD \t\t\t {\\n        (bl\n      AND \t\t\tata) {\\n        (blockNumber,\n      SWAP1 \t\t\try returnData) {\\n        (blo...\n      POP \t\t\try returnData) {\\n        (blo...\n      SWAP2 \t\t\trns (uint256 blockNumber, byte...\n      SWAP1 \t\t\trns (uint256 blockNumber, byte...\n      POP \t\t\trns (uint256 blockNumber, byte...\n      JUMP [out]\t\t\trns (uint256 blockNumber, byte...\n    tag 229\t\t\treturnData) = tryBlockAndAggre...\n      JUMPDEST \t\t\treturnData) = tryBlockAndAggre...\n      PUSH 0\t\t\tega\n      PUSH [tag] 304\t\t\teturns success if required\\n  ...\n      DUP3 \t\t\t// @p\n      PUSH [tag] 225\t\t\teturns success if required\\n  ...\n      JUMP [in]\t\t\teturns success if required\\n  ...\n    tag 304\t\t\teturns success if required\\n  ...\n      JUMPDEST \t\t\teturns success if required\\n  ...\n      PUSH [tag] 305\t\t\tay of Call3 structs\\n    /// @...\n      DUP2 \t\t\tay of \n      DUP6 \t\t\tn a\n      PUSH [tag] 226\t\t\tay of Call3 structs\\n    /// @...\n      JUMP [in]\t\t\tay of Call3 structs\\n    /// @...\n    tag 305\t\t\tay of Call3 structs\\n    /// @...\n      JUMPDEST \t\t\tay of Call3 structs\\n    /// @...\n      SWAP4 \t\t\t An array of Call3 structs\\n  ...\n      POP \t\t\t An array of Call3 structs\\n  ...\n      PUSH [tag] 306\t\t\tucts\\n    function aggregate3(...\n      DUP2 \t\t\t calls\n      DUP6 \t\t\tlda\n      PUSH 20\t\t\t3[] \n      DUP7 \t\t\te3(Ca\n      ADD \t\t\tegate3(Call3[] c\n      PUSH [tag] 227\t\t\tucts\\n    function aggregate3(...\n      JUMP [in]\t\t\tucts\\n    function aggregate3(...\n    tag 306\t\t\tucts\\n    function aggregate3(...\n      JUMPDEST \t\t\tucts\\n    function aggregate3(...\n      PUSH [tag] 307\t\t\tResult[] memory returnData) {\n      DUP2 \t\t\tData) \n      PUSH [tag] 228\t\t\tResult[] memory returnData) {\n      JUMP [in]\t\t\tResult[] memory returnData) {\n    tag 307\t\t\tResult[] memory returnData) {\n      JUMPDEST \t\t\tResult[] memory returnData) {\n      DUP5 \t\t\trns\n      ADD \t\t\treturns (Result[] memory retur...\n      SWAP2 \t\t\tayable returns (Result[] memor...\n      POP \t\t\tayable returns (Result[] memor...\n      POP \t\t\te calls, ensuring each returns...\n      SWAP3 \t\t\treturnData) = tryBlockAndAggre...\n      SWAP2 \t\t\treturnData) = tryBlockAndAggre...\n      POP \t\t\treturnData) = tryBlockAndAggre...\n      POP \t\t\treturnData) = tryBlockAndAggre...\n      JUMP [out]\t\t\treturnData) = tryBlockAndAggre...\n    tag 230\t\t\t(length);\\n        Call3 calld...\n      JUMPDEST \t\t\t(length);\\n        Call3 calld...\n      PUSH 0\t\t\temo\n      PUSH 40\t\t\t    \n      DUP4 \t\t\t   \n      ADD \t\t\t];\\n           \n      PUSH 0\t\t\tl(ca\n      DUP4 \t\t\tget.c\n      ADD \t\t\t.target.call(cal\n      MLOAD \t\t\t calli.target.call(call\n      PUSH [tag] 309\t\t\t            assembly {\\n      ...\n      PUSH 0\t\t\t the\n      DUP7 \t\t\trt \n      ADD \t\t\tRevert if the \n      DUP3 \t\t\t           /\n      PUSH [tag] 224\t\t\t            assembly {\\n      ...\n      JUMP [in]\t\t\t            assembly {\\n      ...\n    tag 309\t\t\t            assembly {\\n      ...\n      JUMPDEST \t\t\t            assembly {\\n      ...\n      POP \t\t\talls[i];\\n            (result....\n      PUSH 20\t\t\tx20)\n      DUP4 \t\t\talli,\n      ADD \t\t\tdd(calli, 0x20))\n      MLOAD \t\t\tload(add(calli, 0x20))`\n      DUP5 \t\t\t if\n      DUP3 \t\t\t    \n      SUB \t\t\t           if \n      PUSH 20\t\t\t`\\n  \n      DUP7 \t\t\tsul\n      ADD \t\t\td(result)`\\n   \n      MSTORE \t\t\t:= mload(result)`\\n           ...\n      PUSH [tag] 310\t\t\t(add(calli, 0x20)), mload(resu...\n      DUP3 \t\t\tErro\n      DUP3 \t\t\t      // set\n      PUSH [tag] 229\t\t\t(add(calli, 0x20)), mload(resu...\n      JUMP [in]\t\t\t(add(calli, 0x20)), mload(resu...\n    tag 310\t\t\t(add(calli, 0x20)), mload(resu...\n      JUMPDEST \t\t\t(add(calli, 0x20)), mload(resu...\n      SWAP2 \t\t\tdataload(add(calli, 0x20)), ml...\n      POP \t\t\tdataload(add(calli, 0x20)), ml...\n      POP \t\t\te is not allowed\\n            ...\n      DUP1 \t\t\t(byt\n      SWAP2 \t\t\tbytes32(byt\n      POP \t\t\tbytes32(byt\n      POP \t\t\t result = returnData[i];\\n    ...\n      SWAP3 \t\t\t(length);\\n        Call3 calld...\n      SWAP2 \t\t\t(length);\\n        Call3 calld...\n      POP \t\t\t(length);\\n        Call3 calld...\n      POP \t\t\t(length);\\n        Call3 calld...\n      JUMP [out]\t\t\t(length);\\n        Call3 calld...\n    tag 231\t\t\t6(\"Error(string)\")))\\n        ...\n      JUMPDEST \t\t\t6(\"Error(string)\")))\\n        ...\n      PUSH 0\t\t\t0000000)\\n \n      PUSH [tag] 312\t\t\t data offset\\n                ...\n      DUP4 \t\t\t000\n      DUP4 \t\t\t000000\n      PUSH [tag] 230\t\t\t data offset\\n                ...\n      JUMP [in]\t\t\t data offset\\n                ...\n    tag 312\t\t\t data offset\\n                ...\n      JUMPDEST \t\t\t data offset\\n                ...\n      SWAP1 \t\t\t        // set data offset\\n  ...\n      POP \t\t\t        // set data offset\\n  ...\n      SWAP3 \t\t\t6(\"Error(string)\")))\\n        ...\n      SWAP2 \t\t\t6(\"Error(string)\")))\\n        ...\n      POP \t\t\t6(\"Error(string)\")))\\n        ...\n      POP \t\t\t6(\"Error(string)\")))\\n        ...\n      JUMP [out]\t\t\t6(\"Error(string)\")))\\n        ...\n    tag 232\t\t\t0000000020)\\n                 ...\n      JUMPDEST \t\t\t0000000020)\\n                 ...\n      PUSH 0\t\t\t24, \n      PUSH 20\t\t\t0000\n      DUP3 \t\t\t000\n      ADD \t\t\t00000000000000\n      SWAP1 \t\t\t0000000000000000000000\n      POP \t\t\t0000000000000000000000\n      SWAP2 \t\t\t0000000020)\\n                 ...\n      SWAP1 \t\t\t0000000020)\\n                 ...\n      POP \t\t\t0000000020)\\n                 ...\n      JUMP [out]\t\t\t0000000020)\\n                 ...\n    tag 233\t\t\t bytes32(abi.encodePacked(\"Mul...\n      JUMPDEST \t\t\t bytes32(abi.encodePacked(\"Mul...\n      PUSH 0\t\t\t   \n      PUSH [tag] 315\t\t\t)\\n                }\\n        ...\n      DUP3 \t\t\t   }\\n\n      PUSH [tag] 220\t\t\t)\\n                }\\n        ...\n      JUMP [in]\t\t\t)\\n                }\\n        ...\n    tag 315\t\t\t)\\n                }\\n        ...\n      JUMPDEST \t\t\t)\\n                }\\n        ...\n      PUSH [tag] 316\t\t\totice Aggregate calls with a m...\n      DUP2 \t\t\the cal\n      DUP6 \t\t\t of\n      PUSH [tag] 221\t\t\totice Aggregate calls with a m...\n      JUMP [in]\t\t\totice Aggregate calls with a m...\n    tag 316\t\t\totice Aggregate calls with a m...\n      JUMPDEST \t\t\totice Aggregate calls with a m...\n      SWAP4 \t\t\t /// @notice Aggregate calls w...\n      POP \t\t\t /// @notice Aggregate calls w...\n      DUP4 \t\t\tls \n      PUSH 20\t\t\tturn\n      DUP3 \t\t\t /// @\n      MUL \t\t\t\\n    /// @return \n      DUP6 \t\t\truc\n      ADD \t\t\te structs\\n    /// @return r\n      PUSH [tag] 317\t\t\tsult structs\\n    function agg...\n      DUP6 \t\t\tublic\n      PUSH [tag] 222\t\t\tsult structs\\n    function agg...\n      JUMP [in]\t\t\tsult structs\\n    function agg...\n    tag 317\t\t\tsult structs\\n    function agg...\n      JUMPDEST \t\t\tsult structs\\n    function agg...\n      DUP1 \t\t\t[] memo\n      PUSH 0\t\t\t \n    tag 318\t\t\tData) {\\n        uint256 valAc...\n      JUMPDEST \t\t\tData) {\\n        uint256 valAc...\n      DUP6 \t\t\talAccu\n      DUP2 \t\t\t6\n      LT \t\t\tt256 valAccum\n      ISZERO \t\t\tData) {\\n        uint256 valAc...\n      PUSH [tag] 320\t\t\tData) {\\n        uint256 valAc...\n      JUMPI \t\t\tData) {\\n        uint256 valAc...\n      DUP5 \t\t\ta = new R\n      DUP5 \t\t\turnD\n      SUB \t\t\t returnData = new Re\n      DUP10 \t\t\t   \n      MSTORE \t\t\tgth;\\n        returnData = new...\n      DUP2 \t\t\tta cal\n      MLOAD \t\t\tcalldata call\n      PUSH [tag] 321\t\t\t56 i = 0; i < length;) {\\n    ...\n      DUP6 \t\t\t;\\n  \n      DUP3 \t\t\talli = calls[\n      PUSH [tag] 231\t\t\t56 i = 0; i < length;) {\\n    ...\n      JUMP [in]\t\t\t56 i = 0; i < length;) {\\n    ...\n    tag 321\t\t\t56 i = 0; i < length;) {\\n    ...\n      JUMPDEST \t\t\t56 i = 0; i < length;) {\\n    ...\n      SWAP5 \t\t\tr (uint256 i = 0; i < length;)...\n      POP \t\t\tr (uint256 i = 0; i < length;)...\n      PUSH [tag] 322\t\t\tcalli.value;\\n            // H...\n      DUP4 \t\t\tn befo\n      PUSH [tag] 232\t\t\tcalli.value;\\n            // H...\n      JUMP [in]\t\t\tcalli.value;\\n            // H...\n    tag 322\t\t\tcalli.value;\\n            // H...\n      JUMPDEST \t\t\tcalli.value;\\n            // H...\n      SWAP3 \t\t\t256 val = calli.value;\\n      ...\n      POP \t\t\t256 val = calli.value;\\n      ...\n      PUSH 20\t\t\t    \n      DUP11 \t\t\tas\\n\n      ADD \t\t\tndreas\\n       \n      SWAP10 \t\t\tows - andreas\\n       \n      POP \t\t\tows - andreas\\n       \n      POP \t\t\tth = calls.length;\\n        re...\n      PUSH 1\t\t\t \n      DUP2 \t\t\t \n      ADD \t\t\t        u\n      SWAP1 \t\t\ttor;\\n        u\n      POP \t\t\ttor;\\n        u\n      PUSH [tag] 318\t\t\tData) {\\n        uint256 valAc...\n      JUMP \t\t\tData) {\\n        uint256 valAc...\n    tag 320\t\t\tData) {\\n        uint256 valAc...\n      JUMPDEST \t\t\tData) {\\n        uint256 valAc...\n      POP \t\t\t) {\\n        ui\n      DUP3 \t\t\tsten\n      SWAP8 \t\t\t in existen\n      POP \t\t\t in existen\n      DUP8 \t\t\tze \n      SWAP6 \t\t\t0^76 size \n      POP \t\t\t0^76 size \n      POP \t\t\t       revert(0x00, 0x64)\\n   ...\n      POP \t\t\t       revert(0x00, 0x64)\\n   ...\n      POP \t\t\t       revert(0x00, 0x64)\\n   ...\n      POP \t\t\t       revert(0x00, 0x64)\\n   ...\n      POP \t\t\t       revert(0x00, 0x64)\\n   ...\n      SWAP3 \t\t\t bytes32(abi.encodePacked(\"Mul...\n      SWAP2 \t\t\t bytes32(abi.encodePacked(\"Mul...\n      POP \t\t\t bytes32(abi.encodePacked(\"Mul...\n      POP \t\t\t bytes32(abi.encodePacked(\"Mul...\n      JUMP [out]\t\t\t bytes32(abi.encodePacked(\"Mul...\n    tag 31\t\t\t a uint256\\n            unchec...\n      JUMPDEST \t\t\t a uint256\\n            unchec...\n      PUSH 0\t\t\t    \n      PUSH 20\t\t\tnd\n      DUP3 \t\t\tall fails\n      ADD \t\t\the call fails and \n      SWAP1 \t\t\tert if the call fails and \n      POP \t\t\tert if the call fails and \n      DUP2 \t\t\towFailure\n      DUP2 \t\t\t/ `a\n      SUB \t\t\t   // `allowFailure \n      PUSH 0\t\t\t \n      DUP4 \t\t\td\\n       \n      ADD \t\t\tlowed\\n           \n      MSTORE \t\t\t not allowed\\n                ...\n      PUSH [tag] 324\t\t\td(calli, 0x20))` and `success ...\n      DUP2 \t\t\t// s\n      DUP5 \t\t\t      \n      PUSH [tag] 233\t\t\td(calli, 0x20))` and `success ...\n      JUMP [in]\t\t\td(calli, 0x20))` and `success ...\n    tag 324\t\t\td(calli, 0x20))` and `success ...\n      JUMPDEST \t\t\td(calli, 0x20))` and `success ...\n      SWAP1 \t\t\taload(add(calli, 0x20))` and `...\n      POP \t\t\taload(add(calli, 0x20))` and `...\n      SWAP3 \t\t\t a uint256\\n            unchec...\n      SWAP2 \t\t\t a uint256\\n            unchec...\n      POP \t\t\t a uint256\\n            unchec...\n      POP \t\t\t a uint256\\n            unchec...\n      JUMP [out]\t\t\t a uint256\\n            unchec...\n    tag 234\t\t\teccak256(\"Error(string)\")))\\n ...\n      JUMPDEST \t\t\teccak256(\"Error(string)\")))\\n ...\n      PUSH 0\t\t\t00000000\n      DUP1 \t\t\t000000\n      DUP4 \t\t\tt d\n      PUSH 1F\t\t\t  //\n      DUP5 \t\t\t      \n      ADD \t\t\t              // \n      SLT \t\t\t                  // set da\n      PUSH [tag] 326\t\t\t000000)\\n                    /...\n      JUMPI \t\t\t000000)\\n                    /...\n      PUSH [tag] 327\t\t\tffset\\n                    mst...\n      PUSH [tag] 216\t\t\tffset\\n                    mst...\n      JUMP [in]\t\t\tffset\\n                    mst...\n    tag 327\t\t\tffset\\n                    mst...\n      JUMPDEST \t\t\tffset\\n                    mst...\n    tag 326\t\t\t000000)\\n                    /...\n      JUMPDEST \t\t\t000000)\\n                    /...\n      DUP3 \t\t\t      \n      CALLDATALOAD \t\t\t00020)\\n             \n      SWAP1 \t\t\t000000000000020)\\n            ...\n      POP \t\t\t000000000000020)\\n            ...\n      PUSH FFFFFFFFFFFFFFFF\t\t\t revert string\\n   \n      DUP2 \t\t\tength \n      GT \t\t\tt length of revert string\\n   ...\n      ISZERO \t\t\t set length of revert string\\n...\n      PUSH [tag] 328\t\t\t set length of revert string\\n...\n      JUMPI \t\t\t set length of revert string\\n...\n      PUSH [tag] 329\t\t\t             mstore(0x24, 0x00...\n      PUSH [tag] 217\t\t\t             mstore(0x24, 0x00...\n      JUMP [in]\t\t\t             mstore(0x24, 0x00...\n    tag 329\t\t\t             mstore(0x24, 0x00...\n      JUMPDEST \t\t\t             mstore(0x24, 0x00...\n    tag 328\t\t\t set length of revert string\\n...\n      JUMPDEST \t\t\t set length of revert string\\n...\n      PUSH 20\t\t\t// s\n      DUP4 \t\t\t      \n      ADD \t\t\t            // se\n      SWAP2 \t\t\t17)\\n                    // se\n      POP \t\t\t17)\\n                    // se\n      DUP4 \t\t\tall\n      PUSH 20\t\t\t(\"Mu\n      DUP3 \t\t\tdePack\n      MUL \t\t\tencodePacked(\"Mul\n      DUP4 \t\t\ttes32(ab\n      ADD \t\t\t: bytes32(abi.encodePacked(\"Mu...\n      GT \t\t\ting: bytes32(abi.encodePacked(...\n      ISZERO \t\t\tstring: bytes32(abi.encodePack...\n      PUSH [tag] 330\t\t\tstring: bytes32(abi.encodePack...\n      JUMPI \t\t\tstring: bytes32(abi.encodePack...\n      PUSH [tag] 331\t\t\tall failed\"))\\n               ...\n      PUSH [tag] 218\t\t\tall failed\"))\\n               ...\n      JUMP [in]\t\t\tall failed\"))\\n               ...\n    tag 331\t\t\tall failed\"))\\n               ...\n      JUMPDEST \t\t\tall failed\"))\\n               ...\n    tag 330\t\t\tstring: bytes32(abi.encodePack...\n      JUMPDEST \t\t\tstring: bytes32(abi.encodePack...\n      SWAP3 \t\t\teccak256(\"Error(string)\")))\\n ...\n      POP \t\t\teccak256(\"Error(string)\")))\\n ...\n      SWAP3 \t\t\teccak256(\"Error(string)\")))\\n ...\n      SWAP1 \t\t\teccak256(\"Error(string)\")))\\n ...\n      POP \t\t\teccak256(\"Error(string)\")))\\n ...\n      JUMP [out]\t\t\teccak256(\"Error(string)\")))\\n ...\n    tag 34\t\t\t64000000000000000000)\\n       ...\n      JUMPDEST \t\t\t64000000000000000000)\\n       ...\n      PUSH 0\t\t\tchecke\n      DUP1 \t\t\t{ ++i;\n      PUSH 20\t\t\tth\n      DUP4 \t\t\t, make su\n      DUP6 \t\t\t/ Final\n      SUB \t\t\t   // Finally, make sur\n      SLT \t\t\t       // Finally, make sure t...\n      ISZERO \t\t\t}\\n        // Finally, make su...\n      PUSH [tag] 333\t\t\t}\\n        // Finally, make su...\n      JUMPI \t\t\t}\\n        // Finally, make su...\n      PUSH [tag] 334\t\t\tg.value = SUM(call[0...i].valu...\n      PUSH [tag] 214\t\t\tg.value = SUM(call[0...i].valu...\n      JUMP [in]\t\t\tg.value = SUM(call[0...i].valu...\n    tag 334\t\t\tg.value = SUM(call[0...i].valu...\n      JUMPDEST \t\t\tg.value = SUM(call[0...i].valu...\n    tag 333\t\t\t}\\n        // Finally, make su...\n      JUMPDEST \t\t\t}\\n        // Finally, make su...\n      PUSH 0\t\t\tk\n      DUP4 \t\t\tns the bl\n      ADD \t\t\teturns the block \n      CALLDATALOAD \t\t\t/// @notice Returns the block ...\n      PUSH FFFFFFFFFFFFFFFF\t\t\tber\\n    /// @param\n      DUP2 \t\t\tlock n\n      GT \t\t\tn block number\\n    /// @param...\n      ISZERO \t\t\tiven block number\\n    /// @pa...\n      PUSH [tag] 335\t\t\tiven block number\\n    /// @pa...\n      JUMPI \t\t\tiven block number\\n    /// @pa...\n      PUSH [tag] 336\t\t\tckNumber The block number\\n   ...\n      PUSH [tag] 215\t\t\tckNumber The block number\\n   ...\n      JUMP [in]\t\t\tckNumber The block number\\n   ...\n    tag 336\t\t\tckNumber The block number\\n   ...\n      JUMPDEST \t\t\tckNumber The block number\\n   ...\n    tag 335\t\t\tiven block number\\n    /// @pa...\n      JUMPDEST \t\t\tiven block number\\n    /// @pa...\n      PUSH [tag] 337\t\t\t{\\n        blockHash = blockha...\n      DUP6 \t\t\t\\n    fu\n      DUP3 \t\t\tck num\n      DUP7 \t\t\trns the b\n      ADD \t\t\tReturns the block numb\n      PUSH [tag] 234\t\t\t{\\n        blockHash = blockha...\n      JUMP [in]\t\t\t{\\n        blockHash = blockha...\n    tag 337\t\t\t{\\n        blockHash = blockha...\n      JUMPDEST \t\t\t{\\n        blockHash = blockha...\n      SWAP3 \t\t\tytes32 blockHash) {\\n        b...\n      POP \t\t\tytes32 blockHash) {\\n        b...\n      SWAP3 \t\t\tytes32 blockHash) {\\n        b...\n      POP \t\t\tytes32 blockHash) {\\n        b...\n      POP \t\t\tvalue mismatch\");\\n    }\\n\\n  ...\n      SWAP3 \t\t\t64000000000000000000)\\n       ...\n      POP \t\t\t64000000000000000000)\\n       ...\n      SWAP3 \t\t\t64000000000000000000)\\n       ...\n      SWAP1 \t\t\t64000000000000000000)\\n       ...\n      POP \t\t\t64000000000000000000)\\n       ...\n      JUMP [out]\t\t\t64000000000000000000)\\n       ...\n    tag 235\t\t\tpublic view returns (uint256 b...\n      JUMPDEST \t\t\tpublic view returns (uint256 b...\n      PUSH 0\t\t\ter;\\n  \n      DUP2 \t\t\t the \n      MLOAD \t\t\teturns the b\n      SWAP1 \t\t\t @notice Returns the b\n      POP \t\t\t @notice Returns the b\n      SWAP2 \t\t\tpublic view returns (uint256 b...\n      SWAP1 \t\t\tpublic view returns (uint256 b...\n      POP \t\t\tpublic view returns (uint256 b...\n      JUMP [out]\t\t\tpublic view returns (uint256 b...\n    tag 236\t\t\t\\n    function getCurrentBlock...\n      JUMPDEST \t\t\t\\n    function getCurrentBlock...\n      PUSH 0\t\t\tinbase;\\n   \n      DUP3 \t\t\turns t\n      DUP3 \t\t\te R\n      MSTORE \t\t\t @notice Returns th\n      PUSH 20\t\t\tetCu\n      DUP3 \t\t\tion\n      ADD \t\t\tunction getCur\n      SWAP1 \t\t\tifficulty\\n    function getCur\n      POP \t\t\tifficulty\\n    function getCur\n      SWAP3 \t\t\t\\n    function getCurrentBlock...\n      SWAP2 \t\t\t\\n    function getCurrentBlock...\n      POP \t\t\t\\n    function getCurrentBlock...\n      POP \t\t\t\\n    function getCurrentBlock...\n      JUMP [out]\t\t\t\\n    function getCurrentBlock...\n    tag 237\t\t\tficulty() public view returns ...\n      JUMPDEST \t\t\tficulty() public view returns ...\n      PUSH 0\t\t\tock.\n      DUP2 \t\t\t   \n      SWAP1 \t\t\t\\n    }\\n\\n   \n      POP \t\t\t\\n    }\\n\\n   \n      PUSH 20\t\t\tock \n      DUP3 \t\t\the \n      ADD \t\t\tns the block g\n      SWAP1 \t\t\tce Returns the block g\n      POP \t\t\tce Returns the block g\n      SWAP2 \t\t\tficulty() public view returns ...\n      SWAP1 \t\t\tficulty() public view returns ...\n      POP \t\t\tficulty() public view returns ...\n      JUMP [out]\t\t\tficulty() public view returns ...\n    tag 238\t\t\tfunction getCurrentBlockGasLim...\n      JUMPDEST \t\t\tfunction getCurrentBlockGasLim...\n      PUSH 0\t\t\tlimit = bl\n      PUSH [tag] 342\t\t\t/// @notice Returns the block ...\n      DUP4 \t\t\tent\n      DUP4 \t\t\t getCu\n      PUSH [tag] 229\t\t\t/// @notice Returns the block ...\n      JUMP [in]\t\t\t/// @notice Returns the block ...\n    tag 342\t\t\t/// @notice Returns the block ...\n      JUMPDEST \t\t\t/// @notice Returns the block ...\n      SWAP1 \t\t\tt;\\n    }\\n\\n    /// @notice R...\n      POP \t\t\tt;\\n    }\\n\\n    /// @notice R...\n      SWAP3 \t\t\tfunction getCurrentBlockGasLim...\n      SWAP2 \t\t\tfunction getCurrentBlockGasLim...\n      POP \t\t\tfunction getCurrentBlockGasLim...\n      POP \t\t\tfunction getCurrentBlockGasLim...\n      JUMP [out]\t\t\tfunction getCurrentBlockGasLim...\n    tag 239\t\t\tp() public view returns (uint2...\n      JUMPDEST \t\t\tp() public view returns (uint2...\n      PUSH 0\t\t\tmp;\\n\n      PUSH 20\t\t\tns t\n      DUP3 \t\t\tRet\n      ADD \t\t\tice Returns th\n      SWAP1 \t\t\t/// @notice Returns th\n      POP \t\t\t/// @notice Returns th\n      SWAP2 \t\t\tp() public view returns (uint2...\n      SWAP1 \t\t\tp() public view returns (uint2...\n      POP \t\t\tp() public view returns (uint2...\n      JUMP [out]\t\t\tp() public view returns (uint2...\n    tag 240\t\t\t function getEthBalance(addres...\n      JUMPDEST \t\t\t function getEthBalance(addres...\n      PUSH 0\t\t\trns\n      PUSH [tag] 345\t\t\tt block\\n    function getLastB...\n      DUP3 \t\t\tns (b\n      PUSH [tag] 235\t\t\tt block\\n    function getLastB...\n      JUMP [in]\t\t\tt block\\n    function getLastB...\n    tag 345\t\t\tt block\\n    function getLastB...\n      JUMPDEST \t\t\tt block\\n    function getLastB...\n      PUSH [tag] 346\t\t\t {\\n        unchecked {\\n     ...\n      DUP2 \t\t\t  }\\n\\n \n      DUP6 \t\t\t }\\n\n      PUSH [tag] 236\t\t\t {\\n        unchecked {\\n     ...\n      JUMP [in]\t\t\t {\\n        unchecked {\\n     ...\n    tag 346\t\t\t {\\n        unchecked {\\n     ...\n      JUMPDEST \t\t\t {\\n        unchecked {\\n     ...\n      SWAP4 \t\t\tckHash) {\\n        unchecked {...\n      POP \t\t\tckHash) {\\n        unchecked {...\n      DUP4 \t\t\te f\n      PUSH 20\t\t\treve\n      DUP3 \t\t\tice Ca\n      MUL \t\t\t@notice Can rever\n      DUP6 \t\t\t //\n      ADD \t\t\t\\n    /// @notice Can revert\n      PUSH [tag] 347\t\t\ts not implemented by the given...\n      DUP6 \t\t\te() p\n      PUSH [tag] 237\t\t\ts not implemented by the given...\n      JUMP [in]\t\t\ts not implemented by the given...\n    tag 347\t\t\ts not implemented by the given...\n      JUMPDEST \t\t\ts not implemented by the given...\n      DUP1 \t\t\t256 bas\n      PUSH 0\t\t\t=\n    tag 348\t\t\t       basefee = block.basefee...\n      JUMPDEST \t\t\t       basefee = block.basefee...\n      DUP6 \t\t\tsefee;\n      DUP2 \t\t\t.\n      LT \t\t\tock.basefee;\\n\n      ISZERO \t\t\t       basefee = block.basefee...\n      PUSH [tag] 350\t\t\t       basefee = block.basefee...\n      JUMPI \t\t\t       basefee = block.basefee...\n      DUP5 \t\t\tnId() pub\n      DUP5 \t\t\tetCh\n      SUB \t\t\ton getChainId() publ\n      DUP10 \t\t\tunc\n      MSTORE \t\t\td\\n    function getChainId() p...\n      DUP2 \t\t\t   cha\n      MLOAD \t\t\t\\n        chai\n      PUSH [tag] 351\t\t\t    }\\n}\\n\n      DUP6 \t\t\t\n      DUP3 \t\t\t\n      PUSH [tag] 238\t\t\t    }\\n}\\n\n      JUMP [in]\t\t\t    }\\n}\\n\n    tag 351\t\t\t    }\\n}\\n\n      JUMPDEST \t\t\t    }\\n}\\n\n      SWAP5 \t\t\thainid;\\n    }\\n}\\n\n      POP \t\t\thainid;\\n    }\\n}\\n\n      PUSH [tag] 352\t\t\t\n      DUP4 \t\t\t\n      PUSH [tag] 239\t\t\t\n      JUMP [in]\t\t\t\n    tag 352\t\t\t\n      JUMPDEST \t\t\t\n      SWAP3 \t\t\t\n      POP \t\t\t\n      PUSH 20\t\t\t\n      DUP11 \t\t\t\n      ADD \t\t\t\n      SWAP10 \t\t\t\n      POP \t\t\t\n      POP \t\t\tns the chain id\\n    function ...\n      PUSH 1\t\t\t@\n      DUP2 \t\t\t/\n      ADD \t\t\t   /// @n\n      SWAP1 \t\t\t }\\n\\n    /// @n\n      POP \t\t\t }\\n\\n    /// @n\n      PUSH [tag] 348\t\t\t       basefee = block.basefee...\n      JUMP \t\t\t       basefee = block.basefee...\n    tag 350\t\t\t       basefee = block.basefee...\n      JUMPDEST \t\t\t       basefee = block.basefee...\n      POP \t\t\t   basefee = b\n      DUP3 \t\t\t\n      SWAP8 \t\t\t\n      POP \t\t\t\n      DUP8 \t\t\t\n      SWAP6 \t\t\t\n      POP \t\t\t\n      POP \t\t\the block hash of the last bloc...\n      POP \t\t\the block hash of the last bloc...\n      POP \t\t\the block hash of the last bloc...\n      POP \t\t\the block hash of the last bloc...\n      POP \t\t\the block hash of the last bloc...\n      SWAP3 \t\t\t function getEthBalance(addres...\n      SWAP2 \t\t\t function getEthBalance(addres...\n      POP \t\t\t function getEthBalance(addres...\n      POP \t\t\t function getEthBalance(addres...\n      JUMP [out]\t\t\t function getEthBalance(addres...\n    tag 37\t\t\t\n      JUMPDEST \t\t\t\n      PUSH 0\t\t\t\n      PUSH 40\t\t\t\n      DUP3 \t\t\t\n      ADD \t\t\t\n      SWAP1 \t\t\t\n      POP \t\t\t\n      PUSH [tag] 354\t\t\t\n      PUSH 0\t\t\t\n      DUP4 \t\t\t\n      ADD \t\t\t\n      DUP6 \t\t\t\n      PUSH [tag] 212\t\t\t\n      JUMP [in]\t\t\t\n    tag 354\t\t\t\n      JUMPDEST \t\t\t\n      DUP2 \t\t\t\n      DUP2 \t\t\t\n      SUB \t\t\t\n      PUSH 20\t\t\t\n      DUP4 \t\t\t\n      ADD \t\t\t\n      MSTORE \t\t\t\n      PUSH [tag] 355\t\t\t\n      DUP2 \t\t\t\n      DUP5 \t\t\t\n      PUSH [tag] 240\t\t\t\n      JUMP [in]\t\t\t\n    tag 355\t\t\t\n      JUMPDEST \t\t\t\n      SWAP1 \t\t\t\n      POP \t\t\t\n      SWAP4 \t\t\t\n      SWAP3 \t\t\t\n      POP \t\t\t\n      POP \t\t\t\n      POP \t\t\t\n      JUMP [out]\t\t\t\n    tag 241\t\t\t\n      JUMPDEST \t\t\t\n      PUSH 0\t\t\t\n      DUP2 \t\t\t\n      SWAP1 \t\t\t\n      POP \t\t\t\n      SWAP2 \t\t\t\n      SWAP1 \t\t\t\n      POP \t\t\t\n      JUMP [out]\t\t\t\n    tag 242\t\t\t\n      JUMPDEST \t\t\t\n      PUSH [tag] 358\t\t\t\n      DUP2 \t\t\t\n      PUSH [tag] 241\t\t\t\n      JUMP [in]\t\t\t\n    tag 358\t\t\t\n      JUMPDEST \t\t\t\n      DUP3 \t\t\t\n      MSTORE \t\t\t\n      POP \t\t\t\n      POP \t\t\t\n      JUMP [out]\t\t\t\n    tag 42\t\t\t\n      JUMPDEST \t\t\t\n      PUSH 0\t\t\t\n      PUSH 20\t\t\t\n      DUP3 \t\t\t\n      ADD \t\t\t\n      SWAP1 \t\t\t\n      POP \t\t\t\n      PUSH [tag] 360\t\t\t\n      PUSH 0\t\t\t\n      DUP4 \t\t\t\n      ADD \t\t\t\n      DUP5 \t\t\t\n      PUSH [tag] 242\t\t\t\n      JUMP [in]\t\t\t\n    tag 360\t\t\t\n      JUMPDEST \t\t\t\n      SWAP3 \t\t\t\n      SWAP2 \t\t\t\n      POP \t\t\t\n      POP \t\t\t\n      JUMP [out]\t\t\t\n    tag 243\t\t\t\n      JUMPDEST \t\t\t\n      PUSH [tag] 362\t\t\t\n      DUP2 \t\t\t\n      PUSH [tag] 223\t\t\t\n      JUMP [in]\t\t\t\n    tag 362\t\t\t\n      JUMPDEST \t\t\t\n      DUP2 \t\t\t\n      EQ \t\t\t\n      PUSH [tag] 363\t\t\t\n      JUMPI \t\t\t\n      PUSH 0\t\t\t\n      DUP1 \t\t\t\n      REVERT \t\t\t\n    tag 363\t\t\t\n      JUMPDEST \t\t\t\n      POP \t\t\t\n      JUMP [out]\t\t\t\n    tag 244\t\t\t\n      JUMPDEST \t\t\t\n      PUSH 0\t\t\t\n      DUP2 \t\t\t\n      CALLDATALOAD \t\t\t\n      SWAP1 \t\t\t\n      POP \t\t\t\n      PUSH [tag] 365\t\t\t\n      DUP2 \t\t\t\n      PUSH [tag] 243\t\t\t\n      JUMP [in]\t\t\t\n    tag 365\t\t\t\n      JUMPDEST \t\t\t\n      SWAP3 \t\t\t\n      SWAP2 \t\t\t\n      POP \t\t\t\n      POP \t\t\t\n      JUMP [out]\t\t\t\n    tag 49\t\t\t\n      JUMPDEST \t\t\t\n      PUSH 0\t\t\t\n      DUP1 \t\t\t\n      PUSH 0\t\t\t\n      PUSH 40\t\t\t\n      DUP5 \t\t\t\n      DUP7 \t\t\t\n      SUB \t\t\t\n      SLT \t\t\t\n      ISZERO \t\t\t\n      PUSH [tag] 367\t\t\t\n      JUMPI \t\t\t\n      PUSH [tag] 368\t\t\t\n      PUSH [tag] 214\t\t\t\n      JUMP [in]\t\t\t\n    tag 368\t\t\t\n      JUMPDEST \t\t\t\n    tag 367\t\t\t\n      JUMPDEST \t\t\t\n      PUSH 0\t\t\t\n      PUSH [tag] 369\t\t\t\n      DUP7 \t\t\t\n      DUP3 \t\t\t\n      DUP8 \t\t\t\n      ADD \t\t\t\n      PUSH [tag] 244\t\t\t\n      JUMP [in]\t\t\t\n    tag 369\t\t\t\n      JUMPDEST \t\t\t\n      SWAP4 \t\t\t\n      POP \t\t\t\n      POP \t\t\t\n      PUSH 20\t\t\t\n      DUP5 \t\t\t\n      ADD \t\t\t\n      CALLDATALOAD \t\t\t\n      PUSH FFFFFFFFFFFFFFFF\t\t\t\n      DUP2 \t\t\t\n      GT \t\t\t\n      ISZERO \t\t\t\n      PUSH [tag] 370\t\t\t\n      JUMPI \t\t\t\n      PUSH [tag] 371\t\t\t\n      PUSH [tag] 215\t\t\t\n      JUMP [in]\t\t\t\n    tag 371\t\t\t\n      JUMPDEST \t\t\t\n    tag 370\t\t\t\n      JUMPDEST \t\t\t\n      PUSH [tag] 372\t\t\t\n      DUP7 \t\t\t\n      DUP3 \t\t\t\n      DUP8 \t\t\t\n      ADD \t\t\t\n      PUSH [tag] 234\t\t\t\n      JUMP [in]\t\t\t\n    tag 372\t\t\t\n      JUMPDEST \t\t\t\n      SWAP3 \t\t\t\n      POP \t\t\t\n      SWAP3 \t\t\t\n      POP \t\t\t\n      POP \t\t\t\n      SWAP3 \t\t\t\n      POP \t\t\t\n      SWAP3 \t\t\t\n      POP \t\t\t\n      SWAP3 \t\t\t\n      JUMP [out]\t\t\t\n    tag 52\t\t\t\n      JUMPDEST \t\t\t\n      PUSH 0\t\t\t\n      PUSH 60\t\t\t\n      DUP3 \t\t\t\n      ADD \t\t\t\n      SWAP1 \t\t\t\n      POP \t\t\t\n      PUSH [tag] 374\t\t\t\n      PUSH 0\t\t\t\n      DUP4 \t\t\t\n      ADD \t\t\t\n      DUP7 \t\t\t\n      PUSH [tag] 212\t\t\t\n      JUMP [in]\t\t\t\n    tag 374\t\t\t\n      JUMPDEST \t\t\t\n      PUSH [tag] 375\t\t\t\n      PUSH 20\t\t\t\n      DUP4 \t\t\t\n      ADD \t\t\t\n      DUP6 \t\t\t\n      PUSH [tag] 242\t\t\t\n      JUMP [in]\t\t\t\n    tag 375\t\t\t\n      JUMPDEST \t\t\t\n      DUP2 \t\t\t\n      DUP2 \t\t\t\n      SUB \t\t\t\n      PUSH 40\t\t\t\n      DUP4 \t\t\t\n      ADD \t\t\t\n      MSTORE \t\t\t\n      PUSH [tag] 376\t\t\t\n      DUP2 \t\t\t\n      DUP5 \t\t\t\n      PUSH [tag] 233\t\t\t\n      JUMP [in]\t\t\t\n    tag 376\t\t\t\n      JUMPDEST \t\t\t\n      SWAP1 \t\t\t\n      POP \t\t\t\n      SWAP5 \t\t\t\n      SWAP4 \t\t\t\n      POP \t\t\t\n      POP \t\t\t\n      POP \t\t\t\n      POP \t\t\t\n      JUMP [out]\t\t\t\n    tag 245\t\t\t\n      JUMPDEST \t\t\t\n      PUSH 0\t\t\t\n      PUSH FFFFFFFFFFFFFFFFFFFFFFFFFFFFFFFFFFFFFFFF\t\t\t\n      DUP3 \t\t\t\n      AND \t\t\t\n      SWAP1 \t\t\t\n      POP \t\t\t\n      SWAP2 \t\t\t\n      SWAP1 \t\t\t\n      POP \t\t\t\n      JUMP [out]\t\t\t\n    tag 246\t\t\t\n      JUMPDEST \t\t\t\n      PUSH 0\t\t\t\n      PUSH [tag] 379\t\t\t\n      DUP3 \t\t\t\n      PUSH [tag] 245\t\t\t\n      JUMP [in]\t\t\t\n    tag 379\t\t\t\n      JUMPDEST \t\t\t\n      SWAP1 \t\t\t\n      POP \t\t\t\n      SWAP2 \t\t\t\n      SWAP1 \t\t\t\n      POP \t\t\t\n      JUMP [out]\t\t\t\n    tag 247\t\t\t\n      JUMPDEST \t\t\t\n      PUSH [tag] 381\t\t\t\n      DUP2 \t\t\t\n      PUSH [tag] 246\t\t\t\n      JUMP [in]\t\t\t\n    tag 381\t\t\t\n      JUMPDEST \t\t\t\n      DUP2 \t\t\t\n      EQ \t\t\t\n      PUSH [tag] 382\t\t\t\n      JUMPI \t\t\t\n      PUSH 0\t\t\t\n      DUP1 \t\t\t\n      REVERT \t\t\t\n    tag 382\t\t\t\n      JUMPDEST \t\t\t\n      POP \t\t\t\n      JUMP [out]\t\t\t\n    tag 248\t\t\t\n      JUMPDEST \t\t\t\n      PUSH 0\t\t\t\n      DUP2 \t\t\t\n      CALLDATALOAD \t\t\t\n      SWAP1 \t\t\t\n      POP \t\t\t\n      PUSH [tag] 384\t\t\t\n      DUP2 \t\t\t\n      PUSH [tag] 247\t\t\t\n      JUMP [in]\t\t\t\n    tag 384\t\t\t\n      JUMPDEST \t\t\t\n      SWAP3 \t\t\t\n      SWAP2 \t\t\t\n      POP \t\t\t\n      POP \t\t\t\n      JUMP [out]\t\t\t\n    tag 64\t\t\t\n      JUMPDEST \t\t\t\n      PUSH 0\t\t\t\n      PUSH 20\t\t\t\n      DUP3 \t\t\t\n      DUP5 \t\t\t\n      SUB \t\t\t\n      SLT \t\t\t\n      ISZERO \t\t\t\n      PUSH [tag] 386\t\t\t\n      JUMPI \t\t\t\n      PUSH [tag] 387\t\t\t\n      PUSH [tag] 214\t\t\t\n      JUMP [in]\t\t\t\n    tag 387\t\t\t\n      JUMPDEST \t\t\t\n    tag 386\t\t\t\n      JUMPDEST \t\t\t\n      PUSH 0\t\t\t\n      PUSH [tag] 388\t\t\t\n      DUP5 \t\t\t\n      DUP3 \t\t\t\n      DUP6 \t\t\t\n      ADD \t\t\t\n      PUSH [tag] 248\t\t\t\n      JUMP [in]\t\t\t\n    tag 388\t\t\t\n      JUMPDEST \t\t\t\n      SWAP2 \t\t\t\n      POP \t\t\t\n      POP \t\t\t\n      SWAP3 \t\t\t\n      SWAP2 \t\t\t\n      POP \t\t\t\n      POP \t\t\t\n      JUMP [out]\t\t\t\n    tag 249\t\t\t\n      JUMPDEST \t\t\t\n      PUSH 0\t\t\t\n      DUP1 \t\t\t\n      DUP4 \t\t\t\n      PUSH 1F\t\t\t\n      DUP5 \t\t\t\n      ADD \t\t\t\n      SLT \t\t\t\n      PUSH [tag] 390\t\t\t\n      JUMPI \t\t\t\n      PUSH [tag] 391\t\t\t\n      PUSH [tag] 216\t\t\t\n      JUMP [in]\t\t\t\n    tag 391\t\t\t\n      JUMPDEST \t\t\t\n    tag 390\t\t\t\n      JUMPDEST \t\t\t\n      DUP3 \t\t\t\n      CALLDATALOAD \t\t\t\n      SWAP1 \t\t\t\n      POP \t\t\t\n      PUSH FFFFFFFFFFFFFFFF\t\t\t\n      DUP2 \t\t\t\n      GT \t\t\t\n      ISZERO \t\t\t\n      PUSH [tag] 392\t\t\t\n      JUMPI \t\t\t\n      PUSH [tag] 393\t\t\t\n      PUSH [tag] 217\t\t\t\n      JUMP [in]\t\t\t\n    tag 393\t\t\t\n      JUMPDEST \t\t\t\n    tag 392\t\t\t\n      JUMPDEST \t\t\t\n      PUSH 20\t\t\t\n      DUP4 \t\t\t\n      ADD \t\t\t\n      SWAP2 \t\t\t\n      POP \t\t\t\n      DUP4 \t\t\t\n      PUSH 20\t\t\t\n      DUP3 \t\t\t\n      MUL \t\t\t\n      DUP4 \t\t\t\n      ADD \t\t\t\n      GT \t\t\t\n      ISZERO \t\t\t\n      PUSH [tag] 394\t\t\t\n      JUMPI \t\t\t\n      PUSH [tag] 395\t\t\t\n      PUSH [tag] 218\t\t\t\n      JUMP [in]\t\t\t\n    tag 395\t\t\t\n      JUMPDEST \t\t\t\n    tag 394\t\t\t\n      JUMPDEST \t\t\t\n      SWAP3 \t\t\t\n      POP \t\t\t\n      SWAP3 \t\t\t\n      SWAP1 \t\t\t\n      POP \t\t\t\n      JUMP [out]\t\t\t\n    tag 73\t\t\t\n      JUMPDEST \t\t\t\n      PUSH 0\t\t\t\n      DUP1 \t\t\t\n      PUSH 20\t\t\t\n      DUP4 \t\t\t\n      DUP6 \t\t\t\n      SUB \t\t\t\n      SLT \t\t\t\n      ISZERO \t\t\t\n      PUSH [tag] 397\t\t\t\n      JUMPI \t\t\t\n      PUSH [tag] 398\t\t\t\n      PUSH [tag] 214\t\t\t\n      JUMP [in]\t\t\t\n    tag 398\t\t\t\n      JUMPDEST \t\t\t\n    tag 397\t\t\t\n      JUMPDEST \t\t\t\n      PUSH 0\t\t\t\n      DUP4 \t\t\t\n      ADD \t\t\t\n      CALLDATALOAD \t\t\t\n      PUSH FFFFFFFFFFFFFFFF\t\t\t\n      DUP2 \t\t\t\n      GT \t\t\t\n      ISZERO \t\t\t\n      PUSH [tag] 399\t\t\t\n      JUMPI \t\t\t\n      PUSH [tag] 400\t\t\t\n      PUSH [tag] 215\t\t\t\n      JUMP [in]\t\t\t\n    tag 400\t\t\t\n      JUMPDEST \t\t\t\n    tag 399\t\t\t\n      JUMPDEST \t\t\t\n      PUSH [tag] 401\t\t\t\n      DUP6 \t\t\t\n      DUP3 \t\t\t\n      DUP7 \t\t\t\n      ADD \t\t\t\n      PUSH [tag] 249\t\t\t\n      JUMP [in]\t\t\t\n    tag 401\t\t\t\n      JUMPDEST \t\t\t\n      SWAP3 \t\t\t\n      POP \t\t\t\n      SWAP3 \t\t\t\n      POP \t\t\t\n      POP \t\t\t\n      SWAP3 \t\t\t\n      POP \t\t\t\n      SWAP3 \t\t\t\n      SWAP1 \t\t\t\n      POP \t\t\t\n      JUMP [out]\t\t\t\n    tag 250\t\t\t\n      JUMPDEST \t\t\t\n      PUSH [tag] 403\t\t\t\n      DUP2 \t\t\t\n      PUSH [tag] 246\t\t\t\n      JUMP [in]\t\t\t\n    tag 403\t\t\t\n      JUMPDEST \t\t\t\n      DUP3 \t\t\t\n      MSTORE \t\t\t\n      POP \t\t\t\n      POP \t\t\t\n      JUMP [out]\t\t\t\n    tag 84\t\t\t\n      JUMPDEST \t\t\t\n      PUSH 0\t\t\t\n      PUSH 20\t\t\t\n      DUP3 \t\t\t\n      ADD \t\t\t\n      SWAP1 \t\t\t\n      POP \t\t\t\n      PUSH [tag] 405\t\t\t\n      PUSH 0\t\t\t\n      DUP4 \t\t\t\n      ADD \t\t\t\n      DUP5 \t\t\t\n      PUSH [tag] 250\t\t\t\n      JUMP [in]\t\t\t\n    tag 405\t\t\t\n      JUMPDEST \t\t\t\n      SWAP3 \t\t\t\n      SWAP2 \t\t\t\n      POP \t\t\t\n      POP \t\t\t\n      JUMP [out]\t\t\t\n    tag 251\t\t\t\n      JUMPDEST \t\t\t\n      PUSH [tag] 407\t\t\t\n      DUP2 \t\t\t\n      PUSH [tag] 211\t\t\t\n      JUMP [in]\t\t\t\n    tag 407\t\t\t\n      JUMPDEST \t\t\t\n      DUP2 \t\t\t\n      EQ \t\t\t\n      PUSH [tag] 408\t\t\t\n      JUMPI \t\t\t\n      PUSH 0\t\t\t\n      DUP1 \t\t\t\n      REVERT \t\t\t\n    tag 408\t\t\t\n      JUMPDEST \t\t\t\n      POP \t\t\t\n      JUMP [out]\t\t\t\n    tag 252\t\t\t\n      JUMPDEST \t\t\t\n      PUSH 0\t\t\t\n      DUP2 \t\t\t\n      CALLDATALOAD \t\t\t\n      SWAP1 \t\t\t\n      POP \t\t\t\n      PUSH [tag] 410\t\t\t\n      DUP2 \t\t\t\n      PUSH [tag] 251\t\t\t\n      JUMP [in]\t\t\t\n    tag 410\t\t\t\n      JUMPDEST \t\t\t\n      SWAP3 \t\t\t\n      SWAP2 \t\t\t\n      POP \t\t\t\n      POP \t\t\t\n      JUMP [out]\t\t\t\n    tag 96\t\t\t\n      JUMPDEST \t\t\t\n      PUSH 0\t\t\t\n      PUSH 20\t\t\t\n      DUP3 \t\t\t\n      DUP5 \t\t\t\n      SUB \t\t\t\n      SLT \t\t\t\n      ISZERO \t\t\t\n      PUSH [tag] 412\t\t\t\n      JUMPI \t\t\t\n      PUSH [tag] 413\t\t\t\n      PUSH [tag] 214\t\t\t\n      JUMP [in]\t\t\t\n    tag 413\t\t\t\n      JUMPDEST \t\t\t\n    tag 412\t\t\t\n      JUMPDEST \t\t\t\n      PUSH 0\t\t\t\n      PUSH [tag] 414\t\t\t\n      DUP5 \t\t\t\n      DUP3 \t\t\t\n      DUP6 \t\t\t\n      ADD \t\t\t\n      PUSH [tag] 252\t\t\t\n      JUMP [in]\t\t\t\n    tag 414\t\t\t\n      JUMPDEST \t\t\t\n      SWAP2 \t\t\t\n      POP \t\t\t\n      POP \t\t\t\n      SWAP3 \t\t\t\n      SWAP2 \t\t\t\n      POP \t\t\t\n      POP \t\t\t\n      JUMP [out]\t\t\t\n    tag 103\t\t\t\n      JUMPDEST \t\t\t\n      PUSH 4E487B7100000000000000000000000000000000000000000000000000000000\t\t\t\n      PUSH 0\t\t\t\n      MSTORE \t\t\t\n      PUSH 41\t\t\t\n      PUSH 4\t\t\t\n      MSTORE \t\t\t\n      PUSH 24\t\t\t\n      PUSH 0\t\t\t\n      REVERT \t\t\t\n    tag 113\t\t\t\n      JUMPDEST \t\t\t\n      PUSH 4E487B7100000000000000000000000000000000000000000000000000000000\t\t\t\n      PUSH 0\t\t\t\n      MSTORE \t\t\t\n      PUSH 32\t\t\t\n      PUSH 4\t\t\t\n      MSTORE \t\t\t\n      PUSH 24\t\t\t\n      PUSH 0\t\t\t\n      REVERT \t\t\t\n    tag 253\t\t\t\n      JUMPDEST \t\t\t\n      PUSH 0\t\t\t\n      DUP1 \t\t\t\n      REVERT \t\t\t\n    tag 254\t\t\t\n      JUMPDEST \t\t\t\n      PUSH 0\t\t\t\n      DUP1 \t\t\t\n      REVERT \t\t\t\n    tag 255\t\t\t\n      JUMPDEST \t\t\t\n      PUSH 0\t\t\t\n      DUP1 \t\t\t\n      REVERT \t\t\t\n    tag 117\t\t\t\n      JUMPDEST \t\t\t\n      PUSH 0\t\t\t\n      DUP3 \t\t\t\n      CALLDATALOAD \t\t\t\n      PUSH 1\t\t\t\n      PUSH 80\t\t\t\n      SUB \t\t\t\n      DUP4 \t\t\t\n      CALLDATASIZE \t\t\t\n      SUB \t\t\t\n      SUB \t\t\t\n      DUP2 \t\t\t\n      SLT \t\t\t\n      PUSH [tag] 421\t\t\t\n      JUMPI \t\t\t\n      PUSH [tag] 422\t\t\t\n      PUSH [tag] 253\t\t\t\n      JUMP [in]\t\t\t\n    tag 422\t\t\t\n      JUMPDEST \t\t\t\n    tag 421\t\t\t\n      JUMPDEST \t\t\t\n      DUP1 \t\t\t\n      DUP4 \t\t\t\n      ADD \t\t\t\n      SWAP2 \t\t\t\n      POP \t\t\t\n      POP \t\t\t\n      SWAP3 \t\t\t\n      SWAP2 \t\t\t\n      POP \t\t\t\n      POP \t\t\t\n      JUMP [out]\t\t\t\n    tag 120\t\t\t\n      JUMPDEST \t\t\t\n      PUSH 0\t\t\t\n      DUP1 \t\t\t\n      DUP4 \t\t\t\n      CALLDATALOAD \t\t\t\n      PUSH 1\t\t\t\n      PUSH 20\t\t\t\n      SUB \t\t\t\n      DUP5 \t\t\t\n      CALLDATASIZE \t\t\t\n      SUB \t\t\t\n      SUB \t\t\t\n      DUP2 \t\t\t\n      SLT \t\t\t\n      PUSH [tag] 424\t\t\t\n      JUMPI \t\t\t\n      PUSH [tag] 425\t\t\t\n      PUSH [tag] 253\t\t\t\n      JUMP [in]\t\t\t\n    tag 425\t\t\t\n      JUMPDEST \t\t\t\n    tag 424\t\t\t\n      JUMPDEST \t\t\t\n      DUP1 \t\t\t\n      DUP5 \t\t\t\n      ADD \t\t\t\n      SWAP3 \t\t\t\n      POP \t\t\t\n      DUP3 \t\t\t\n      CALLDATALOAD \t\t\t\n      SWAP2 \t\t\t\n      POP \t\t\t\n      PUSH FFFFFFFFFFFFFFFF\t\t\t\n      DUP3 \t\t\t\n      GT \t\t\t\n      ISZERO \t\t\t\n      PUSH [tag] 426\t\t\t\n      JUMPI \t\t\t\n      PUSH [tag] 427\t\t\t\n      PUSH [tag] 254\t\t\t\n      JUMP [in]\t\t\t\n    tag 427\t\t\t\n      JUMPDEST \t\t\t\n    tag 426\t\t\t\n      JUMPDEST \t\t\t\n      PUSH 20\t\t\t\n      DUP4 \t\t\t\n      ADD \t\t\t\n      SWAP3 \t\t\t\n      POP \t\t\t\n      PUSH 1\t\t\t\n      DUP3 \t\t\t\n      MUL \t\t\t\n      CALLDATASIZE \t\t\t\n      SUB \t\t\t\n      DUP4 \t\t\t\n      SGT \t\t\t\n      ISZERO \t\t\t\n      PUSH [tag] 428\t\t\t\n      JUMPI \t\t\t\n      PUSH [tag] 429\t\t\t\n      PUSH [tag] 255\t\t\t\n      JUMP [in]\t\t\t\n    tag 429\t\t\t\n      JUMPDEST \t\t\t\n    tag 428\t\t\t\n      JUMPDEST \t\t\t\n      POP \t\t\t\n      SWAP3 \t\t\t\n      POP \t\t\t\n      SWAP3 \t\t\t\n      SWAP1 \t\t\t\n      POP \t\t\t\n      JUMP [out]\t\t\t\n    tag 256\t\t\t\n      JUMPDEST \t\t\t\n      PUSH 0\t\t\t\n      DUP2 \t\t\t\n      SWAP1 \t\t\t\n      POP \t\t\t\n      SWAP3 \t\t\t\n      SWAP2 \t\t\t\n      POP \t\t\t\n      POP \t\t\t\n      JUMP [out]\t\t\t\n    tag 257\t\t\t\n      JUMPDEST \t\t\t\n      DUP3 \t\t\t\n      DUP2 \t\t\t\n      DUP4 \t\t\t\n      CALLDATACOPY \t\t\t\n      PUSH 0\t\t\t\n      DUP4 \t\t\t\n      DUP4 \t\t\t\n      ADD \t\t\t\n      MSTORE \t\t\t\n      POP \t\t\t\n      POP \t\t\t\n      POP \t\t\t\n      JUMP [out]\t\t\t\n    tag 258\t\t\t\n      JUMPDEST \t\t\t\n      PUSH 0\t\t\t\n      PUSH [tag] 433\t\t\t\n      DUP4 \t\t\t\n      DUP6 \t\t\t\n      PUSH [tag] 256\t\t\t\n      JUMP [in]\t\t\t\n    tag 433\t\t\t\n      JUMPDEST \t\t\t\n      SWAP4 \t\t\t\n      POP \t\t\t\n      PUSH [tag] 434\t\t\t\n      DUP4 \t\t\t\n      DUP6 \t\t\t\n      DUP5 \t\t\t\n      PUSH [tag] 257\t\t\t\n      JUMP [in]\t\t\t\n    tag 434\t\t\t\n      JUMPDEST \t\t\t\n      DUP3 \t\t\t\n      DUP5 \t\t\t\n      ADD \t\t\t\n      SWAP1 \t\t\t\n      POP \t\t\t\n      SWAP4 \t\t\t\n      SWAP3 \t\t\t\n      POP \t\t\t\n      POP \t\t\t\n      POP \t\t\t\n      JUMP [out]\t\t\t\n    tag 122\t\t\t\n      JUMPDEST \t\t\t\n      PUSH 0\t\t\t\n      PUSH [tag] 436\t\t\t\n      DUP3 \t\t\t\n      DUP5 \t\t\t\n      DUP7 \t\t\t\n      PUSH [tag] 258\t\t\t\n      JUMP [in]\t\t\t\n    tag 436\t\t\t\n      JUMPDEST \t\t\t\n      SWAP2 \t\t\t\n      POP \t\t\t\n      DUP2 \t\t\t\n      SWAP1 \t\t\t\n      POP \t\t\t\n      SWAP4 \t\t\t\n      SWAP3 \t\t\t\n      POP \t\t\t\n      POP \t\t\t\n      POP \t\t\t\n      JUMP [out]\t\t\t\n    tag 259\t\t\t\n      JUMPDEST \t\t\t\n      PUSH 0\t\t\t\n      DUP3 \t\t\t\n      DUP3 \t\t\t\n      MSTORE \t\t\t\n      PUSH 20\t\t\t\n      DUP3 \t\t\t\n      ADD \t\t\t\n      SWAP1 \t\t\t\n      POP \t\t\t\n      SWAP3 \t\t\t\n      SWAP2 \t\t\t\n      POP \t\t\t\n      POP \t\t\t\n      JUMP [out]\t\t\t\n    tag 260\t\t\t\n      JUMPDEST \t\t\t\n      PUSH 4D756C746963616C6C333A2076616C7565206D69736D61746368000000000000\t\t\t\n      PUSH 0\t\t\t\n      DUP3 \t\t\t\n      ADD \t\t\t\n      MSTORE \t\t\t\n      POP \t\t\t\n      JUMP [out]\t\t\t\n    tag 261\t\t\t\n      JUMPDEST \t\t\t\n      PUSH 0\t\t\t\n      PUSH [tag] 440\t\t\t\n      PUSH 1A\t\t\t\n      DUP4 \t\t\t\n      PUSH [tag] 259\t\t\t\n      JUMP [in]\t\t\t\n    tag 440\t\t\t\n      JUMPDEST \t\t\t\n      SWAP2 \t\t\t\n      POP \t\t\t\n      PUSH [tag] 441\t\t\t\n      DUP3 \t\t\t\n      PUSH [tag] 260\t\t\t\n      JUMP [in]\t\t\t\n    tag 441\t\t\t\n      JUMPDEST \t\t\t\n      PUSH 20\t\t\t\n      DUP3 \t\t\t\n      ADD \t\t\t\n      SWAP1 \t\t\t\n      POP \t\t\t\n      SWAP2 \t\t\t\n      SWAP1 \t\t\t\n      POP \t\t\t\n      JUMP [out]\t\t\t\n    tag 129\t\t\t\n      JUMPDEST \t\t\t\n      PUSH 0\t\t\t\n      PUSH 20\t\t\t\n      DUP3 \t\t\t\n      ADD \t\t\t\n      SWAP1 \t\t\t\n      POP \t\t\t\n      DUP2 \t\t\t\n      DUP2 \t\t\t\n      SUB \t\t\t\n      PUSH 0\t\t\t\n      DUP4 \t\t\t\n      ADD \t\t\t\n      MSTORE \t\t\t\n      PUSH [tag] 443\t\t\t\n      DUP2 \t\t\t\n      PUSH [tag] 261\t\t\t\n      JUMP [in]\t\t\t\n    tag 443\t\t\t\n      JUMPDEST \t\t\t\n      SWAP1 \t\t\t\n      POP \t\t\t\n      SWAP2 \t\t\t\n      SWAP1 \t\t\t\n      POP \t\t\t\n      JUMP [out]\t\t\t\n    tag 141\t\t\t\n      JUMPDEST \t\t\t\n      PUSH 0\t\t\t\n      DUP3 \t\t\t\n      CALLDATALOAD \t\t\t\n      PUSH 1\t\t\t\n      PUSH 40\t\t\t\n      SUB \t\t\t\n      DUP4 \t\t\t\n      CALLDATASIZE \t\t\t\n      SUB \t\t\t\n      SUB \t\t\t\n      DUP2 \t\t\t\n      SLT \t\t\t\n      PUSH [tag] 445\t\t\t\n      JUMPI \t\t\t\n      PUSH [tag] 446\t\t\t\n      PUSH [tag] 253\t\t\t\n      JUMP [in]\t\t\t\n    tag 446\t\t\t\n      JUMPDEST \t\t\t\n    tag 445\t\t\t\n      JUMPDEST \t\t\t\n      DUP1 \t\t\t\n      DUP4 \t\t\t\n      ADD \t\t\t\n      SWAP2 \t\t\t\n      POP \t\t\t\n      POP \t\t\t\n      SWAP3 \t\t\t\n      SWAP2 \t\t\t\n      POP \t\t\t\n      POP \t\t\t\n      JUMP [out]\t\t\t\n    tag 262\t\t\t\n      JUMPDEST \t\t\t\n      PUSH 4D756C746963616C6C333A2063616C6C206661696C6564000000000000000000\t\t\t\n      PUSH 0\t\t\t\n      DUP3 \t\t\t\n      ADD \t\t\t\n      MSTORE \t\t\t\n      POP \t\t\t\n      JUMP [out]\t\t\t\n    tag 263\t\t\t\n      JUMPDEST \t\t\t\n      PUSH 0\t\t\t\n      PUSH [tag] 449\t\t\t\n      PUSH 17\t\t\t\n      DUP4 \t\t\t\n      PUSH [tag] 259\t\t\t\n      JUMP [in]\t\t\t\n    tag 449\t\t\t\n      JUMPDEST \t\t\t\n      SWAP2 \t\t\t\n      POP \t\t\t\n      PUSH [tag] 450\t\t\t\n      DUP3 \t\t\t\n      PUSH [tag] 262\t\t\t\n      JUMP [in]\t\t\t\n    tag 450\t\t\t\n      JUMPDEST \t\t\t\n      PUSH 20\t\t\t\n      DUP3 \t\t\t\n      ADD \t\t\t\n      SWAP1 \t\t\t\n      POP \t\t\t\n      SWAP2 \t\t\t\n      SWAP1 \t\t\t\n      POP \t\t\t\n      JUMP [out]\t\t\t\n    tag 152\t\t\t\n      JUMPDEST \t\t\t\n      PUSH 0\t\t\t\n      PUSH 20\t\t\t\n      DUP3 \t\t\t\n      ADD \t\t\t\n      SWAP1 \t\t\t\n      POP \t\t\t\n      DUP2 \t\t\t\n      DUP2 \t\t\t\n      SUB \t\t\t\n      PUSH 0\t\t\t\n      DUP4 \t\t\t\n      ADD \t\t\t\n      MSTORE \t\t\t\n      PUSH [tag] 452\t\t\t\n      DUP2 \t\t\t\n      PUSH [tag] 263\t\t\t\n      JUMP [in]\t\t\t\n    tag 452\t\t\t\n      JUMPDEST \t\t\t\n      SWAP1 \t\t\t\n      POP \t\t\t\n      SWAP2 \t\t\t\n      SWAP1 \t\t\t\n      POP \t\t\t\n      JUMP [out]\t\t\t\n    tag 175\t\t\t\n      JUMPDEST \t\t\t\n      PUSH 0\t\t\t\n      DUP3 \t\t\t\n      CALLDATALOAD \t\t\t\n      PUSH 1\t\t\t\n      PUSH 60\t\t\t\n      SUB \t\t\t\n      DUP4 \t\t\t\n      CALLDATASIZE \t\t\t\n      SUB \t\t\t\n      SUB \t\t\t\n      DUP2 \t\t\t\n      SLT \t\t\t\n      PUSH [tag] 454\t\t\t\n      JUMPI \t\t\t\n      PUSH [tag] 455\t\t\t\n      PUSH [tag] 253\t\t\t\n      JUMP [in]\t\t\t\n    tag 455\t\t\t\n      JUMPDEST \t\t\t\n    tag 454\t\t\t\n      JUMPDEST \t\t\t\n      DUP1 \t\t\t\n      DUP4 \t\t\t\n      ADD \t\t\t\n      SWAP2 \t\t\t\n      POP \t\t\t\n      POP \t\t\t\n      SWAP3 \t\t\t\n      SWAP2 \t\t\t\n      POP \t\t\t\n      POP \t\t\t\n      JUMP [out]\t\t\t\n    .data\n"
}