{
  "contractName": "SigmaToken",
  "abi": [
    {
      "inputs": [
        {
          "internalType": "string",
          "name": "_name",
          "type": "string"
        },
        {
          "internalType": "string",
          "name": "_symbol",
          "type": "string"
        },
        {
          "internalType": "uint256",
          "name": "_totalSupply",
          "type": "uint256"
        }
      ],
      "stateMutability": "nonpayable",
      "type": "constructor"
    },
    {
      "anonymous": false,
      "inputs": [
        {
          "indexed": true,
          "internalType": "address",
          "name": "owner",
          "type": "address"
        },
        {
          "indexed": true,
          "internalType": "address",
          "name": "spender",
          "type": "address"
        },
        {
          "indexed": false,
          "internalType": "uint256",
          "name": "value",
          "type": "uint256"
        }
      ],
      "name": "Approval",
      "type": "event"
    },
    {
      "anonymous": false,
      "inputs": [
        {
          "indexed": true,
          "internalType": "address",
          "name": "previousOwner",
          "type": "address"
        },
        {
          "indexed": true,
          "internalType": "address",
          "name": "newOwner",
          "type": "address"
        }
      ],
      "name": "OwnershipTransferred",
      "type": "event"
    },
    {
      "anonymous": false,
      "inputs": [
        {
          "indexed": true,
          "internalType": "address",
          "name": "from",
          "type": "address"
        },
        {
          "indexed": true,
          "internalType": "address",
          "name": "to",
          "type": "address"
        },
        {
          "indexed": false,
          "internalType": "uint256",
          "name": "value",
          "type": "uint256"
        }
      ],
      "name": "Transfer",
      "type": "event"
    },
    {
      "inputs": [
        {
          "internalType": "address",
          "name": "owner",
          "type": "address"
        },
        {
          "internalType": "address",
          "name": "spender",
          "type": "address"
        }
      ],
      "name": "allowance",
      "outputs": [
        {
          "internalType": "uint256",
          "name": "",
          "type": "uint256"
        }
      ],
      "stateMutability": "view",
      "type": "function",
      "constant": true
    },
    {
      "inputs": [
        {
          "internalType": "address",
          "name": "spender",
          "type": "address"
        },
        {
          "internalType": "uint256",
          "name": "amount",
          "type": "uint256"
        }
      ],
      "name": "approve",
      "outputs": [
        {
          "internalType": "bool",
          "name": "",
          "type": "bool"
        }
      ],
      "stateMutability": "nonpayable",
      "type": "function"
    },
    {
      "inputs": [
        {
          "internalType": "address",
          "name": "account",
          "type": "address"
        }
      ],
      "name": "balanceOf",
      "outputs": [
        {
          "internalType": "uint256",
          "name": "",
          "type": "uint256"
        }
      ],
      "stateMutability": "view",
      "type": "function",
      "constant": true
    },
    {
      "inputs": [],
      "name": "decimals",
      "outputs": [
        {
          "internalType": "uint8",
          "name": "",
          "type": "uint8"
        }
      ],
      "stateMutability": "view",
      "type": "function",
      "constant": true
    },
    {
      "inputs": [
        {
          "internalType": "address",
          "name": "spender",
          "type": "address"
        },
        {
          "internalType": "uint256",
          "name": "subtractedValue",
          "type": "uint256"
        }
      ],
      "name": "decreaseAllowance",
      "outputs": [
        {
          "internalType": "bool",
          "name": "",
          "type": "bool"
        }
      ],
      "stateMutability": "nonpayable",
      "type": "function"
    },
    {
      "inputs": [
        {
          "internalType": "address",
          "name": "spender",
          "type": "address"
        },
        {
          "internalType": "uint256",
          "name": "addedValue",
          "type": "uint256"
        }
      ],
      "name": "increaseAllowance",
      "outputs": [
        {
          "internalType": "bool",
          "name": "",
          "type": "bool"
        }
      ],
      "stateMutability": "nonpayable",
      "type": "function"
    },
    {
      "inputs": [],
      "name": "name",
      "outputs": [
        {
          "internalType": "string",
          "name": "",
          "type": "string"
        }
      ],
      "stateMutability": "view",
      "type": "function",
      "constant": true
    },
    {
      "inputs": [],
      "name": "owner",
      "outputs": [
        {
          "internalType": "address",
          "name": "",
          "type": "address"
        }
      ],
      "stateMutability": "view",
      "type": "function",
      "constant": true
    },
    {
      "inputs": [],
      "name": "renounceOwnership",
      "outputs": [],
      "stateMutability": "nonpayable",
      "type": "function"
    },
    {
      "inputs": [],
      "name": "symbol",
      "outputs": [
        {
          "internalType": "string",
          "name": "",
          "type": "string"
        }
      ],
      "stateMutability": "view",
      "type": "function",
      "constant": true
    },
    {
      "inputs": [],
      "name": "totalSupply",
      "outputs": [
        {
          "internalType": "uint256",
          "name": "",
          "type": "uint256"
        }
      ],
      "stateMutability": "view",
      "type": "function",
      "constant": true
    },
    {
      "inputs": [
        {
          "internalType": "address",
          "name": "recipient",
          "type": "address"
        },
        {
          "internalType": "uint256",
          "name": "amount",
          "type": "uint256"
        }
      ],
      "name": "transfer",
      "outputs": [
        {
          "internalType": "bool",
          "name": "",
          "type": "bool"
        }
      ],
      "stateMutability": "nonpayable",
      "type": "function"
    },
    {
      "inputs": [
        {
          "internalType": "address",
          "name": "sender",
          "type": "address"
        },
        {
          "internalType": "address",
          "name": "recipient",
          "type": "address"
        },
        {
          "internalType": "uint256",
          "name": "amount",
          "type": "uint256"
        }
      ],
      "name": "transferFrom",
      "outputs": [
        {
          "internalType": "bool",
          "name": "",
          "type": "bool"
        }
      ],
      "stateMutability": "nonpayable",
      "type": "function"
    },
    {
      "inputs": [
        {
          "internalType": "address",
          "name": "newOwner",
          "type": "address"
        }
      ],
      "name": "transferOwnership",
      "outputs": [],
      "stateMutability": "nonpayable",
      "type": "function"
    }
  ],
  "bytecode": "0x60806040523480156200001157600080fd5b5060405162001fa338038062001fa383398181016040528101906200003791906200044d565b828281600390805190602001906200005192919062000308565b5080600490805190602001906200006a92919062000308565b5050506200008d62000081620000b760201b60201c565b620000bf60201b60201c565b620000ae620000a1620000b760201b60201c565b826200018560201b60201c565b505050620007cc565b600033905090565b6000600560009054906101000a900473ffffffffffffffffffffffffffffffffffffffff16905081600560006101000a81548173ffffffffffffffffffffffffffffffffffffffff021916908373ffffffffffffffffffffffffffffffffffffffff1602179055508173ffffffffffffffffffffffffffffffffffffffff168173ffffffffffffffffffffffffffffffffffffffff167f8be0079c531659141344cd1fd0a4f28419497f9722a3daafe3b4186f6b6457e060405160405180910390a35050565b600073ffffffffffffffffffffffffffffffffffffffff168273ffffffffffffffffffffffffffffffffffffffff161415620001f8576040517f08c379a0000000000000000000000000000000000000000000000000000000008152600401620001ef906200051f565b60405180910390fd5b6200020c60008383620002fe60201b60201c565b8060026000828254620002209190620005ce565b92505081905550806000808473ffffffffffffffffffffffffffffffffffffffff1673ffffffffffffffffffffffffffffffffffffffff1681526020019081526020016000206000828254620002779190620005ce565b925050819055508173ffffffffffffffffffffffffffffffffffffffff16600073ffffffffffffffffffffffffffffffffffffffff167fddf252ad1be2c89b69c2b068fc378daa952ba7f163c4a11628f55a4df523b3ef83604051620002de919062000541565b60405180910390a3620002fa600083836200030360201b60201c565b5050565b505050565b505050565b82805462000316906200066b565b90600052602060002090601f0160209004810192826200033a576000855562000386565b82601f106200035557805160ff191683800117855562000386565b8280016001018555821562000386579182015b828111156200038557825182559160200191906001019062000368565b5b50905062000395919062000399565b5090565b5b80821115620003b45760008160009055506001016200039a565b5090565b6000620003cf620003c98462000587565b6200055e565b905082815260208101848484011115620003ee57620003ed62000769565b5b620003fb84828562000635565b509392505050565b600082601f8301126200041b576200041a62000764565b5b81516200042d848260208601620003b8565b91505092915050565b6000815190506200044781620007b2565b92915050565b60008060006060848603121562000469576200046862000773565b5b600084015167ffffffffffffffff8111156200048a57620004896200076e565b5b620004988682870162000403565b935050602084015167ffffffffffffffff811115620004bc57620004bb6200076e565b5b620004ca8682870162000403565b9250506040620004dd8682870162000436565b9150509250925092565b6000620004f6601f83620005bd565b9150620005038262000789565b602082019050919050565b62000519816200062b565b82525050565b600060208201905081810360008301526200053a81620004e7565b9050919050565b60006020820190506200055860008301846200050e565b92915050565b60006200056a6200057d565b9050620005788282620006a1565b919050565b6000604051905090565b600067ffffffffffffffff821115620005a557620005a462000735565b5b620005b08262000778565b9050602081019050919050565b600082825260208201905092915050565b6000620005db826200062b565b9150620005e8836200062b565b9250827fffffffffffffffffffffffffffffffffffffffffffffffffffffffffffffffff0382111562000620576200061f620006d7565b5b828201905092915050565b6000819050919050565b60005b838110156200065557808201518184015260208101905062000638565b8381111562000665576000848401525b50505050565b600060028204905060018216806200068457607f821691505b602082108114156200069b576200069a62000706565b5b50919050565b620006ac8262000778565b810181811067ffffffffffffffff82111715620006ce57620006cd62000735565b5b80604052505050565b7f4e487b7100000000000000000000000000000000000000000000000000000000600052601160045260246000fd5b7f4e487b7100000000000000000000000000000000000000000000000000000000600052602260045260246000fd5b7f4e487b7100000000000000000000000000000000000000000000000000000000600052604160045260246000fd5b600080fd5b600080fd5b600080fd5b600080fd5b6000601f19601f8301169050919050565b7f45524332303a206d696e7420746f20746865207a65726f206164647265737300600082015250565b620007bd816200062b565b8114620007c957600080fd5b50565b6117c780620007dc6000396000f3fe608060405234801561001057600080fd5b50600436106100ea5760003560e01c8063715018a61161008c578063a457c2d711610066578063a457c2d71461024f578063a9059cbb1461027f578063dd62ed3e146102af578063f2fde38b146102df576100ea565b8063715018a6146102095780638da5cb5b1461021357806395d89b4114610231576100ea565b806323b872dd116100c857806323b872dd1461015b578063313ce5671461018b57806339509351146101a957806370a08231146101d9576100ea565b806306fdde03146100ef578063095ea7b31461010d57806318160ddd1461013d575b600080fd5b6100f76102fb565b60405161010491906111aa565b60405180910390f35b61012760048036038101906101229190610f84565b61038d565b604051610134919061118f565b60405180910390f35b6101456103ab565b60405161015291906112ec565b60405180910390f35b61017560048036038101906101709190610f31565b6103b5565b604051610182919061118f565b60405180910390f35b6101936104ad565b6040516101a09190611307565b60405180910390f35b6101c360048036038101906101be9190610f84565b6104b6565b6040516101d0919061118f565b60405180910390f35b6101f360048036038101906101ee9190610ec4565b610562565b60405161020091906112ec565b60405180910390f35b6102116105aa565b005b61021b610632565b6040516102289190611174565b60405180910390f35b61023961065c565b60405161024691906111aa565b60405180910390f35b61026960048036038101906102649190610f84565b6106ee565b604051610276919061118f565b60405180910390f35b61029960048036038101906102949190610f84565b6107d9565b6040516102a6919061118f565b60405180910390f35b6102c960048036038101906102c49190610ef1565b6107f7565b6040516102d691906112ec565b60405180910390f35b6102f960048036038101906102f49190610ec4565b61087e565b005b60606003805461030a9061141c565b80601f01602080910402602001604051908101604052809291908181526020018280546103369061141c565b80156103835780601f1061035857610100808354040283529160200191610383565b820191906000526020600020905b81548152906001019060200180831161036657829003601f168201915b5050505050905090565b60006103a161039a610976565b848461097e565b6001905092915050565b6000600254905090565b60006103c2848484610b49565b6000600160008673ffffffffffffffffffffffffffffffffffffffff1673ffffffffffffffffffffffffffffffffffffffff168152602001908152602001600020600061040d610976565b73ffffffffffffffffffffffffffffffffffffffff1673ffffffffffffffffffffffffffffffffffffffff1681526020019081526020016000205490508281101561048d576040517f08c379a00000000000000000000000000000000000000000000000000000000081526004016104849061124c565b60405180910390fd5b6104a185610499610976565b85840361097e565b60019150509392505050565b60006012905090565b60006105586104c3610976565b8484600160006104d1610976565b73ffffffffffffffffffffffffffffffffffffffff1673ffffffffffffffffffffffffffffffffffffffff16815260200190815260200160002060008873ffffffffffffffffffffffffffffffffffffffff1673ffffffffffffffffffffffffffffffffffffffff16815260200190815260200160002054610553919061133e565b61097e565b6001905092915050565b60008060008373ffffffffffffffffffffffffffffffffffffffff1673ffffffffffffffffffffffffffffffffffffffff168152602001908152602001600020549050919050565b6105b2610976565b73ffffffffffffffffffffffffffffffffffffffff166105d0610632565b73ffffffffffffffffffffffffffffffffffffffff1614610626576040517f08c379a000000000000000000000000000000000000000000000000000000000815260040161061d9061126c565b60405180910390fd5b6106306000610dca565b565b6000600560009054906101000a900473ffffffffffffffffffffffffffffffffffffffff16905090565b60606004805461066b9061141c565b80601f01602080910402602001604051908101604052809291908181526020018280546106979061141c565b80156106e45780601f106106b9576101008083540402835291602001916106e4565b820191906000526020600020905b8154815290600101906020018083116106c757829003601f168201915b5050505050905090565b600080600160006106fd610976565b73ffffffffffffffffffffffffffffffffffffffff1673ffffffffffffffffffffffffffffffffffffffff16815260200190815260200160002060008573ffffffffffffffffffffffffffffffffffffffff1673ffffffffffffffffffffffffffffffffffffffff168152602001908152602001600020549050828110156107ba576040517f08c379a00000000000000000000000000000000000000000000000000000000081526004016107b1906112cc565b60405180910390fd5b6107ce6107c5610976565b8585840361097e565b600191505092915050565b60006107ed6107e6610976565b8484610b49565b6001905092915050565b6000600160008473ffffffffffffffffffffffffffffffffffffffff1673ffffffffffffffffffffffffffffffffffffffff16815260200190815260200160002060008373ffffffffffffffffffffffffffffffffffffffff1673ffffffffffffffffffffffffffffffffffffffff16815260200190815260200160002054905092915050565b610886610976565b73ffffffffffffffffffffffffffffffffffffffff166108a4610632565b73ffffffffffffffffffffffffffffffffffffffff16146108fa576040517f08c379a00000000000000000000000000000000000000000000000000000000081526004016108f19061126c565b60405180910390fd5b600073ffffffffffffffffffffffffffffffffffffffff168173ffffffffffffffffffffffffffffffffffffffff16141561096a576040517f08c379a0000000000000000000000000000000000000000000000000000000008152600401610961906111ec565b60405180910390fd5b61097381610dca565b50565b600033905090565b600073ffffffffffffffffffffffffffffffffffffffff168373ffffffffffffffffffffffffffffffffffffffff1614156109ee576040517f08c379a00000000000000000000000000000000000000000000000000000000081526004016109e5906112ac565b60405180910390fd5b600073ffffffffffffffffffffffffffffffffffffffff168273ffffffffffffffffffffffffffffffffffffffff161415610a5e576040517f08c379a0000000000000000000000000000000000000000000000000000000008152600401610a559061120c565b60405180910390fd5b80600160008573ffffffffffffffffffffffffffffffffffffffff1673ffffffffffffffffffffffffffffffffffffffff16815260200190815260200160002060008473ffffffffffffffffffffffffffffffffffffffff1673ffffffffffffffffffffffffffffffffffffffff168152602001908152602001600020819055508173ffffffffffffffffffffffffffffffffffffffff168373ffffffffffffffffffffffffffffffffffffffff167f8c5be1e5ebec7d5bd14f71427d1e84f3dd0314c0f7b2291e5b200ac8c7c3b92583604051610b3c91906112ec565b60405180910390a3505050565b600073ffffffffffffffffffffffffffffffffffffffff168373ffffffffffffffffffffffffffffffffffffffff161415610bb9576040517f08c379a0000000000000000000000000000000000000000000000000000000008152600401610bb09061128c565b60405180910390fd5b600073ffffffffffffffffffffffffffffffffffffffff168273ffffffffffffffffffffffffffffffffffffffff161415610c29576040517f08c379a0000000000000000000000000000000000000000000000000000000008152600401610c20906111cc565b60405180910390fd5b610c34838383610e90565b60008060008573ffffffffffffffffffffffffffffffffffffffff1673ffffffffffffffffffffffffffffffffffffffff16815260200190815260200160002054905081811015610cba576040517f08c379a0000000000000000000000000000000000000000000000000000000008152600401610cb19061122c565b60405180910390fd5b8181036000808673ffffffffffffffffffffffffffffffffffffffff1673ffffffffffffffffffffffffffffffffffffffff16815260200190815260200160002081905550816000808573ffffffffffffffffffffffffffffffffffffffff1673ffffffffffffffffffffffffffffffffffffffff1681526020019081526020016000206000828254610d4d919061133e565b925050819055508273ffffffffffffffffffffffffffffffffffffffff168473ffffffffffffffffffffffffffffffffffffffff167fddf252ad1be2c89b69c2b068fc378daa952ba7f163c4a11628f55a4df523b3ef84604051610db191906112ec565b60405180910390a3610dc4848484610e95565b50505050565b6000600560009054906101000a900473ffffffffffffffffffffffffffffffffffffffff16905081600560006101000a81548173ffffffffffffffffffffffffffffffffffffffff021916908373ffffffffffffffffffffffffffffffffffffffff1602179055508173ffffffffffffffffffffffffffffffffffffffff168173ffffffffffffffffffffffffffffffffffffffff167f8be0079c531659141344cd1fd0a4f28419497f9722a3daafe3b4186f6b6457e060405160405180910390a35050565b505050565b505050565b600081359050610ea981611763565b92915050565b600081359050610ebe8161177a565b92915050565b600060208284031215610eda57610ed96114ac565b5b6000610ee884828501610e9a565b91505092915050565b60008060408385031215610f0857610f076114ac565b5b6000610f1685828601610e9a565b9250506020610f2785828601610e9a565b9150509250929050565b600080600060608486031215610f4a57610f496114ac565b5b6000610f5886828701610e9a565b9350506020610f6986828701610e9a565b9250506040610f7a86828701610eaf565b9150509250925092565b60008060408385031215610f9b57610f9a6114ac565b5b6000610fa985828601610e9a565b9250506020610fba85828601610eaf565b9150509250929050565b610fcd81611394565b82525050565b610fdc816113a6565b82525050565b6000610fed82611322565b610ff7818561132d565b93506110078185602086016113e9565b611010816114b1565b840191505092915050565b600061102860238361132d565b9150611033826114c2565b604082019050919050565b600061104b60268361132d565b915061105682611511565b604082019050919050565b600061106e60228361132d565b915061107982611560565b604082019050919050565b600061109160268361132d565b915061109c826115af565b604082019050919050565b60006110b460288361132d565b91506110bf826115fe565b604082019050919050565b60006110d760208361132d565b91506110e28261164d565b602082019050919050565b60006110fa60258361132d565b915061110582611676565b604082019050919050565b600061111d60248361132d565b9150611128826116c5565b604082019050919050565b600061114060258361132d565b915061114b82611714565b604082019050919050565b61115f816113d2565b82525050565b61116e816113dc565b82525050565b60006020820190506111896000830184610fc4565b92915050565b60006020820190506111a46000830184610fd3565b92915050565b600060208201905081810360008301526111c48184610fe2565b905092915050565b600060208201905081810360008301526111e58161101b565b9050919050565b600060208201905081810360008301526112058161103e565b9050919050565b6000602082019050818103600083015261122581611061565b9050919050565b6000602082019050818103600083015261124581611084565b9050919050565b60006020820190508181036000830152611265816110a7565b9050919050565b60006020820190508181036000830152611285816110ca565b9050919050565b600060208201905081810360008301526112a5816110ed565b9050919050565b600060208201905081810360008301526112c581611110565b9050919050565b600060208201905081810360008301526112e581611133565b9050919050565b60006020820190506113016000830184611156565b92915050565b600060208201905061131c6000830184611165565b92915050565b600081519050919050565b600082825260208201905092915050565b6000611349826113d2565b9150611354836113d2565b9250827fffffffffffffffffffffffffffffffffffffffffffffffffffffffffffffffff038211156113895761138861144e565b5b828201905092915050565b600061139f826113b2565b9050919050565b60008115159050919050565b600073ffffffffffffffffffffffffffffffffffffffff82169050919050565b6000819050919050565b600060ff82169050919050565b60005b838110156114075780820151818401526020810190506113ec565b83811115611416576000848401525b50505050565b6000600282049050600182168061143457607f821691505b602082108114156114485761144761147d565b5b50919050565b7f4e487b7100000000000000000000000000000000000000000000000000000000600052601160045260246000fd5b7f4e487b7100000000000000000000000000000000000000000000000000000000600052602260045260246000fd5b600080fd5b6000601f19601f8301169050919050565b7f45524332303a207472616e7366657220746f20746865207a65726f206164647260008201527f6573730000000000000000000000000000000000000000000000000000000000602082015250565b7f4f776e61626c653a206e6577206f776e657220697320746865207a65726f206160008201527f6464726573730000000000000000000000000000000000000000000000000000602082015250565b7f45524332303a20617070726f766520746f20746865207a65726f20616464726560008201527f7373000000000000000000000000000000000000000000000000000000000000602082015250565b7f45524332303a207472616e7366657220616d6f756e742065786365656473206260008201527f616c616e63650000000000000000000000000000000000000000000000000000602082015250565b7f45524332303a207472616e7366657220616d6f756e742065786365656473206160008201527f6c6c6f77616e6365000000000000000000000000000000000000000000000000602082015250565b7f4f776e61626c653a2063616c6c6572206973206e6f7420746865206f776e6572600082015250565b7f45524332303a207472616e736665722066726f6d20746865207a65726f20616460008201527f6472657373000000000000000000000000000000000000000000000000000000602082015250565b7f45524332303a20617070726f76652066726f6d20746865207a65726f2061646460008201527f7265737300000000000000000000000000000000000000000000000000000000602082015250565b7f45524332303a2064656372656173656420616c6c6f77616e63652062656c6f7760008201527f207a65726f000000000000000000000000000000000000000000000000000000602082015250565b61176c81611394565b811461177757600080fd5b50565b611783816113d2565b811461178e57600080fd5b5056fea264697066735822122027f870dd29f4d53069655b182c138892d514dca64330cf192a0ac37577f4bf8e64736f6c63430008070033",
  "immutableReferences": {},
  "source": "//SPDX-License-Identifier: MIT\npragma solidity ^0.8.0;\n\nimport \"@openzeppelin/contracts/token/ERC20/ERC20.sol\";\nimport \"@openzeppelin/contracts/access/Ownable.sol\";\n\ncontract SigmaToken is ERC20, Ownable {\n    constructor(\n        string memory _name,\n        string memory _symbol,\n        uint256 _totalSupply\n    ) ERC20(_name, _symbol) {\n        _mint(_msgSender(), _totalSupply);\n    }\n}\n",
  "sourcePath": "/Users/azino777/OneLedger-sourcify-example/contracts/SigmaToken.sol",
  "compiler": {
    "name": "solc",
    "version": "0.8.7+commit.e28d00a7.Emscripten.clang"
  },
  "schemaVersion": "3.4.3",
  "updatedAt": "2021-09-16T20:45:23.331Z",
  "networkType": "ethereum",
  "devdoc": {
    "kind": "dev",
    "methods": {
      "allowance(address,address)": {
        "details": "See {IERC20-allowance}."
      },
      "approve(address,uint256)": {
        "details": "See {IERC20-approve}. Requirements: - `spender` cannot be the zero address."
      },
      "balanceOf(address)": {
        "details": "See {IERC20-balanceOf}."
      },
      "decimals()": {
        "details": "Returns the number of decimals used to get its user representation. For example, if `decimals` equals `2`, a balance of `505` tokens should be displayed to a user as `5.05` (`505 / 10 ** 2`). Tokens usually opt for a value of 18, imitating the relationship between Ether and Wei. This is the value {ERC20} uses, unless this function is overridden; NOTE: This information is only used for _display_ purposes: it in no way affects any of the arithmetic of the contract, including {IERC20-balanceOf} and {IERC20-transfer}."
      },
      "decreaseAllowance(address,uint256)": {
        "details": "Atomically decreases the allowance granted to `spender` by the caller. This is an alternative to {approve} that can be used as a mitigation for problems described in {IERC20-approve}. Emits an {Approval} event indicating the updated allowance. Requirements: - `spender` cannot be the zero address. - `spender` must have allowance for the caller of at least `subtractedValue`."
      },
      "increaseAllowance(address,uint256)": {
        "details": "Atomically increases the allowance granted to `spender` by the caller. This is an alternative to {approve} that can be used as a mitigation for problems described in {IERC20-approve}. Emits an {Approval} event indicating the updated allowance. Requirements: - `spender` cannot be the zero address."
      },
      "name()": {
        "details": "Returns the name of the token."
      },
      "owner()": {
        "details": "Returns the address of the current owner."
      },
      "renounceOwnership()": {
        "details": "Leaves the contract without owner. It will not be possible to call `onlyOwner` functions anymore. Can only be called by the current owner. NOTE: Renouncing ownership will leave the contract without an owner, thereby removing any functionality that is only available to the owner."
      },
      "symbol()": {
        "details": "Returns the symbol of the token, usually a shorter version of the name."
      },
      "totalSupply()": {
        "details": "See {IERC20-totalSupply}."
      },
      "transfer(address,uint256)": {
        "details": "See {IERC20-transfer}. Requirements: - `recipient` cannot be the zero address. - the caller must have a balance of at least `amount`."
      },
      "transferFrom(address,address,uint256)": {
        "details": "See {IERC20-transferFrom}. Emits an {Approval} event indicating the updated allowance. This is not required by the EIP. See the note at the beginning of {ERC20}. Requirements: - `sender` and `recipient` cannot be the zero address. - `sender` must have a balance of at least `amount`. - the caller must have allowance for ``sender``'s tokens of at least `amount`."
      },
      "transferOwnership(address)": {
        "details": "Transfers ownership of the contract to a new account (`newOwner`). Can only be called by the current owner."
      }
    },
    "version": 1
  },
  "userdoc": {
    "kind": "user",
    "methods": {},
    "version": 1
  }
}