{
  "contractName": "LERC20Role",
  "abi": [
    {
      "inputs": [
        {
          "internalType": "uint256",
          "name": "totalSupply_",
          "type": "uint256"
        },
        {
          "internalType": "string",
          "name": "name_",
          "type": "string"
        },
        {
          "internalType": "string",
          "name": "symbol_",
          "type": "string"
        },
        {
          "internalType": "address",
          "name": "admin_",
          "type": "address"
        },
        {
          "internalType": "address",
          "name": "recoveryAdmin_",
          "type": "address"
        },
        {
          "internalType": "uint256",
          "name": "timelockPeriod_",
          "type": "uint256"
        },
        {
          "internalType": "address",
          "name": "lossless_",
          "type": "address"
        }
      ],
      "stateMutability": "nonpayable",
      "type": "constructor"
    },
    {
      "anonymous": false,
      "inputs": [
        {
          "indexed": true,
          "internalType": "address",
          "name": "_owner",
          "type": "address"
        },
        {
          "indexed": true,
          "internalType": "address",
          "name": "_spender",
          "type": "address"
        },
        {
          "indexed": false,
          "internalType": "uint256",
          "name": "_value",
          "type": "uint256"
        }
      ],
      "name": "Approval",
      "type": "event"
    },
    {
      "anonymous": false,
      "inputs": [],
      "name": "LosslessOff",
      "type": "event"
    },
    {
      "anonymous": false,
      "inputs": [],
      "name": "LosslessOn",
      "type": "event"
    },
    {
      "anonymous": false,
      "inputs": [
        {
          "indexed": false,
          "internalType": "uint256",
          "name": "_turnOffDate",
          "type": "uint256"
        }
      ],
      "name": "LosslessTurnOffProposal",
      "type": "event"
    },
    {
      "anonymous": false,
      "inputs": [
        {
          "indexed": true,
          "internalType": "address",
          "name": "_newAdmin",
          "type": "address"
        }
      ],
      "name": "NewAdmin",
      "type": "event"
    },
    {
      "anonymous": false,
      "inputs": [
        {
          "indexed": true,
          "internalType": "address",
          "name": "_newAdmin",
          "type": "address"
        }
      ],
      "name": "NewRecoveryAdmin",
      "type": "event"
    },
    {
      "anonymous": false,
      "inputs": [
        {
          "indexed": true,
          "internalType": "address",
          "name": "_candidate",
          "type": "address"
        }
      ],
      "name": "NewRecoveryAdminProposal",
      "type": "event"
    },
    {
      "anonymous": false,
      "inputs": [
        {
          "indexed": true,
          "internalType": "bytes32",
          "name": "role",
          "type": "bytes32"
        },
        {
          "indexed": true,
          "internalType": "bytes32",
          "name": "previousAdminRole",
          "type": "bytes32"
        },
        {
          "indexed": true,
          "internalType": "bytes32",
          "name": "newAdminRole",
          "type": "bytes32"
        }
      ],
      "name": "RoleAdminChanged",
      "type": "event"
    },
    {
      "anonymous": false,
      "inputs": [
        {
          "indexed": true,
          "internalType": "bytes32",
          "name": "role",
          "type": "bytes32"
        },
        {
          "indexed": true,
          "internalType": "address",
          "name": "account",
          "type": "address"
        },
        {
          "indexed": true,
          "internalType": "address",
          "name": "sender",
          "type": "address"
        }
      ],
      "name": "RoleGranted",
      "type": "event"
    },
    {
      "anonymous": false,
      "inputs": [
        {
          "indexed": true,
          "internalType": "bytes32",
          "name": "role",
          "type": "bytes32"
        },
        {
          "indexed": true,
          "internalType": "address",
          "name": "account",
          "type": "address"
        },
        {
          "indexed": true,
          "internalType": "address",
          "name": "sender",
          "type": "address"
        }
      ],
      "name": "RoleRevoked",
      "type": "event"
    },
    {
      "anonymous": false,
      "inputs": [
        {
          "indexed": true,
          "internalType": "address",
          "name": "_from",
          "type": "address"
        },
        {
          "indexed": true,
          "internalType": "address",
          "name": "_to",
          "type": "address"
        },
        {
          "indexed": false,
          "internalType": "uint256",
          "name": "_value",
          "type": "uint256"
        }
      ],
      "name": "Transfer",
      "type": "event"
    },
    {
      "inputs": [],
      "name": "DEFAULT_ADMIN_ROLE",
      "outputs": [
        {
          "internalType": "bytes32",
          "name": "",
          "type": "bytes32"
        }
      ],
      "stateMutability": "view",
      "type": "function"
    },
    {
      "inputs": [],
      "name": "MINTER_ROLE",
      "outputs": [
        {
          "internalType": "bytes32",
          "name": "",
          "type": "bytes32"
        }
      ],
      "stateMutability": "view",
      "type": "function"
    },
    {
      "inputs": [],
      "name": "admin",
      "outputs": [
        {
          "internalType": "address",
          "name": "",
          "type": "address"
        }
      ],
      "stateMutability": "view",
      "type": "function"
    },
    {
      "inputs": [
        {
          "internalType": "bytes32",
          "name": "role",
          "type": "bytes32"
        }
      ],
      "name": "getRoleAdmin",
      "outputs": [
        {
          "internalType": "bytes32",
          "name": "",
          "type": "bytes32"
        }
      ],
      "stateMutability": "view",
      "type": "function"
    },
    {
      "inputs": [
        {
          "internalType": "bytes32",
          "name": "role",
          "type": "bytes32"
        },
        {
          "internalType": "address",
          "name": "account",
          "type": "address"
        }
      ],
      "name": "grantRole",
      "outputs": [],
      "stateMutability": "nonpayable",
      "type": "function"
    },
    {
      "inputs": [
        {
          "internalType": "bytes32",
          "name": "role",
          "type": "bytes32"
        },
        {
          "internalType": "address",
          "name": "account",
          "type": "address"
        }
      ],
      "name": "hasRole",
      "outputs": [
        {
          "internalType": "bool",
          "name": "",
          "type": "bool"
        }
      ],
      "stateMutability": "view",
      "type": "function"
    },
    {
      "inputs": [],
      "name": "isLosslessOn",
      "outputs": [
        {
          "internalType": "bool",
          "name": "",
          "type": "bool"
        }
      ],
      "stateMutability": "view",
      "type": "function"
    },
    {
      "inputs": [],
      "name": "lossless",
      "outputs": [
        {
          "internalType": "contract ILssController",
          "name": "",
          "type": "address"
        }
      ],
      "stateMutability": "view",
      "type": "function"
    },
    {
      "inputs": [],
      "name": "losslessTurnOffTimestamp",
      "outputs": [
        {
          "internalType": "uint256",
          "name": "",
          "type": "uint256"
        }
      ],
      "stateMutability": "view",
      "type": "function"
    },
    {
      "inputs": [],
      "name": "recoveryAdmin",
      "outputs": [
        {
          "internalType": "address",
          "name": "",
          "type": "address"
        }
      ],
      "stateMutability": "view",
      "type": "function"
    },
    {
      "inputs": [
        {
          "internalType": "bytes32",
          "name": "role",
          "type": "bytes32"
        },
        {
          "internalType": "address",
          "name": "account",
          "type": "address"
        }
      ],
      "name": "renounceRole",
      "outputs": [],
      "stateMutability": "nonpayable",
      "type": "function"
    },
    {
      "inputs": [
        {
          "internalType": "bytes32",
          "name": "role",
          "type": "bytes32"
        },
        {
          "internalType": "address",
          "name": "account",
          "type": "address"
        }
      ],
      "name": "revokeRole",
      "outputs": [],
      "stateMutability": "nonpayable",
      "type": "function"
    },
    {
      "inputs": [
        {
          "internalType": "bytes4",
          "name": "interfaceId",
          "type": "bytes4"
        }
      ],
      "name": "supportsInterface",
      "outputs": [
        {
          "internalType": "bool",
          "name": "",
          "type": "bool"
        }
      ],
      "stateMutability": "view",
      "type": "function"
    },
    {
      "inputs": [],
      "name": "timelockPeriod",
      "outputs": [
        {
          "internalType": "uint256",
          "name": "",
          "type": "uint256"
        }
      ],
      "stateMutability": "view",
      "type": "function"
    },
    {
      "inputs": [
        {
          "internalType": "address[]",
          "name": "from",
          "type": "address[]"
        }
      ],
      "name": "transferOutBlacklistedFunds",
      "outputs": [],
      "stateMutability": "nonpayable",
      "type": "function"
    },
    {
      "inputs": [
        {
          "internalType": "address",
          "name": "newAdmin",
          "type": "address"
        }
      ],
      "name": "setLosslessAdmin",
      "outputs": [],
      "stateMutability": "nonpayable",
      "type": "function"
    },
    {
      "inputs": [
        {
          "internalType": "address",
          "name": "candidate",
          "type": "address"
        },
        {
          "internalType": "bytes32",
          "name": "keyHash",
          "type": "bytes32"
        }
      ],
      "name": "transferRecoveryAdminOwnership",
      "outputs": [],
      "stateMutability": "nonpayable",
      "type": "function"
    },
    {
      "inputs": [
        {
          "internalType": "bytes",
          "name": "key",
          "type": "bytes"
        }
      ],
      "name": "acceptRecoveryAdminOwnership",
      "outputs": [],
      "stateMutability": "nonpayable",
      "type": "function"
    },
    {
      "inputs": [],
      "name": "proposeLosslessTurnOff",
      "outputs": [],
      "stateMutability": "nonpayable",
      "type": "function"
    },
    {
      "inputs": [],
      "name": "executeLosslessTurnOff",
      "outputs": [],
      "stateMutability": "nonpayable",
      "type": "function"
    },
    {
      "inputs": [],
      "name": "executeLosslessTurnOn",
      "outputs": [],
      "stateMutability": "nonpayable",
      "type": "function"
    },
    {
      "inputs": [],
      "name": "getAdmin",
      "outputs": [
        {
          "internalType": "address",
          "name": "",
          "type": "address"
        }
      ],
      "stateMutability": "view",
      "type": "function"
    },
    {
      "inputs": [],
      "name": "name",
      "outputs": [
        {
          "internalType": "string",
          "name": "",
          "type": "string"
        }
      ],
      "stateMutability": "view",
      "type": "function"
    },
    {
      "inputs": [],
      "name": "symbol",
      "outputs": [
        {
          "internalType": "string",
          "name": "",
          "type": "string"
        }
      ],
      "stateMutability": "view",
      "type": "function"
    },
    {
      "inputs": [],
      "name": "decimals",
      "outputs": [
        {
          "internalType": "uint8",
          "name": "",
          "type": "uint8"
        }
      ],
      "stateMutability": "view",
      "type": "function"
    },
    {
      "inputs": [],
      "name": "totalSupply",
      "outputs": [
        {
          "internalType": "uint256",
          "name": "",
          "type": "uint256"
        }
      ],
      "stateMutability": "view",
      "type": "function"
    },
    {
      "inputs": [
        {
          "internalType": "address",
          "name": "account",
          "type": "address"
        }
      ],
      "name": "balanceOf",
      "outputs": [
        {
          "internalType": "uint256",
          "name": "",
          "type": "uint256"
        }
      ],
      "stateMutability": "view",
      "type": "function"
    },
    {
      "inputs": [
        {
          "internalType": "address",
          "name": "recipient",
          "type": "address"
        },
        {
          "internalType": "uint256",
          "name": "amount",
          "type": "uint256"
        }
      ],
      "name": "transfer",
      "outputs": [
        {
          "internalType": "bool",
          "name": "",
          "type": "bool"
        }
      ],
      "stateMutability": "nonpayable",
      "type": "function"
    },
    {
      "inputs": [
        {
          "internalType": "address",
          "name": "owner",
          "type": "address"
        },
        {
          "internalType": "address",
          "name": "spender",
          "type": "address"
        }
      ],
      "name": "allowance",
      "outputs": [
        {
          "internalType": "uint256",
          "name": "",
          "type": "uint256"
        }
      ],
      "stateMutability": "view",
      "type": "function"
    },
    {
      "inputs": [
        {
          "internalType": "address",
          "name": "spender",
          "type": "address"
        },
        {
          "internalType": "uint256",
          "name": "amount",
          "type": "uint256"
        }
      ],
      "name": "approve",
      "outputs": [
        {
          "internalType": "bool",
          "name": "",
          "type": "bool"
        }
      ],
      "stateMutability": "nonpayable",
      "type": "function"
    },
    {
      "inputs": [
        {
          "internalType": "address",
          "name": "sender",
          "type": "address"
        },
        {
          "internalType": "address",
          "name": "recipient",
          "type": "address"
        },
        {
          "internalType": "uint256",
          "name": "amount",
          "type": "uint256"
        }
      ],
      "name": "transferFrom",
      "outputs": [
        {
          "internalType": "bool",
          "name": "",
          "type": "bool"
        }
      ],
      "stateMutability": "nonpayable",
      "type": "function"
    },
    {
      "inputs": [
        {
          "internalType": "address",
          "name": "spender",
          "type": "address"
        },
        {
          "internalType": "uint256",
          "name": "addedValue",
          "type": "uint256"
        }
      ],
      "name": "increaseAllowance",
      "outputs": [
        {
          "internalType": "bool",
          "name": "",
          "type": "bool"
        }
      ],
      "stateMutability": "nonpayable",
      "type": "function"
    },
    {
      "inputs": [
        {
          "internalType": "address",
          "name": "spender",
          "type": "address"
        },
        {
          "internalType": "uint256",
          "name": "subtractedValue",
          "type": "uint256"
        }
      ],
      "name": "decreaseAllowance",
      "outputs": [
        {
          "internalType": "bool",
          "name": "",
          "type": "bool"
        }
      ],
      "stateMutability": "nonpayable",
      "type": "function"
    },
    {
      "inputs": [
        {
          "internalType": "address",
          "name": "to",
          "type": "address"
        },
        {
          "internalType": "uint256",
          "name": "amount",
          "type": "uint256"
        }
      ],
      "name": "mint",
      "outputs": [],
      "stateMutability": "nonpayable",
      "type": "function"
    },
    {
      "inputs": [
        {
          "internalType": "address",
          "name": "account",
          "type": "address"
        }
      ],
      "name": "grantMinterRole",
      "outputs": [],
      "stateMutability": "nonpayable",
      "type": "function"
    },
    {
      "inputs": [
        {
          "internalType": "address",
          "name": "account",
          "type": "address"
        }
      ],
      "name": "revokeMinterRole",
      "outputs": [],
      "stateMutability": "nonpayable",
      "type": "function"
    },
    {
      "inputs": [
        {
          "internalType": "address",
          "name": "account",
          "type": "address"
        }
      ],
      "name": "hasMinterRole",
      "outputs": [
        {
          "internalType": "bool",
          "name": "",
          "type": "bool"
        }
      ],
      "stateMutability": "view",
      "type": "function"
    },
    {
      "inputs": [
        {
          "internalType": "uint256",
          "name": "amount",
          "type": "uint256"
        }
      ],
      "name": "burn",
      "outputs": [],
      "stateMutability": "nonpayable",
      "type": "function"
    },
    {
      "inputs": [
        {
          "internalType": "address",
          "name": "account",
          "type": "address"
        },
        {
          "internalType": "uint256",
          "name": "amount",
          "type": "uint256"
        }
      ],
      "name": "burnFrom",
      "outputs": [],
      "stateMutability": "nonpayable",
      "type": "function"
    }
  ],
  "bytecode": "0x60806040526001600c5f6101000a81548160ff0219169083151502179055503480156200002a575f80fd5b5060405162004cd938038062004cd9833981810160405281019062000050919062000777565b62000071620000646200023260201b60201c565b886200023960201b60201c565b856004908162000082919062000a91565b50846005908162000094919062000a91565b508360095f6101000a81548173ffffffffffffffffffffffffffffffffffffffff021916908373ffffffffffffffffffffffffffffffffffffffff1602179055508260065f6101000a81548173ffffffffffffffffffffffffffffffffffffffff021916908373ffffffffffffffffffffffffffffffffffffffff1602179055505f60075f6101000a81548173ffffffffffffffffffffffffffffffffffffffff021916908373ffffffffffffffffffffffffffffffffffffffff1602179055505f60088190555081600a819055505f600b8190555080600c60016101000a81548173ffffffffffffffffffffffffffffffffffffffff021916908373ffffffffffffffffffffffffffffffffffffffff160217905550620001bf5f801b856200037960201b60201c565b620001f17f9f2df0fed2c77648de5860a4cc508cd0818c85b8b8a1ab4ceeef8d981c8956a6856200037960201b60201c565b620002257f9f2df0fed2c77648de5860a4cc508cd0818c85b8b8a1ab4ceeef8d981c8956a65f801b6200038f60201b60201c565b5050505050505062000c86565b5f33905090565b5f73ffffffffffffffffffffffffffffffffffffffff168273ffffffffffffffffffffffffffffffffffffffff1603620002aa576040517f08c379a0000000000000000000000000000000000000000000000000000000008152600401620002a19062000bd3565b60405180910390fd5b8060035f828254620002bd919062000c20565b925050819055508060015f8473ffffffffffffffffffffffffffffffffffffffff1673ffffffffffffffffffffffffffffffffffffffff1681526020019081526020015f205f82825401925050819055508173ffffffffffffffffffffffffffffffffffffffff165f73ffffffffffffffffffffffffffffffffffffffff167fddf252ad1be2c89b69c2b068fc378daa952ba7f163c4a11628f55a4df523b3ef836040516200036d919062000c6b565b60405180910390a35050565b6200038b8282620003ef60201b60201c565b5050565b5f620003a183620004da60201b60201c565b9050815f808581526020019081526020015f20600101819055508181847fbd79b86ffe0ab8e8776151514217cd7cacd52c909f66475c3af44e129f0b00ff60405160405180910390a4505050565b620004018282620004f660201b60201c565b620004d65760015f808481526020019081526020015f205f015f8373ffffffffffffffffffffffffffffffffffffffff1673ffffffffffffffffffffffffffffffffffffffff1681526020019081526020015f205f6101000a81548160ff0219169083151502179055506200047b6200023260201b60201c565b73ffffffffffffffffffffffffffffffffffffffff168173ffffffffffffffffffffffffffffffffffffffff16837f2f8788117e7eff1d82e926ec794901d17c78024a50270940304540a733656f0d60405160405180910390a45b5050565b5f805f8381526020019081526020015f20600101549050919050565b5f805f8481526020019081526020015f205f015f8373ffffffffffffffffffffffffffffffffffffffff1673ffffffffffffffffffffffffffffffffffffffff1681526020019081526020015f205f9054906101000a900460ff16905092915050565b5f604051905090565b5f80fd5b5f80fd5b5f819050919050565b6200057e816200056a565b811462000589575f80fd5b50565b5f815190506200059c8162000573565b92915050565b5f80fd5b5f80fd5b5f601f19601f8301169050919050565b7f4e487b71000000000000000000000000000000000000000000000000000000005f52604160045260245ffd5b620005f282620005aa565b810181811067ffffffffffffffff82111715620006145762000613620005ba565b5b80604052505050565b5f6200062862000559565b9050620006368282620005e7565b919050565b5f67ffffffffffffffff821115620006585762000657620005ba565b5b6200066382620005aa565b9050602081019050919050565b5f5b838110156200068f57808201518184015260208101905062000672565b5f8484015250505050565b5f620006b0620006aa846200063b565b6200061d565b905082815260208101848484011115620006cf57620006ce620005a6565b5b620006dc84828562000670565b509392505050565b5f82601f830112620006fb57620006fa620005a2565b5b81516200070d8482602086016200069a565b91505092915050565b5f73ffffffffffffffffffffffffffffffffffffffff82169050919050565b5f620007418262000716565b9050919050565b620007538162000735565b81146200075e575f80fd5b50565b5f81519050620007718162000748565b92915050565b5f805f805f805f60e0888a03121562000795576200079462000562565b5b5f620007a48a828b016200058c565b975050602088015167ffffffffffffffff811115620007c857620007c762000566565b5b620007d68a828b01620006e4565b965050604088015167ffffffffffffffff811115620007fa57620007f962000566565b5b620008088a828b01620006e4565b95505060606200081b8a828b0162000761565b94505060806200082e8a828b0162000761565b93505060a0620008418a828b016200058c565b92505060c0620008548a828b0162000761565b91505092959891949750929550565b5f81519050919050565b7f4e487b71000000000000000000000000000000000000000000000000000000005f52602260045260245ffd5b5f6002820490506001821680620008b257607f821691505b602082108103620008c857620008c76200086d565b5b50919050565b5f819050815f5260205f209050919050565b5f6020601f8301049050919050565b5f82821b905092915050565b5f600883026200092c7fffffffffffffffffffffffffffffffffffffffffffffffffffffffffffffffff82620008ef565b620009388683620008ef565b95508019841693508086168417925050509392505050565b5f819050919050565b5f62000979620009736200096d846200056a565b62000950565b6200056a565b9050919050565b5f819050919050565b620009948362000959565b620009ac620009a38262000980565b848454620008fb565b825550505050565b5f90565b620009c2620009b4565b620009cf81848462000989565b505050565b5b81811015620009f657620009ea5f82620009b8565b600181019050620009d5565b5050565b601f82111562000a455762000a0f81620008ce565b62000a1a84620008e0565b8101602085101562000a2a578190505b62000a4262000a3985620008e0565b830182620009d4565b50505b505050565b5f82821c905092915050565b5f62000a675f198460080262000a4a565b1980831691505092915050565b5f62000a81838362000a56565b9150826002028217905092915050565b62000a9c8262000863565b67ffffffffffffffff81111562000ab85762000ab7620005ba565b5b62000ac482546200089a565b62000ad1828285620009fa565b5f60209050601f83116001811462000b07575f841562000af2578287015190505b62000afe858262000a74565b86555062000b6d565b601f19841662000b1786620008ce565b5f5b8281101562000b405784890151825560018201915060208501945060208101905062000b19565b8683101562000b60578489015162000b5c601f89168262000a56565b8355505b6001600288020188555050505b505050505050565b5f82825260208201905092915050565b7f4c45524332303a206d696e7420746f20746865207a65726f20616464726573735f82015250565b5f62000bbb60208362000b75565b915062000bc88262000b85565b602082019050919050565b5f6020820190508181035f83015262000bec8162000bad565b9050919050565b7f4e487b71000000000000000000000000000000000000000000000000000000005f52601160045260245ffd5b5f62000c2c826200056a565b915062000c39836200056a565b925082820190508082111562000c545762000c5362000bf3565b5b92915050565b62000c65816200056a565b82525050565b5f60208201905062000c805f83018462000c5a565b92915050565b6140458062000c945f395ff3fe608060405234801561000f575f80fd5b506004361061023b575f3560e01c806361086b0011610139578063a457c2d7116100b6578063d53913931161007a578063d5391393146106b1578063d547741f146106cf578063d6e242b8146106eb578063dd62ed3e146106f5578063f851a440146107255761023b565b8063a457c2d71461060d578063a9059cbb1461063d578063b38fe9571461066d578063b5c2287714610677578063ccfa214f146106935761023b565b806391d14854116100fd57806391d148541461056957806393310ffe14610599578063936af911146105b557806395d89b41146105d1578063a217fddf146105ef5761023b565b806361086b00146104c557806369e2f0fb146104e35780636e9960c3146104ff57806370a082311461051d57806379cc67901461054d5761023b565b80632f2ff15d116101c75780633dd1eb611161018b5780633dd1eb611461044957806340c10f191461046557806342966c68146104815780635b8a194a1461049d5780635f6529a3146104a75761023b565b80632f2ff15d146103a5578063313ce567146103c157806334f6ebf5146103df57806336568abe146103fd57806339509351146104195761023b565b806318160ddd1161020e57806318160ddd146102ed57806323b872dd1461030b578063248a9ca31461033b5780632baa3c9e1461036b5780632ecaf675146103875761023b565b806301ffc9a71461023f57806306fdde031461026f578063095ea7b31461028d578063099db017146102bd575b5f80fd5b61025960048036038101906102549190612c19565b610743565b6040516102669190612c5e565b60405180910390f35b6102776107bc565b6040516102849190612d01565b60405180910390f35b6102a760048036038101906102a29190612dae565b61084c565b6040516102b49190612c5e565b60405180910390f35b6102d760048036038101906102d29190612dec565b610915565b6040516102e49190612c5e565b60405180910390f35b6102f5610947565b6040516103029190612e26565b60405180910390f35b61032560048036038101906103209190612e3f565b610950565b6040516103329190612c5e565b60405180910390f35b61035560048036038101906103509190612ec2565b610afb565b6040516103629190612efc565b60405180910390f35b61038560048036038101906103809190612dec565b610b17565b005b61038f610cc2565b60405161039c9190612e26565b60405180910390f35b6103bf60048036038101906103ba9190612f15565b610cc8565b005b6103c9610cf1565b6040516103d69190612f6e565b60405180910390f35b6103e7610cf9565b6040516103f49190612fe2565b60405180910390f35b61041760048036038101906104129190612f15565b610d1f565b005b610433600480360381019061042e9190612dae565b610da2565b6040516104409190612c5e565b60405180910390f35b610463600480360381019061045e9190612dec565b610ef5565b005b61047f600480360381019061047a9190612dae565b610f22565b005b61049b60048036038101906104969190612ffb565b611043565b005b6104a5611101565b005b6104af611235565b6040516104bc9190613035565b60405180910390f35b6104cd61125a565b6040516104da9190612e26565b60405180910390f35b6104fd60048036038101906104f89190612dec565b611260565b005b61050761128d565b6040516105149190613035565b60405180910390f35b61053760048036038101906105329190612dec565b6112b5565b6040516105449190612e26565b60405180910390f35b61056760048036038101906105629190612dae565b6112fb565b005b610583600480360381019061057e9190612f15565b611418565b6040516105909190612c5e565b60405180910390f35b6105b360048036038101906105ae919061304e565b61147b565b005b6105cf60048036038101906105ca91906130ed565b61159f565b005b6105d961181c565b6040516105e69190612d01565b60405180910390f35b6105f76118ac565b6040516106049190612efc565b60405180910390f35b61062760048036038101906106229190612dae565b6118b2565b6040516106349190612c5e565b60405180910390f35b61065760048036038101906106529190612dae565b611a4d565b6040516106649190612c5e565b60405180910390f35b610675611b16565b005b610691600480360381019061068c9190613260565b611c83565b005b61069b611e6c565b6040516106a89190612c5e565b60405180910390f35b6106b9611e7e565b6040516106c69190612efc565b60405180910390f35b6106e960048036038101906106e49190612f15565b611ea2565b005b6106f3611ecb565b005b61070f600480360381019061070a91906132a7565b612042565b60405161071c9190612e26565b60405180910390f35b61072d6120c4565b60405161073a9190613035565b60405180910390f35b5f7f7965db0b000000000000000000000000000000000000000000000000000000007bffffffffffffffffffffffffffffffffffffffffffffffffffffffff1916827bffffffffffffffffffffffffffffffffffffffffffffffffffffffff191614806107b557506107b4826120e9565b5b9050919050565b6060600480546107cb90613312565b80601f01602080910402602001604051908101604052809291908181526020018280546107f790613312565b80156108425780601f1061081957610100808354040283529160200191610842565b820191905f5260205f20905b81548152906001019060200180831161082557829003601f168201915b5050505050905090565b5f8282600c5f9054906101000a900460ff16156108f757600c60019054906101000a900473ffffffffffffffffffffffffffffffffffffffff1673ffffffffffffffffffffffffffffffffffffffff166347abf3be6108a9612152565b84846040518463ffffffff1660e01b81526004016108c993929190613342565b5f604051808303815f87803b1580156108e0575f80fd5b505af11580156108f2573d5f803e3d5ffd5b505050505b610909610902612152565b8686612159565b60019250505092915050565b5f6109407f9f2df0fed2c77648de5860a4cc508cd0818c85b8b8a1ab4ceeef8d981c8956a683611418565b9050919050565b5f600354905090565b5f838383600c5f9054906101000a900460ff16156109fe57600c60019054906101000a900473ffffffffffffffffffffffffffffffffffffffff1673ffffffffffffffffffffffffffffffffffffffff1663379f5c696109ae612152565b8585856040518563ffffffff1660e01b81526004016109d09493929190613377565b5f604051808303815f87803b1580156109e7575f80fd5b505af11580156109f9573d5f803e3d5ffd5b505050505b5f60025f8973ffffffffffffffffffffffffffffffffffffffff1673ffffffffffffffffffffffffffffffffffffffff1681526020019081526020015f205f610a45612152565b73ffffffffffffffffffffffffffffffffffffffff1673ffffffffffffffffffffffffffffffffffffffff1681526020019081526020015f2054905085811015610ac4576040517f08c379a0000000000000000000000000000000000000000000000000000000008152600401610abb9061342a565b60405180910390fd5b610acf888888612240565b610aec88610adb612152565b8884610ae79190613475565b612159565b60019450505050509392505050565b5f805f8381526020019081526020015f20600101549050919050565b60065f9054906101000a900473ffffffffffffffffffffffffffffffffffffffff1673ffffffffffffffffffffffffffffffffffffffff16610b57612152565b73ffffffffffffffffffffffffffffffffffffffff1614610bad576040517f08c379a0000000000000000000000000000000000000000000000000000000008152600401610ba4906134f2565b60405180910390fd5b60095f9054906101000a900473ffffffffffffffffffffffffffffffffffffffff1673ffffffffffffffffffffffffffffffffffffffff168173ffffffffffffffffffffffffffffffffffffffff1603610c3c576040517f08c379a0000000000000000000000000000000000000000000000000000000008152600401610c339061355a565b60405180910390fd5b8073ffffffffffffffffffffffffffffffffffffffff167f71614071b88dee5e0b2ae578a9dd7b2ebbe9ae832ba419dc0242cd065a290b6c60405160405180910390a28060095f6101000a81548173ffffffffffffffffffffffffffffffffffffffff021916908373ffffffffffffffffffffffffffffffffffffffff16021790555050565b600a5481565b610cd182610afb565b610ce281610cdd612152565b61243d565b610cec83836124d9565b505050565b5f6012905090565b600c60019054906101000a900473ffffffffffffffffffffffffffffffffffffffff1681565b610d27612152565b73ffffffffffffffffffffffffffffffffffffffff168173ffffffffffffffffffffffffffffffffffffffff1614610d94576040517f08c379a0000000000000000000000000000000000000000000000000000000008152600401610d8b906135e8565b60405180910390fd5b610d9e82826125b3565b5050565b5f8282600c5f9054906101000a900460ff1615610e4d57600c60019054906101000a900473ffffffffffffffffffffffffffffffffffffffff1673ffffffffffffffffffffffffffffffffffffffff1663cf5961bb610dff612152565b84846040518463ffffffff1660e01b8152600401610e1f93929190613342565b5f604051808303815f87803b158015610e36575f80fd5b505af1158015610e48573d5f803e3d5ffd5b505050505b610ee9610e58612152565b868660025f610e65612152565b73ffffffffffffffffffffffffffffffffffffffff1673ffffffffffffffffffffffffffffffffffffffff1681526020019081526020015f205f8a73ffffffffffffffffffffffffffffffffffffffff1673ffffffffffffffffffffffffffffffffffffffff1681526020019081526020015f2054610ee49190613606565b612159565b60019250505092915050565b610f1f7f9f2df0fed2c77648de5860a4cc508cd0818c85b8b8a1ab4ceeef8d981c8956a682610cc8565b50565b610f537f9f2df0fed2c77648de5860a4cc508cd0818c85b8b8a1ab4ceeef8d981c8956a6610f4e612152565b611418565b610f92576040517f08c379a0000000000000000000000000000000000000000000000000000000008152600401610f8990613683565b60405180910390fd5b8181600c5f9054906101000a900460ff161561103357600c60019054906101000a900473ffffffffffffffffffffffffffffffffffffffff1673ffffffffffffffffffffffffffffffffffffffff16630628a2c083836040518363ffffffff1660e01b81526004016110059291906136a1565b5f604051808303815f87803b15801561101c575f80fd5b505af115801561102e573d5f803e3d5ffd5b505050505b61103d848461268d565b50505050565b61104b612152565b81600c5f9054906101000a900460ff16156110eb57600c60019054906101000a900473ffffffffffffffffffffffffffffffffffffffff1673ffffffffffffffffffffffffffffffffffffffff16634a1fefbd83836040518363ffffffff1660e01b81526004016110bd9291906136a1565b5f604051808303815f87803b1580156110d4575f80fd5b505af11580156110e6573d5f803e3d5ffd5b505050505b6110fc6110f6612152565b846127c6565b505050565b60065f9054906101000a900473ffffffffffffffffffffffffffffffffffffffff1673ffffffffffffffffffffffffffffffffffffffff16611141612152565b73ffffffffffffffffffffffffffffffffffffffff1614611197576040517f08c379a000000000000000000000000000000000000000000000000000000000815260040161118e906134f2565b60405180910390fd5b600c5f9054906101000a900460ff16156111e6576040517f08c379a00000000000000000000000000000000000000000000000000000000081526004016111dd90613712565b60405180910390fd5b5f600b819055506001600c5f6101000a81548160ff0219169083151502179055507f1ba3b66404043da8297d0b876fa6464f2cb127edfc6626308046d4503028322b60405160405180910390a1565b60065f9054906101000a900473ffffffffffffffffffffffffffffffffffffffff1681565b600b5481565b61128a7f9f2df0fed2c77648de5860a4cc508cd0818c85b8b8a1ab4ceeef8d981c8956a682611ea2565b50565b5f60095f9054906101000a900473ffffffffffffffffffffffffffffffffffffffff16905090565b5f60015f8373ffffffffffffffffffffffffffffffffffffffff1673ffffffffffffffffffffffffffffffffffffffff1681526020019081526020015f20549050919050565b8181600c5f9054906101000a900460ff161561139c57600c60019054906101000a900473ffffffffffffffffffffffffffffffffffffffff1673ffffffffffffffffffffffffffffffffffffffff16634a1fefbd83836040518363ffffffff1660e01b815260040161136e9291906136a1565b5f604051808303815f87803b158015611385575f80fd5b505af1158015611397573d5f803e3d5ffd5b505050505b5f6113ae856113a9612152565b612042565b9050838110156113f3576040517f08c379a00000000000000000000000000000000000000000000000000000000081526004016113ea906137a0565b60405180910390fd5b611407856113ff612152565b868403612159565b61141185856127c6565b5050505050565b5f805f8481526020019081526020015f205f015f8373ffffffffffffffffffffffffffffffffffffffff1673ffffffffffffffffffffffffffffffffffffffff1681526020019081526020015f205f9054906101000a900460ff16905092915050565b60065f9054906101000a900473ffffffffffffffffffffffffffffffffffffffff1673ffffffffffffffffffffffffffffffffffffffff166114bb612152565b73ffffffffffffffffffffffffffffffffffffffff1614611511576040517f08c379a0000000000000000000000000000000000000000000000000000000008152600401611508906134f2565b60405180910390fd5b8160075f6101000a81548173ffffffffffffffffffffffffffffffffffffffff021916908373ffffffffffffffffffffffffffffffffffffffff160217905550806008819055508173ffffffffffffffffffffffffffffffffffffffff167f6c591da8da2f6e69746d7d9ae61c27ee29fbe303798141b4942ae2aef54274b160405160405180910390a25050565b600c60019054906101000a900473ffffffffffffffffffffffffffffffffffffffff1673ffffffffffffffffffffffffffffffffffffffff166115e0612152565b73ffffffffffffffffffffffffffffffffffffffff1614611636576040517f08c379a000000000000000000000000000000000000000000000000000000000815260040161162d90613808565b60405180910390fd5b5f8282905090505f805b828110156117a0575f85858381811061165c5761165b613826565b5b90506020020160208101906116719190612dec565b90505f60015f8373ffffffffffffffffffffffffffffffffffffffff1673ffffffffffffffffffffffffffffffffffffffff1681526020019081526020015f205490505f60015f8473ffffffffffffffffffffffffffffffffffffffff1673ffffffffffffffffffffffffffffffffffffffff1681526020019081526020015f208190555080846117029190613606565b9350600c60019054906101000a900473ffffffffffffffffffffffffffffffffffffffff1673ffffffffffffffffffffffffffffffffffffffff168273ffffffffffffffffffffffffffffffffffffffff167fddf252ad1be2c89b69c2b068fc378daa952ba7f163c4a11628f55a4df523b3ef836040516117839190612e26565b60405180910390a35050808061179890613853565b915050611640565b508060015f600c60019054906101000a900473ffffffffffffffffffffffffffffffffffffffff1673ffffffffffffffffffffffffffffffffffffffff1673ffffffffffffffffffffffffffffffffffffffff1681526020019081526020015f205f82825461180f9190613606565b9250508190555050505050565b60606005805461182b90613312565b80601f016020809104026020016040519081016040528092919081815260200182805461185790613312565b80156118a25780601f10611879576101008083540402835291602001916118a2565b820191905f5260205f20905b81548152906001019060200180831161188557829003601f168201915b5050505050905090565b5f801b81565b5f8282600c5f9054906101000a900460ff161561195d57600c60019054906101000a900473ffffffffffffffffffffffffffffffffffffffff1673ffffffffffffffffffffffffffffffffffffffff1663568c75a961190f612152565b84846040518463ffffffff1660e01b815260040161192f93929190613342565b5f604051808303815f87803b158015611946575f80fd5b505af1158015611958573d5f803e3d5ffd5b505050505b5f60025f611969612152565b73ffffffffffffffffffffffffffffffffffffffff1673ffffffffffffffffffffffffffffffffffffffff1681526020019081526020015f205f8773ffffffffffffffffffffffffffffffffffffffff1673ffffffffffffffffffffffffffffffffffffffff1681526020019081526020015f2054905084811015611a23576040517f08c379a0000000000000000000000000000000000000000000000000000000008152600401611a1a9061390a565b60405180910390fd5b611a40611a2e612152565b878784611a3b9190613475565b612159565b6001935050505092915050565b5f8282600c5f9054906101000a900460ff1615611af857600c60019054906101000a900473ffffffffffffffffffffffffffffffffffffffff1673ffffffffffffffffffffffffffffffffffffffff16631ffb811f611aaa612152565b84846040518463ffffffff1660e01b8152600401611aca93929190613342565b5f604051808303815f87803b158015611ae1575f80fd5b505af1158015611af3573d5f803e3d5ffd5b505050505b611b0a611b03612152565b8686612240565b60019250505092915050565b60065f9054906101000a900473ffffffffffffffffffffffffffffffffffffffff1673ffffffffffffffffffffffffffffffffffffffff16611b56612152565b73ffffffffffffffffffffffffffffffffffffffff1614611bac576040517f08c379a0000000000000000000000000000000000000000000000000000000008152600401611ba3906134f2565b60405180910390fd5b5f600b5403611bf0576040517f08c379a0000000000000000000000000000000000000000000000000000000008152600401611be790613972565b60405180910390fd5b42600b541115611c35576040517f08c379a0000000000000000000000000000000000000000000000000000000008152600401611c2c906139da565b60405180910390fd5b5f600c5f6101000a81548160ff0219169083151502179055505f600b819055507f3eb72350c9c7928d31e9ab450bfff2c159434aa4b82658a7d8eae7f109cb4e7b60405160405180910390a1565b60075f9054906101000a900473ffffffffffffffffffffffffffffffffffffffff1673ffffffffffffffffffffffffffffffffffffffff16611cc3612152565b73ffffffffffffffffffffffffffffffffffffffff1614611d19576040517f08c379a0000000000000000000000000000000000000000000000000000000008152600401611d1090613a42565b60405180910390fd5b600854818051906020012014611d64576040517f08c379a0000000000000000000000000000000000000000000000000000000008152600401611d5b90613aaa565b60405180910390fd5b60075f9054906101000a900473ffffffffffffffffffffffffffffffffffffffff1673ffffffffffffffffffffffffffffffffffffffff167fb94bba6936ec7f75ee931dadf6e1a4d66b43d09b6fa0178fb13df9b77fb5841f60405160405180910390a260075f9054906101000a900473ffffffffffffffffffffffffffffffffffffffff1660065f6101000a81548173ffffffffffffffffffffffffffffffffffffffff021916908373ffffffffffffffffffffffffffffffffffffffff1602179055505f60075f6101000a81548173ffffffffffffffffffffffffffffffffffffffff021916908373ffffffffffffffffffffffffffffffffffffffff16021790555050565b600c5f9054906101000a900460ff1681565b7f9f2df0fed2c77648de5860a4cc508cd0818c85b8b8a1ab4ceeef8d981c8956a681565b611eab82610afb565b611ebc81611eb7612152565b61243d565b611ec683836125b3565b505050565b60065f9054906101000a900473ffffffffffffffffffffffffffffffffffffffff1673ffffffffffffffffffffffffffffffffffffffff16611f0b612152565b73ffffffffffffffffffffffffffffffffffffffff1614611f61576040517f08c379a0000000000000000000000000000000000000000000000000000000008152600401611f58906134f2565b60405180910390fd5b5f600b5414611fa5576040517f08c379a0000000000000000000000000000000000000000000000000000000008152600401611f9c90613b12565b60405180910390fd5b600c5f9054906101000a900460ff16611ff3576040517f08c379a0000000000000000000000000000000000000000000000000000000008152600401611fea90613b7a565b60405180910390fd5b600a54426120019190613606565b600b819055507f6ca688e6e3ddd707280140b2bf0106afe883689b6c74e68cbd517576dd9c245a600b546040516120389190612e26565b60405180910390a1565b5f60025f8473ffffffffffffffffffffffffffffffffffffffff1673ffffffffffffffffffffffffffffffffffffffff1681526020019081526020015f205f8373ffffffffffffffffffffffffffffffffffffffff1673ffffffffffffffffffffffffffffffffffffffff1681526020019081526020015f2054905092915050565b60095f9054906101000a900473ffffffffffffffffffffffffffffffffffffffff1681565b5f7f01ffc9a7000000000000000000000000000000000000000000000000000000007bffffffffffffffffffffffffffffffffffffffffffffffffffffffff1916827bffffffffffffffffffffffffffffffffffffffffffffffffffffffff1916149050919050565b5f33905090565b8060025f8573ffffffffffffffffffffffffffffffffffffffff1673ffffffffffffffffffffffffffffffffffffffff1681526020019081526020015f205f8473ffffffffffffffffffffffffffffffffffffffff1673ffffffffffffffffffffffffffffffffffffffff1681526020019081526020015f20819055508173ffffffffffffffffffffffffffffffffffffffff168373ffffffffffffffffffffffffffffffffffffffff167f8c5be1e5ebec7d5bd14f71427d1e84f3dd0314c0f7b2291e5b200ac8c7c3b925836040516122339190612e26565b60405180910390a3505050565b5f73ffffffffffffffffffffffffffffffffffffffff168373ffffffffffffffffffffffffffffffffffffffff16036122ae576040517f08c379a00000000000000000000000000000000000000000000000000000000081526004016122a590613c08565b60405180910390fd5b5f60015f8573ffffffffffffffffffffffffffffffffffffffff1673ffffffffffffffffffffffffffffffffffffffff1681526020019081526020015f2054905081811015612332576040517f08c379a000000000000000000000000000000000000000000000000000000000815260040161232990613c96565b60405180910390fd5b818161233e9190613475565b60015f8673ffffffffffffffffffffffffffffffffffffffff1673ffffffffffffffffffffffffffffffffffffffff1681526020019081526020015f20819055508160015f8573ffffffffffffffffffffffffffffffffffffffff1673ffffffffffffffffffffffffffffffffffffffff1681526020019081526020015f205f8282546123cb9190613606565b925050819055508273ffffffffffffffffffffffffffffffffffffffff168473ffffffffffffffffffffffffffffffffffffffff167fddf252ad1be2c89b69c2b068fc378daa952ba7f163c4a11628f55a4df523b3ef8460405161242f9190612e26565b60405180910390a350505050565b6124478282611418565b6124d55761246c8173ffffffffffffffffffffffffffffffffffffffff16601461297e565b612479835f1c602061297e565b60405160200161248a929190613d82565b6040516020818303038152906040526040517f08c379a00000000000000000000000000000000000000000000000000000000081526004016124cc9190612d01565b60405180910390fd5b5050565b6124e38282611418565b6125af5760015f808481526020019081526020015f205f015f8373ffffffffffffffffffffffffffffffffffffffff1673ffffffffffffffffffffffffffffffffffffffff1681526020019081526020015f205f6101000a81548160ff021916908315150217905550612554612152565b73ffffffffffffffffffffffffffffffffffffffff168173ffffffffffffffffffffffffffffffffffffffff16837f2f8788117e7eff1d82e926ec794901d17c78024a50270940304540a733656f0d60405160405180910390a45b5050565b6125bd8282611418565b15612689575f805f8481526020019081526020015f205f015f8373ffffffffffffffffffffffffffffffffffffffff1673ffffffffffffffffffffffffffffffffffffffff1681526020019081526020015f205f6101000a81548160ff02191690831515021790555061262e612152565b73ffffffffffffffffffffffffffffffffffffffff168173ffffffffffffffffffffffffffffffffffffffff16837ff6391f5c32d9c69d2a47ea670b442974b53935d1edc7fd64eb21e047a839171b60405160405180910390a45b5050565b5f73ffffffffffffffffffffffffffffffffffffffff168273ffffffffffffffffffffffffffffffffffffffff16036126fb576040517f08c379a00000000000000000000000000000000000000000000000000000000081526004016126f290613e05565b60405180910390fd5b8060035f82825461270c9190613606565b925050819055508060015f8473ffffffffffffffffffffffffffffffffffffffff1673ffffffffffffffffffffffffffffffffffffffff1681526020019081526020015f205f82825401925050819055508173ffffffffffffffffffffffffffffffffffffffff165f73ffffffffffffffffffffffffffffffffffffffff167fddf252ad1be2c89b69c2b068fc378daa952ba7f163c4a11628f55a4df523b3ef836040516127ba9190612e26565b60405180910390a35050565b5f73ffffffffffffffffffffffffffffffffffffffff168273ffffffffffffffffffffffffffffffffffffffff1603612834576040517f08c379a000000000000000000000000000000000000000000000000000000000815260040161282b90613e93565b60405180910390fd5b5f60015f8473ffffffffffffffffffffffffffffffffffffffff1673ffffffffffffffffffffffffffffffffffffffff1681526020019081526020015f20549050818110156128b8576040517f08c379a00000000000000000000000000000000000000000000000000000000081526004016128af90613f21565b60405180910390fd5b81810360015f8573ffffffffffffffffffffffffffffffffffffffff1673ffffffffffffffffffffffffffffffffffffffff1681526020019081526020015f20819055508160035f82825461290d9190613475565b925050819055505f73ffffffffffffffffffffffffffffffffffffffff168373ffffffffffffffffffffffffffffffffffffffff167fddf252ad1be2c89b69c2b068fc378daa952ba7f163c4a11628f55a4df523b3ef846040516129719190612e26565b60405180910390a3505050565b60605f60028360026129909190613f3f565b61299a9190613606565b67ffffffffffffffff8111156129b3576129b261313c565b5b6040519080825280601f01601f1916602001820160405280156129e55781602001600182028036833780820191505090505b5090507f3000000000000000000000000000000000000000000000000000000000000000815f81518110612a1c57612a1b613826565b5b60200101907effffffffffffffffffffffffffffffffffffffffffffffffffffffffffffff191690815f1a9053507f780000000000000000000000000000000000000000000000000000000000000081600181518110612a7f57612a7e613826565b5b60200101907effffffffffffffffffffffffffffffffffffffffffffffffffffffffffffff191690815f1a9053505f6001846002612abd9190613f3f565b612ac79190613606565b90505b6001811115612b66577f3031323334353637383961626364656600000000000000000000000000000000600f861660108110612b0957612b08613826565b5b1a60f81b828281518110612b2057612b1f613826565b5b60200101907effffffffffffffffffffffffffffffffffffffffffffffffffffffffffffff191690815f1a905350600485901c945080612b5f90613f80565b9050612aca565b505f8414612ba9576040517f08c379a0000000000000000000000000000000000000000000000000000000008152600401612ba090613ff1565b60405180910390fd5b8091505092915050565b5f604051905090565b5f80fd5b5f80fd5b5f7fffffffff0000000000000000000000000000000000000000000000000000000082169050919050565b612bf881612bc4565b8114612c02575f80fd5b50565b5f81359050612c1381612bef565b92915050565b5f60208284031215612c2e57612c2d612bbc565b5b5f612c3b84828501612c05565b91505092915050565b5f8115159050919050565b612c5881612c44565b82525050565b5f602082019050612c715f830184612c4f565b92915050565b5f81519050919050565b5f82825260208201905092915050565b5f5b83811015612cae578082015181840152602081019050612c93565b5f8484015250505050565b5f601f19601f8301169050919050565b5f612cd382612c77565b612cdd8185612c81565b9350612ced818560208601612c91565b612cf681612cb9565b840191505092915050565b5f6020820190508181035f830152612d198184612cc9565b905092915050565b5f73ffffffffffffffffffffffffffffffffffffffff82169050919050565b5f612d4a82612d21565b9050919050565b612d5a81612d40565b8114612d64575f80fd5b50565b5f81359050612d7581612d51565b92915050565b5f819050919050565b612d8d81612d7b565b8114612d97575f80fd5b50565b5f81359050612da881612d84565b92915050565b5f8060408385031215612dc457612dc3612bbc565b5b5f612dd185828601612d67565b9250506020612de285828601612d9a565b9150509250929050565b5f60208284031215612e0157612e00612bbc565b5b5f612e0e84828501612d67565b91505092915050565b612e2081612d7b565b82525050565b5f602082019050612e395f830184612e17565b92915050565b5f805f60608486031215612e5657612e55612bbc565b5b5f612e6386828701612d67565b9350506020612e7486828701612d67565b9250506040612e8586828701612d9a565b9150509250925092565b5f819050919050565b612ea181612e8f565b8114612eab575f80fd5b50565b5f81359050612ebc81612e98565b92915050565b5f60208284031215612ed757612ed6612bbc565b5b5f612ee484828501612eae565b91505092915050565b612ef681612e8f565b82525050565b5f602082019050612f0f5f830184612eed565b92915050565b5f8060408385031215612f2b57612f2a612bbc565b5b5f612f3885828601612eae565b9250506020612f4985828601612d67565b9150509250929050565b5f60ff82169050919050565b612f6881612f53565b82525050565b5f602082019050612f815f830184612f5f565b92915050565b5f819050919050565b5f612faa612fa5612fa084612d21565b612f87565b612d21565b9050919050565b5f612fbb82612f90565b9050919050565b5f612fcc82612fb1565b9050919050565b612fdc81612fc2565b82525050565b5f602082019050612ff55f830184612fd3565b92915050565b5f602082840312156130105761300f612bbc565b5b5f61301d84828501612d9a565b91505092915050565b61302f81612d40565b82525050565b5f6020820190506130485f830184613026565b92915050565b5f806040838503121561306457613063612bbc565b5b5f61307185828601612d67565b925050602061308285828601612eae565b9150509250929050565b5f80fd5b5f80fd5b5f80fd5b5f8083601f8401126130ad576130ac61308c565b5b8235905067ffffffffffffffff8111156130ca576130c9613090565b5b6020830191508360208202830111156130e6576130e5613094565b5b9250929050565b5f806020838503121561310357613102612bbc565b5b5f83013567ffffffffffffffff8111156131205761311f612bc0565b5b61312c85828601613098565b92509250509250929050565b5f80fd5b7f4e487b71000000000000000000000000000000000000000000000000000000005f52604160045260245ffd5b61317282612cb9565b810181811067ffffffffffffffff821117156131915761319061313c565b5b80604052505050565b5f6131a3612bb3565b90506131af8282613169565b919050565b5f67ffffffffffffffff8211156131ce576131cd61313c565b5b6131d782612cb9565b9050602081019050919050565b828183375f83830152505050565b5f6132046131ff846131b4565b61319a565b9050828152602081018484840111156132205761321f613138565b5b61322b8482856131e4565b509392505050565b5f82601f8301126132475761324661308c565b5b81356132578482602086016131f2565b91505092915050565b5f6020828403121561327557613274612bbc565b5b5f82013567ffffffffffffffff81111561329257613291612bc0565b5b61329e84828501613233565b91505092915050565b5f80604083850312156132bd576132bc612bbc565b5b5f6132ca85828601612d67565b92505060206132db85828601612d67565b9150509250929050565b7f4e487b71000000000000000000000000000000000000000000000000000000005f52602260045260245ffd5b5f600282049050600182168061332957607f821691505b60208210810361333c5761333b6132e5565b5b50919050565b5f6060820190506133555f830186613026565b6133626020830185613026565b61336f6040830184612e17565b949350505050565b5f60808201905061338a5f830187613026565b6133976020830186613026565b6133a46040830185613026565b6133b16060830184612e17565b95945050505050565b7f4c45524332303a207472616e7366657220616d6f756e742065786365656473205f8201527f616c6c6f77616e63650000000000000000000000000000000000000000000000602082015250565b5f613414602983612c81565b915061341f826133ba565b604082019050919050565b5f6020820190508181035f83015261344181613408565b9050919050565b7f4e487b71000000000000000000000000000000000000000000000000000000005f52601160045260245ffd5b5f61347f82612d7b565b915061348a83612d7b565b92508282039050818111156134a2576134a1613448565b5b92915050565b7f4c45524332303a204d757374206265207265636f766572792061646d696e00005f82015250565b5f6134dc601e83612c81565b91506134e7826134a8565b602082019050919050565b5f6020820190508181035f830152613509816134d0565b9050919050565b7f4c45524332303a2043616e6e6f74207365742073616d652061646472657373005f82015250565b5f613544601f83612c81565b915061354f82613510565b602082019050919050565b5f6020820190508181035f83015261357181613538565b9050919050565b7f416363657373436f6e74726f6c3a2063616e206f6e6c792072656e6f756e63655f8201527f20726f6c657320666f722073656c660000000000000000000000000000000000602082015250565b5f6135d2602f83612c81565b91506135dd82613578565b604082019050919050565b5f6020820190508181035f8301526135ff816135c6565b9050919050565b5f61361082612d7b565b915061361b83612d7b565b925082820190508082111561363357613632613448565b5b92915050565b7f4c45524332303a2043616c6c6572206973206e6f742061206d696e74657200005f82015250565b5f61366d601e83612c81565b915061367882613639565b602082019050919050565b5f6020820190508181035f83015261369a81613661565b9050919050565b5f6040820190506136b45f830185613026565b6136c16020830184612e17565b9392505050565b7f4c45524332303a204c6f73736c65737320616c7265616479206f6e00000000005f82015250565b5f6136fc601b83612c81565b9150613707826136c8565b602082019050919050565b5f6020820190508181035f830152613729816136f0565b9050919050565b7f45524332303a206275726e20616d6f756e74206578636565647320616c6c6f775f8201527f616e636500000000000000000000000000000000000000000000000000000000602082015250565b5f61378a602483612c81565b915061379582613730565b604082019050919050565b5f6020820190508181035f8301526137b78161377e565b9050919050565b7f4c45524332303a204f6e6c79206c6f73736c65737320636f6e747261637400005f82015250565b5f6137f2601e83612c81565b91506137fd826137be565b602082019050919050565b5f6020820190508181035f83015261381f816137e6565b9050919050565b7f4e487b71000000000000000000000000000000000000000000000000000000005f52603260045260245ffd5b5f61385d82612d7b565b91507fffffffffffffffffffffffffffffffffffffffffffffffffffffffffffffffff820361388f5761388e613448565b5b600182019050919050565b7f4c45524332303a2064656372656173656420616c6c6f77616e63652062656c6f5f8201527f77207a65726f0000000000000000000000000000000000000000000000000000602082015250565b5f6138f4602683612c81565b91506138ff8261389a565b604082019050919050565b5f6020820190508181035f830152613921816138e8565b9050919050565b7f4c45524332303a205475726e4f6666206e6f742070726f706f736564000000005f82015250565b5f61395c601c83612c81565b915061396782613928565b602082019050919050565b5f6020820190508181035f83015261398981613950565b9050919050565b7f4c45524332303a2054696d65206c6f636b20696e2070726f67726573730000005f82015250565b5f6139c4601d83612c81565b91506139cf82613990565b602082019050919050565b5f6020820190508181035f8301526139f1816139b8565b9050919050565b7f4c45524332303a204d7573742062652063616e646974617465000000000000005f82015250565b5f613a2c601983612c81565b9150613a37826139f8565b602082019050919050565b5f6020820190508181035f830152613a5981613a20565b9050919050565b7f4c45524332303a20496e76616c6964206b6579000000000000000000000000005f82015250565b5f613a94601383612c81565b9150613a9f82613a60565b602082019050919050565b5f6020820190508181035f830152613ac181613a88565b9050919050565b7f4c45524332303a205475726e4f666620616c72656164792070726f706f7365645f82015250565b5f613afc602083612c81565b9150613b0782613ac8565b602082019050919050565b5f6020820190508181035f830152613b2981613af0565b9050919050565b7f4c45524332303a204c6f73736c65737320616c7265616479206f6666000000005f82015250565b5f613b64601c83612c81565b9150613b6f82613b30565b602082019050919050565b5f6020820190508181035f830152613b9181613b58565b9050919050565b7f4c45524332303a207472616e736665722066726f6d20746865207a65726f20615f8201527f6464726573730000000000000000000000000000000000000000000000000000602082015250565b5f613bf2602683612c81565b9150613bfd82613b98565b604082019050919050565b5f6020820190508181035f830152613c1f81613be6565b9050919050565b7f4c45524332303a207472616e7366657220616d6f756e742065786365656473205f8201527f62616c616e636500000000000000000000000000000000000000000000000000602082015250565b5f613c80602783612c81565b9150613c8b82613c26565b604082019050919050565b5f6020820190508181035f830152613cad81613c74565b9050919050565b5f81905092915050565b7f416363657373436f6e74726f6c3a206163636f756e74200000000000000000005f82015250565b5f613cf2601783613cb4565b9150613cfd82613cbe565b601782019050919050565b5f613d1282612c77565b613d1c8185613cb4565b9350613d2c818560208601612c91565b80840191505092915050565b7f206973206d697373696e6720726f6c65200000000000000000000000000000005f82015250565b5f613d6c601183613cb4565b9150613d7782613d38565b601182019050919050565b5f613d8c82613ce6565b9150613d988285613d08565b9150613da382613d60565b9150613daf8284613d08565b91508190509392505050565b7f4c45524332303a206d696e7420746f20746865207a65726f20616464726573735f82015250565b5f613def602083612c81565b9150613dfa82613dbb565b602082019050919050565b5f6020820190508181035f830152613e1c81613de3565b9050919050565b7f45524332303a206275726e2066726f6d20746865207a65726f206164647265735f8201527f7300000000000000000000000000000000000000000000000000000000000000602082015250565b5f613e7d602183612c81565b9150613e8882613e23565b604082019050919050565b5f6020820190508181035f830152613eaa81613e71565b9050919050565b7f45524332303a206275726e20616d6f756e7420657863656564732062616c616e5f8201527f6365000000000000000000000000000000000000000000000000000000000000602082015250565b5f613f0b602283612c81565b9150613f1682613eb1565b604082019050919050565b5f6020820190508181035f830152613f3881613eff565b9050919050565b5f613f4982612d7b565b9150613f5483612d7b565b9250828202613f6281612d7b565b91508282048414831517613f7957613f78613448565b5b5092915050565b5f613f8a82612d7b565b91505f8203613f9c57613f9b613448565b5b600182039050919050565b7f537472696e67733a20686578206c656e67746820696e73756666696369656e745f82015250565b5f613fdb602083612c81565b9150613fe682613fa7565b602082019050919050565b5f6020820190508181035f83015261400881613fcf565b905091905056fea2646970667358221220e13a80aa0da2e9991ff1172ca16583daeb6735a5ee94f34c586d2c1b1ebca77564736f6c63430008140033",
  "immutableReferences": {},
  "source": "//SPDX-License-Identifier: Unlicense\npragma solidity ^0.8.0;\n\nimport \"../Interfaces/ILosslessERC20.sol\";\nimport \"../Interfaces/ILosslessController.sol\";\nimport \"./AccessControl.sol\";\n\ncontract LERC20Role is  ILERC20, AccessControl {\n    mapping (address => uint256) private _balances;\n    mapping (address => mapping (address => uint256)) private _allowances;\n    uint256 private _totalSupply;\n    string private _name;\n    string private _symbol;\n\n    address public recoveryAdmin;\n    address private recoveryAdminCandidate;\n    bytes32 private recoveryAdminKeyHash;\n    address override public admin;\n    uint256 public timelockPeriod;\n    uint256 public losslessTurnOffTimestamp;\n    bool public isLosslessOn = true;\n    ILssController public lossless;\n    bytes32 public constant MINTER_ROLE = keccak256(\"MINTER_ROLE\");\n\n    constructor(uint256 totalSupply_, string memory name_, string memory symbol_, address admin_, address recoveryAdmin_, uint256 timelockPeriod_, address lossless_) {\n        _mint(_msgSender(), totalSupply_);\n        _name = name_;\n        _symbol = symbol_;\n        admin = admin_;\n        recoveryAdmin = recoveryAdmin_;\n        recoveryAdminCandidate = address(0);\n        recoveryAdminKeyHash = \"\";\n        timelockPeriod = timelockPeriod_;\n        losslessTurnOffTimestamp = 0;\n        lossless = ILssController(lossless_);\n        _setupRole(DEFAULT_ADMIN_ROLE, admin_);\n        _setupRole(MINTER_ROLE, admin_);\n        _setRoleAdmin(MINTER_ROLE, DEFAULT_ADMIN_ROLE);\n    }\n\n    modifier onlyMinter() {\n        require(hasRole(MINTER_ROLE, _msgSender()), \"LERC20: Caller is not a minter\");\n        _;\n    }\n\n\n\n\n    // --- LOSSLESS modifiers ---\n\n    modifier lssAprove(address spender, uint256 amount) {\n        if (isLosslessOn) {\n            lossless.beforeApprove(_msgSender(), spender, amount);\n        } \n        _;\n    }\n\n    modifier lssTransfer(address recipient, uint256 amount) {\n        if (isLosslessOn) {\n            lossless.beforeTransfer(_msgSender(), recipient, amount);\n        } \n        _;\n    }\n\n    modifier lssTransferFrom(address sender, address recipient, uint256 amount) {\n        if (isLosslessOn) {\n            lossless.beforeTransferFrom(_msgSender(),sender, recipient, amount);\n        }\n        _;\n    }\n\n    modifier lssIncreaseAllowance(address spender, uint256 addedValue) {\n        if (isLosslessOn) {\n            lossless.beforeIncreaseAllowance(_msgSender(), spender, addedValue);\n        }\n        _;\n    }\n\n    modifier lssDecreaseAllowance(address spender, uint256 subtractedValue) {\n        if (isLosslessOn) {\n            lossless.beforeDecreaseAllowance(_msgSender(), spender, subtractedValue);\n        }\n        _;\n    }\n\n    modifier onlyRecoveryAdmin() {\n        require(_msgSender() == recoveryAdmin, \"LERC20: Must be recovery admin\");\n        _;\n    }\n\n    modifier lssMint(address account, uint256 amount) {\n        if (isLosslessOn) {\n            lossless.beforeMint(account, amount);\n        } \n        _;\n    }\n\n\n    modifier lssBurn(address account, uint256 amount) {\n        if (isLosslessOn) {\n            lossless.beforeBurn(account, amount);\n        } \n        _;\n    }\n\n\n    function _msgSender() internal view virtual override returns (address) {\n        return msg.sender;\n    }\n\n    function _msgData() internal view virtual override returns (bytes calldata) {\n        this; // silence state mutability warning without generating bytecode - see https://github.com/ethereum/solidity/issues/2691\n        return msg.data;\n    }\n\n    // --- LOSSLESS management ---\n    function transferOutBlacklistedFunds(address[] calldata from) override external {\n        require(_msgSender() == address(lossless), \"LERC20: Only lossless contract\");\n\n        uint256 fromLength = from.length;\n        uint256 totalAmount = 0;\n        \n        for (uint256 i = 0; i < fromLength; i++) {\n            address fromAddress = from[i];\n            uint256 fromBalance = _balances[fromAddress];\n            _balances[fromAddress] = 0;\n            totalAmount += fromBalance;\n            emit Transfer(fromAddress, address(lossless), fromBalance);\n        }\n\n        _balances[address(lossless)] += totalAmount;\n    }\n\n    function setLosslessAdmin(address newAdmin) override external onlyRecoveryAdmin {\n        require(newAdmin != admin, \"LERC20: Cannot set same address\");\n        emit NewAdmin(newAdmin);\n        admin = newAdmin;\n    }\n   \n   \n    // function setBridgeHandler(address newBridgeHandler) override external onlyRecoveryAdmin {\n    //     require(newBridgeHandler != bridgeHandler, \"LERC20: Cannot set same address\");\n    //     emit NewBridgeHandler(newBridgeHandler);\n    //     bridgeHandler = newBridgeHandler;\n    // }\n    \n\n    function transferRecoveryAdminOwnership(address candidate, bytes32 keyHash) override  external onlyRecoveryAdmin {\n        recoveryAdminCandidate = candidate;\n        recoveryAdminKeyHash = keyHash;\n        emit NewRecoveryAdminProposal(candidate);\n    }\n\n    function acceptRecoveryAdminOwnership(bytes memory key) override external {\n        require(_msgSender() == recoveryAdminCandidate, \"LERC20: Must be canditate\");\n        require(keccak256(key) == recoveryAdminKeyHash, \"LERC20: Invalid key\");\n        emit NewRecoveryAdmin(recoveryAdminCandidate);\n        recoveryAdmin = recoveryAdminCandidate;\n        recoveryAdminCandidate = address(0);\n    }\n\n    function proposeLosslessTurnOff() override external onlyRecoveryAdmin {\n        require(losslessTurnOffTimestamp == 0, \"LERC20: TurnOff already proposed\");\n        require(isLosslessOn, \"LERC20: Lossless already off\");\n        losslessTurnOffTimestamp = block.timestamp + timelockPeriod;\n        emit LosslessTurnOffProposal(losslessTurnOffTimestamp);\n    }\n\n    function executeLosslessTurnOff() override external onlyRecoveryAdmin {\n        require(losslessTurnOffTimestamp != 0, \"LERC20: TurnOff not proposed\");\n        require(losslessTurnOffTimestamp <= block.timestamp, \"LERC20: Time lock in progress\");\n        isLosslessOn = false;\n        losslessTurnOffTimestamp = 0;\n        emit LosslessOff();\n    }\n\n    function executeLosslessTurnOn() override external onlyRecoveryAdmin {\n        require(!isLosslessOn, \"LERC20: Lossless already on\");\n        losslessTurnOffTimestamp = 0;\n        isLosslessOn = true;\n        emit LosslessOn();\n    }\n\n    function getAdmin() override public view virtual returns (address) {\n        return admin;\n    }\n\n    // --- ERC20 methods ---\n\n    function name() override public view virtual returns (string memory) {\n        return _name;\n    }\n\n    function symbol() override public view virtual returns (string memory) {\n        return _symbol;\n    }\n\n    function decimals() override public view virtual returns (uint8) {\n        return 18;\n    }\n\n    function totalSupply() public view virtual override returns (uint256) {\n        return _totalSupply;\n    }\n\n    function balanceOf(address account) public view virtual override returns (uint256) {\n        return _balances[account];\n    }\n\n    function transfer(address recipient, uint256 amount) public virtual override lssTransfer(recipient, amount) returns (bool) {\n        _transfer(_msgSender(), recipient, amount);\n        return true;\n    }\n\n    function allowance(address owner, address spender) public view virtual override returns (uint256) {\n        return _allowances[owner][spender];\n    }\n\n    function approve(address spender, uint256 amount) public virtual override lssAprove(spender, amount) returns (bool) {\n        _approve(_msgSender(), spender, amount);\n        return true;\n    }\n\n    function transferFrom(address sender, address recipient, uint256 amount) public virtual override lssTransferFrom(sender, recipient, amount) returns (bool) {\n        uint256 currentAllowance = _allowances[sender][_msgSender()];\n        require(currentAllowance >= amount, \"LERC20: transfer amount exceeds allowance\");\n        _transfer(sender, recipient, amount);\n        \n        _approve(sender, _msgSender(), currentAllowance - amount);\n\n        return true;\n    }\n\n    function increaseAllowance(address spender, uint256 addedValue) override public virtual lssIncreaseAllowance(spender, addedValue) returns (bool) {\n        _approve(_msgSender(), spender, _allowances[_msgSender()][spender] + addedValue);\n        return true;\n    }\n\n    function decreaseAllowance(address spender, uint256 subtractedValue) override public virtual lssDecreaseAllowance(spender, subtractedValue) returns (bool) {\n        uint256 currentAllowance = _allowances[_msgSender()][spender];\n        require(currentAllowance >= subtractedValue, \"LERC20: decreased allowance below zero\");\n        _approve(_msgSender(), spender, currentAllowance - subtractedValue);\n\n        return true;\n    }\n\n    function _transfer(address sender, address recipient, uint256 amount) internal virtual {\n        require(sender != address(0), \"LERC20: transfer from the zero address\");\n\n        uint256 senderBalance = _balances[sender];\n        require(senderBalance >= amount, \"LERC20: transfer amount exceeds balance\");\n        _balances[sender] = senderBalance - amount;\n        _balances[recipient] += amount;\n\n        emit Transfer(sender, recipient, amount);\n    }\n\n    function _mint(address account, uint256 amount) internal virtual {\n        require(account != address(0), \"LERC20: mint to the zero address\");\n    \n        _totalSupply += amount;\n\n        // Cannot overflow because the sum of all user\n        // balances can't exceed the max uint256 value.\n        unchecked { \n            _balances[account] += amount;\n        }\n        emit Transfer(address(0), account, amount);\n    }\n\n    function mint(address to, uint256 amount) public virtual onlyMinter lssMint(to, amount) {\n        _mint(to, amount);\n    }\n\n\n    function grantMinterRole(address account) public {\n        grantRole(MINTER_ROLE, account);\n    }\n\n    function revokeMinterRole(address account) public {\n        revokeRole(MINTER_ROLE, account);\n    }\n\n    function hasMinterRole(address account) public view returns (bool) {\n        return hasRole(MINTER_ROLE, account);\n    }\n\n    function _burn(address account, uint256 amount) internal virtual {\n        require(account != address(0), \"ERC20: burn from the zero address\");\n\n        uint256 accountBalance = _balances[account];\n        require(accountBalance >= amount, \"ERC20: burn amount exceeds balance\");\n        unchecked {\n            _balances[account] = accountBalance - amount;\n        }\n        _totalSupply -= amount;\n\n        emit Transfer(account, address(0), amount);\n    }\n\n    function burn(uint256 amount) public virtual lssBurn(_msgSender(), amount) {\n        _burn(_msgSender(), amount);\n    }\n\n    function burnFrom(address account, uint256 amount) public virtual lssBurn(account, amount) {\n        uint256 currentAllowance = allowance(account, _msgSender());\n        require(currentAllowance >= amount, \"ERC20: burn amount exceeds allowance\");\n        unchecked {\n            _approve(account, _msgSender(), currentAllowance - amount);\n        }\n        _burn(account, amount);\n    }\n\n    function _approve(address owner, address spender, uint256 amount) internal virtual {\n        _allowances[owner][spender] = amount;\n        emit Approval(owner, spender, amount);\n    }\n}\n\n\n",
  "sourcePath": "/home/vaival/Desktop/solidity-flattener-master/lossless-demo (1)/scripts/lossless-v3/contracts/utils/LERC20-role.sol",
  "compiler": {
    "name": "solc",
    "version": "0.8.20+commit.a1b79de6.Emscripten.clang"
  },
  "schemaVersion": "3.4.14",
  "updatedAt": "2023-06-07T12:05:32.911Z",
  "devdoc": {
    "events": {
      "RoleAdminChanged(bytes32,bytes32,bytes32)": {
        "details": "Emitted when `newAdminRole` is set as ``role``'s admin role, replacing `previousAdminRole` `DEFAULT_ADMIN_ROLE` is the starting admin for all roles, despite {RoleAdminChanged} not being emitted signaling this. _Available since v3.1._"
      },
      "RoleGranted(bytes32,address,address)": {
        "details": "Emitted when `account` is granted `role`. `sender` is the account that originated the contract call, an admin role bearer except when using {AccessControl-_setupRole}."
      },
      "RoleRevoked(bytes32,address,address)": {
        "details": "Emitted when `account` is revoked `role`. `sender` is the account that originated the contract call:   - if using `revokeRole`, it is the admin role bearer   - if using `renounceRole`, it is the role bearer (i.e. `account`)"
      }
    },
    "kind": "dev",
    "methods": {
      "getRoleAdmin(bytes32)": {
        "details": "Returns the admin role that controls `role`. See {grantRole} and {revokeRole}. To change a role's admin, use {_setRoleAdmin}."
      },
      "grantRole(bytes32,address)": {
        "details": "Grants `role` to `account`. If `account` had not been already granted `role`, emits a {RoleGranted} event. Requirements: - the caller must have ``role``'s admin role."
      },
      "hasRole(bytes32,address)": {
        "details": "Returns `true` if `account` has been granted `role`."
      },
      "renounceRole(bytes32,address)": {
        "details": "Revokes `role` from the calling account. Roles are often managed via {grantRole} and {revokeRole}: this function's purpose is to provide a mechanism for accounts to lose their privileges if they are compromised (such as when a trusted device is misplaced). If the calling account had been granted `role`, emits a {RoleRevoked} event. Requirements: - the caller must be `account`."
      },
      "revokeRole(bytes32,address)": {
        "details": "Revokes `role` from `account`. If `account` had been granted `role`, emits a {RoleRevoked} event. Requirements: - the caller must have ``role``'s admin role."
      },
      "supportsInterface(bytes4)": {
        "details": "See {IERC165-supportsInterface}."
      }
    },
    "version": 1
  },
  "userdoc": {
    "kind": "user",
    "methods": {},
    "version": 1
  }
}